{
  "_format": "hh-sol-artifact-1",
  "contractName": "REXReferralTest",
  "sourceName": "contracts/test/REXReferralTest.sol",
  "abi": [
    {
      "anonymous": false,
      "inputs": [
        {
          "indexed": false,
          "internalType": "string",
          "name": "name",
          "type": "string"
        },
        {
          "indexed": false,
          "internalType": "string",
          "name": "id",
          "type": "string"
        }
      ],
      "name": "AffiliateApplied",
      "type": "event"
    },
    {
      "anonymous": false,
      "inputs": [
        {
          "indexed": false,
          "internalType": "string",
          "name": "affiliateId",
          "type": "string"
        }
      ],
      "name": "AffiliateWithdrawn",
      "type": "event"
    },
    {
      "anonymous": false,
      "inputs": [
        {
          "indexed": true,
          "internalType": "bytes32",
          "name": "role",
          "type": "bytes32"
        },
        {
          "indexed": true,
          "internalType": "bytes32",
          "name": "previousAdminRole",
          "type": "bytes32"
        },
        {
          "indexed": true,
          "internalType": "bytes32",
          "name": "newAdminRole",
          "type": "bytes32"
        }
      ],
      "name": "RoleAdminChanged",
      "type": "event"
    },
    {
      "anonymous": false,
      "inputs": [
        {
          "indexed": true,
          "internalType": "bytes32",
          "name": "role",
          "type": "bytes32"
        },
        {
          "indexed": true,
          "internalType": "address",
          "name": "account",
          "type": "address"
        },
        {
          "indexed": true,
          "internalType": "address",
          "name": "sender",
          "type": "address"
        }
      ],
      "name": "RoleGranted",
      "type": "event"
    },
    {
      "anonymous": false,
      "inputs": [
        {
          "indexed": true,
          "internalType": "bytes32",
          "name": "role",
          "type": "bytes32"
        },
        {
          "indexed": true,
          "internalType": "address",
          "name": "account",
          "type": "address"
        },
        {
          "indexed": true,
          "internalType": "address",
          "name": "sender",
          "type": "address"
        }
      ],
      "name": "RoleRevoked",
      "type": "event"
    },
    {
      "inputs": [],
      "name": "APP_ROLE",
      "outputs": [
        {
          "internalType": "bytes32",
          "name": "",
          "type": "bytes32"
        }
      ],
      "stateMutability": "view",
      "type": "function"
    },
    {
      "inputs": [],
      "name": "DEFAULT_ADMIN_ROLE",
      "outputs": [
        {
          "internalType": "bytes32",
          "name": "",
          "type": "bytes32"
        }
      ],
      "stateMutability": "view",
      "type": "function"
    },
    {
      "inputs": [
        {
          "internalType": "address",
          "name": "",
          "type": "address"
        }
      ],
      "name": "addressToAffiliate",
      "outputs": [
        {
          "internalType": "uint256",
          "name": "",
          "type": "uint256"
        }
      ],
      "stateMutability": "view",
      "type": "function"
    },
    {
      "inputs": [
        {
          "internalType": "string",
          "name": "",
          "type": "string"
        }
      ],
      "name": "affiliateIdToAffiliate",
      "outputs": [
        {
          "internalType": "uint256",
          "name": "",
          "type": "uint256"
        }
      ],
      "stateMutability": "view",
      "type": "function"
    },
    {
      "inputs": [
        {
          "internalType": "uint256",
          "name": "",
          "type": "uint256"
        }
      ],
      "name": "affiliates",
      "outputs": [
        {
          "internalType": "string",
          "name": "name",
          "type": "string"
        },
        {
          "internalType": "string",
          "name": "id",
          "type": "string"
        },
        {
          "internalType": "bool",
          "name": "enabled",
          "type": "bool"
        },
        {
          "internalType": "uint256",
          "name": "totalRef",
          "type": "uint256"
        },
        {
          "internalType": "address",
          "name": "addr",
          "type": "address"
        }
      ],
      "stateMutability": "view",
      "type": "function"
    },
    {
      "inputs": [
        {
          "internalType": "string",
          "name": "name",
          "type": "string"
        },
        {
          "internalType": "string",
          "name": "affiliateId",
          "type": "string"
        }
      ],
      "name": "applyForAffiliate",
      "outputs": [],
      "stateMutability": "nonpayable",
      "type": "function"
    },
    {
      "inputs": [
        {
          "internalType": "address",
          "name": "newAddress",
          "type": "address"
        }
      ],
      "name": "changeAffiliateAddress",
      "outputs": [],
      "stateMutability": "nonpayable",
      "type": "function"
    },
    {
      "inputs": [
        {
          "internalType": "address",
          "name": "",
          "type": "address"
        }
      ],
      "name": "customerToAffiliate",
      "outputs": [
        {
          "internalType": "uint256",
          "name": "",
          "type": "uint256"
        }
      ],
      "stateMutability": "view",
      "type": "function"
    },
    {
      "inputs": [
        {
          "internalType": "string",
          "name": "affiliateId",
          "type": "string"
        }
      ],
      "name": "disableAffiliate",
      "outputs": [],
      "stateMutability": "nonpayable",
      "type": "function"
    },
    {
      "inputs": [
        {
          "internalType": "address",
          "name": "customerAddr",
          "type": "address"
        }
      ],
      "name": "getAffiliateAddress",
      "outputs": [
        {
          "internalType": "address",
          "name": "",
          "type": "address"
        }
      ],
      "stateMutability": "view",
      "type": "function"
    },
    {
      "inputs": [
        {
          "internalType": "bytes32",
          "name": "role",
          "type": "bytes32"
        }
      ],
      "name": "getRoleAdmin",
      "outputs": [
        {
          "internalType": "bytes32",
          "name": "",
          "type": "bytes32"
        }
      ],
      "stateMutability": "view",
      "type": "function"
    },
    {
      "inputs": [
        {
          "internalType": "bytes32",
          "name": "role",
          "type": "bytes32"
        },
        {
          "internalType": "uint256",
          "name": "index",
          "type": "uint256"
        }
      ],
      "name": "getRoleMember",
      "outputs": [
        {
          "internalType": "address",
          "name": "",
          "type": "address"
        }
      ],
      "stateMutability": "view",
      "type": "function"
    },
    {
      "inputs": [
        {
          "internalType": "bytes32",
          "name": "role",
          "type": "bytes32"
        }
      ],
      "name": "getRoleMemberCount",
      "outputs": [
        {
          "internalType": "uint256",
          "name": "",
          "type": "uint256"
        }
      ],
      "stateMutability": "view",
      "type": "function"
    },
    {
      "inputs": [
        {
          "internalType": "bytes32",
          "name": "role",
          "type": "bytes32"
        },
        {
          "internalType": "address",
          "name": "account",
          "type": "address"
        }
      ],
      "name": "grantRole",
      "outputs": [],
      "stateMutability": "nonpayable",
      "type": "function"
    },
    {
      "inputs": [
        {
          "internalType": "bytes32",
          "name": "role",
          "type": "bytes32"
        },
        {
          "internalType": "address",
          "name": "account",
          "type": "address"
        }
      ],
      "name": "hasRole",
      "outputs": [
        {
          "internalType": "bool",
          "name": "",
          "type": "bool"
        }
      ],
      "stateMutability": "view",
      "type": "function"
    },
    {
      "inputs": [
        {
          "internalType": "string",
          "name": "affiliateId",
          "type": "string"
        }
      ],
      "name": "isAffiliateEnabled",
      "outputs": [
        {
          "internalType": "bool",
          "name": "",
          "type": "bool"
        }
      ],
      "stateMutability": "view",
      "type": "function"
    },
    {
      "inputs": [
        {
          "internalType": "address",
          "name": "",
          "type": "address"
        }
      ],
      "name": "isCustomerOrganic",
      "outputs": [
        {
          "internalType": "bool",
          "name": "",
          "type": "bool"
        }
      ],
      "stateMutability": "view",
      "type": "function"
    },
    {
      "inputs": [
        {
          "internalType": "address",
          "name": "contractAddr",
          "type": "address"
        }
      ],
      "name": "registerApp",
      "outputs": [],
      "stateMutability": "nonpayable",
      "type": "function"
    },
    {
      "inputs": [
        {
          "internalType": "address",
          "name": "userAddr",
          "type": "address"
        }
      ],
      "name": "registerOrganicUserTest",
      "outputs": [],
      "stateMutability": "nonpayable",
      "type": "function"
    },
    {
      "inputs": [
        {
          "internalType": "address",
          "name": "userAddr",
          "type": "address"
        },
        {
          "internalType": "string",
          "name": "affiliateId",
          "type": "string"
        }
      ],
      "name": "registerReferredUserTest",
      "outputs": [],
      "stateMutability": "nonpayable",
      "type": "function"
    },
    {
      "inputs": [
        {
          "internalType": "bytes32",
          "name": "role",
          "type": "bytes32"
        },
        {
          "internalType": "address",
          "name": "account",
          "type": "address"
        }
      ],
      "name": "renounceRole",
      "outputs": [],
      "stateMutability": "nonpayable",
      "type": "function"
    },
    {
      "inputs": [
        {
          "internalType": "bytes32",
          "name": "role",
          "type": "bytes32"
        },
        {
          "internalType": "address",
          "name": "account",
          "type": "address"
        }
      ],
      "name": "revokeRole",
      "outputs": [],
      "stateMutability": "nonpayable",
      "type": "function"
    },
    {
      "inputs": [
        {
          "internalType": "address",
          "name": "customerAddr",
          "type": "address"
        },
        {
          "internalType": "string",
          "name": "affiliateId",
          "type": "string"
        }
      ],
      "name": "safeRegisterCustomer",
      "outputs": [],
      "stateMutability": "nonpayable",
      "type": "function"
    },
    {
      "inputs": [
        {
          "internalType": "address",
          "name": "userAddr",
          "type": "address"
        },
        {
          "internalType": "string",
          "name": "affiliateId",
          "type": "string"
        }
      ],
      "name": "safeRegisterUserTest",
      "outputs": [],
      "stateMutability": "nonpayable",
      "type": "function"
    },
    {
      "inputs": [
        {
          "internalType": "bytes4",
          "name": "interfaceId",
          "type": "bytes4"
        }
      ],
      "name": "supportsInterface",
      "outputs": [
        {
          "internalType": "bool",
          "name": "",
          "type": "bool"
        }
      ],
      "stateMutability": "view",
      "type": "function"
    },
    {
      "inputs": [
        {
          "internalType": "address",
          "name": "contractAddr",
          "type": "address"
        }
      ],
      "name": "unregisterApp",
      "outputs": [],
      "stateMutability": "nonpayable",
      "type": "function"
    },
    {
      "inputs": [
        {
          "internalType": "string",
          "name": "affiliateId",
          "type": "string"
        }
      ],
      "name": "verifyAffiliate",
      "outputs": [],
      "stateMutability": "nonpayable",
      "type": "function"
    },
    {
      "inputs": [],
      "name": "withdrawAffiliate",
      "outputs": [],
      "stateMutability": "nonpayable",
      "type": "function"
    }
  ],
  "bytecode": "0x60806040523480156200001157600080fd5b506200001f6000336200015f565b6200004c7f7b98b41c1b69918066115c47a3fabea25b5765269638096b0143b9ee263737be6000620001a2565b6040805160e081018252600760a082018181526647656e6573697360c81b60c08401528252825180840184529081526667656e6573697360c81b60208281019190915280830191909152600092820183905260608201839052608082018390526006805460018101825593528151805192936005027ff652222313e28459528d920b65115c16c04f3efc82aaedc97be59f3f377c0d3f0192620000f3928492019062000300565b5060208281015180516200010e926001850192019062000300565b50604082015160028201805460ff191691151591909117905560608201516003820155608090910151600490910180546001600160a01b0319166001600160a01b03909216919091179055620003e3565b620001768282620001ed60201b620011231760201c565b60008281526001602090815260409091206200019d918390620011a76200028e821b17901c565b505050565b600082815260208190526040808220600101805490849055905190918391839186917fbd79b86ffe0ab8e8776151514217cd7cacd52c909f66475c3af44e129f0b00ff9190a4505050565b6000828152602081815260408083206001600160a01b038516845290915290205460ff166200028a576000828152602081815260408083206001600160a01b03851684529091529020805460ff19166001179055620002493390565b6001600160a01b0316816001600160a01b0316837f2f8788117e7eff1d82e926ec794901d17c78024a50270940304540a733656f0d60405160405180910390a45b5050565b6000620002a5836001600160a01b038416620002ae565b90505b92915050565b6000818152600183016020526040812054620002f757508154600181810184556000848152602080822090930184905584548482528286019093526040902091909155620002a8565b506000620002a8565b8280546200030e90620003a6565b90600052602060002090601f0160209004810192826200033257600085556200037d565b82601f106200034d57805160ff19168380011785556200037d565b828001600101855582156200037d579182015b828111156200037d57825182559160200191906001019062000360565b506200038b9291506200038f565b5090565b5b808211156200038b576000815560010162000390565b600181811c90821680620003bb57607f821691505b60208210811415620003dd57634e487b7160e01b600052602260045260246000fd5b50919050565b611f6180620003f36000396000f3fe608060405234801561001057600080fd5b50600436106101c45760003560e01c80635d4bea1d116100f957806391d1485411610097578063ca15c87311610071578063ca15c87314610405578063ce2aafe114610418578063d547741f1461042b578063ff3204ac1461043e57600080fd5b806391d14854146103ca578063a217fddf146103dd578063bfdd83f3146103e557600080fd5b8063758fb4d4116100d3578063758fb4d41461037c5780637e2bbbbf1461038f5780637ecd66f8146103a25780639010d07c146103b757600080fd5b80635d4bea1d14610343578063740356d0146103565780637493f3fd1461036957600080fd5b8063248a9ca31161016657806336568abe1161014057806336568abe146102f75780633671c7171461030a5780634a2f43a51461031d5780634aaaf9fd1461033057600080fd5b8063248a9ca3146102ae5780632b8f9835146102d15780632f2ff15d146102e457600080fd5b806315ec6720116101a257806315ec67201461024a57806317a1d80f146102545780631bd7874814610267578063212204d91461028b57600080fd5b806301ffc9a7146101c95780630e9ebfbf146101f1578063145bc5b11461021c575b600080fd5b6101dc6101d7366004611bb5565b610469565b60405190151581526020015b60405180910390f35b6102046101ff366004611aeb565b610494565b6040516001600160a01b0390911681526020016101e8565b61023c61022a366004611aeb565b60046020526000908152604090205481565b6040519081526020016101e8565b6102526106a5565b005b610252610262366004611aeb565b6108b0565b61027a610275366004611b51565b6108cb565b6040516101e8959493929190611d6d565b6101dc610299366004611aeb565b60056020526000908152604090205460ff1681565b61023c6102bc366004611b51565b60009081526020819052604090206001015490565b6102526102df366004611bdd565b610a30565b6102526102f2366004611b69565b610ae1565b610252610305366004611b69565b610b0c565b610252610318366004611c18565b610b8a565b61025261032b366004611b05565b610dad565b61025261033e366004611b05565b610e95565b610252610351366004611aeb565b610e9f565b610252610364366004611bdd565b610eb7565b610252610377366004611aeb565b610f15565b61025261038a366004611b05565b610feb565b6101dc61039d366004611bdd565b610ff5565b61023c600080516020611f0c83398151915281565b6102046103c5366004611b94565b611095565b6101dc6103d8366004611b69565b6110b4565b61023c600081565b61023c6103f3366004611aeb565b60026020526000908152604090205481565b61023c610413366004611b51565b6110dd565b610252610426366004611aeb565b6110f4565b610252610439366004611b69565b6110fd565b61023c61044c366004611bdd565b805160208183018101805160038252928201919093012091525481565b60006001600160e01b03198216635a05180f60e01b148061048e575061048e826111bc565b92915050565b6001600160a01b03811660009081526005602052604081205460ff16806104d157506001600160a01b038216600090815260046020526040902054155b156104de57506000919050565b6001600160a01b03821660009081526004602052604081205460068054909190811061051a57634e487b7160e01b600052603260045260246000fd5b90600052602060002090600502016040518060a001604052908160008201805461054390611eaa565b80601f016020809104026020016040519081016040528092919081815260200182805461056f90611eaa565b80156105bc5780601f10610591576101008083540402835291602001916105bc565b820191906000526020600020905b81548152906001019060200180831161059f57829003601f168201915b505050505081526020016001820180546105d590611eaa565b80601f016020809104026020016040519081016040528092919081815260200182805461060190611eaa565b801561064e5780601f106106235761010080835404028352916020019161064e565b820191906000526020600020905b81548152906001019060200180831161063157829003601f168201915b5050509183525050600282015460ff161515602082015260038201546040808301919091526004909201546001600160a01b031660609091015281015190915061069b5750600092915050565b6080015192915050565b336000908152600260205260409020546106da5760405162461bcd60e51b81526004016106d190611db9565b60405180910390fd5b3360009081526002602052604090205460068054909190811061070d57634e487b7160e01b600052603260045260246000fd5b600091825260209091206002600590920201015460ff16156107715760405162461bcd60e51b815260206004820152601c60248201527f416666696c6961746520697320616c726561647920656e61626c65640000000060448201526064016106d1565b336000908152600260205260408120546006805490919081106107a457634e487b7160e01b600052603260045260246000fd5b906000526020600020906005020160010180546107c090611eaa565b80601f01602080910402602001604051908101604052809291908181526020018280546107ec90611eaa565b80156108395780601f1061080e57610100808354040283529160200191610839565b820191906000526020600020905b81548152906001019060200180831161081c57829003601f168201915b5050336000908152600260205260408082208290555194955093600393506108649250859150611c9b565b9081526020016040518091039020819055507f3b5ca57944f3a4aea8415e0d233225d45d5d428f0d68ac1e865a4bcaa809b6b1816040516108a59190611d2c565b60405180910390a150565b6108c8600080516020611f0c83398151915282610ae1565b50565b600681815481106108db57600080fd5b90600052602060002090600502016000915090508060000180546108fe90611eaa565b80601f016020809104026020016040519081016040528092919081815260200182805461092a90611eaa565b80156109775780601f1061094c57610100808354040283529160200191610977565b820191906000526020600020905b81548152906001019060200180831161095a57829003601f168201915b50505050509080600101805461098c90611eaa565b80601f01602080910402602001604051908101604052809291908181526020018280546109b890611eaa565b8015610a055780601f106109da57610100808354040283529160200191610a05565b820191906000526020600020905b8154815290600101906020018083116109e857829003601f168201915b5050505060028301546003840154600490940154929360ff909116929091506001600160a01b031685565b610a3b6000336111f1565b806000600382604051610a4e9190611c9b565b90815260200160405180910390205411610a7a5760405162461bcd60e51b81526004016106d190611db9565b60016006600384604051610a8e9190611c9b565b90815260200160405180910390205481548110610abb57634e487b7160e01b600052603260045260246000fd5b60009182526020909120600590910201600201805460ff19169115159190911790555050565b600082815260208190526040902060010154610afd81336111f1565b610b078383611255565b505050565b6001600160a01b0381163314610b7c5760405162461bcd60e51b815260206004820152602f60248201527f416363657373436f6e74726f6c3a2063616e206f6e6c792072656e6f756e636560448201526e103937b632b9903337b91039b2b63360891b60648201526084016106d1565b610b868282611277565b5050565b3360009081526002602052604090205415610bd95760405162461bcd60e51b815260206004820152600f60248201526e105b1c9958591e48185c1c1b1a5959608a1b60448201526064016106d1565b600381604051610be99190611c9b565b908152602001604051809103902054600014610c475760405162461bcd60e51b815260206004820152601b60248201527f416666696c6961746520494420616c726561647920657869737473000000000060448201526064016106d1565b6040805160a0810182528381526020808201849052600092820183905260608201839052336080830152600680546001810182559352815180519293849360059091027ff652222313e28459528d920b65115c16c04f3efc82aaedc97be59f3f377c0d3f0192610cbb9284929101906119af565b506020828101518051610cd492600185019201906119af565b50604082015160028201805460ff191691151591909117905560608201516003820155608090910151600490910180546001600160a01b0319166001600160a01b03909216919091179055600654610d2e90600190611e4c565b33600090815260026020526040902055600654610d4d90600190611e4c565b600383604051610d5d9190611c9b565b9081526020016040518091039020819055507fc806ffe6748910a923eb73c0fe95de2ccb564cc4d63382074a460f74a4eb70ed8383604051610da0929190611d3f565b60405180910390a1505050565b610dc5600080516020611f0c833981519152336111f1565b6001600160a01b03821660009081526005602052604090205460ff1615610dea575050565b6000610df583610494565b6001600160a01b031614610e07575050565b8051610e1657610b8682611299565b6000600382604051610e289190611c9b565b90815260200160405180910390205490508060001480610e7d575060068181548110610e6457634e487b7160e01b600052603260045260246000fd5b600091825260209091206002600590920201015460ff16155b15610e8b57610b0783611299565b610b07838361134b565b610b868282610dad565b6108c8600080516020611f0c833981519152826110fd565b610ec26000336111f1565b806000600382604051610ed59190611c9b565b90815260200160405180910390205411610f015760405162461bcd60e51b81526004016106d190611db9565b60006006600384604051610a8e9190611c9b565b33600090815260026020526040902054610f415760405162461bcd60e51b81526004016106d190611db9565b806001600160a01b038116610f685760405162461bcd60e51b81526004016106d190611de8565b336000908152600260205260408120546006805491929183908110610f9d57634e487b7160e01b600052603260045260246000fd5b6000918252602080832060046005909302019190910180546001600160a01b039097166001600160a01b03199097168717905533825260029052604080822082905594815293909320555050565b610b86828261134b565b600081600060038260405161100a9190611c9b565b908152602001604051809103902054116110365760405162461bcd60e51b81526004016106d190611db9565b60066003846040516110489190611c9b565b9081526020016040518091039020548154811061107557634e487b7160e01b600052603260045260246000fd5b600091825260209091206002600590920201015460ff1691505b50919050565b60008281526001602052604081206110ad9083611599565b9392505050565b6000918252602082815260408084206001600160a01b0393909316845291905290205460ff1690565b600081815260016020526040812061048e906115a5565b6108c881611299565b60008281526020819052604090206001015461111981336111f1565b610b078383611277565b61112d82826110b4565b610b86576000828152602081815260408083206001600160a01b03851684529091529020805460ff191660011790556111633390565b6001600160a01b0316816001600160a01b0316837f2f8788117e7eff1d82e926ec794901d17c78024a50270940304540a733656f0d60405160405180910390a45050565b60006110ad836001600160a01b0384166115af565b60006001600160e01b03198216637965db0b60e01b148061048e57506301ffc9a760e01b6001600160e01b031983161461048e565b6111fb82826110b4565b610b8657611213816001600160a01b031660146115fe565b61121e8360206115fe565b60405160200161122f929190611cb7565b60408051601f198184030181529082905262461bcd60e51b82526106d191600401611d2c565b61125f8282611123565b6000828152600160205260409020610b0790826111a7565b61128182826117e0565b6000828152600160205260409020610b079082611845565b806001600160a01b0381166112c05760405162461bcd60e51b81526004016106d190611de8565b6001600160a01b038216600090815260046020526040902054156113265760405162461bcd60e51b815260206004820152601f60248201527f416c7265616479207265676973746572656420746f20616666696c696174650060448201526064016106d1565b506001600160a01b03166000908152600560205260409020805460ff19166001179055565b80600060038260405161135e9190611c9b565b9081526020016040518091039020541161138a5760405162461bcd60e51b81526004016106d190611db9565b826001600160a01b0381166113b15760405162461bcd60e51b81526004016106d190611de8565b6001600160a01b03841660009081526005602052604090205460ff161561141a5760405162461bcd60e51b815260206004820152601e60248201527f416c72656164792072656769737465726564206f7267616e6963616c6c79000060448201526064016106d1565b6001600160a01b038416600090815260046020526040902054156114805760405162461bcd60e51b815260206004820152601f60248201527f416c7265616479207265676973746572656420746f20616666696c696174650060448201526064016106d1565b60006003846040516114929190611c9b565b9081526020016040518091039020549050600681815481106114c457634e487b7160e01b600052603260045260246000fd5b600091825260209091206002600590920201015460ff16151560011461152c5760405162461bcd60e51b815260206004820152601760248201527f416666696c69617465206973206e6f742061637469766500000000000000000060448201526064016106d1565b6001600160a01b038516600090815260046020526040902081905560068054600191908390811061156d57634e487b7160e01b600052603260045260246000fd5b9060005260206000209060050201600301600082825461158d9190611e15565b90915550505050505050565b60006110ad838361185a565b600061048e825490565b60008181526001830160205260408120546115f65750815460018181018455600084815260208082209093018490558454848252828601909352604090209190915561048e565b50600061048e565b6060600061160d836002611e2d565b611618906002611e15565b67ffffffffffffffff81111561163e57634e487b7160e01b600052604160045260246000fd5b6040519080825280601f01601f191660200182016040528015611668576020820181803683370190505b509050600360fc1b8160008151811061169157634e487b7160e01b600052603260045260246000fd5b60200101906001600160f81b031916908160001a905350600f60fb1b816001815181106116ce57634e487b7160e01b600052603260045260246000fd5b60200101906001600160f81b031916908160001a90535060006116f2846002611e2d565b6116fd906001611e15565b90505b6001811115611791576f181899199a1a9b1b9c1cb0b131b232b360811b85600f166010811061173f57634e487b7160e01b600052603260045260246000fd5b1a60f81b82828151811061176357634e487b7160e01b600052603260045260246000fd5b60200101906001600160f81b031916908160001a90535060049490941c9361178a81611e93565b9050611700565b5083156110ad5760405162461bcd60e51b815260206004820181905260248201527f537472696e67733a20686578206c656e67746820696e73756666696369656e7460448201526064016106d1565b6117ea82826110b4565b15610b86576000828152602081815260408083206001600160a01b0385168085529252808320805460ff1916905551339285917ff6391f5c32d9c69d2a47ea670b442974b53935d1edc7fd64eb21e047a839171b9190a45050565b60006110ad836001600160a01b038416611892565b600082600001828154811061187f57634e487b7160e01b600052603260045260246000fd5b9060005260206000200154905092915050565b600081815260018301602052604081205480156119a55760006118b6600183611e4c565b85549091506000906118ca90600190611e4c565b905081811461194b5760008660000182815481106118f857634e487b7160e01b600052603260045260246000fd5b906000526020600020015490508087600001848154811061192957634e487b7160e01b600052603260045260246000fd5b6000918252602080832090910192909255918252600188019052604090208390555b855486908061196a57634e487b7160e01b600052603160045260246000fd5b60019003818190600052602060002001600090559055856001016000868152602001908152602001600020600090556001935050505061048e565b600091505061048e565b8280546119bb90611eaa565b90600052602060002090601f0160209004810192826119dd5760008555611a23565b82601f106119f657805160ff1916838001178555611a23565b82800160010185558215611a23579182015b82811115611a23578251825591602001919060010190611a08565b50611a2f929150611a33565b5090565b5b80821115611a2f5760008155600101611a34565b80356001600160a01b0381168114611a5f57600080fd5b919050565b600082601f830112611a74578081fd5b813567ffffffffffffffff80821115611a8f57611a8f611ef5565b604051601f8301601f19908116603f01168101908282118183101715611ab757611ab7611ef5565b81604052838152866020858801011115611acf578485fd5b8360208701602083013792830160200193909352509392505050565b600060208284031215611afc578081fd5b6110ad82611a48565b60008060408385031215611b17578081fd5b611b2083611a48565b9150602083013567ffffffffffffffff811115611b3b578182fd5b611b4785828601611a64565b9150509250929050565b600060208284031215611b62578081fd5b5035919050565b60008060408385031215611b7b578182fd5b82359150611b8b60208401611a48565b90509250929050565b60008060408385031215611ba6578182fd5b50508035926020909101359150565b600060208284031215611bc6578081fd5b81356001600160e01b0319811681146110ad578182fd5b600060208284031215611bee578081fd5b813567ffffffffffffffff811115611c04578182fd5b611c1084828501611a64565b949350505050565b60008060408385031215611c2a578182fd5b823567ffffffffffffffff80821115611c41578384fd5b611c4d86838701611a64565b93506020850135915080821115611c62578283fd5b50611b4785828601611a64565b60008151808452611c87816020860160208601611e63565b601f01601f19169290920160200192915050565b60008251611cad818460208701611e63565b9190910192915050565b7f416363657373436f6e74726f6c3a206163636f756e7420000000000000000000815260008351611cef816017850160208801611e63565b7001034b99036b4b9b9b4b733903937b6329607d1b6017918401918201528351611d20816028840160208801611e63565b01602801949350505050565b6020815260006110ad6020830184611c6f565b604081526000611d526040830185611c6f565b8281036020840152611d648185611c6f565b95945050505050565b60a081526000611d8060a0830188611c6f565b8281036020840152611d928188611c6f565b9515156040840152505060608101929092526001600160a01b031660809091015292915050565b6020808252601590820152744e6f7420612076616c696420616666696c6961746560581b604082015260600190565b6020808252601390820152720416464726573732063616e6e6f74206265203606c1b604082015260600190565b60008219821115611e2857611e28611edf565b500190565b6000816000190483118215151615611e4757611e47611edf565b500290565b600082821015611e5e57611e5e611edf565b500390565b60005b83811015611e7e578181015183820152602001611e66565b83811115611e8d576000848401525b50505050565b600081611ea257611ea2611edf565b506000190190565b600181811c90821680611ebe57607f821691505b6020821081141561108f57634e487b7160e01b600052602260045260246000fd5b634e487b7160e01b600052601160045260246000fd5b634e487b7160e01b600052604160045260246000fdfe7b98b41c1b69918066115c47a3fabea25b5765269638096b0143b9ee263737bea26469706673582212203d6959fe291a6cd94ff43d9ed47acb04cce4cfb2e89cb7794d18944c11d6fc8d64736f6c63430008040033",
  "linkReferences": {},
  "deployedLinkReferences": {}
}