{
  "_format": "hh-sol-artifact-1",
  "contractName": "REXReferralTest",
  "sourceName": "contracts/test/REXReferralTest.sol",
  "abi": [
    {
      "anonymous": false,
      "inputs": [
        {
          "indexed": false,
          "internalType": "string",
          "name": "name",
          "type": "string"
        },
        {
          "indexed": false,
          "internalType": "string",
          "name": "id",
          "type": "string"
        }
      ],
      "name": "AffiliateApplied",
      "type": "event"
    },
    {
      "anonymous": false,
      "inputs": [
        {
          "indexed": false,
          "internalType": "string",
          "name": "affiliateId",
          "type": "string"
        }
      ],
      "name": "AffiliateWithdrawn",
      "type": "event"
    },
    {
      "anonymous": false,
      "inputs": [
        {
          "indexed": true,
          "internalType": "address",
          "name": "previousOwner",
          "type": "address"
        },
        {
          "indexed": true,
          "internalType": "address",
          "name": "newOwner",
          "type": "address"
        }
      ],
      "name": "OwnershipTransferred",
      "type": "event"
    },
    {
      "inputs": [
        {
          "internalType": "address",
          "name": "",
          "type": "address"
        }
      ],
      "name": "addressToAffiliate",
      "outputs": [
        {
          "internalType": "uint256",
          "name": "",
          "type": "uint256"
        }
      ],
      "stateMutability": "view",
      "type": "function"
    },
    {
      "inputs": [
        {
          "internalType": "string",
          "name": "",
          "type": "string"
        }
      ],
      "name": "affiliateIdToAffiliate",
      "outputs": [
        {
          "internalType": "uint256",
          "name": "",
          "type": "uint256"
        }
      ],
      "stateMutability": "view",
      "type": "function"
    },
    {
      "inputs": [
        {
          "internalType": "uint256",
          "name": "",
          "type": "uint256"
        }
      ],
      "name": "affiliates",
      "outputs": [
        {
          "internalType": "string",
          "name": "name",
          "type": "string"
        },
        {
          "internalType": "string",
          "name": "id",
          "type": "string"
        },
        {
          "internalType": "bool",
          "name": "enabled",
          "type": "bool"
        },
        {
          "internalType": "uint256",
          "name": "totalRef",
          "type": "uint256"
        },
        {
          "internalType": "address",
          "name": "addr",
          "type": "address"
        }
      ],
      "stateMutability": "view",
      "type": "function"
    },
    {
      "inputs": [
        {
          "internalType": "string",
          "name": "name",
          "type": "string"
        },
        {
          "internalType": "string",
          "name": "id",
          "type": "string"
        }
      ],
      "name": "applyForAffiliate",
      "outputs": [],
      "stateMutability": "nonpayable",
      "type": "function"
    },
    {
      "inputs": [
        {
          "internalType": "address",
          "name": "newAddress",
          "type": "address"
        }
      ],
      "name": "changeAffiliateAddress",
      "outputs": [],
      "stateMutability": "nonpayable",
      "type": "function"
    },
    {
      "inputs": [
        {
          "internalType": "string",
          "name": "affiliateId",
          "type": "string"
        }
      ],
      "name": "disableAffiliate",
      "outputs": [
        {
          "internalType": "bool",
          "name": "",
          "type": "bool"
        }
      ],
      "stateMutability": "nonpayable",
      "type": "function"
    },
    {
      "inputs": [
        {
          "internalType": "address",
          "name": "userAddr",
          "type": "address"
        }
      ],
      "name": "getAffiliateAddress",
      "outputs": [
        {
          "internalType": "address",
          "name": "",
          "type": "address"
        }
      ],
      "stateMutability": "view",
      "type": "function"
    },
    {
      "inputs": [
        {
          "internalType": "string",
          "name": "affiliateId",
          "type": "string"
        }
      ],
      "name": "isAffiliateEnabled",
      "outputs": [
        {
          "internalType": "bool",
          "name": "",
          "type": "bool"
        }
      ],
      "stateMutability": "view",
      "type": "function"
    },
    {
      "inputs": [
        {
          "internalType": "address",
          "name": "",
          "type": "address"
        }
      ],
      "name": "isUserOrganic",
      "outputs": [
        {
          "internalType": "bool",
          "name": "",
          "type": "bool"
        }
      ],
      "stateMutability": "view",
      "type": "function"
    },
    {
      "inputs": [],
      "name": "owner",
      "outputs": [
        {
          "internalType": "address",
          "name": "",
          "type": "address"
        }
      ],
      "stateMutability": "view",
      "type": "function"
    },
    {
      "inputs": [
        {
          "internalType": "address",
          "name": "userAddr",
          "type": "address"
        }
      ],
      "name": "registerOrganicUserTest",
      "outputs": [],
      "stateMutability": "nonpayable",
      "type": "function"
    },
    {
      "inputs": [
        {
          "internalType": "address",
          "name": "userAddr",
          "type": "address"
        },
        {
          "internalType": "string",
          "name": "affiliateId",
          "type": "string"
        }
      ],
      "name": "registerReferredUserTest",
      "outputs": [],
      "stateMutability": "nonpayable",
      "type": "function"
    },
    {
      "inputs": [],
      "name": "renounceOwnership",
      "outputs": [],
      "stateMutability": "nonpayable",
      "type": "function"
    },
    {
      "inputs": [
        {
          "internalType": "address",
          "name": "userAddr",
          "type": "address"
        },
        {
          "internalType": "string",
          "name": "affiliateId",
          "type": "string"
        }
      ],
      "name": "safeRegisterUserTest",
      "outputs": [],
      "stateMutability": "nonpayable",
      "type": "function"
    },
    {
      "inputs": [
        {
          "internalType": "address",
          "name": "newOwner",
          "type": "address"
        }
      ],
      "name": "transferOwnership",
      "outputs": [],
      "stateMutability": "nonpayable",
      "type": "function"
    },
    {
      "inputs": [
        {
          "internalType": "address",
          "name": "",
          "type": "address"
        }
      ],
      "name": "userToAffiliate",
      "outputs": [
        {
          "internalType": "uint256",
          "name": "",
          "type": "uint256"
        }
      ],
      "stateMutability": "view",
      "type": "function"
    },
    {
      "inputs": [
        {
          "internalType": "string",
          "name": "affiliateId",
          "type": "string"
        }
      ],
      "name": "verifyAffiliate",
      "outputs": [
        {
          "internalType": "bool",
          "name": "",
          "type": "bool"
        }
      ],
      "stateMutability": "nonpayable",
      "type": "function"
    },
    {
      "inputs": [],
      "name": "withdrawAffiliate",
      "outputs": [],
      "stateMutability": "nonpayable",
      "type": "function"
    }
  ],
  "bytecode": "0x60806040523480156200001157600080fd5b506200001d3362000132565b6040805160e081018252600760a082018181526647656e6573697360c81b60c08401528252825180840184529081526667656e6573697360c81b602082810191909152808301919091526000928201839052606082018390526080820183905260058054600181018255938190528251805193949091027f036b6384b5eca791c62761152d0c79bb0604c104a5fb6f4eb0703f3154bb3db00192620000c6928492019062000182565b506020828101518051620000e1926001850192019062000182565b50604082015160028201805460ff191691151591909117905560608201516003820155608090910151600490910180546001600160a01b0319166001600160a01b0390921691909117905562000265565b600080546001600160a01b038381166001600160a01b0319831681178455604051919092169283917f8be0079c531659141344cd1fd0a4f28419497f9722a3daafe3b4186f6b6457e09190a35050565b828054620001909062000228565b90600052602060002090601f016020900481019282620001b45760008555620001ff565b82601f10620001cf57805160ff1916838001178555620001ff565b82800160010185558215620001ff579182015b82811115620001ff578251825591602001919060010190620001e2565b506200020d92915062000211565b5090565b5b808211156200020d576000815560010162000212565b600181811c908216806200023d57607f821691505b602082108114156200025f57634e487b7160e01b600052602260045260246000fd5b50919050565b61172180620002756000396000f3fe608060405234801561001057600080fd5b50600436106101165760003560e01c80637493f3fd116100a25780638da5cb5b116100715780638da5cb5b14610267578063bfdd83f314610278578063ce2aafe114610298578063f2fde38b146102ab578063ff3204ac146102be57600080fd5b80637493f3fd14610200578063758fb4d4146102135780637e2bbbbf14610226578063873abd751461023957600080fd5b80633671c717116100e95780633671c7171461019c5780634aaaf9fd146101af57806369bcdd0a146101c2578063715018a6146101e5578063740356d0146101ed57600080fd5b80630e9ebfbf1461011b57806315ec67201461014b5780631bd78748146101555780632b8f983514610179575b600080fd5b61012e6101293660046113ae565b6102e9565b6040516001600160a01b0390911681526020015b60405180910390f35b6101536104fa565b005b6101686101633660046114ad565b610705565b60405161014295949392919061154e565b61018c61018736600461141b565b61086a565b6040519015158152602001610142565b6101536101aa366004611456565b610942565b6101536101bd3660046113cf565b610b69565b61018c6101d03660046113ae565b60046020526000908152604090205460ff1681565b610153610b77565b61018c6101fb36600461141b565b610bad565b61015361020e3660046113ae565b610c2b565b6101536102213660046113cf565b610d01565b61018c61023436600461141b565b610d0b565b6102596102473660046113ae565b60036020526000908152604090205481565b604051908152602001610142565b6000546001600160a01b031661012e565b6102596102863660046113ae565b60016020526000908152604090205481565b6101536102a63660046113ae565b610da9565b6101536102b93660046113ae565b610db5565b6102596102cc36600461141b565b805160208183018101805160028252928201919093012091525481565b6001600160a01b03811660009081526004602052604081205460ff168061032657506001600160a01b038216600090815260036020526040902054155b1561033357506000919050565b6001600160a01b03821660009081526003602052604081205460058054909190811061036f57634e487b7160e01b600052603260045260246000fd5b90600052602060002090600502016040518060a00160405290816000820180546103989061168a565b80601f01602080910402602001604051908101604052809291908181526020018280546103c49061168a565b80156104115780601f106103e657610100808354040283529160200191610411565b820191906000526020600020905b8154815290600101906020018083116103f457829003601f168201915b5050505050815260200160018201805461042a9061168a565b80601f01602080910402602001604051908101604052809291908181526020018280546104569061168a565b80156104a35780601f10610478576101008083540402835291602001916104a3565b820191906000526020600020905b81548152906001019060200180831161048657829003601f168201915b5050509183525050600282015460ff161515602082015260038201546040808301919091526004909201546001600160a01b03166060909101528101519091506104f05750600092915050565b6080015192915050565b3360009081526001602052604090205461052f5760405162461bcd60e51b81526004016105269061159a565b60405180910390fd5b3360009081526001602052604090205460058054909190811061056257634e487b7160e01b600052603260045260246000fd5b600091825260209091206002600590920201015460ff16156105c65760405162461bcd60e51b815260206004820152601c60248201527f416666696c6961746520697320616c726561647920656e61626c6564000000006044820152606401610526565b336000908152600160205260408120546005805490919081106105f957634e487b7160e01b600052603260045260246000fd5b906000526020600020906005020160010180546106159061168a565b80601f01602080910402602001604051908101604052809291908181526020018280546106419061168a565b801561068e5780601f106106635761010080835404028352916020019161068e565b820191906000526020600020905b81548152906001019060200180831161067157829003601f168201915b5050336000908152600160205260408082208290555194955093600293506106b992508591506114f1565b9081526020016040518091039020819055507f3b5ca57944f3a4aea8415e0d233225d45d5d428f0d68ac1e865a4bcaa809b6b1816040516106fa919061150d565b60405180910390a150565b6005818154811061071557600080fd5b90600052602060002090600502016000915090508060000180546107389061168a565b80601f01602080910402602001604051908101604052809291908181526020018280546107649061168a565b80156107b15780601f10610786576101008083540402835291602001916107b1565b820191906000526020600020905b81548152906001019060200180831161079457829003601f168201915b5050505050908060010180546107c69061168a565b80601f01602080910402602001604051908101604052809291908181526020018280546107f29061168a565b801561083f5780601f106108145761010080835404028352916020019161083f565b820191906000526020600020905b81548152906001019060200180831161082257829003601f168201915b5050505060028301546003840154600490940154929360ff909116929091506001600160a01b031685565b600080546001600160a01b031633146108955760405162461bcd60e51b8152600401610526906115c9565b8160006002826040516108a891906114f1565b908152602001604051809103902054116108d45760405162461bcd60e51b81526004016105269061159a565b600160056002856040516108e891906114f1565b9081526020016040518091039020548154811061091557634e487b7160e01b600052603260045260246000fd5b60009182526020909120600590910201600201805460ff1916911515919091179055600191505b50919050565b33600090815260016020526040902054156109915760405162461bcd60e51b815260206004820152600f60248201526e105b1c9958591e48185c1c1b1a5959608a1b6044820152606401610526565b6002816040516109a191906114f1565b9081526020016040518091039020546000146109ff5760405162461bcd60e51b815260206004820152601b60248201527f416666696c6961746520494420616c72656164792065786973747300000000006044820152606401610526565b6040805160a08101825283815260208082018490526000928201839052606082018390523360808301526005805460018101825593819052825180519394859492027f036b6384b5eca791c62761152d0c79bb0604c104a5fb6f4eb0703f3154bb3db00192610a7392849290910190611272565b506020828101518051610a8c9260018501920190611272565b50604082015160028201805460ff191691151591909117905560608201516003820155608090910151600490910180546001600160a01b0319166001600160a01b03909216919091179055600554610ae690600190611643565b33600090815260016020819052604090912091909155600554610b099190611643565b600283604051610b1991906114f1565b9081526020016040518091039020819055507fc806ffe6748910a923eb73c0fe95de2ccb564cc4d63382074a460f74a4eb70ed8383604051610b5c929190611520565b60405180910390a1505050565b610b738282610e4d565b5050565b6000546001600160a01b03163314610ba15760405162461bcd60e51b8152600401610526906115c9565b610bab6000610f22565b565b600080546001600160a01b03163314610bd85760405162461bcd60e51b8152600401610526906115c9565b816000600282604051610beb91906114f1565b90815260200160405180910390205411610c175760405162461bcd60e51b81526004016105269061159a565b600060056002856040516108e891906114f1565b33600090815260016020526040902054610c575760405162461bcd60e51b81526004016105269061159a565b806001600160a01b038116610c7e5760405162461bcd60e51b8152600401610526906115fe565b336000908152600160205260408120546005805491929183908110610cb357634e487b7160e01b600052603260045260246000fd5b6000918252602080832060046005909302019190910180546001600160a01b039097166001600160a01b03199097168717905533825260019052604080822082905594815293909320555050565b610b738282610f72565b6000816000600282604051610d2091906114f1565b90815260200160405180910390205411610d4c5760405162461bcd60e51b81526004016105269061159a565b6005600284604051610d5e91906114f1565b90815260200160405180910390205481548110610d8b57634e487b7160e01b600052603260045260246000fd5b600091825260209091206005909102016002015460ff169392505050565b610db2816111c0565b50565b6000546001600160a01b03163314610ddf5760405162461bcd60e51b8152600401610526906115c9565b6001600160a01b038116610e445760405162461bcd60e51b815260206004820152602660248201527f4f776e61626c653a206e6577206f776e657220697320746865207a65726f206160448201526564647265737360d01b6064820152608401610526565b610db281610f22565b6001600160a01b03821660009081526004602052604090205460ff1615610e72575050565b6000610e7d836102e9565b6001600160a01b031614610e8f575050565b8051610e9e57610b73826111c0565b6000600282604051610eb091906114f1565b90815260200160405180910390205490508060001480610f05575060058181548110610eec57634e487b7160e01b600052603260045260246000fd5b600091825260209091206002600590920201015460ff16155b15610f1857610f13836111c0565b505050565b610f138383610f72565b600080546001600160a01b038381166001600160a01b0319831681178455604051919092169283917f8be0079c531659141344cd1fd0a4f28419497f9722a3daafe3b4186f6b6457e09190a35050565b806000600282604051610f8591906114f1565b90815260200160405180910390205411610fb15760405162461bcd60e51b81526004016105269061159a565b826001600160a01b038116610fd85760405162461bcd60e51b8152600401610526906115fe565b6001600160a01b03841660009081526004602052604090205460ff16156110415760405162461bcd60e51b815260206004820152601e60248201527f416c72656164792072656769737465726564206f7267616e6963616c6c7900006044820152606401610526565b6001600160a01b038416600090815260036020526040902054156110a75760405162461bcd60e51b815260206004820152601f60248201527f416c7265616479207265676973746572656420746f20616666696c69617465006044820152606401610526565b60006002846040516110b991906114f1565b9081526020016040518091039020549050600581815481106110eb57634e487b7160e01b600052603260045260246000fd5b600091825260209091206002600590920201015460ff1615156001146111535760405162461bcd60e51b815260206004820152601760248201527f416666696c69617465206973206e6f74206163746976650000000000000000006044820152606401610526565b6001600160a01b038516600090815260036020526040902081905560058054600191908390811061119457634e487b7160e01b600052603260045260246000fd5b906000526020600020906005020160030160008282546111b4919061162b565b90915550505050505050565b806001600160a01b0381166111e75760405162461bcd60e51b8152600401610526906115fe565b6001600160a01b0382166000908152600360205260409020541561124d5760405162461bcd60e51b815260206004820152601f60248201527f416c7265616479207265676973746572656420746f20616666696c69617465006044820152606401610526565b506001600160a01b03166000908152600460205260409020805460ff19166001179055565b82805461127e9061168a565b90600052602060002090601f0160209004810192826112a057600085556112e6565b82601f106112b957805160ff19168380011785556112e6565b828001600101855582156112e6579182015b828111156112e65782518255916020019190600101906112cb565b506112f29291506112f6565b5090565b5b808211156112f257600081556001016112f7565b80356001600160a01b038116811461132257600080fd5b919050565b600082601f830112611337578081fd5b813567ffffffffffffffff80821115611352576113526116d5565b604051601f8301601f19908116603f0116810190828211818310171561137a5761137a6116d5565b81604052838152866020858801011115611392578485fd5b8360208701602083013792830160200193909352509392505050565b6000602082840312156113bf578081fd5b6113c88261130b565b9392505050565b600080604083850312156113e1578081fd5b6113ea8361130b565b9150602083013567ffffffffffffffff811115611405578182fd5b61141185828601611327565b9150509250929050565b60006020828403121561142c578081fd5b813567ffffffffffffffff811115611442578182fd5b61144e84828501611327565b949350505050565b60008060408385031215611468578182fd5b823567ffffffffffffffff8082111561147f578384fd5b61148b86838701611327565b935060208501359150808211156114a0578283fd5b5061141185828601611327565b6000602082840312156114be578081fd5b5035919050565b600081518084526114dd81602086016020860161165a565b601f01601f19169290920160200192915050565b6000825161150381846020870161165a565b9190910192915050565b6020815260006113c860208301846114c5565b60408152600061153360408301856114c5565b828103602084015261154581856114c5565b95945050505050565b60a08152600061156160a08301886114c5565b828103602084015261157381886114c5565b9515156040840152505060608101929092526001600160a01b031660809091015292915050565b6020808252601590820152744e6f7420612076616c696420616666696c6961746560581b604082015260600190565b6020808252818101527f4f776e61626c653a2063616c6c6572206973206e6f7420746865206f776e6572604082015260600190565b6020808252601390820152720416464726573732063616e6e6f74206265203606c1b604082015260600190565b6000821982111561163e5761163e6116bf565b500190565b600082821015611655576116556116bf565b500390565b60005b8381101561167557818101518382015260200161165d565b83811115611684576000848401525b50505050565b600181811c9082168061169e57607f821691505b6020821081141561093c57634e487b7160e01b600052602260045260246000fd5b634e487b7160e01b600052601160045260246000fd5b634e487b7160e01b600052604160045260246000fdfea2646970667358221220c4b0cf4cc958f50a11fc7fc5dd05807f4d1b53ad547c0605992068f87adb338864736f6c63430008040033",
  "linkReferences": {},
  "deployedLinkReferences": {}
}