{
  "contracts/tellor/MockTellor.sol": {
    "MockTellor": {
      "abi": [
        {
          "inputs": [],
          "stateMutability": "nonpayable",
          "type": "constructor"
        },
        {
          "inputs": [],
          "name": "firstToken",
          "outputs": [
            {
              "internalType": "uint8",
              "name": "",
              "type": "uint8"
            }
          ],
          "stateMutability": "view",
          "type": "function"
        },
        {
          "inputs": [
            {
              "internalType": "string",
              "name": "token",
              "type": "string"
            },
            {
              "internalType": "string",
              "name": "ticker",
              "type": "string"
            },
            {
              "internalType": "uint16",
              "name": "value",
              "type": "uint16"
            },
            {
              "internalType": "uint16",
              "name": "value2",
              "type": "uint16"
            }
          ],
          "name": "requestData",
          "outputs": [],
          "stateMutability": "nonpayable",
          "type": "function"
        }
      ],
      "evm": {
        "bytecode": {
          "linkReferences": {},
          "object": "608060405234801561001057600080fd5b506101e0806100206000396000f3fe608060405234801561001057600080fd5b50600436106100365760003560e01c80632b15e2bd1461003b5780636bb0e77b14610051575b600080fd5b61004f610049366004610112565b50505050565b005b60005461005e9060ff1681565b60405160ff909116815260200160405180910390f35b600082601f830112610084578081fd5b813567ffffffffffffffff8082111561009f5761009f610194565b604051601f8301601f19908116603f011681019082821181831017156100c7576100c7610194565b816040528381528660208588010111156100df578485fd5b8360208701602083013792830160200193909352509392505050565b803561ffff8116811461010d57600080fd5b919050565b60008060008060808587031215610127578384fd5b843567ffffffffffffffff8082111561013e578586fd5b61014a88838901610074565b9550602087013591508082111561015f578485fd5b5061016c87828801610074565b93505061017b604086016100fb565b9150610189606086016100fb565b905092959194509250565b634e487b7160e01b600052604160045260246000fdfea264697066735822122078720763d445a0ed678ab02a3cfc2b244a089b6342f2d92de18b89a15c0b3caf64736f6c63430008040033",
          "opcodes": "PUSH1 0x80 PUSH1 0x40 MSTORE CALLVALUE DUP1 ISZERO PUSH2 0x10 JUMPI PUSH1 0x0 DUP1 REVERT JUMPDEST POP PUSH2 0x1E0 DUP1 PUSH2 0x20 PUSH1 0x0 CODECOPY PUSH1 0x0 RETURN INVALID PUSH1 0x80 PUSH1 0x40 MSTORE CALLVALUE DUP1 ISZERO PUSH2 0x10 JUMPI PUSH1 0x0 DUP1 REVERT JUMPDEST POP PUSH1 0x4 CALLDATASIZE LT PUSH2 0x36 JUMPI PUSH1 0x0 CALLDATALOAD PUSH1 0xE0 SHR DUP1 PUSH4 0x2B15E2BD EQ PUSH2 0x3B JUMPI DUP1 PUSH4 0x6BB0E77B EQ PUSH2 0x51 JUMPI JUMPDEST PUSH1 0x0 DUP1 REVERT JUMPDEST PUSH2 0x4F PUSH2 0x49 CALLDATASIZE PUSH1 0x4 PUSH2 0x112 JUMP JUMPDEST POP POP POP POP JUMP JUMPDEST STOP JUMPDEST PUSH1 0x0 SLOAD PUSH2 0x5E SWAP1 PUSH1 0xFF AND DUP2 JUMP JUMPDEST PUSH1 0x40 MLOAD PUSH1 0xFF SWAP1 SWAP2 AND DUP2 MSTORE PUSH1 0x20 ADD PUSH1 0x40 MLOAD DUP1 SWAP2 SUB SWAP1 RETURN JUMPDEST PUSH1 0x0 DUP3 PUSH1 0x1F DUP4 ADD SLT PUSH2 0x84 JUMPI DUP1 DUP2 REVERT JUMPDEST DUP2 CALLDATALOAD PUSH8 0xFFFFFFFFFFFFFFFF DUP1 DUP3 GT ISZERO PUSH2 0x9F JUMPI PUSH2 0x9F PUSH2 0x194 JUMP JUMPDEST PUSH1 0x40 MLOAD PUSH1 0x1F DUP4 ADD PUSH1 0x1F NOT SWAP1 DUP2 AND PUSH1 0x3F ADD AND DUP2 ADD SWAP1 DUP3 DUP3 GT DUP2 DUP4 LT OR ISZERO PUSH2 0xC7 JUMPI PUSH2 0xC7 PUSH2 0x194 JUMP JUMPDEST DUP2 PUSH1 0x40 MSTORE DUP4 DUP2 MSTORE DUP7 PUSH1 0x20 DUP6 DUP9 ADD ADD GT ISZERO PUSH2 0xDF JUMPI DUP5 DUP6 REVERT JUMPDEST DUP4 PUSH1 0x20 DUP8 ADD PUSH1 0x20 DUP4 ADD CALLDATACOPY SWAP3 DUP4 ADD PUSH1 0x20 ADD SWAP4 SWAP1 SWAP4 MSTORE POP SWAP4 SWAP3 POP POP POP JUMP JUMPDEST DUP1 CALLDATALOAD PUSH2 0xFFFF DUP2 AND DUP2 EQ PUSH2 0x10D JUMPI PUSH1 0x0 DUP1 REVERT JUMPDEST SWAP2 SWAP1 POP JUMP JUMPDEST PUSH1 0x0 DUP1 PUSH1 0x0 DUP1 PUSH1 0x80 DUP6 DUP8 SUB SLT ISZERO PUSH2 0x127 JUMPI DUP4 DUP5 REVERT JUMPDEST DUP5 CALLDATALOAD PUSH8 0xFFFFFFFFFFFFFFFF DUP1 DUP3 GT ISZERO PUSH2 0x13E JUMPI DUP6 DUP7 REVERT JUMPDEST PUSH2 0x14A DUP9 DUP4 DUP10 ADD PUSH2 0x74 JUMP JUMPDEST SWAP6 POP PUSH1 0x20 DUP8 ADD CALLDATALOAD SWAP2 POP DUP1 DUP3 GT ISZERO PUSH2 0x15F JUMPI DUP5 DUP6 REVERT JUMPDEST POP PUSH2 0x16C DUP8 DUP3 DUP9 ADD PUSH2 0x74 JUMP JUMPDEST SWAP4 POP POP PUSH2 0x17B PUSH1 0x40 DUP7 ADD PUSH2 0xFB JUMP JUMPDEST SWAP2 POP PUSH2 0x189 PUSH1 0x60 DUP7 ADD PUSH2 0xFB JUMP JUMPDEST SWAP1 POP SWAP3 SWAP6 SWAP2 SWAP5 POP SWAP3 POP JUMP JUMPDEST PUSH4 0x4E487B71 PUSH1 0xE0 SHL PUSH1 0x0 MSTORE PUSH1 0x41 PUSH1 0x4 MSTORE PUSH1 0x24 PUSH1 0x0 REVERT INVALID LOG2 PUSH5 0x6970667358 0x22 SLT KECCAK256 PUSH25 0x720763D445A0ED678AB02A3CFC2B244A089B6342F2D92DE18B DUP10 LOG1 0x5C SIGNEXTEND EXTCODECOPY 0xAF PUSH5 0x736F6C6343 STOP ADDMOD DIV STOP CALLER "
        },
        "methodIdentifiers": {
          "firstToken()": "6bb0e77b",
          "requestData(string,string,uint16,uint16)": "2b15e2bd"
        }
      }
    }
  }
}