{
  "_format": "hh-sol-artifact-1",
  "contractName": "RicochetToken",
  "sourceName": "contracts/RicochetToken.sol",
  "abi": [
    {
      "inputs": [
        {
          "internalType": "contract ISuperfluid",
          "name": "host",
          "type": "address"
        }
      ],
      "stateMutability": "nonpayable",
      "type": "constructor"
    },
    {
      "anonymous": false,
      "inputs": [
        {
          "indexed": true,
          "internalType": "address",
          "name": "agreementClass",
          "type": "address"
        },
        {
          "indexed": true,
          "internalType": "address",
          "name": "account",
          "type": "address"
        },
        {
          "indexed": false,
          "internalType": "bytes",
          "name": "state",
          "type": "bytes"
        }
      ],
      "name": "AgreementAccountStateUpdated",
      "type": "event"
    },
    {
      "anonymous": false,
      "inputs": [
        {
          "indexed": true,
          "internalType": "address",
          "name": "agreementClass",
          "type": "address"
        },
        {
          "indexed": false,
          "internalType": "bytes32",
          "name": "id",
          "type": "bytes32"
        },
        {
          "indexed": false,
          "internalType": "bytes32[]",
          "name": "data",
          "type": "bytes32[]"
        }
      ],
      "name": "AgreementCreated",
      "type": "event"
    },
    {
      "anonymous": false,
      "inputs": [
        {
          "indexed": true,
          "internalType": "address",
          "name": "agreementClass",
          "type": "address"
        },
        {
          "indexed": false,
          "internalType": "bytes32",
          "name": "id",
          "type": "bytes32"
        },
        {
          "indexed": true,
          "internalType": "address",
          "name": "penaltyAccount",
          "type": "address"
        },
        {
          "indexed": true,
          "internalType": "address",
          "name": "rewardAccount",
          "type": "address"
        },
        {
          "indexed": false,
          "internalType": "uint256",
          "name": "rewardAmount",
          "type": "uint256"
        }
      ],
      "name": "AgreementLiquidated",
      "type": "event"
    },
    {
      "anonymous": false,
      "inputs": [
        {
          "indexed": false,
          "internalType": "address",
          "name": "liquidatorAccount",
          "type": "address"
        },
        {
          "indexed": true,
          "internalType": "address",
          "name": "agreementClass",
          "type": "address"
        },
        {
          "indexed": false,
          "internalType": "bytes32",
          "name": "id",
          "type": "bytes32"
        },
        {
          "indexed": true,
          "internalType": "address",
          "name": "penaltyAccount",
          "type": "address"
        },
        {
          "indexed": true,
          "internalType": "address",
          "name": "bondAccount",
          "type": "address"
        },
        {
          "indexed": false,
          "internalType": "uint256",
          "name": "rewardAmount",
          "type": "uint256"
        },
        {
          "indexed": false,
          "internalType": "uint256",
          "name": "bailoutAmount",
          "type": "uint256"
        }
      ],
      "name": "AgreementLiquidatedBy",
      "type": "event"
    },
    {
      "anonymous": false,
      "inputs": [
        {
          "indexed": true,
          "internalType": "address",
          "name": "agreementClass",
          "type": "address"
        },
        {
          "indexed": true,
          "internalType": "address",
          "name": "account",
          "type": "address"
        },
        {
          "indexed": false,
          "internalType": "uint256",
          "name": "slotId",
          "type": "uint256"
        }
      ],
      "name": "AgreementStateUpdated",
      "type": "event"
    },
    {
      "anonymous": false,
      "inputs": [
        {
          "indexed": true,
          "internalType": "address",
          "name": "agreementClass",
          "type": "address"
        },
        {
          "indexed": false,
          "internalType": "bytes32",
          "name": "id",
          "type": "bytes32"
        }
      ],
      "name": "AgreementTerminated",
      "type": "event"
    },
    {
      "anonymous": false,
      "inputs": [
        {
          "indexed": true,
          "internalType": "address",
          "name": "agreementClass",
          "type": "address"
        },
        {
          "indexed": false,
          "internalType": "bytes32",
          "name": "id",
          "type": "bytes32"
        },
        {
          "indexed": false,
          "internalType": "bytes32[]",
          "name": "data",
          "type": "bytes32[]"
        }
      ],
      "name": "AgreementUpdated",
      "type": "event"
    },
    {
      "anonymous": false,
      "inputs": [
        {
          "indexed": true,
          "internalType": "address",
          "name": "owner",
          "type": "address"
        },
        {
          "indexed": true,
          "internalType": "address",
          "name": "spender",
          "type": "address"
        },
        {
          "indexed": false,
          "internalType": "uint256",
          "name": "value",
          "type": "uint256"
        }
      ],
      "name": "Approval",
      "type": "event"
    },
    {
      "anonymous": false,
      "inputs": [
        {
          "indexed": true,
          "internalType": "address",
          "name": "operator",
          "type": "address"
        },
        {
          "indexed": true,
          "internalType": "address",
          "name": "tokenHolder",
          "type": "address"
        }
      ],
      "name": "AuthorizedOperator",
      "type": "event"
    },
    {
      "anonymous": false,
      "inputs": [
        {
          "indexed": true,
          "internalType": "address",
          "name": "bailoutAccount",
          "type": "address"
        },
        {
          "indexed": false,
          "internalType": "uint256",
          "name": "bailoutAmount",
          "type": "uint256"
        }
      ],
      "name": "Bailout",
      "type": "event"
    },
    {
      "anonymous": false,
      "inputs": [
        {
          "indexed": true,
          "internalType": "address",
          "name": "operator",
          "type": "address"
        },
        {
          "indexed": true,
          "internalType": "address",
          "name": "from",
          "type": "address"
        },
        {
          "indexed": false,
          "internalType": "uint256",
          "name": "amount",
          "type": "uint256"
        },
        {
          "indexed": false,
          "internalType": "bytes",
          "name": "data",
          "type": "bytes"
        },
        {
          "indexed": false,
          "internalType": "bytes",
          "name": "operatorData",
          "type": "bytes"
        }
      ],
      "name": "Burned",
      "type": "event"
    },
    {
      "anonymous": false,
      "inputs": [
        {
          "indexed": false,
          "internalType": "bytes32",
          "name": "uuid",
          "type": "bytes32"
        },
        {
          "indexed": false,
          "internalType": "address",
          "name": "codeAddress",
          "type": "address"
        }
      ],
      "name": "CodeUpdated",
      "type": "event"
    },
    {
      "anonymous": false,
      "inputs": [
        {
          "indexed": true,
          "internalType": "address",
          "name": "operator",
          "type": "address"
        },
        {
          "indexed": true,
          "internalType": "address",
          "name": "to",
          "type": "address"
        },
        {
          "indexed": false,
          "internalType": "uint256",
          "name": "amount",
          "type": "uint256"
        },
        {
          "indexed": false,
          "internalType": "bytes",
          "name": "data",
          "type": "bytes"
        },
        {
          "indexed": false,
          "internalType": "bytes",
          "name": "operatorData",
          "type": "bytes"
        }
      ],
      "name": "Minted",
      "type": "event"
    },
    {
      "anonymous": false,
      "inputs": [
        {
          "indexed": true,
          "internalType": "address",
          "name": "previousOwner",
          "type": "address"
        },
        {
          "indexed": true,
          "internalType": "address",
          "name": "newOwner",
          "type": "address"
        }
      ],
      "name": "OwnershipTransferred",
      "type": "event"
    },
    {
      "anonymous": false,
      "inputs": [
        {
          "indexed": true,
          "internalType": "address",
          "name": "operator",
          "type": "address"
        },
        {
          "indexed": true,
          "internalType": "address",
          "name": "tokenHolder",
          "type": "address"
        }
      ],
      "name": "RevokedOperator",
      "type": "event"
    },
    {
      "anonymous": false,
      "inputs": [
        {
          "indexed": true,
          "internalType": "address",
          "name": "operator",
          "type": "address"
        },
        {
          "indexed": true,
          "internalType": "address",
          "name": "from",
          "type": "address"
        },
        {
          "indexed": true,
          "internalType": "address",
          "name": "to",
          "type": "address"
        },
        {
          "indexed": false,
          "internalType": "uint256",
          "name": "amount",
          "type": "uint256"
        },
        {
          "indexed": false,
          "internalType": "bytes",
          "name": "data",
          "type": "bytes"
        },
        {
          "indexed": false,
          "internalType": "bytes",
          "name": "operatorData",
          "type": "bytes"
        }
      ],
      "name": "Sent",
      "type": "event"
    },
    {
      "anonymous": false,
      "inputs": [
        {
          "indexed": true,
          "internalType": "address",
          "name": "account",
          "type": "address"
        },
        {
          "indexed": false,
          "internalType": "uint256",
          "name": "amount",
          "type": "uint256"
        }
      ],
      "name": "TokenDowngraded",
      "type": "event"
    },
    {
      "anonymous": false,
      "inputs": [
        {
          "indexed": true,
          "internalType": "address",
          "name": "account",
          "type": "address"
        },
        {
          "indexed": false,
          "internalType": "uint256",
          "name": "amount",
          "type": "uint256"
        }
      ],
      "name": "TokenUpgraded",
      "type": "event"
    },
    {
      "anonymous": false,
      "inputs": [
        {
          "indexed": true,
          "internalType": "address",
          "name": "from",
          "type": "address"
        },
        {
          "indexed": true,
          "internalType": "address",
          "name": "to",
          "type": "address"
        },
        {
          "indexed": false,
          "internalType": "uint256",
          "name": "value",
          "type": "uint256"
        }
      ],
      "name": "Transfer",
      "type": "event"
    },
    {
      "stateMutability": "payable",
      "type": "fallback"
    },
    {
      "inputs": [
        {
          "internalType": "address",
          "name": "account",
          "type": "address"
        },
        {
          "internalType": "address",
          "name": "spender",
          "type": "address"
        }
      ],
      "name": "allowance",
      "outputs": [
        {
          "internalType": "uint256",
          "name": "",
          "type": "uint256"
        }
      ],
      "stateMutability": "view",
      "type": "function"
    },
    {
      "inputs": [
        {
          "internalType": "address",
          "name": "spender",
          "type": "address"
        },
        {
          "internalType": "uint256",
          "name": "amount",
          "type": "uint256"
        }
      ],
      "name": "approve",
      "outputs": [
        {
          "internalType": "bool",
          "name": "",
          "type": "bool"
        }
      ],
      "stateMutability": "nonpayable",
      "type": "function"
    },
    {
      "inputs": [
        {
          "internalType": "address",
          "name": "operator",
          "type": "address"
        }
      ],
      "name": "authorizeOperator",
      "outputs": [],
      "stateMutability": "nonpayable",
      "type": "function"
    },
    {
      "inputs": [
        {
          "internalType": "address",
          "name": "account",
          "type": "address"
        }
      ],
      "name": "balanceOf",
      "outputs": [
        {
          "internalType": "uint256",
          "name": "balance",
          "type": "uint256"
        }
      ],
      "stateMutability": "view",
      "type": "function"
    },
    {
      "inputs": [
        {
          "internalType": "uint256",
          "name": "amount",
          "type": "uint256"
        },
        {
          "internalType": "bytes",
          "name": "data",
          "type": "bytes"
        }
      ],
      "name": "burn",
      "outputs": [],
      "stateMutability": "nonpayable",
      "type": "function"
    },
    {
      "inputs": [
        {
          "internalType": "address",
          "name": "account",
          "type": "address"
        },
        {
          "internalType": "uint256",
          "name": "amount",
          "type": "uint256"
        },
        {
          "internalType": "bytes",
          "name": "userData",
          "type": "bytes"
        }
      ],
      "name": "burnFrom",
      "outputs": [],
      "stateMutability": "nonpayable",
      "type": "function"
    },
    {
      "inputs": [
        {
          "internalType": "bytes32",
          "name": "id",
          "type": "bytes32"
        },
        {
          "internalType": "bytes32[]",
          "name": "data",
          "type": "bytes32[]"
        }
      ],
      "name": "createAgreement",
      "outputs": [],
      "stateMutability": "nonpayable",
      "type": "function"
    },
    {
      "inputs": [],
      "name": "decimals",
      "outputs": [
        {
          "internalType": "uint8",
          "name": "",
          "type": "uint8"
        }
      ],
      "stateMutability": "pure",
      "type": "function"
    },
    {
      "inputs": [
        {
          "internalType": "address",
          "name": "spender",
          "type": "address"
        },
        {
          "internalType": "uint256",
          "name": "subtractedValue",
          "type": "uint256"
        }
      ],
      "name": "decreaseAllowance",
      "outputs": [
        {
          "internalType": "bool",
          "name": "",
          "type": "bool"
        }
      ],
      "stateMutability": "nonpayable",
      "type": "function"
    },
    {
      "inputs": [],
      "name": "defaultOperators",
      "outputs": [
        {
          "internalType": "address[]",
          "name": "",
          "type": "address[]"
        }
      ],
      "stateMutability": "view",
      "type": "function"
    },
    {
      "inputs": [
        {
          "internalType": "uint256",
          "name": "amount",
          "type": "uint256"
        }
      ],
      "name": "downgrade",
      "outputs": [],
      "stateMutability": "nonpayable",
      "type": "function"
    },
    {
      "inputs": [
        {
          "internalType": "address",
          "name": "account",
          "type": "address"
        }
      ],
      "name": "getAccountActiveAgreements",
      "outputs": [
        {
          "internalType": "contract ISuperAgreement[]",
          "name": "",
          "type": "address[]"
        }
      ],
      "stateMutability": "view",
      "type": "function"
    },
    {
      "inputs": [
        {
          "internalType": "address",
          "name": "agreementClass",
          "type": "address"
        },
        {
          "internalType": "bytes32",
          "name": "id",
          "type": "bytes32"
        },
        {
          "internalType": "uint256",
          "name": "dataLength",
          "type": "uint256"
        }
      ],
      "name": "getAgreementData",
      "outputs": [
        {
          "internalType": "bytes32[]",
          "name": "data",
          "type": "bytes32[]"
        }
      ],
      "stateMutability": "view",
      "type": "function"
    },
    {
      "inputs": [
        {
          "internalType": "address",
          "name": "agreementClass",
          "type": "address"
        },
        {
          "internalType": "address",
          "name": "account",
          "type": "address"
        },
        {
          "internalType": "uint256",
          "name": "slotId",
          "type": "uint256"
        },
        {
          "internalType": "uint256",
          "name": "dataLength",
          "type": "uint256"
        }
      ],
      "name": "getAgreementStateSlot",
      "outputs": [
        {
          "internalType": "bytes32[]",
          "name": "slotData",
          "type": "bytes32[]"
        }
      ],
      "stateMutability": "view",
      "type": "function"
    },
    {
      "inputs": [],
      "name": "getCodeAddress",
      "outputs": [
        {
          "internalType": "address",
          "name": "codeAddress",
          "type": "address"
        }
      ],
      "stateMutability": "view",
      "type": "function"
    },
    {
      "inputs": [],
      "name": "getHost",
      "outputs": [
        {
          "internalType": "address",
          "name": "host",
          "type": "address"
        }
      ],
      "stateMutability": "view",
      "type": "function"
    },
    {
      "inputs": [],
      "name": "getUnderlyingToken",
      "outputs": [
        {
          "internalType": "address",
          "name": "",
          "type": "address"
        }
      ],
      "stateMutability": "view",
      "type": "function"
    },
    {
      "inputs": [],
      "name": "granularity",
      "outputs": [
        {
          "internalType": "uint256",
          "name": "",
          "type": "uint256"
        }
      ],
      "stateMutability": "pure",
      "type": "function"
    },
    {
      "inputs": [
        {
          "internalType": "address",
          "name": "spender",
          "type": "address"
        },
        {
          "internalType": "uint256",
          "name": "addedValue",
          "type": "uint256"
        }
      ],
      "name": "increaseAllowance",
      "outputs": [
        {
          "internalType": "bool",
          "name": "",
          "type": "bool"
        }
      ],
      "stateMutability": "nonpayable",
      "type": "function"
    },
    {
      "inputs": [
        {
          "internalType": "contract IERC20",
          "name": "underlyingToken",
          "type": "address"
        },
        {
          "internalType": "uint8",
          "name": "underlyingDecimals",
          "type": "uint8"
        },
        {
          "internalType": "string",
          "name": "n",
          "type": "string"
        },
        {
          "internalType": "string",
          "name": "s",
          "type": "string"
        }
      ],
      "name": "initialize",
      "outputs": [],
      "stateMutability": "nonpayable",
      "type": "function"
    },
    {
      "inputs": [
        {
          "internalType": "address",
          "name": "account",
          "type": "address"
        },
        {
          "internalType": "uint256",
          "name": "timestamp",
          "type": "uint256"
        }
      ],
      "name": "isAccountCritical",
      "outputs": [
        {
          "internalType": "bool",
          "name": "isCritical",
          "type": "bool"
        }
      ],
      "stateMutability": "view",
      "type": "function"
    },
    {
      "inputs": [
        {
          "internalType": "address",
          "name": "account",
          "type": "address"
        }
      ],
      "name": "isAccountCriticalNow",
      "outputs": [
        {
          "internalType": "bool",
          "name": "isCritical",
          "type": "bool"
        }
      ],
      "stateMutability": "view",
      "type": "function"
    },
    {
      "inputs": [
        {
          "internalType": "address",
          "name": "account",
          "type": "address"
        },
        {
          "internalType": "uint256",
          "name": "timestamp",
          "type": "uint256"
        }
      ],
      "name": "isAccountSolvent",
      "outputs": [
        {
          "internalType": "bool",
          "name": "isSolvent",
          "type": "bool"
        }
      ],
      "stateMutability": "view",
      "type": "function"
    },
    {
      "inputs": [
        {
          "internalType": "address",
          "name": "account",
          "type": "address"
        }
      ],
      "name": "isAccountSolventNow",
      "outputs": [
        {
          "internalType": "bool",
          "name": "isSolvent",
          "type": "bool"
        }
      ],
      "stateMutability": "view",
      "type": "function"
    },
    {
      "inputs": [
        {
          "internalType": "address",
          "name": "operator",
          "type": "address"
        },
        {
          "internalType": "address",
          "name": "tokenHolder",
          "type": "address"
        }
      ],
      "name": "isOperatorFor",
      "outputs": [
        {
          "internalType": "bool",
          "name": "",
          "type": "bool"
        }
      ],
      "stateMutability": "view",
      "type": "function"
    },
    {
      "inputs": [
        {
          "internalType": "bytes32",
          "name": "id",
          "type": "bytes32"
        },
        {
          "internalType": "address",
          "name": "liquidator",
          "type": "address"
        },
        {
          "internalType": "address",
          "name": "penaltyAccount",
          "type": "address"
        },
        {
          "internalType": "uint256",
          "name": "rewardAmount",
          "type": "uint256"
        },
        {
          "internalType": "uint256",
          "name": "bailoutAmount",
          "type": "uint256"
        }
      ],
      "name": "makeLiquidationPayouts",
      "outputs": [],
      "stateMutability": "nonpayable",
      "type": "function"
    },
    {
      "inputs": [
        {
          "internalType": "address",
          "name": "account",
          "type": "address"
        },
        {
          "internalType": "uint256",
          "name": "amount",
          "type": "uint256"
        },
        {
          "internalType": "bytes",
          "name": "userData",
          "type": "bytes"
        }
      ],
      "name": "mintTo",
      "outputs": [],
      "stateMutability": "nonpayable",
      "type": "function"
    },
    {
      "inputs": [],
      "name": "name",
      "outputs": [
        {
          "internalType": "string",
          "name": "",
          "type": "string"
        }
      ],
      "stateMutability": "view",
      "type": "function"
    },
    {
      "inputs": [
        {
          "internalType": "address",
          "name": "account",
          "type": "address"
        },
        {
          "internalType": "address",
          "name": "spender",
          "type": "address"
        },
        {
          "internalType": "uint256",
          "name": "amount",
          "type": "uint256"
        }
      ],
      "name": "operationApprove",
      "outputs": [],
      "stateMutability": "nonpayable",
      "type": "function"
    },
    {
      "inputs": [
        {
          "internalType": "address",
          "name": "account",
          "type": "address"
        },
        {
          "internalType": "uint256",
          "name": "amount",
          "type": "uint256"
        }
      ],
      "name": "operationDowngrade",
      "outputs": [],
      "stateMutability": "nonpayable",
      "type": "function"
    },
    {
      "inputs": [
        {
          "internalType": "address",
          "name": "account",
          "type": "address"
        },
        {
          "internalType": "address",
          "name": "spender",
          "type": "address"
        },
        {
          "internalType": "address",
          "name": "recipient",
          "type": "address"
        },
        {
          "internalType": "uint256",
          "name": "amount",
          "type": "uint256"
        }
      ],
      "name": "operationTransferFrom",
      "outputs": [],
      "stateMutability": "nonpayable",
      "type": "function"
    },
    {
      "inputs": [
        {
          "internalType": "address",
          "name": "account",
          "type": "address"
        },
        {
          "internalType": "uint256",
          "name": "amount",
          "type": "uint256"
        }
      ],
      "name": "operationUpgrade",
      "outputs": [],
      "stateMutability": "nonpayable",
      "type": "function"
    },
    {
      "inputs": [
        {
          "internalType": "address",
          "name": "account",
          "type": "address"
        },
        {
          "internalType": "uint256",
          "name": "amount",
          "type": "uint256"
        },
        {
          "internalType": "bytes",
          "name": "data",
          "type": "bytes"
        },
        {
          "internalType": "bytes",
          "name": "operatorData",
          "type": "bytes"
        }
      ],
      "name": "operatorBurn",
      "outputs": [],
      "stateMutability": "nonpayable",
      "type": "function"
    },
    {
      "inputs": [
        {
          "internalType": "address",
          "name": "sender",
          "type": "address"
        },
        {
          "internalType": "address",
          "name": "recipient",
          "type": "address"
        },
        {
          "internalType": "uint256",
          "name": "amount",
          "type": "uint256"
        },
        {
          "internalType": "bytes",
          "name": "data",
          "type": "bytes"
        },
        {
          "internalType": "bytes",
          "name": "operatorData",
          "type": "bytes"
        }
      ],
      "name": "operatorSend",
      "outputs": [],
      "stateMutability": "nonpayable",
      "type": "function"
    },
    {
      "inputs": [],
      "name": "owner",
      "outputs": [
        {
          "internalType": "address",
          "name": "",
          "type": "address"
        }
      ],
      "stateMutability": "view",
      "type": "function"
    },
    {
      "inputs": [],
      "name": "proxiableUUID",
      "outputs": [
        {
          "internalType": "bytes32",
          "name": "",
          "type": "bytes32"
        }
      ],
      "stateMutability": "pure",
      "type": "function"
    },
    {
      "inputs": [
        {
          "internalType": "address",
          "name": "account",
          "type": "address"
        },
        {
          "internalType": "uint256",
          "name": "timestamp",
          "type": "uint256"
        }
      ],
      "name": "realtimeBalanceOf",
      "outputs": [
        {
          "internalType": "int256",
          "name": "availableBalance",
          "type": "int256"
        },
        {
          "internalType": "uint256",
          "name": "deposit",
          "type": "uint256"
        },
        {
          "internalType": "uint256",
          "name": "owedDeposit",
          "type": "uint256"
        }
      ],
      "stateMutability": "view",
      "type": "function"
    },
    {
      "inputs": [
        {
          "internalType": "address",
          "name": "account",
          "type": "address"
        }
      ],
      "name": "realtimeBalanceOfNow",
      "outputs": [
        {
          "internalType": "int256",
          "name": "availableBalance",
          "type": "int256"
        },
        {
          "internalType": "uint256",
          "name": "deposit",
          "type": "uint256"
        },
        {
          "internalType": "uint256",
          "name": "owedDeposit",
          "type": "uint256"
        },
        {
          "internalType": "uint256",
          "name": "timestamp",
          "type": "uint256"
        }
      ],
      "stateMutability": "view",
      "type": "function"
    },
    {
      "inputs": [],
      "name": "renounceOwnership",
      "outputs": [],
      "stateMutability": "nonpayable",
      "type": "function"
    },
    {
      "inputs": [
        {
          "internalType": "address",
          "name": "operator",
          "type": "address"
        }
      ],
      "name": "revokeOperator",
      "outputs": [],
      "stateMutability": "nonpayable",
      "type": "function"
    },
    {
      "inputs": [
        {
          "internalType": "address",
          "name": "account",
          "type": "address"
        },
        {
          "internalType": "uint256",
          "name": "amount",
          "type": "uint256"
        },
        {
          "internalType": "bytes",
          "name": "userData",
          "type": "bytes"
        }
      ],
      "name": "selfBurn",
      "outputs": [],
      "stateMutability": "nonpayable",
      "type": "function"
    },
    {
      "inputs": [
        {
          "internalType": "address",
          "name": "account",
          "type": "address"
        },
        {
          "internalType": "uint256",
          "name": "amount",
          "type": "uint256"
        },
        {
          "internalType": "bytes",
          "name": "userData",
          "type": "bytes"
        }
      ],
      "name": "selfMint",
      "outputs": [],
      "stateMutability": "nonpayable",
      "type": "function"
    },
    {
      "inputs": [
        {
          "internalType": "address",
          "name": "recipient",
          "type": "address"
        },
        {
          "internalType": "uint256",
          "name": "amount",
          "type": "uint256"
        },
        {
          "internalType": "bytes",
          "name": "data",
          "type": "bytes"
        }
      ],
      "name": "send",
      "outputs": [],
      "stateMutability": "nonpayable",
      "type": "function"
    },
    {
      "inputs": [
        {
          "internalType": "address",
          "name": "account",
          "type": "address"
        },
        {
          "internalType": "int256",
          "name": "delta",
          "type": "int256"
        }
      ],
      "name": "settleBalance",
      "outputs": [],
      "stateMutability": "nonpayable",
      "type": "function"
    },
    {
      "inputs": [],
      "name": "symbol",
      "outputs": [
        {
          "internalType": "string",
          "name": "",
          "type": "string"
        }
      ],
      "stateMutability": "view",
      "type": "function"
    },
    {
      "inputs": [
        {
          "internalType": "bytes32",
          "name": "id",
          "type": "bytes32"
        },
        {
          "internalType": "uint256",
          "name": "dataLength",
          "type": "uint256"
        }
      ],
      "name": "terminateAgreement",
      "outputs": [],
      "stateMutability": "nonpayable",
      "type": "function"
    },
    {
      "inputs": [],
      "name": "totalSupply",
      "outputs": [
        {
          "internalType": "uint256",
          "name": "",
          "type": "uint256"
        }
      ],
      "stateMutability": "view",
      "type": "function"
    },
    {
      "inputs": [
        {
          "internalType": "address",
          "name": "recipient",
          "type": "address"
        },
        {
          "internalType": "uint256",
          "name": "amount",
          "type": "uint256"
        }
      ],
      "name": "transfer",
      "outputs": [
        {
          "internalType": "bool",
          "name": "",
          "type": "bool"
        }
      ],
      "stateMutability": "nonpayable",
      "type": "function"
    },
    {
      "inputs": [
        {
          "internalType": "address",
          "name": "recipient",
          "type": "address"
        }
      ],
      "name": "transferAll",
      "outputs": [],
      "stateMutability": "nonpayable",
      "type": "function"
    },
    {
      "inputs": [
        {
          "internalType": "address",
          "name": "holder",
          "type": "address"
        },
        {
          "internalType": "address",
          "name": "recipient",
          "type": "address"
        },
        {
          "internalType": "uint256",
          "name": "amount",
          "type": "uint256"
        }
      ],
      "name": "transferFrom",
      "outputs": [
        {
          "internalType": "bool",
          "name": "",
          "type": "bool"
        }
      ],
      "stateMutability": "nonpayable",
      "type": "function"
    },
    {
      "inputs": [
        {
          "internalType": "address",
          "name": "newOwner",
          "type": "address"
        }
      ],
      "name": "transferOwnership",
      "outputs": [],
      "stateMutability": "nonpayable",
      "type": "function"
    },
    {
      "inputs": [
        {
          "internalType": "bytes32",
          "name": "id",
          "type": "bytes32"
        },
        {
          "internalType": "bytes32[]",
          "name": "data",
          "type": "bytes32[]"
        }
      ],
      "name": "updateAgreementData",
      "outputs": [],
      "stateMutability": "nonpayable",
      "type": "function"
    },
    {
      "inputs": [
        {
          "internalType": "address",
          "name": "account",
          "type": "address"
        },
        {
          "internalType": "uint256",
          "name": "slotId",
          "type": "uint256"
        },
        {
          "internalType": "bytes32[]",
          "name": "slotData",
          "type": "bytes32[]"
        }
      ],
      "name": "updateAgreementStateSlot",
      "outputs": [],
      "stateMutability": "nonpayable",
      "type": "function"
    },
    {
      "inputs": [
        {
          "internalType": "address",
          "name": "newAddress",
          "type": "address"
        }
      ],
      "name": "updateCode",
      "outputs": [],
      "stateMutability": "nonpayable",
      "type": "function"
    },
    {
      "inputs": [
        {
          "internalType": "uint256",
          "name": "amount",
          "type": "uint256"
        }
      ],
      "name": "upgrade",
      "outputs": [],
      "stateMutability": "nonpayable",
      "type": "function"
    },
    {
      "inputs": [
        {
          "internalType": "address",
          "name": "to",
          "type": "address"
        },
        {
          "internalType": "uint256",
          "name": "amount",
          "type": "uint256"
        },
        {
          "internalType": "bytes",
          "name": "data",
          "type": "bytes"
        }
      ],
      "name": "upgradeTo",
      "outputs": [],
      "stateMutability": "nonpayable",
      "type": "function"
    }
  ],
  "bytecode": "0x60a06040523480156200001157600080fd5b5060405162004d8238038062004d828339810160408190526200003491620000aa565b606081901b6001600160601b031916608052620000513362000058565b50620000da565b600e80546001600160a01b038381166001600160a01b0319831681179093556040519116919082907f8be0079c531659141344cd1fd0a4f28419497f9722a3daafe3b4186f6b6457e090600090a35050565b600060208284031215620000bc578081fd5b81516001600160a01b0381168114620000d3578182fd5b9392505050565b60805160601c614c436200013f6000396000818161046b01528181610dc501528181610e3801528181610fdc01528181611200015281816113780152818161153c015281816115de0152818161168401528181611d1e0152611da50152614c436000f3fe60806040526004361061033e5760003560e01c8063715018a6116101ae578063c68d4283116100eb578063dfdbb2021161008f578063f2fde38b1161006c578063f2fde38b14610a4f578063fad8b32a14610a6f578063fc673c4f14610a8f578063fe9d930314610aaf57005b8063dfdbb202146109d6578063eb3537cc146109f6578063ee719bc814610a3157005b8063d95b6371116100c8578063d95b637114610930578063d9d078d614610950578063d9ff4ad814610970578063dd62ed3e1461099057005b8063c68d4283146108d0578063ca789464146108f0578063cf97256d1461091057005b80639d87674111610152578063a457c2d71161012f578063a457c2d714610850578063a9059cbb14610870578063b84cdd4a14610890578063bb0d196e146108b057005b80639d876741146107f0578063a1b2bf8b14610810578063a3a7e7f31461083057005b80638ddd1c0f1161018b5780638ddd1c0f1461077b578063959b8c3f1461079b57806395d89b41146107bb5780639bd9bbc6146107d057005b8063715018a61461072857806379359f6f1461073d5780638da5cb5b1461075d57005b8063386fa2211161027c57806352d1902d1161022057806362aa5287116101fd57806362aa5287146106a857806362ad1b83146106c85780636c2d9f2f146106e857806370a082311461070857005b806352d1902d14610641578063556f0dc7146106745780635b9d09cc1461068857005b806345977d031161025957806345977d03146105bf57806346951954146105df5780634b61cc33146105ff57806350d75d251461062c57005b8063386fa2211461055f578063395093511461057f57806342fe09801461059f57005b806318160ddd116102e3578063245887fc116102c0578063245887fc146104c357806327048397146104e35780632ec8eec714610503578063313ce5671461054357005b806318160ddd1461043d57806320bc44251461045c57806323b872dd146104a357005b8063095ea7b31161031c578063095ea7b3146103ad57806311bcc81e146103dd57806312a6a3f8146103fd57806316d055d61461041d57005b806306e485381461034057806306fdde031461036b578063090c415e1461038d575b005b34801561034c57600080fd5b50610355610acf565b604051610362919061453b565b60405180910390f35b34801561037757600080fd5b50610380610ae0565b6040516103629190614602565b34801561039957600080fd5b5061033e6103a8366004614046565b610b72565b3480156103b957600080fd5b506103cd6103c836600461401b565b610c26565b6040519015158152602001610362565b3480156103e957600080fd5b5061033e6103f8366004614445565b610c3d565b34801561040957600080fd5b5061033e61041836600461435b565b610c9e565b34801561042957600080fd5b5061033e610438366004613e77565b610dc3565b34801561044957600080fd5b506003545b604051908152602001610362565b34801561046857600080fd5b507f00000000000000000000000000000000000000000000000000000000000000005b6040516001600160a01b039091168152602001610362565b3480156104af57600080fd5b506103cd6104be366004613ec7565b610e1e565b3480156104cf57600080fd5b5061033e6104de36600461401b565b610e36565b3480156104ef57600080fd5b5061033e6104fe3660046143a4565b610ead565b34801561050f57600080fd5b5061052361051e366004613e07565b610f8a565b604080519485526020850193909352918301526060820152608001610362565b34801561054f57600080fd5b5060405160128152602001610362565b34801561056b57600080fd5b5061035561057a366004613e07565b610fa8565b34801561058b57600080fd5b506103cd61059a36600461401b565b61105a565b3480156105ab57600080fd5b5061033e6105ba3660046143c5565b611095565b3480156105cb57600080fd5b5061033e6105da366004614445565b61119f565b3480156105eb57600080fd5b5061033e6105fa366004613e07565b6111f5565b34801561060b57600080fd5b5061061f61061a366004613fa2565b611284565b6040516103629190614588565b34801561063857600080fd5b5061048b6112c9565b34801561064d57600080fd5b507f6bfbb132610e56cb96575dba244667b9d6dbfeffe22b68a79fa16f2d18eb001961044e565b34801561068057600080fd5b50600161044e565b34801561069457600080fd5b5061033e6106a336600461409f565b6112f3565b3480156106b457600080fd5b5061033e6106c3366004613ec7565b611376565b3480156106d457600080fd5b5061033e6106e3366004613f07565b6113ce565b3480156106f457600080fd5b5061061f610703366004613fe7565b61147b565b34801561071457600080fd5b5061044e610723366004613e07565b6114bd565b34801561073457600080fd5b5061033e6114e5565b34801561074957600080fd5b506103cd610758366004613e07565b61151b565b34801561076957600080fd5b50600e546001600160a01b031661048b565b34801561078757600080fd5b5061033e61079636600461430a565b611527565b3480156107a757600080fd5b5061033e6107b6366004613e07565b611a11565b3480156107c757600080fd5b50610380611a62565b3480156107dc57600080fd5b5061033e6107eb36600461409f565b611a71565b3480156107fc57600080fd5b5061033e61080b366004614174565b611ac5565b34801561081c57600080fd5b5061033e61082b36600461435b565b611b34565b34801561083c57600080fd5b5061033e61084b366004613e07565b611bde565b34801561085c57600080fd5b506103cd61086b36600461401b565b611bf2565b34801561087c57600080fd5b506103cd61088b36600461401b565b611c41565b34801561089c57600080fd5b506103cd6108ab36600461401b565b611c4f565b3480156108bc57600080fd5b506103cd6108cb366004613e07565b611ca0565b3480156108dc57600080fd5b5061033e6108eb366004614174565b611cac565b3480156108fc57600080fd5b5061033e61090b36600461401b565b611d1c565b34801561091c57600080fd5b5061033e61092b36600461401b565b611d90565b34801561093c57600080fd5b506103cd61094b366004613e3f565b611e86565b34801561095c57600080fd5b506103cd61096b36600461401b565b611e94565b34801561097c57600080fd5b5061033e61098b366004614174565b611eae565b34801561099c57600080fd5b5061044e6109ab366004613e3f565b6001600160a01b03918216600090815260126020908152604080832093909416825291909152205490565b3480156109e257600080fd5b5061033e6109f1366004614174565b611ed8565b348015610a0257600080fd5b50610a16610a1136600461401b565b611f02565b60408051938452602084019290925290820152606001610362565b348015610a3d57600080fd5b50600f546001600160a01b031661048b565b348015610a5b57600080fd5b5061033e610a6a366004613e07565b612054565b348015610a7b57600080fd5b5061033e610a8a366004613e07565b6120ec565b348015610a9b57600080fd5b5061033e610aaa3660046140ec565b61213d565b348015610abb57600080fd5b5061033e610aca36600461445d565b6121dc565b6060610adb601361222c565b905090565b606060108054610aef90614b1f565b80601f0160208091040260200160405190810160405280929190818152602001828054610b1b90614b1f565b8015610b685780601f10610b3d57610100808354040283529160200191610b68565b820191906000526020600020905b815481529060010190602001808311610b4b57829003601f168201915b5050505050905090565b6000338585604051602001610b8993929190614740565b604051602081830303815290604052805190602001209050610bde8184848080602002602001604051908101604052809392919081815260200183836020028082843760009201919091525061229292505050565b6040518481526001600160a01b0386169033907f30f416fa68fca014a0f334464c64b000ba53e99b6d2afdea9d5ca756372d5985906020015b60405180910390a35050505050565b6000610c333384846122e1565b5060015b92915050565b600e546001600160a01b03163314610c705760405162461bcd60e51b8152600401610c6790614864565b60405180910390fd5b610c9b3333836040518060200160405280600081525060405180602001604052806000815250612408565b50565b6040513390600090610cb69083908790602001614615565b60408051601f1981840301815291905280516020909101209050610cda818461260d565b15610d3a5760405162461bcd60e51b815260206004820152602a60248201527f5375706572666c756964546f6b656e3a2061677265656d656e7420616c726561604482015269191e4818dc99585d195960b21b6064820152608401610c67565b610d778185858080602002602001604051908101604052809392919081815260200183836020028082843760009201919091525061229292505050565b816001600160a01b03167f770ea40a13a4644573ed785e5c7116890709947918747febc5add46feb531e2d868686604051610db4939291906145c0565b60405180910390a25050505050565b7f00000000000000000000000000000000000000000000000000000000000000006001600160a01b03163314610e0b5760405162461bcd60e51b8152600401610c67906146f5565b610e1784848484612649565b5050505050565b6000610e2c33858585612649565b90505b9392505050565b7f00000000000000000000000000000000000000000000000000000000000000006001600160a01b03163314610e7e5760405162461bcd60e51b8152600401610c67906146f5565b610ea93383836040518060200160405280600081525060405180602001604052806000815250612408565b5050565b6040513390600090610ec59083908690602001614615565b604051602081830303815290604052805190602001209050610ee7818461260d565b610f455760405162461bcd60e51b815260206004820152602960248201527f5375706572666c756964546f6b656e3a2061677265656d656e7420646f6573206044820152681b9bdd08195e1a5cdd60ba1b6064820152608401610c67565b610f4f81846127c1565b60405184815233907f71a63dc095de07aa5512ad57a7596a39516317e316981a1cd71000057be1537b9060200160405180910390a250505050565b6000808042610f998582611f02565b91979096509094509092509050565b6001600160a01b038181166000908152600160205260409081902054905163c56a069d60e01b8152901960048201526060917f0000000000000000000000000000000000000000000000000000000000000000169063c56a069d9060240160006040518083038186803b15801561101e57600080fd5b505afa158015611032573d6000803e3d6000fd5b505050506040513d6000823e601f3d908101601f19168201604052610c37919081019061421f565b3360008181526012602090815260408083206001600160a01b03871684529091528120549091610c3391859061109090866127e2565b6122e1565b600054610100900460ff166110b05760005460ff16156110b4565b303b155b6111175760405162461bcd60e51b815260206004820152602e60248201527f496e697469616c697a61626c653a20636f6e747261637420697320616c72656160448201526d191e481a5b9a5d1a585b1a5e995960921b6064820152608401610c67565b600054610100900460ff16158015611139576000805461ffff19166101011790555b600f805460ff8816600160a01b026001600160a81b03199091166001600160a01b038a161717905561116d60108686613cef565b5061117a60118484613cef565b50611184306127ee565b8015611196576000805461ff00191690555b50505050505050565b600e546001600160a01b031633146111c95760405162461bcd60e51b8152600401610c6790614864565b610c9b33333384604051806020016040528060008152506040518060200160405280600081525061291c565b336001600160a01b037f0000000000000000000000000000000000000000000000000000000000000000161461127b5760405162461bcd60e51b815260206004820152602560248201527f5375706572546f6b656e3a206f6e6c7920686f73742063616e2075706461746560448201526420636f646560d81b6064820152608401610c67565b610c9b81612b3d565b6060600085858560405160200161129d93929190614740565b6040516020818303038152906040528051906020012090506112bf8184612d35565b9695505050505050565b6000610adb7f360894a13ba1a3210667c828492db98dca3e2076cc3735a920a3ca505d382bbc5490565b600e546001600160a01b0316331461131d5760405162461bcd60e51b8152600401610c6790614864565b611370333386866040518060200160405280600081525087878080601f01602080910402602001604051908101604052809392919081815260200183838082843760009201919091525061291c92505050565b50505050565b7f00000000000000000000000000000000000000000000000000000000000000006001600160a01b031633146113be5760405162461bcd60e51b8152600401610c67906146f5565b6113c98383836122e1565b505050565b336113db6013828a612de0565b6113f75760405162461bcd60e51b8152600401610c67906147d0565b6114718189898989898080601f01602080910402602001604051908101604052809392919081815260200183838082843760009201919091525050604080516020601f8d018190048102820181019092528b815292508b91508a908190840183828082843760009201919091525060019250612e89915050565b5050505050505050565b606060008484604051602001611492929190614615565b6040516020818303038152906040528051906020012090506114b48184612d35565b95945050505050565b6000806114ca8342611f02565b50509050600081126114dc5780610e2f565b60009392505050565b600e546001600160a01b0316331461150f5760405162461bcd60e51b8152600401610c6790614864565b6115196000612f00565b565b6000610c378242611e94565b604051632329212160e21b81523360048201527f00000000000000000000000000000000000000000000000000000000000000006001600160a01b031690638ca484849060240160206040518083038186803b15801561158657600080fd5b505afa15801561159a573d6000803e3d6000fd5b505050506040513d601f19601f820116820180604052508101906115be91906142d2565b6115da5760405162461bcd60e51b8152600401610c6790614789565b60007f00000000000000000000000000000000000000000000000000000000000000006001600160a01b031663289b3c0d6040518163ffffffff1660e01b815260040160206040518083038186803b15801561163557600080fd5b505afa158015611649573d6000803e3d6000fd5b505050506040513d601f19601f8201168201806040525081019061166d9190613e23565b604051638369a0f160e01b81526001600160a01b037f0000000000000000000000000000000000000000000000000000000000000000811660048301523060248301527f9f60ae461adf056670e03ae602566409933242392cb06744f5747c9f38b05d096044830152919250600091831690638369a0f19060640160206040518083038186803b15801561170057600080fd5b505afa158015611714573d6000803e3d6000fd5b505050506040513d601f19601f820116820180604052508101906117389190613e23565b90506001600160a01b03811661174b5750845b600061175685612f52565b90508361186e576001600160a01b0382166000908152600260205260409020546117809082612fc0565b6001600160a01b0380841660009081526002602052604080822093909355908816815220546117af9082612fcc565b6001600160a01b038781166000818152600260209081526040918290209490945580518c815293840189905291851692909133917f8505c3d8f1f184f032cf0bc4cd80ee61c8b9d94f8907c3281bf0101a2610fe80910160405180910390a4604080516001600160a01b038981168252602082018b9052918101879052600060608201528184169188169033907f5f22b60e58b1d6de858bc27c48d5a4653e052da99e083c1d88bb8c58e1abc8ef9060800160405180910390a4611471565b600061187985612f52565b6001600160a01b03891660009081526002602052604090205490915061189f9083612fc0565b6001600160a01b03808a1660009081526002602052604080822093909355908516815220546118da9082906118d49085612fcc565b90612fcc565b6001600160a01b0380851660009081526002602052604080822093909355908916815220546119099082612fc0565b6001600160a01b038881166000818152600260209081526040918290209490945580518d81529384018a9052918b1692909133917f8505c3d8f1f184f032cf0bc4cd80ee61c8b9d94f8907c3281bf0101a2610fe80910160405180910390a4826001600160a01b03167fd6c9a04afc81e8c614310bbee6c9e84f5abe15b82038bf8347014ce0852e6ffd866040516119a391815260200190565b60405180910390a2604080516001600160a01b038a81168252602082018c9052918101889052606081018790528185169189169033907f5f22b60e58b1d6de858bc27c48d5a4653e052da99e083c1d88bb8c58e1abc8ef9060800160405180910390a4505050505050505050565b33611a1e60138284612fd8565b806001600160a01b0316826001600160a01b03167ff4caeb2d6ca8932a215a353d0703c326ec2d81fc68170f320eb2ab49e9df61f960405160405180910390a35050565b606060118054610aef90614b1f565b6113703333868686868080601f01602080910402602001604051908101604052809392919081815260200183838082843760009201829052506040805160208101909152908152925060019150612e899050565b333014611b145760405162461bcd60e51b815260206004820152601d60248201527f5375706572546f6b656e3a206f6e6c792073656c6620616c6c6f7765640000006044820152606401610c67565b6040805160008152602081019091526113c99033908590859085906130dd565b6040513390600090611b4c9083908790602001614615565b604051602081830303815290604052805190602001209050611ba18185858080602002602001604051908101604052809392919081815260200183836020028082843760009201919091525061229292505050565b336001600160a01b03167f0c4c547b3a4fcaa5be8353b3111472b124155bccc86de811d4a481c9e6e9faca868686604051610db4939291906145c0565b610ea9333383611bed336114bd565b612649565b6000610c333384611090856040518060600160405280602a8152602001614bb7602a91393360009081526012602090815260408083206001600160a01b038d16845290915290205491906131e4565b6000610e2f33338585612649565b600080600080611c5f8686611f02565b9250925092506000611c91828411611c78576000611c8a565b611c8a611c858486614ab9565b612f52565b8590612fc0565b60001315979650505050505050565b6000610c378242611c4f565b333014611cfb5760405162461bcd60e51b815260206004820152601d60248201527f5375706572546f6b656e3a206f6e6c792073656c6620616c6c6f7765640000006044820152606401610c67565b604080516000808252602082019092526113c9913391869186918690613210565b7f00000000000000000000000000000000000000000000000000000000000000006001600160a01b03163314611d645760405162461bcd60e51b8152600401610c67906146f5565b610ea933838484604051806020016040528060008152506040518060200160405280600081525061291c565b604051632329212160e21b81523360048201527f00000000000000000000000000000000000000000000000000000000000000006001600160a01b031690638ca484849060240160206040518083038186803b158015611def57600080fd5b505afa158015611e03573d6000803e3d6000fd5b505050506040513d601f19601f82011682018060405250810190611e2791906142d2565b611e435760405162461bcd60e51b8152600401610c6790614789565b6001600160a01b038216600090815260026020526040902054611e669082612fc0565b6001600160a01b0390921660009081526002602052604090209190915550565b6000610e2f60138484612de0565b600080611ea18484611f02565b5050600013949350505050565b600e546001600160a01b03163314611b145760405162461bcd60e51b8152600401610c6790614864565b600e546001600160a01b03163314611cfb5760405162461bcd60e51b8152600401610c6790614864565b6001600160a01b038216600090815260026020526040812054908080611f2786610fa8565b905060005b815181101561204b576000806000848481518110611f5a57634e487b7160e01b600052603260045260246000fd5b60209081029190910101516040516326cb922f60e21b81523060048201526001600160a01b038c81166024830152604482018c905290911690639b2e48bc9060640160606040518083038186803b158015611fb457600080fd5b505afa158015611fc8573d6000803e3d6000fd5b505050506040513d601f19601f82011682018060405250810190611fec9190614418565b91945092509050611ffd87836127e2565b965061200986826127e2565b955061203381831161201c576000612029565b612029611c858385614ab9565b6118d48a86612fc0565b9750505050808061204390614b5a565b915050611f2c565b50509250925092565b600e546001600160a01b0316331461207e5760405162461bcd60e51b8152600401610c6790614864565b6001600160a01b0381166120e35760405162461bcd60e51b815260206004820152602660248201527f4f776e61626c653a206e6577206f776e657220697320746865207a65726f206160448201526564647265737360d01b6064820152608401610c67565b610c9b81612f00565b336120f960138284613319565b806001600160a01b0316826001600160a01b03167f50546e66e5f44d728365dc3908c63bc5cfeeab470722c1677e3073a6ac294aa160405160405180910390a35050565b3361214a60138289612de0565b6121665760405162461bcd60e51b8152600401610c67906147d0565b61119681888888888080601f01602080910402602001604051908101604052809392919081815260200183838082843760009201919091525050604080516020601f8c018190048102820181019092528a815292508a915089908190840183828082843760009201919091525061240892505050565b6113c933338585858080601f016020809104026020016040519081016040528093929190818152602001838380828437600092018290525060408051602081019091529081529250612408915050565b60608160000180548060200260200160405190810160405280929190818152602001828054801561228657602002820191906000526020600020905b81546001600160a01b03168152600190910190602001808311612268575b50505050509050919050565b60005b81518110156113c95760008282815181106122c057634e487b7160e01b600052603260045260246000fd5b60200260200101519050808285015550806122da90614b5a565b9050612295565b6001600160a01b0383166123455760405162461bcd60e51b815260206004820152602560248201527f5375706572546f6b656e3a20617070726f76652066726f6d207a65726f206164604482015264647265737360d81b6064820152608401610c67565b6001600160a01b0382166123a75760405162461bcd60e51b815260206004820152602360248201527f5375706572546f6b656e3a20617070726f766520746f207a65726f206164647260448201526265737360e81b6064820152608401610c67565b6001600160a01b0383811660008181526012602090815260408083209487168084529482529182902085905590518481527f8c5be1e5ebec7d5bd14f71427d1e84f3dd0314c0f7b2291e5b200ac8c7c3b925910160405180910390a3505050565b600f546001600160a01b03166124605760405162461bcd60e51b815260206004820152601f60248201527f5375706572546f6b656e3a206e6f20756e6465726c79696e6720746f6b656e006044820152606401610c67565b60008061246c85613412565b9150915061247d87878387876130dd565b600f546040516370a0823160e01b81523060048201526000916001600160a01b0316906370a082319060240160206040518083038186803b1580156124c157600080fd5b505afa1580156124d5573d6000803e3d6000fd5b505050506040513d601f19601f820116820180604052508101906124f991906142f2565b600f54909150612513906001600160a01b031688856134ce565b600f546040516370a0823160e01b81523060048201526000916001600160a01b0316906370a082319060240160206040518083038186803b15801561255757600080fd5b505afa15801561256b573d6000803e3d6000fd5b505050506040513d601f19601f8201168201806040525081019061258f91906142f2565b9050600061259d8383613531565b90508085146125be5760405162461bcd60e51b8152600401610c6790614652565b886001600160a01b03167f3bc27981aebbb57f9247dc00fde9d6cd91e4b230083fec3238fedbcba1f9ab3d856040516125f991815260200190565b60405180910390a250505050505050505050565b6000805b8281101561263f5783810154801561262e57600192505050610c37565b5061263881614b5a565b9050612611565b5060009392505050565b60006001600160a01b0384166126715760405162461bcd60e51b8152600401610c67906146af565b6001600160a01b0383166126975760405162461bcd60e51b8152600401610c6790614820565b60003390506126c881868686604051806020016040528060008152506040518060200160405280600081525061353d565b6126f4818686866040518060200160405280600081525060405180602001604052806000815250613673565b846001600160a01b0316866001600160a01b031614612787576127878587611090866040518060600160405280602d8152602001614be1602d9139601260008c6001600160a01b03166001600160a01b0316815260200190815260200160002060008d6001600160a01b03166001600160a01b03168152602001908152602001600020546131e49092919063ffffffff16565b6127b58186868660405180602001604052806000815250604051806020016040528060008152506000613724565b50600195945050505050565b60005b818110156113c9576000838201556127db81614b5a565b90506127c4565b6000610e2f8284614935565b6040516329965a1d60e01b81526001600160a01b03821660048201527fac7fbab5f54a3ca8194167523c6753bfeb96a445279294b6125b68cce21770546024820152306044820152731820a4b7618bde71dce8cdc73aab6c95905fad24906329965a1d90606401600060405180830381600087803b15801561286f57600080fd5b505af1158015612883573d6000803e3d6000fd5b50506040516329965a1d60e01b81526001600160a01b03841660048201527faea199e31a596269b42cdafd93407f14436db6e4cad65417994c2eb37381e05a6024820152306044820152731820a4b7618bde71dce8cdc73aab6c95905fad2492506329965a1d9150606401600060405180830381600087803b15801561290857600080fd5b505af1158015610e17573d6000803e3d6000fd5b600f546001600160a01b03166129745760405162461bcd60e51b815260206004820152601f60248201527f5375706572546f6b656e3a206e6f20756e6465726c79696e6720746f6b656e006044820152606401610c67565b60008061298085613412565b600f546040516370a0823160e01b81523060048201529294509092506000916001600160a01b03909116906370a082319060240160206040518083038186803b1580156129cc57600080fd5b505afa1580156129e0573d6000803e3d6000fd5b505050506040513d601f19601f82011682018060405250810190612a0491906142f2565b600f54909150612a1f906001600160a01b03168930866138c3565b600f546040516370a0823160e01b81523060048201526000916001600160a01b0316906370a082319060240160206040518083038186803b158015612a6357600080fd5b505afa158015612a77573d6000803e3d6000fd5b505050506040513d601f19601f82011682018060405250810190612a9b91906142f2565b90506000612aa98284613531565b9050808514612aca5760405162461bcd60e51b8152600401610c6790614652565b612aed8b8a868c6001600160a01b03168e6001600160a01b031614158b8b613210565b886001600160a01b03167f25ca84076773b0455db53621c459ddc84fe40840e4932a62706a032566f399df85604051612b2891815260200190565b60405180910390a25050505050505050505050565b6000612b677f360894a13ba1a3210667c828492db98dca3e2076cc3735a920a3ca505d382bbc5490565b6001600160a01b03161415612bbe5760405162461bcd60e51b815260206004820152601d60248201527f5555505350726f786961626c653a206e6f742075706772616461626c650000006044820152606401610c67565b806001600160a01b03166352d1902d6040518163ffffffff1660e01b815260040160206040518083038186803b158015612bf757600080fd5b505afa158015612c0b573d6000803e3d6000fd5b505050506040513d601f19601f82011682018060405250810190612c2f91906142f2565b7f6bfbb132610e56cb96575dba244667b9d6dbfeffe22b68a79fa16f2d18eb001914612ca95760405162461bcd60e51b815260206004820152602360248201527f5555505350726f786961626c653a206e6f7420636f6d70617469626c65206c6f60448201526267696360e81b6064820152608401610c67565b612cd1817f360894a13ba1a3210667c828492db98dca3e2076cc3735a920a3ca505d382bbc55565b7fe011bc04c286c344a8fcbb8de77f953da762c3e25d8cdea984147fc4168a5dcc7f6bfbb132610e56cb96575dba244667b9d6dbfeffe22b68a79fa16f2d18eb0019604080519182526001600160a01b03841660208301520160405180910390a150565b6060816001600160401b03811115612d5d57634e487b7160e01b600052604160045260246000fd5b604051908082528060200260200182016040528015612d86578160200160208202803683370190505b50905060005b82811015612dd957600081850154905080838381518110612dbd57634e487b7160e01b600052603260045260246000fd5b602090810291909101015250612dd281614b5a565b9050612d8c565b5092915050565b6000816001600160a01b0316836001600160a01b03161480612e4f57506001600160a01b038316600090815260018501602052604090205460ff168015612e4f57506001600160a01b03808316600090815260038601602090815260408083209387168352929052205460ff16155b80610e2c57506001600160a01b03808316600090815260028601602090815260408083209387168352929052205460ff1690509392505050565b6001600160a01b038616612eaf5760405162461bcd60e51b8152600401610c67906146af565b6001600160a01b038516612ed55760405162461bcd60e51b8152600401610c6790614820565b612ee387878787878761353d565b612ef1878787878787613673565b61119687878787878787613724565b600e80546001600160a01b038381166001600160a01b0319831681179093556040519116919082907f8be0079c531659141344cd1fd0a4f28419497f9722a3daafe3b4186f6b6457e090600090a35050565b60006001600160ff1b03821115612fbc5760405162461bcd60e51b815260206004820152602860248201527f53616665436173743a2076616c756520646f65736e27742066697420696e2061604482015267371034b73a191a9b60c11b6064820152608401610c67565b5090565b6000610e2f82846148f4565b6000610e2f8284614a7a565b806001600160a01b0316826001600160a01b031614156130505760405162461bcd60e51b815260206004820152602d60248201527f4552433737374f70657261746f72733a20617574686f72697a696e672073656c60448201526c331030b99037b832b930ba37b960991b6064820152608401610c67565b6001600160a01b038116600090815260018401602052604090205460ff16156130a6576001600160a01b03918216600090815260039390930160209081526040808520929093168452529020805460ff19169055565b6001600160a01b0380831660009081526002850160209081526040808320938516835292905220805460ff19166001179055505050565b6001600160a01b03841661313e5760405162461bcd60e51b815260206004820152602260248201527f5375706572546f6b656e3a206275726e2066726f6d207a65726f206164647265604482015261737360f01b6064820152608401610c67565b61314d8585600086868661353d565b61315784846138fb565b836001600160a01b0316856001600160a01b03167fa78a9be3a7b862d26933ad85fb11d80ef66b8f972d7cbba06621d583943a409885858560405161319e93929190614899565b60405180910390a36040518381526000906001600160a01b038616907fddf252ad1be2c89b69c2b068fc378daa952ba7f163c4a11628f55a4df523b3ef90602001610c17565b600081848411156132085760405162461bcd60e51b8152600401610c679190614602565b505050900390565b6001600160a01b0385166132665760405162461bcd60e51b815260206004820181905260248201527f5375706572546f6b656e3a206d696e7420746f207a65726f20616464726573736044820152606401610c67565b61327085856139d1565b6132808660008787868689613724565b846001600160a01b0316866001600160a01b03167f2fe5be0146f74c5bce36c0b80911af6c7d86ff27e89d5cfa61fc681327954e5d8685856040516132c793929190614899565b60405180910390a36040518481526001600160a01b038616906000907fddf252ad1be2c89b69c2b068fc378daa952ba7f163c4a11628f55a4df523b3ef906020015b60405180910390a3505050505050565b6001600160a01b0381163314156133855760405162461bcd60e51b815260206004820152602a60248201527f4552433737374f70657261746f72733a207265766f6b696e672073656c662061604482015269399037b832b930ba37b960b11b6064820152608401610c67565b6001600160a01b038116600090815260018401602052604090205460ff16156133df576001600160a01b0380831660009081526003850160209081526040808320938516835292905220805460ff19166001179055505050565b6001600160a01b03918216600090815260029390930160209081526040808520929093168452529020805460ff19169055565b600f54600090819081906012600160a01b90910460ff16101561347157600f5461344790600160a01b900460ff166012614ad0565b61345290600a6149b0565b905061345e818561494d565b925061346a8184614a5b565b91506134c8565b600f546012600160a01b90910460ff1611156134c157600f546134a090601290600160a01b900460ff16614ad0565b6134ab90600a6149b0565b90506134b78185614a5b565b92508391506134c8565b8391508192505b50915091565b6040516001600160a01b0383166024820152604481018290526113c990849063a9059cbb60e01b906064015b60408051601f198184030181529190526020810180516001600160e01b03166001600160e01b031990931692909217909152613a29565b6000610e2f8284614ab9565b60405163555ddc6560e11b81526001600160a01b03861660048201527f29ddb589b1fb5fc7cf394961c1adf5f8c6454761adf795e67fe149f658abe8956024820152600090731820a4b7618bde71dce8cdc73aab6c95905fad249063aabbb8ca9060440160206040518083038186803b1580156135b957600080fd5b505afa1580156135cd573d6000803e3d6000fd5b505050506040513d601f19601f820116820180604052508101906135f19190613e23565b90506001600160a01b0381161561119657604051633ad5cbc160e11b81526001600160a01b038216906375ab978290613638908a908a908a908a908a908a906004016144e1565b600060405180830381600087803b15801561365257600080fd5b505af1158015613666573d6000803e3d6000fd5b5050505050505050505050565b613686858561368186612f52565b613afb565b836001600160a01b0316856001600160a01b0316876001600160a01b03167f06b541ddaa720db2b10a4d0cdac39b8d360425fc073085fac19bc826146779878686866040516136d793929190614899565b60405180910390a4836001600160a01b0316856001600160a01b03167fddf252ad1be2c89b69c2b068fc378daa952ba7f163c4a11628f55a4df523b3ef8560405161330991815260200190565b60405163555ddc6560e11b81526001600160a01b03861660048201527fb281fc8c12954d22544db45de3159a39272895b169a852b314f9cc762e44c53b6024820152600090731820a4b7618bde71dce8cdc73aab6c95905fad249063aabbb8ca9060440160206040518083038186803b1580156137a057600080fd5b505afa1580156137b4573d6000803e3d6000fd5b505050506040513d601f19601f820116820180604052508101906137d89190613e23565b90506001600160a01b03811615613854576040516223de2960e01b81526001600160a01b038216906223de299061381d908b908b908b908b908b908b906004016144e1565b600060405180830381600087803b15801561383757600080fd5b505af115801561384b573d6000803e3d6000fd5b50505050611471565b8115611471576001600160a01b0386163b156114715760405162461bcd60e51b815260206004820152602860248201527f5375706572546f6b656e3a206e6f7420616e20455243373737546f6b656e73526044820152671958da5c1a595b9d60c21b6064820152608401610c67565b6040516001600160a01b03808516602483015283166044820152606481018290526113709085906323b872dd60e01b906084016134fa565b60006139078342611f02565b5050905061391482612f52565b8112156139785760405162461bcd60e51b815260206004820152602c60248201527f5375706572666c756964546f6b656e3a206275726e20616d6f756e742065786360448201526b656564732062616c616e636560a01b6064820152608401610c67565b6139a361398483612f52565b6001600160a01b03851660009081526002602052604090205490612fcc565b6001600160a01b0384166000908152600260205260409020556003546139c99083613531565b600355505050565b6139fc6139dd82612f52565b6001600160a01b03841660009081526002602052604090205490612fc0565b6001600160a01b038316600090815260026020526040902055600354613a2290826127e2565b6003555050565b6000613a7e826040518060400160405280602081526020017f5361666545524332303a206c6f772d6c6576656c2063616c6c206661696c6564815250856001600160a01b0316613be49092919063ffffffff16565b8051909150156113c95780806020019051810190613a9c91906142d2565b6113c95760405162461bcd60e51b815260206004820152602a60248201527f5361666545524332303a204552433230206f7065726174696f6e20646964206e6044820152691bdd081cdd58d8d9595960b21b6064820152608401610c67565b6000613b078442611f02565b5050905081811215613b705760405162461bcd60e51b815260206004820152602c60248201527f5375706572666c756964546f6b656e3a206d6f766520616d6f756e742065786360448201526b656564732062616c616e636560a01b6064820152608401610c67565b6001600160a01b038416600090815260026020526040902054613b939083612fcc565b6001600160a01b038086166000908152600260205260408082209390935590851681522054613bc29083612fc0565b6001600160a01b03909316600090815260026020526040902092909255505050565b6060610e2c848460008585843b613c3d5760405162461bcd60e51b815260206004820152601d60248201527f416464726573733a2063616c6c20746f206e6f6e2d636f6e74726163740000006044820152606401610c67565b600080866001600160a01b03168587604051613c5991906144c5565b60006040518083038185875af1925050503d8060008114613c96576040519150601f19603f3d011682016040523d82523d6000602084013e613c9b565b606091505b5091509150613cab828286613cb6565b979650505050505050565b60608315613cc5575081610e2f565b825115613cd55782518084602001fd5b8160405162461bcd60e51b8152600401610c679190614602565b828054613cfb90614b1f565b90600052602060002090601f016020900481019282613d1d5760008555613d63565b82601f10613d365782800160ff19823516178555613d63565b82800160010185558215613d63579182015b82811115613d63578235825591602001919060010190613d48565b50612fbc9291505b80821115612fbc5760008155600101613d6b565b60008083601f840112613d90578182fd5b5081356001600160401b03811115613da6578182fd5b6020830191508360208260051b8501011115613dc157600080fd5b9250929050565b60008083601f840112613dd9578182fd5b5081356001600160401b03811115613def578182fd5b602083019150836020828501011115613dc157600080fd5b600060208284031215613e18578081fd5b8135610e2f81614ba1565b600060208284031215613e34578081fd5b8151610e2f81614ba1565b60008060408385031215613e51578081fd5b8235613e5c81614ba1565b91506020830135613e6c81614ba1565b809150509250929050565b60008060008060808587031215613e8c578182fd5b8435613e9781614ba1565b93506020850135613ea781614ba1565b92506040850135613eb781614ba1565b9396929550929360600135925050565b600080600060608486031215613edb578283fd5b8335613ee681614ba1565b92506020840135613ef681614ba1565b929592945050506040919091013590565b600080600080600080600060a0888a031215613f21578283fd5b8735613f2c81614ba1565b96506020880135613f3c81614ba1565b95506040880135945060608801356001600160401b0380821115613f5e578485fd5b613f6a8b838c01613dc8565b909650945060808a0135915080821115613f82578384fd5b50613f8f8a828b01613dc8565b989b979a50959850939692959293505050565b60008060008060808587031215613fb7578182fd5b8435613fc281614ba1565b93506020850135613fd281614ba1565b93969395505050506040820135916060013590565b600080600060608486031215613ffb578081fd5b833561400681614ba1565b95602085013595506040909401359392505050565b6000806040838503121561402d578182fd5b823561403881614ba1565b946020939093013593505050565b6000806000806060858703121561405b578182fd5b843561406681614ba1565b93506020850135925060408501356001600160401b03811115614087578283fd5b61409387828801613d7f565b95989497509550505050565b600080600080606085870312156140b4578182fd5b84356140bf81614ba1565b93506020850135925060408501356001600160401b038111156140e0578283fd5b61409387828801613dc8565b60008060008060008060808789031215614104578384fd5b863561410f81614ba1565b95506020870135945060408701356001600160401b0380821115614131578586fd5b61413d8a838b01613dc8565b90965094506060890135915080821115614155578384fd5b5061416289828a01613dc8565b979a9699509497509295939492505050565b600080600060608486031215614188578081fd5b833561419381614ba1565b9250602084810135925060408501356001600160401b03808211156141b6578384fd5b818701915087601f8301126141c9578384fd5b8135818111156141db576141db614b8b565b6141ed601f8201601f191685016148c4565b91508082528884828501011115614202578485fd5b808484018584013784848284010152508093505050509250925092565b60006020808385031215614231578182fd5b82516001600160401b0380821115614247578384fd5b818501915085601f83011261425a578384fd5b81518181111561426c5761426c614b8b565b8060051b915061427d8483016148c4565b8181528481019084860184860187018a1015614297578788fd5b8795505b838610156142c557805194506142b085614ba1565b8483526001959095019491860191860161429b565b5098975050505050505050565b6000602082840312156142e3578081fd5b81518015158114610e2f578182fd5b600060208284031215614303578081fd5b5051919050565b600080600080600060a08688031215614321578283fd5b85359450602086013561433381614ba1565b9350604086013561434381614ba1565b94979396509394606081013594506080013592915050565b60008060006040848603121561436f578081fd5b8335925060208401356001600160401b0381111561438b578182fd5b61439786828701613d7f565b9497909650939450505050565b600080604083850312156143b6578182fd5b50508035926020909101359150565b600080600080600080608087890312156143dd578384fd5b86356143e881614ba1565b9550602087013560ff811681146143fd578485fd5b945060408701356001600160401b0380821115614131578586fd5b60008060006060848603121561442c578081fd5b8351925060208401519150604084015190509250925092565b600060208284031215614456578081fd5b5035919050565b600080600060408486031215614471578081fd5b8335925060208401356001600160401b0381111561448d578182fd5b61439786828701613dc8565b600081518084526144b1816020860160208601614af3565b601f01601f19169290920160200192915050565b600082516144d7818460208701614af3565b9190910192915050565b6001600160a01b0387811682528681166020830152851660408201526060810184905260c06080820181905260009061451c90830185614499565b82810360a084015261452e8185614499565b9998505050505050505050565b6020808252825182820181905260009190848201906040850190845b8181101561457c5783516001600160a01b031683529284019291840191600101614557565b50909695505050505050565b6020808252825182820181905260009190848201906040850190845b8181101561457c578351835292840192918401916001016145a4565b838152604060208201819052810182905260006001600160fb1b038311156145e6578081fd5b8260051b80856060850137919091016060019081529392505050565b602081526000610e2f6020830184614499565b6060808252600d908201526c41677265656d656e744461746160981b60808201526001600160a01b03929092166020830152604082015260a00190565b6020808252603a908201527f5375706572546f6b656e3a20696e666c6174696f6e6172792f6465666c61746960408201527f6f6e61727920746f6b656e73206e6f7420737570706f72746564000000000000606082015260800190565b60208082526026908201527f5375706572546f6b656e3a207472616e736665722066726f6d207a65726f206160408201526564647265737360d01b606082015260800190565b6020808252602b908201527f5375706572666c756964546f6b656e3a204f6e6c7920686f737420636f6e747260408201526a1858dd08185b1b1bddd95960aa1b606082015260800190565b6080808252600e908201526d41677265656d656e74537461746560901b60a08201526001600160a01b039384166020820152919092166040820152606081019190915260c00190565b60208082526027908201527f5375706572666c756964546f6b656e3a206f6e6c79206c6973746564206167726040820152661959595b595b9d60ca1b606082015260800190565b60208082526030908201527f5375706572546f6b656e3a2063616c6c6572206973206e6f7420616e206f706560408201526f3930ba37b9103337b9103437b63232b960811b606082015260800190565b60208082526024908201527f5375706572546f6b656e3a207472616e7366657220746f207a65726f206164646040820152637265737360e01b606082015260800190565b6020808252818101527f4f776e61626c653a2063616c6c6572206973206e6f7420746865206f776e6572604082015260600190565b8381526060602082015260006148b26060830185614499565b82810360408401526112bf8185614499565b604051601f8201601f191681016001600160401b03811182821017156148ec576148ec614b8b565b604052919050565b600080821280156001600160ff1b038490038513161561491657614916614b75565b600160ff1b839003841281161561492f5761492f614b75565b50500190565b6000821982111561494857614948614b75565b500190565b60008261496857634e487b7160e01b81526012600452602481fd5b500490565b600181815b808511156149a857816000190482111561498e5761498e614b75565b8085161561499b57918102915b93841c9390800290614972565b509250929050565b6000610e2f60ff8416836000826149c957506001610c37565b816149d657506000610c37565b81600181146149ec57600281146149f657614a12565b6001915050610c37565b60ff841115614a0757614a07614b75565b50506001821b610c37565b5060208310610133831016604e8410600b8410161715614a35575081810a610c37565b614a3f838361496d565b8060001904821115614a5357614a53614b75565b029392505050565b6000816000190483118215151615614a7557614a75614b75565b500290565b60008083128015600160ff1b850184121615614a9857614a98614b75565b6001600160ff1b0384018313811615614ab357614ab3614b75565b50500390565b600082821015614acb57614acb614b75565b500390565b600060ff821660ff841680821015614aea57614aea614b75565b90039392505050565b60005b83811015614b0e578181015183820152602001614af6565b838111156113705750506000910152565b600181811c90821680614b3357607f821691505b60208210811415614b5457634e487b7160e01b600052602260045260246000fd5b50919050565b6000600019821415614b6e57614b6e614b75565b5060010190565b634e487b7160e01b600052601160045260246000fd5b634e487b7160e01b600052604160045260246000fd5b6001600160a01b0381168114610c9b57600080fdfe5375706572546f6b656e3a2064656372656173656420616c6c6f77616e63652062656c6f77207a65726f5375706572546f6b656e3a207472616e7366657220616d6f756e74206578636565647320616c6c6f77616e6365a26469706673582212208c9e60e7cc3107527521126825af074c8050d59c462f202db7c1de45be5a40c464736f6c63430008040033",
  "linkReferences": {},
  "deployedLinkReferences": {}
}