{
  "_format": "hh-sol-artifact-1",
  "contractName": "REXReferral",
  "sourceName": "contracts/REXReferral.sol",
  "abi": [
    {
      "inputs": [],
      "stateMutability": "nonpayable",
      "type": "constructor"
    },
    {
      "anonymous": false,
      "inputs": [
        {
          "indexed": false,
          "internalType": "string",
          "name": "name",
          "type": "string"
        },
        {
          "indexed": false,
          "internalType": "string",
          "name": "id",
          "type": "string"
        }
      ],
      "name": "AffiliateApplied",
      "type": "event"
    },
    {
      "anonymous": false,
      "inputs": [
        {
          "indexed": false,
          "internalType": "string",
          "name": "affiliateId",
          "type": "string"
        }
      ],
      "name": "AffiliateWithdrawn",
      "type": "event"
    },
    {
      "anonymous": false,
      "inputs": [
        {
          "indexed": true,
          "internalType": "address",
          "name": "previousOwner",
          "type": "address"
        },
        {
          "indexed": true,
          "internalType": "address",
          "name": "newOwner",
          "type": "address"
        }
      ],
      "name": "OwnershipTransferred",
      "type": "event"
    },
    {
      "inputs": [
        {
          "internalType": "address",
          "name": "",
          "type": "address"
        }
      ],
      "name": "addressToAffiliate",
      "outputs": [
        {
          "internalType": "uint256",
          "name": "",
          "type": "uint256"
        }
      ],
      "stateMutability": "view",
      "type": "function"
    },
    {
      "inputs": [
        {
          "internalType": "string",
          "name": "",
          "type": "string"
        }
      ],
      "name": "affiliateIdToAffiliate",
      "outputs": [
        {
          "internalType": "uint256",
          "name": "",
          "type": "uint256"
        }
      ],
      "stateMutability": "view",
      "type": "function"
    },
    {
      "inputs": [
        {
          "internalType": "uint256",
          "name": "",
          "type": "uint256"
        }
      ],
      "name": "affiliates",
      "outputs": [
        {
          "internalType": "string",
          "name": "name",
          "type": "string"
        },
        {
          "internalType": "string",
          "name": "id",
          "type": "string"
        },
        {
          "internalType": "bool",
          "name": "enabled",
          "type": "bool"
        },
        {
          "internalType": "uint256",
          "name": "totalRef",
          "type": "uint256"
        },
        {
          "internalType": "address",
          "name": "addr",
          "type": "address"
        }
      ],
      "stateMutability": "view",
      "type": "function"
    },
    {
      "inputs": [
        {
          "internalType": "string",
          "name": "name",
          "type": "string"
        },
        {
          "internalType": "string",
          "name": "id",
          "type": "string"
        }
      ],
      "name": "applyForAffiliate",
      "outputs": [],
      "stateMutability": "nonpayable",
      "type": "function"
    },
    {
      "inputs": [
        {
          "internalType": "address",
          "name": "newAddress",
          "type": "address"
        }
      ],
      "name": "changeAffiliateAddress",
      "outputs": [],
      "stateMutability": "nonpayable",
      "type": "function"
    },
    {
      "inputs": [
        {
          "internalType": "string",
          "name": "affiliateId",
          "type": "string"
        }
      ],
      "name": "disableAffiliate",
      "outputs": [
        {
          "internalType": "bool",
          "name": "",
          "type": "bool"
        }
      ],
      "stateMutability": "nonpayable",
      "type": "function"
    },
    {
      "inputs": [
        {
          "internalType": "address",
          "name": "userAddr",
          "type": "address"
        }
      ],
      "name": "getAffiliateAddress",
      "outputs": [
        {
          "internalType": "address",
          "name": "",
          "type": "address"
        }
      ],
      "stateMutability": "view",
      "type": "function"
    },
    {
      "inputs": [
        {
          "internalType": "string",
          "name": "affiliateId",
          "type": "string"
        }
      ],
      "name": "isAffiliateEnabled",
      "outputs": [
        {
          "internalType": "bool",
          "name": "",
          "type": "bool"
        }
      ],
      "stateMutability": "view",
      "type": "function"
    },
    {
      "inputs": [
        {
          "internalType": "address",
          "name": "",
          "type": "address"
        }
      ],
      "name": "isUserOrganic",
      "outputs": [
        {
          "internalType": "bool",
          "name": "",
          "type": "bool"
        }
      ],
      "stateMutability": "view",
      "type": "function"
    },
    {
      "inputs": [],
      "name": "owner",
      "outputs": [
        {
          "internalType": "address",
          "name": "",
          "type": "address"
        }
      ],
      "stateMutability": "view",
      "type": "function"
    },
    {
      "inputs": [],
      "name": "renounceOwnership",
      "outputs": [],
      "stateMutability": "nonpayable",
      "type": "function"
    },
    {
      "inputs": [
        {
          "internalType": "address",
          "name": "newOwner",
          "type": "address"
        }
      ],
      "name": "transferOwnership",
      "outputs": [],
      "stateMutability": "nonpayable",
      "type": "function"
    },
    {
      "inputs": [
        {
          "internalType": "address",
          "name": "",
          "type": "address"
        }
      ],
      "name": "userToAffiliate",
      "outputs": [
        {
          "internalType": "uint256",
          "name": "",
          "type": "uint256"
        }
      ],
      "stateMutability": "view",
      "type": "function"
    },
    {
      "inputs": [
        {
          "internalType": "string",
          "name": "affiliateId",
          "type": "string"
        }
      ],
      "name": "verifyAffiliate",
      "outputs": [
        {
          "internalType": "bool",
          "name": "",
          "type": "bool"
        }
      ],
      "stateMutability": "nonpayable",
      "type": "function"
    },
    {
      "inputs": [],
      "name": "withdrawAffiliate",
      "outputs": [],
      "stateMutability": "nonpayable",
      "type": "function"
    }
  ],
  "bytecode": "0x60806040523480156200001157600080fd5b506200001d3362000132565b6040805160e081018252600760a082018181526647656e6573697360c81b60c08401528252825180840184529081526667656e6573697360c81b602082810191909152808301919091526000928201839052606082018390526080820183905260058054600181018255938190528251805193949091027f036b6384b5eca791c62761152d0c79bb0604c104a5fb6f4eb0703f3154bb3db00192620000c6928492019062000182565b506020828101518051620000e1926001850192019062000182565b50604082015160028201805460ff191691151591909117905560608201516003820155608090910151600490910180546001600160a01b0319166001600160a01b0390921691909117905562000265565b600080546001600160a01b038381166001600160a01b0319831681178455604051919092169283917f8be0079c531659141344cd1fd0a4f28419497f9722a3daafe3b4186f6b6457e09190a35050565b828054620001909062000228565b90600052602060002090601f016020900481019282620001b45760008555620001ff565b82601f10620001cf57805160ff1916838001178555620001ff565b82800160010185558215620001ff579182015b82811115620001ff578251825591602001919060010190620001e2565b506200020d92915062000211565b5090565b5b808211156200020d576000815560010162000212565b600181811c908216806200023d57607f821691505b602082108114156200025f57634e487b7160e01b600052602260045260246000fd5b50919050565b61125780620002756000396000f3fe608060405234801561001057600080fd5b50600436106100f55760003560e01c8063740356d0116100975780638da5cb5b116100665780638da5cb5b14610220578063bfdd83f314610231578063f2fde38b14610251578063ff3204ac1461026457600080fd5b8063740356d0146101b95780637493f3fd146101cc5780637e2bbbbf146101df578063873abd75146101f257600080fd5b80632b8f9835116100d35780632b8f9835146101585780633671c7171461017b57806369bcdd0a1461018e578063715018a6146101b157600080fd5b80630e9ebfbf146100fa57806315ec67201461012a5780631bd7874814610134575b600080fd5b61010d610108366004610f68565b61028f565b6040516001600160a01b0390911681526020015b60405180910390f35b6101326104a0565b005b610147610142366004611032565b6106ab565b6040516101219594939291906110d3565b61016b610166366004610f96565b610810565b6040519015158152602001610121565b610132610189366004610fd1565b6108e8565b61016b61019c366004610f68565b60046020526000908152604090205460ff1681565b610132610b0f565b61016b6101c7366004610f96565b610b45565b6101326101da366004610f68565b610bc3565b61016b6101ed366004610f96565b610cbf565b610212610200366004610f68565b60036020526000908152604090205481565b604051908152602001610121565b6000546001600160a01b031661010d565b61021261023f366004610f68565b60016020526000908152604090205481565b61013261025f366004610f68565b610d5d565b610212610272366004610f96565b805160208183018101805160028252928201919093012091525481565b6001600160a01b03811660009081526004602052604081205460ff16806102cc57506001600160a01b038216600090815260036020526040902054155b156102d957506000919050565b6001600160a01b03821660009081526003602052604081205460058054909190811061031557634e487b7160e01b600052603260045260246000fd5b90600052602060002090600502016040518060a001604052908160008201805461033e906111d6565b80601f016020809104026020016040519081016040528092919081815260200182805461036a906111d6565b80156103b75780601f1061038c576101008083540402835291602001916103b7565b820191906000526020600020905b81548152906001019060200180831161039a57829003601f168201915b505050505081526020016001820180546103d0906111d6565b80601f01602080910402602001604051908101604052809291908181526020018280546103fc906111d6565b80156104495780601f1061041e57610100808354040283529160200191610449565b820191906000526020600020905b81548152906001019060200180831161042c57829003601f168201915b5050509183525050600282015460ff161515602082015260038201546040808301919091526004909201546001600160a01b03166060909101528101519091506104965750600092915050565b6080015192915050565b336000908152600160205260409020546104d55760405162461bcd60e51b81526004016104cc9061111f565b60405180910390fd5b3360009081526001602052604090205460058054909190811061050857634e487b7160e01b600052603260045260246000fd5b600091825260209091206002600590920201015460ff161561056c5760405162461bcd60e51b815260206004820152601c60248201527f416666696c6961746520697320616c726561647920656e61626c65640000000060448201526064016104cc565b3360009081526001602052604081205460058054909190811061059f57634e487b7160e01b600052603260045260246000fd5b906000526020600020906005020160010180546105bb906111d6565b80601f01602080910402602001604051908101604052809291908181526020018280546105e7906111d6565b80156106345780601f1061060957610100808354040283529160200191610634565b820191906000526020600020905b81548152906001019060200180831161061757829003601f168201915b50503360009081526001602052604080822082905551949550936002935061065f9250859150611076565b9081526020016040518091039020819055507f3b5ca57944f3a4aea8415e0d233225d45d5d428f0d68ac1e865a4bcaa809b6b1816040516106a09190611092565b60405180910390a150565b600581815481106106bb57600080fd5b90600052602060002090600502016000915090508060000180546106de906111d6565b80601f016020809104026020016040519081016040528092919081815260200182805461070a906111d6565b80156107575780601f1061072c57610100808354040283529160200191610757565b820191906000526020600020905b81548152906001019060200180831161073a57829003601f168201915b50505050509080600101805461076c906111d6565b80601f0160208091040260200160405190810160405280929190818152602001828054610798906111d6565b80156107e55780601f106107ba576101008083540402835291602001916107e5565b820191906000526020600020905b8154815290600101906020018083116107c857829003601f168201915b5050505060028301546003840154600490940154929360ff909116929091506001600160a01b031685565b600080546001600160a01b0316331461083b5760405162461bcd60e51b81526004016104cc9061114e565b81600060028260405161084e9190611076565b9081526020016040518091039020541161087a5760405162461bcd60e51b81526004016104cc9061111f565b6001600560028560405161088e9190611076565b908152602001604051809103902054815481106108bb57634e487b7160e01b600052603260045260246000fd5b60009182526020909120600590910201600201805460ff1916911515919091179055600191505b50919050565b33600090815260016020526040902054156109375760405162461bcd60e51b815260206004820152600f60248201526e105b1c9958591e48185c1c1b1a5959608a1b60448201526064016104cc565b6002816040516109479190611076565b9081526020016040518091039020546000146109a55760405162461bcd60e51b815260206004820152601b60248201527f416666696c6961746520494420616c726561647920657869737473000000000060448201526064016104cc565b6040805160a08101825283815260208082018490526000928201839052606082018390523360808301526005805460018101825593819052825180519394859492027f036b6384b5eca791c62761152d0c79bb0604c104a5fb6f4eb0703f3154bb3db00192610a1992849290910190610e48565b506020828101518051610a329260018501920190610e48565b50604082015160028201805460ff191691151591909117905560608201516003820155608090910151600490910180546001600160a01b0319166001600160a01b03909216919091179055600554610a8c90600190611183565b33600090815260016020819052604090912091909155600554610aaf9190611183565b600283604051610abf9190611076565b9081526020016040518091039020819055507fc806ffe6748910a923eb73c0fe95de2ccb564cc4d63382074a460f74a4eb70ed8383604051610b029291906110a5565b60405180910390a1505050565b6000546001600160a01b03163314610b395760405162461bcd60e51b81526004016104cc9061114e565b610b436000610df8565b565b600080546001600160a01b03163314610b705760405162461bcd60e51b81526004016104cc9061114e565b816000600282604051610b839190611076565b90815260200160405180910390205411610baf5760405162461bcd60e51b81526004016104cc9061111f565b6000600560028560405161088e9190611076565b33600090815260016020526040902054610bef5760405162461bcd60e51b81526004016104cc9061111f565b806001600160a01b038116610c3c5760405162461bcd60e51b81526020600482015260136024820152720416464726573732063616e6e6f74206265203606c1b60448201526064016104cc565b336000908152600160205260408120546005805491929183908110610c7157634e487b7160e01b600052603260045260246000fd5b6000918252602080832060046005909302019190910180546001600160a01b039097166001600160a01b03199097168717905533825260019052604080822082905594815293909320555050565b6000816000600282604051610cd49190611076565b90815260200160405180910390205411610d005760405162461bcd60e51b81526004016104cc9061111f565b6005600284604051610d129190611076565b90815260200160405180910390205481548110610d3f57634e487b7160e01b600052603260045260246000fd5b600091825260209091206005909102016002015460ff169392505050565b6000546001600160a01b03163314610d875760405162461bcd60e51b81526004016104cc9061114e565b6001600160a01b038116610dec5760405162461bcd60e51b815260206004820152602660248201527f4f776e61626c653a206e6577206f776e657220697320746865207a65726f206160448201526564647265737360d01b60648201526084016104cc565b610df581610df8565b50565b600080546001600160a01b038381166001600160a01b0319831681178455604051919092169283917f8be0079c531659141344cd1fd0a4f28419497f9722a3daafe3b4186f6b6457e09190a35050565b828054610e54906111d6565b90600052602060002090601f016020900481019282610e765760008555610ebc565b82601f10610e8f57805160ff1916838001178555610ebc565b82800160010185558215610ebc579182015b82811115610ebc578251825591602001919060010190610ea1565b50610ec8929150610ecc565b5090565b5b80821115610ec85760008155600101610ecd565b600082601f830112610ef1578081fd5b813567ffffffffffffffff80821115610f0c57610f0c61120b565b604051601f8301601f19908116603f01168101908282118183101715610f3457610f3461120b565b81604052838152866020858801011115610f4c578485fd5b8360208701602083013792830160200193909352509392505050565b600060208284031215610f79578081fd5b81356001600160a01b0381168114610f8f578182fd5b9392505050565b600060208284031215610fa7578081fd5b813567ffffffffffffffff811115610fbd578182fd5b610fc984828501610ee1565b949350505050565b60008060408385031215610fe3578081fd5b823567ffffffffffffffff80821115610ffa578283fd5b61100686838701610ee1565b9350602085013591508082111561101b578283fd5b5061102885828601610ee1565b9150509250929050565b600060208284031215611043578081fd5b5035919050565b600081518084526110628160208601602086016111a6565b601f01601f19169290920160200192915050565b600082516110888184602087016111a6565b9190910192915050565b602081526000610f8f602083018461104a565b6040815260006110b8604083018561104a565b82810360208401526110ca818561104a565b95945050505050565b60a0815260006110e660a083018861104a565b82810360208401526110f8818861104a565b9515156040840152505060608101929092526001600160a01b031660809091015292915050565b6020808252601590820152744e6f7420612076616c696420616666696c6961746560581b604082015260600190565b6020808252818101527f4f776e61626c653a2063616c6c6572206973206e6f7420746865206f776e6572604082015260600190565b6000828210156111a157634e487b7160e01b81526011600452602481fd5b500390565b60005b838110156111c15781810151838201526020016111a9565b838111156111d0576000848401525b50505050565b600181811c908216806111ea57607f821691505b602082108114156108e257634e487b7160e01b600052602260045260246000fd5b634e487b7160e01b600052604160045260246000fdfea2646970667358221220bd0fdd28ea948589079b9bb07355f031b56573ea99837da3f32fb925ee1ee0d564736f6c63430008040033",
  "linkReferences": {},
  "deployedLinkReferences": {}
}