{
  "_format": "hh-sol-artifact-1",
  "contractName": "REXSushiFarmMarket",
  "sourceName": "contracts/REXSushiFarmMarket.sol",
  "abi": [
    {
      "inputs": [
        {
          "internalType": "address",
          "name": "_owner",
          "type": "address"
        },
        {
          "internalType": "address",
          "name": "_slpAddress",
          "type": "address"
        },
        {
          "internalType": "contract ISuperfluid",
          "name": "_host",
          "type": "address"
        },
        {
          "internalType": "contract IConstantFlowAgreementV1",
          "name": "_cfa",
          "type": "address"
        },
        {
          "internalType": "contract IInstantDistributionAgreementV1",
          "name": "_ida",
          "type": "address"
        },
        {
          "internalType": "string",
          "name": "_registrationKey",
          "type": "string"
        }
      ],
      "stateMutability": "nonpayable",
      "type": "constructor"
    },
    {
      "anonymous": false,
      "inputs": [
        {
          "indexed": false,
          "internalType": "uint256",
          "name": "totalAmount",
          "type": "uint256"
        },
        {
          "indexed": false,
          "internalType": "uint256",
          "name": "feeCollected",
          "type": "uint256"
        },
        {
          "indexed": false,
          "internalType": "address",
          "name": "token",
          "type": "address"
        }
      ],
      "name": "Distribution",
      "type": "event"
    },
    {
      "anonymous": false,
      "inputs": [
        {
          "indexed": true,
          "internalType": "address",
          "name": "previousOwner",
          "type": "address"
        },
        {
          "indexed": true,
          "internalType": "address",
          "name": "newOwner",
          "type": "address"
        }
      ],
      "name": "OwnershipTransferred",
      "type": "event"
    },
    {
      "stateMutability": "payable",
      "type": "fallback"
    },
    {
      "inputs": [
        {
          "internalType": "uint256",
          "name": "amount",
          "type": "uint256"
        },
        {
          "internalType": "uint256",
          "name": "deadline",
          "type": "uint256"
        }
      ],
      "name": "_swapAndDeposit",
      "outputs": [
        {
          "internalType": "uint256",
          "name": "",
          "type": "uint256"
        }
      ],
      "stateMutability": "nonpayable",
      "type": "function"
    },
    {
      "inputs": [
        {
          "internalType": "contract ISuperToken",
          "name": "_token",
          "type": "address"
        },
        {
          "internalType": "uint128",
          "name": "_feeRate",
          "type": "uint128"
        },
        {
          "internalType": "uint256",
          "name": "_emissionRate",
          "type": "uint256"
        },
        {
          "internalType": "uint256",
          "name": "_requestId",
          "type": "uint256"
        }
      ],
      "name": "addOutputPool",
      "outputs": [],
      "stateMutability": "nonpayable",
      "type": "function"
    },
    {
      "inputs": [
        {
          "internalType": "contract ISuperToken",
          "name": "_superToken",
          "type": "address"
        },
        {
          "internalType": "address",
          "name": "_agreementClass",
          "type": "address"
        },
        {
          "internalType": "bytes32",
          "name": "",
          "type": "bytes32"
        },
        {
          "internalType": "bytes",
          "name": "_agreementData",
          "type": "bytes"
        },
        {
          "internalType": "bytes",
          "name": "",
          "type": "bytes"
        },
        {
          "internalType": "bytes",
          "name": "_ctx",
          "type": "bytes"
        }
      ],
      "name": "afterAgreementCreated",
      "outputs": [
        {
          "internalType": "bytes",
          "name": "newCtx",
          "type": "bytes"
        }
      ],
      "stateMutability": "nonpayable",
      "type": "function"
    },
    {
      "inputs": [
        {
          "internalType": "contract ISuperToken",
          "name": "",
          "type": "address"
        },
        {
          "internalType": "address",
          "name": "",
          "type": "address"
        },
        {
          "internalType": "bytes32",
          "name": "",
          "type": "bytes32"
        },
        {
          "internalType": "bytes",
          "name": "_agreementData",
          "type": "bytes"
        },
        {
          "internalType": "bytes",
          "name": "_cbdata",
          "type": "bytes"
        },
        {
          "internalType": "bytes",
          "name": "_ctx",
          "type": "bytes"
        }
      ],
      "name": "afterAgreementTerminated",
      "outputs": [
        {
          "internalType": "bytes",
          "name": "newCtx",
          "type": "bytes"
        }
      ],
      "stateMutability": "nonpayable",
      "type": "function"
    },
    {
      "inputs": [
        {
          "internalType": "contract ISuperToken",
          "name": "_superToken",
          "type": "address"
        },
        {
          "internalType": "address",
          "name": "_agreementClass",
          "type": "address"
        },
        {
          "internalType": "bytes32",
          "name": "",
          "type": "bytes32"
        },
        {
          "internalType": "bytes",
          "name": "_agreementData",
          "type": "bytes"
        },
        {
          "internalType": "bytes",
          "name": "",
          "type": "bytes"
        },
        {
          "internalType": "bytes",
          "name": "_ctx",
          "type": "bytes"
        }
      ],
      "name": "afterAgreementUpdated",
      "outputs": [
        {
          "internalType": "bytes",
          "name": "newCtx",
          "type": "bytes"
        }
      ],
      "stateMutability": "nonpayable",
      "type": "function"
    },
    {
      "inputs": [
        {
          "internalType": "contract ISuperToken",
          "name": "",
          "type": "address"
        },
        {
          "internalType": "address",
          "name": "",
          "type": "address"
        },
        {
          "internalType": "bytes32",
          "name": "",
          "type": "bytes32"
        },
        {
          "internalType": "bytes",
          "name": "",
          "type": "bytes"
        },
        {
          "internalType": "bytes",
          "name": "",
          "type": "bytes"
        }
      ],
      "name": "beforeAgreementCreated",
      "outputs": [
        {
          "internalType": "bytes",
          "name": "",
          "type": "bytes"
        }
      ],
      "stateMutability": "view",
      "type": "function"
    },
    {
      "inputs": [
        {
          "internalType": "contract ISuperToken",
          "name": "_superToken",
          "type": "address"
        },
        {
          "internalType": "address",
          "name": "_agreementClass",
          "type": "address"
        },
        {
          "internalType": "bytes32",
          "name": "",
          "type": "bytes32"
        },
        {
          "internalType": "bytes",
          "name": "_agreementData",
          "type": "bytes"
        },
        {
          "internalType": "bytes",
          "name": "_ctx",
          "type": "bytes"
        }
      ],
      "name": "beforeAgreementTerminated",
      "outputs": [
        {
          "internalType": "bytes",
          "name": "cbdata",
          "type": "bytes"
        }
      ],
      "stateMutability": "view",
      "type": "function"
    },
    {
      "inputs": [
        {
          "internalType": "contract ISuperToken",
          "name": "",
          "type": "address"
        },
        {
          "internalType": "address",
          "name": "",
          "type": "address"
        },
        {
          "internalType": "bytes32",
          "name": "",
          "type": "bytes32"
        },
        {
          "internalType": "bytes",
          "name": "",
          "type": "bytes"
        },
        {
          "internalType": "bytes",
          "name": "",
          "type": "bytes"
        }
      ],
      "name": "beforeAgreementUpdated",
      "outputs": [
        {
          "internalType": "bytes",
          "name": "",
          "type": "bytes"
        }
      ],
      "stateMutability": "view",
      "type": "function"
    },
    {
      "inputs": [
        {
          "internalType": "bytes",
          "name": "ctx",
          "type": "bytes"
        }
      ],
      "name": "distribute",
      "outputs": [
        {
          "internalType": "bytes",
          "name": "newCtx",
          "type": "bytes"
        }
      ],
      "stateMutability": "nonpayable",
      "type": "function"
    },
    {
      "inputs": [
        {
          "internalType": "uint256",
          "name": "_requestId",
          "type": "uint256"
        }
      ],
      "name": "getCurrentValue",
      "outputs": [
        {
          "internalType": "bool",
          "name": "ifRetrieve",
          "type": "bool"
        },
        {
          "internalType": "uint256",
          "name": "value",
          "type": "uint256"
        },
        {
          "internalType": "uint256",
          "name": "timestampRetrieved",
          "type": "uint256"
        }
      ],
      "stateMutability": "view",
      "type": "function"
    },
    {
      "inputs": [
        {
          "internalType": "uint32",
          "name": "index",
          "type": "uint32"
        },
        {
          "internalType": "address",
          "name": "streamer",
          "type": "address"
        }
      ],
      "name": "getIDAShares",
      "outputs": [
        {
          "internalType": "bool",
          "name": "exist",
          "type": "bool"
        },
        {
          "internalType": "bool",
          "name": "approved",
          "type": "bool"
        },
        {
          "internalType": "uint128",
          "name": "units",
          "type": "uint128"
        },
        {
          "internalType": "uint256",
          "name": "pendingDistribution",
          "type": "uint256"
        }
      ],
      "stateMutability": "view",
      "type": "function"
    },
    {
      "inputs": [],
      "name": "getRexTokenAddress",
      "outputs": [
        {
          "internalType": "address",
          "name": "",
          "type": "address"
        }
      ],
      "stateMutability": "view",
      "type": "function"
    },
    {
      "inputs": [
        {
          "internalType": "address",
          "name": "streamer",
          "type": "address"
        }
      ],
      "name": "getStreamRate",
      "outputs": [
        {
          "internalType": "int96",
          "name": "requesterFlowRate",
          "type": "int96"
        }
      ],
      "stateMutability": "view",
      "type": "function"
    },
    {
      "inputs": [
        {
          "internalType": "bytes",
          "name": "ctx",
          "type": "bytes"
        }
      ],
      "name": "harvest",
      "outputs": [
        {
          "internalType": "bytes",
          "name": "newCtx",
          "type": "bytes"
        }
      ],
      "stateMutability": "nonpayable",
      "type": "function"
    },
    {
      "inputs": [
        {
          "internalType": "contract ISuperToken",
          "name": "_inputToken",
          "type": "address"
        },
        {
          "internalType": "uint256",
          "name": "_rateTolerance",
          "type": "uint256"
        },
        {
          "internalType": "contract ITellor",
          "name": "_tellor",
          "type": "address"
        },
        {
          "internalType": "uint256",
          "name": "_inputTokenRequestId",
          "type": "uint256"
        }
      ],
      "name": "initializeMarket",
      "outputs": [],
      "stateMutability": "nonpayable",
      "type": "function"
    },
    {
      "inputs": [
        {
          "internalType": "address",
          "name": "_pairToken",
          "type": "address"
        },
        {
          "internalType": "uint256",
          "name": "_pairTokenRequestId",
          "type": "uint256"
        },
        {
          "internalType": "uint256",
          "name": "_poolId",
          "type": "uint256"
        }
      ],
      "name": "initializeSushiFarmMarket",
      "outputs": [],
      "stateMutability": "nonpayable",
      "type": "function"
    },
    {
      "inputs": [],
      "name": "masterChef",
      "outputs": [
        {
          "internalType": "contract IMiniChefV2",
          "name": "",
          "type": "address"
        }
      ],
      "stateMutability": "view",
      "type": "function"
    },
    {
      "inputs": [],
      "name": "maticx",
      "outputs": [
        {
          "internalType": "contract ISuperToken",
          "name": "",
          "type": "address"
        }
      ],
      "stateMutability": "view",
      "type": "function"
    },
    {
      "inputs": [],
      "name": "maticxRequestId",
      "outputs": [
        {
          "internalType": "uint256",
          "name": "",
          "type": "uint256"
        }
      ],
      "stateMutability": "view",
      "type": "function"
    },
    {
      "inputs": [],
      "name": "owner",
      "outputs": [
        {
          "internalType": "address",
          "name": "",
          "type": "address"
        }
      ],
      "stateMutability": "view",
      "type": "function"
    },
    {
      "inputs": [],
      "name": "pairToken",
      "outputs": [
        {
          "internalType": "address",
          "name": "",
          "type": "address"
        }
      ],
      "stateMutability": "view",
      "type": "function"
    },
    {
      "inputs": [],
      "name": "poolId",
      "outputs": [
        {
          "internalType": "uint256",
          "name": "",
          "type": "uint256"
        }
      ],
      "stateMutability": "view",
      "type": "function"
    },
    {
      "inputs": [],
      "name": "renounceOwnership",
      "outputs": [],
      "stateMutability": "nonpayable",
      "type": "function"
    },
    {
      "inputs": [],
      "name": "sushi",
      "outputs": [
        {
          "internalType": "address",
          "name": "",
          "type": "address"
        }
      ],
      "stateMutability": "view",
      "type": "function"
    },
    {
      "inputs": [],
      "name": "sushiRouter",
      "outputs": [
        {
          "internalType": "address",
          "name": "",
          "type": "address"
        }
      ],
      "stateMutability": "view",
      "type": "function"
    },
    {
      "inputs": [],
      "name": "sushix",
      "outputs": [
        {
          "internalType": "contract ISuperToken",
          "name": "",
          "type": "address"
        }
      ],
      "stateMutability": "view",
      "type": "function"
    },
    {
      "inputs": [],
      "name": "sushixRequestId",
      "outputs": [
        {
          "internalType": "uint256",
          "name": "",
          "type": "uint256"
        }
      ],
      "stateMutability": "view",
      "type": "function"
    },
    {
      "inputs": [
        {
          "internalType": "address",
          "name": "newOwner",
          "type": "address"
        }
      ],
      "name": "transferOwnership",
      "outputs": [],
      "stateMutability": "nonpayable",
      "type": "function"
    },
    {
      "inputs": [
        {
          "internalType": "contract ISuperToken",
          "name": "_token",
          "type": "address"
        }
      ],
      "name": "updateTokenPrice",
      "outputs": [],
      "stateMutability": "nonpayable",
      "type": "function"
    }
  ],
  "bytecode": "0x6080604052600c805463ffffffff191690553480156200001e57600080fd5b506040516200a14a3803806200a14a833981016040819052620000419162000463565b85848484846200005133620002c4565b600180546001600160a01b038087166001600160a01b031992831617909255600280548684169083161790556003805492851692909116919091179055620000998562000314565b641500000001620000b682620003e9602090811b620030fb17901c565b8151156200012c5760015460405163bd1c448b60e01b81526001600160a01b039091169063bd1c448b90620000f29084908690600401620005ce565b600060405180830381600087803b1580156200010d57600080fd5b505af115801562000122573d6000803e3d6000fd5b505050506200018d565b6001546040516315a722b960e31b8152600481018390526001600160a01b039091169063ad3915c890602401600060405180830381600087803b1580156200017357600080fd5b505af115801562000188573d6000803e3d6000fd5b505050505b505050505050600084604051620001a49062000455565b6001600160a01b039091168152602001604051809103906000f080158015620001d1573d6000803e3d6000fd5b506040516285fc1360e71b81526001600160a01b0388811660048301526012602483015260806044830152600c60848301526b05269636f6368657420534c560a41b60a483015260c06064830152600660c4830152650726578534c560d41b60e4830152919250908216906342fe09809061010401600060405180830381600087803b1580156200026157600080fd5b505af115801562000276573d6000803e3d6000fd5b5050600e80546001600160a01b039094166001600160a01b03199485161790555050600f8054909116731b02da8cb0d097eb8d57a175b88c7d8b479975061790555062000650945050505050565b600080546001600160a01b038381166001600160a01b0319831681178455604051919092169283917f8be0079c531659141344cd1fd0a4f28419497f9722a3daafe3b4186f6b6457e09190a35050565b6000546001600160a01b03163314620003745760405162461bcd60e51b815260206004820181905260248201527f4f776e61626c653a2063616c6c6572206973206e6f7420746865206f776e657260448201526064015b60405180910390fd5b6001600160a01b038116620003db5760405162461bcd60e51b815260206004820152602660248201527f4f776e61626c653a206e6577206f776e657220697320746865207a65726f206160448201526564647265737360d01b60648201526084016200036b565b620003e681620002c4565b50565b620003e681604051602401620004009190620005b2565b60408051601f198184030181529190526020810180516001600160e01b0390811663104c13eb60e21b179091526200043416565b80516a636f6e736f6c652e6c6f67602083016000808483855afa5050505050565b614d8280620053c883390190565b60008060008060008060c087890312156200047c578182fd5b865162000489816200063a565b60208801519096506200049c816200063a565b6040880151909550620004af816200063a565b6060880151909450620004c2816200063a565b6080880151909350620004d5816200063a565b60a08801519092506001600160401b0380821115620004f2578283fd5b818901915089601f83011262000506578283fd5b8151818111156200051b576200051b62000624565b604051601f8201601f19908116603f0116810190838211818310171562000546576200054662000624565b816040528281528c60208487010111156200055f578586fd5b62000572836020830160208801620005f1565b80955050505050509295509295509295565b600081518084526200059e816020860160208601620005f1565b601f01601f19169290920160200192915050565b602081526000620005c7602083018462000584565b9392505050565b828152604060208201526000620005e9604083018462000584565b949350505050565b60005b838110156200060e578181015183820152602001620005f4565b838111156200061e576000848401525b50505050565b634e487b7160e01b600052604160045260246000fd5b6001600160a01b0381168114620003e657600080fd5b614d6880620006606000396000f3fe6080604052600436106101ad5760003560e01c806369f07e05116100eb5780638edfea3a1161008f578063d33fcc0811610061578063d33fcc0814610561578063d86ed3e514610581578063ec2c9c52146105a1578063f2fde38b146105c957005b80638edfea3a146104ec578063c12fc38b14610501578063cda8b1cb14610521578063ce5c7f611461054157005b8063827906a9116100c8578063827906a914610471578063868ad6da14610499578063884d1f40146104ae5780638da5cb5b146104ce57005b806369f07e05146104015780636d13582c14610434578063715018a61461045c57005b80633e0dc34e1161015257806354f5d5691161012f57806354f5d5691461037b578063575a86b21461039b5780635f9e7d77146103c357806366dc27b4146103e357005b80633e0dc34e146103085780633fcad9641461031e57806353c11f991461035b57005b8063217466151161018b5780632174661514610273578063230dbd291461029357806330d9c915146102c05780633de35b79146102e057005b80630a087903146101af5780630a1da710146101f45780630c9dfd1e14610222575b005b3480156101bb57600080fd5b506101d7736b3595068778dd592e39a122f4f5a5cf09c90fe281565b6040516001600160a01b0390911681526020015b60405180910390f35b34801561020057600080fd5b5061021461020f3660046145b3565b6105e9565b6040519081526020016101eb565b34801561022e57600080fd5b5061024261023d366004614601565b610f58565b6040516101eb9493929190931515845291151560208401526001600160801b03166040830152606082015260800190565b34801561027f57600080fd5b506101ad61028e36600461400a565b611017565b34801561029f57600080fd5b506102b36102ae3660046143e2565b61119a565b6040516101eb91906146b6565b3480156102cc57600080fd5b506102b36102db366004614346565b6112b9565b3480156102ec57600080fd5b50600c546101d79064010000000090046001600160a01b031681565b34801561031457600080fd5b50610214600d5481565b34801561032a57600080fd5b5061033e610339366004614535565b61131c565b6040805193151584526020840192909252908201526060016101eb565b34801561036757600080fd5b506102b36103763660046143e2565b6114e7565b34801561038757600080fd5b506101ad6103963660046144ee565b611615565b3480156103a757600080fd5b506101d7730769fd68dfb93167989c6f7254cd0d766fb2841f81565b3480156103cf57600080fd5b506102b36103de366004614346565b6116b7565b3480156103ef57600080fd5b50600e546001600160a01b03166101d7565b34801561040d57600080fd5b5061042161041c36600461400a565b611859565b604051600b9190910b81526020016101eb565b34801561044057600080fd5b506101d7731b02da8cb0d097eb8d57a175b88c7d8b4799750681565b34801561046857600080fd5b506101ad6118f5565b34801561047d57600080fd5b506101d7733ad736904e9e65189c3000c7dd2c8ac8bb7cd4e381565b3480156104a557600080fd5b50610214605081565b3480156104ba57600080fd5b506102b36104c9366004614346565b61192b565b3480156104da57600080fd5b506000546001600160a01b03166101d7565b3480156104f857600080fd5b50610214600681565b34801561050d57600080fd5b506102b361051c366004614233565b61198e565b34801561052d57600080fd5b506101ad61053c36600461407a565b61202e565b34801561054d57600080fd5b506102b361055c366004614233565b612376565b34801561056d57600080fd5b506101ad61057c3660046144a9565b6129f5565b34801561058d57600080fd5b506102b361059c3660046143e2565b612bca565b3480156105ad57600080fd5b506101d773dab943c03f9e84795dc7bf51ddc71daf0033382b81565b3480156105d557600080fd5b506101ad6105e436600461400a565b613060565b600061061160405180604001604052806005815260200164737761703160d81b8152506130fb565b60055460408051631dce337960e31b815290516000926001600160a01b03169163ee719bc8916004808301926020929190829003018186803b15801561065657600080fd5b505afa15801561066a573d6000803e3d6000fd5b505050506040513d601f19601f8201168201806040525081019061068e9190614026565b600c546005546040516370a0823160e01b81523060048201529293506001600160a01b036401000000009092048216929116906311bcc81e9082906370a082319060240160206040518083038186803b1580156106ea57600080fd5b505afa1580156106fe573d6000803e3d6000fd5b505050506040513d601f19601f82011682018060405250810190610722919061421b565b6040518263ffffffff1660e01b815260040161074091815260200190565b600060405180830381600087803b15801561075a57600080fd5b505af115801561076e573d6000803e3d6000fd5b505050506107986040518060400160405280600581526020016439bbb0b81960d91b8152506130fb565b6040516370a0823160e01b81523060048201526000906001600160a01b038416906370a082319060240160206040518083038186803b1580156107da57600080fd5b505afa1580156107ee573d6000803e3d6000fd5b505050506040513d601f19601f82011682018060405250810190610812919061421b565b600c546001600160a01b03640100000000909104811660009081526009602052604080822060019081015460055490941683529082200154929350916108589084614ae9565b61086291906149e5565b905061088a60405180604001604052806005815260200164737761703360d81b8152506130fb565b81156108a6576108a684846108a06002866149e5565b8461313e565b6108cc604051806040016040528060058152602001641cddd85c0d60da1b8152506130fb565b6040516370a0823160e01b81523060048201526001600160a01b038516906370a082319060240160206040518083038186803b15801561090b57600080fd5b505afa15801561091f573d6000803e3d6000fd5b505050506040513d601f19601f82011682018060405250810190610943919061421b565b6040516370a0823160e01b81523060048201529092506000906001600160a01b038516906370a082319060240160206040518083038186803b15801561098857600080fd5b505afa15801561099c573d6000803e3d6000fd5b505050506040513d601f19601f820116820180604052508101906109c0919061421b565b90506000831180156109d25750600081115b15610f4d576109fd60405180604001604052806005815260200164737761703560d81b8152506130fb565b600f5460405163095ea7b360e01b81526001600160a01b039182166004820152602481018390529085169063095ea7b390604401602060405180830381600087803b158015610a4b57600080fd5b505af1158015610a5f573d6000803e3d6000fd5b505050506040513d601f19601f82011682018060405250810190610a83919061415a565b50600f54600090819081906001600160a01b031663e8e3370089898988868030610aae42603c6149a7565b60405160e08a901b6001600160e01b03191681526001600160a01b039889166004820152968816602488015260448701959095526064860193909352608485019190915260a484015290921660c482015260e481019190915261010401606060405180830381600087803b158015610b2557600080fd5b505af1158015610b39573d6000803e3d6000fd5b505050506040513d601f19601f82011682018060405250810190610b5d91906145d4565b925092509250610b896040518060400160405280600581526020016439bbb0b81b60d91b8152506130fb565b600e5460408051631dce337960e31b815290516000926001600160a01b03169163ee719bc8916004808301926020929190829003018186803b158015610bce57600080fd5b505afa158015610be2573d6000803e3d6000fd5b505050506040513d601f19601f82011682018060405250810190610c069190614026565b6040516370a0823160e01b81523060048201526001600160a01b0391909116906370a082319060240160206040518083038186803b158015610c4757600080fd5b505afa158015610c5b573d6000803e3d6000fd5b505050506040513d601f19601f82011682018060405250810190610c7f919061421b565b9050600e60009054906101000a90046001600160a01b03166001600160a01b031663ee719bc86040518163ffffffff1660e01b815260040160206040518083038186803b158015610ccf57600080fd5b505afa158015610ce3573d6000803e3d6000fd5b505050506040513d601f19601f82011682018060405250810190610d079190614026565b60405163095ea7b360e01b8152730769fd68dfb93167989c6f7254cd0d766fb2841f6004820152602481018390526001600160a01b03919091169063095ea7b390604401602060405180830381600087803b158015610d6557600080fd5b505af1158015610d79573d6000803e3d6000fd5b505050506040513d601f19601f82011682018060405250810190610d9d919061415a565b50610dc460405180604001604052806005815260200164737761703760d81b8152506130fb565b610df06040518060400160405280600a815260200169736c7042616c616e636560b01b81525082613279565b610e1a604051806040016040528060068152602001651c1bdbdb125960d21b815250600d54613279565b600d54604051638dbdbe6d60e01b8152730769fd68dfb93167989c6f7254cd0d766fb2841f91638dbdbe6d91610e579190859030906004016148c5565b600060405180830381600087803b158015610e7157600080fd5b505af1158015610e85573d6000803e3d6000fd5b50505050610eaf604051806040016040528060058152602001640e6eec2e0760db1b8152506130fb565b600e5460408051600081526020810191829052636fedd90160e11b9091526001600160a01b039091169063dfdbb20290610ef090309085906024810161468f565b600060405180830381600087803b158015610f0a57600080fd5b505af1158015610f1e573d6000803e3d6000fd5b50505050610f4860405180604001604052806005815260200164737761703960d81b8152506130fb565b505050505b505050505092915050565b60035463ffffffff83166000818152600a6020526040808220549051635b53405160e01b81526001600160a01b0391821660048201523060248201526044810193909352848116606484015290928392839283921690635b5340519060840160806040518083038186803b158015610fcf57600080fd5b505afa158015610fe3573d6000803e3d6000fd5b505050506040513d601f19601f820116820180604052508101906110079190614174565b9299919850965090945092505050565b61103e604051806040016040528060058152602001643a37b5b2b760d91b815250826132c2565b6001600160a01b038116600090815260096020526040812054819081906110649061131c565b60408051808201825260038152621c9a5960ea1b6020808301919091526001600160a01b038a1660009081526009909152919091205493965091945092506110ab91613279565b6110df604051806040016040528060128152602001711d1a5b595cdd185b5c14995d1c9a595d995960721b81525082613279565b826111245760405162461bcd60e51b815260206004820152601060248201526f2167657443757272656e7456616c756560801b60448201526064015b60405180910390fd5b611130610e1042614b08565b81101561116f5760405162461bcd60e51b815260206004820152600d60248201526c2163757272656e7456616c756560981b604482015260640161111b565b6001600160a01b03909316600090815260096020526040902060018101919091556002019190915550565b6001546060906001600160a01b031633146111c75760405162461bcd60e51b815260040161111b906148a6565b89896111d281613307565b15611209576005546001600160a01b038381169116146112045760405162461bcd60e51b815260040161111b9061487e565b61123c565b611212816133a2565b1561123c57611220826133fe565b61123c5760405162461bcd60e51b815260040161111b90614855565b84848080601f016020809104026020016040519081016040528093929190818152602001838380828437600092018290525093965083925061128291508c90508b613498565b9150915061128f85612376565b945061129a8561198e565b94506112a7858383613544565b9e9d5050505050505050505050505050565b60405162461bcd60e51b815260206004820152602f60248201527f556e737570706f727465642063616c6c6261636b202d204265666f726520416760448201526e1c99595b595b9d0810dc99585d1959608a1b606482015260609060840161111b565b600480546040516311bbb87160e21b81529182018390526000918291829182916001600160a01b0316906346eee1c49060240160206040518083038186803b15801561136757600080fd5b505afa15801561137b573d6000803e3d6000fd5b505050506040513d601f19601f8201168201806040525081019061139f919061421b565b6004549091506000906001600160a01b03166377fbb663876113c2600186614b08565b6040516001600160e01b031960e085901b1681526004810192909252602482015260440160206040518083038186803b1580156113fe57600080fd5b505afa158015611412573d6000803e3d6000fd5b505050506040513d601f19601f82011682018060405250810190611436919061421b565b600480546040516393fa491560e01b8152918201899052602482018390529192506000916001600160a01b0316906393fa49159060440160206040518083038186803b15801561148557600080fd5b505afa158015611499573d6000803e3d6000fd5b505050506040513d601f19601f820116820180604052508101906114bd919061421b565b905080156114d45760019550935091506114e09050565b50600094508493509150505b9193909250565b6001546060906001600160a01b031633146115145760405162461bcd60e51b815260040161111b906148a6565b82828080601f016020809104026020016040519081016040528093929190818152602001838380828437600092018290525093945061155992508a9150899050613498565b509050600061156a86880188614535565b6005546040516323b872dd60e01b81523060048201526001600160a01b038581166024830152604482018490529293509116906323b872dd90606401602060405180830381600087803b1580156115c057600080fd5b505af11580156115d4573d6000803e3d6000fd5b505050506040513d601f19601f820116820180604052508101906115f8919061415a565b5061160583836000613544565b9c9b505050505050505050505050565b6000546001600160a01b0316331461163f5760405162461bcd60e51b815260040161111b90614820565b61164b848484846135a9565b600e54611667906001600160a01b0316614e206000604d6129f5565b61168c73dab943c03f9e84795dc7bf51ddc71daf0033382b62030d406000604e6129f5565b6116b1733ad736904e9e65189c3000c7dd2c8ac8bb7cd4e362030d40600060066129f5565b50505050565b606087876116c481613307565b156116fb576005546001600160a01b038381169116146116f65760405162461bcd60e51b815260040161111b9061487e565b61172e565b611704816133a2565b1561172e57611712826133fe565b61172e5760405162461bcd60e51b815260040161111b90614855565b6001546001600160a01b031633146117585760405162461bcd60e51b815260040161111b906148a6565b60006117648888613498565b50600254600554604051631cd43d1160e31b81526001600160a01b03918216600482015281841660248201523060448201529293506000928392919091169063e6a1e8889060640160806040518083038186803b1580156117c457600080fd5b505afa1580156117d8573d6000803e3d6000fd5b505050506040513d601f19601f820116820180604052508101906117fc919061454d565b505091509150600061182283836bffffffffffffffffffffffff166005600101546136a1565b90508060405160200161183791815260200190565b6040516020818303038152906040529650505050505050979650505050505050565b600254600554604051631cd43d1160e31b81526001600160a01b0391821660048201528382166024820152306044820152600092919091169063e6a1e8889060640160806040518083038186803b1580156118b357600080fd5b505afa1580156118c7573d6000803e3d6000fd5b505050506040513d601f19601f820116820180604052508101906118eb919061454d565b5090949350505050565b6000546001600160a01b0316331461191f5760405162461bcd60e51b815260040161111b90614820565b61192960006136f4565b565b60405162461bcd60e51b815260206004820152602f60248201527f556e737570706f727465642063616c6c6261636b202d204265666f726520416760448201526e1c99595b595b9d081d5c19185d1959608a1b606482015260609060840161111b565b60606119bc6040518060400160405280600b81526020016a646973747269627574653160a81b8152506130fb565b50806119ca610e1042614b08565b6005546001600160a01b03166000908152600960205260409020600201541015611a265760405162461bcd60e51b815260206004820152600d60248201526c2163757272656e7456616c756560981b604482015260640161111b565b6005546040516370a0823160e01b8152306004820152611aaf916001600160a01b0316906370a082319060240160206040518083038186803b158015611a6b57600080fd5b505afa158015611a7f573d6000803e3d6000fd5b505050506040513d601f19601f82011682018060405250810190611aa3919061421b565b61020f42610e106149a7565b50611adc6040518060400160405280600b81526020016a3234b9ba3934b13aba329960a91b8152506130fb565b6000808052600a602052600080516020614d13833981519152546040516370a0823160e01b81523060048201526001600160a01b03909116906370a082319060240160206040518083038186803b158015611b3657600080fd5b505afa158015611b4a573d6000803e3d6000fd5b505050506040513d601f19601f82011682018060405250810190611b6e919061421b565b6003546000808052600a602052600080516020614d1383398151915254604051632266eabb60e21b81526001600160a01b0391821660048201523060248201526044810183905260648101859052939450909291169063899baaec90608401604080518083038186803b158015611be457600080fd5b505afa158015611bf8573d6000803e3d6000fd5b505050506040513d601f19601f82011682018060405250810190611c1c919061458f565b509050611c4b6040518060400160405280600b81526020016a646973747269627574653360a81b8152506130fb565b80611c57575050919050565b6000808052600a6020527f13da86008ba1c6922daee3e07db95305ef49ebced9f5467a0b8613fcc6b343e454620f424090611c9b906001600160801b031684614ae9565b611ca591906149e5565b90506000611cb38284614b08565b6000808052600a602052600080516020614d1383398151915254919250611ce59183906001600160a01b031688613744565b60008052600a602052600080516020614d13833981519152546040519196507fed4b43d1c43fa6de2432cc50d2bbc8db51d9ce0d2095d0a5cfac618764e9fe5891611d3d91849186916001600160a01b0316906148c5565b60405180910390a1611d716040518060400160405280600b81526020016a191a5cdd1c9a589d5d194d60aa1b8152506130fb565b60015b600b5460ff1663ffffffff8216101561202457611db36040518060400160405280600b81526020016a646973747269627574653560a81b8152506130fb565b63ffffffff81166000908152600a6020526040908190205490516370a0823160e01b81523060048201526001600160a01b03909116906370a082319060240160206040518083038186803b158015611e0a57600080fd5b505afa158015611e1e573d6000803e3d6000fd5b505050506040513d601f19601f82011682018060405250810190611e42919061421b565b945084156120125763ffffffff81166000908152600a60205260409020600101546001600160801b031615611f4b5763ffffffff81166000908152600a6020526040902060010154620f424090611ea2906001600160801b031687614ae9565b611eac91906149e5565b9250611eb88386614b08565b63ffffffff82166000908152600a6020526040902054909250611ee890829084906001600160a01b031689613744565b63ffffffff82166000908152600a6020526040908190205490519197507fed4b43d1c43fa6de2432cc50d2bbc8db51d9ce0d2095d0a5cfac618764e9fe5891611f3e91859187916001600160a01b0316906148c5565b60405180910390a1612012565b63ffffffff81166000908152600a6020526040902060020154600654611f719042614b08565b611f7b9190614ae9565b9150848210156120125763ffffffff81166000908152600a6020526040902054611fb290829084906001600160a01b031689613744565b63ffffffff82166000908152600a60205260408082205490519298507fed4b43d1c43fa6de2432cc50d2bbc8db51d9ce0d2095d0a5cfac618764e9fe589261200992869290916001600160a01b03909116906148c5565b60405180910390a15b8061201c81614b9b565b915050611d74565b5050505050919050565b6000546001600160a01b031633146120585760405162461bcd60e51b815260040161111b90614820565b600c5464010000000090046001600160a01b0316156120af5760405162461bcd60e51b8152602060048201526013602482015272105b1c9958591e481a5b9a5d1a585b1a5e9959606a1b604482015260640161111b565b600d819055600c8054640100000000600160c01b0319166401000000006001600160a01b0386811682029290921780845560408051606081018252878152600060208083018281528385018381529587900488168352600990915292902081518155915160018301559151600290910155925461212f9291900416611017565b600f54600c54612156916001600160a01b0364010000000090920482169116600019613a01565b600f5460055460408051631dce337960e31b815290516121f1936001600160a01b03908116936000199391169163ee719bc891600480820192602092909190829003018186803b1580156121a957600080fd5b505afa1580156121bd573d6000803e3d6000fd5b505050506040513d601f19601f820116820180604052508101906121e19190614026565b6001600160a01b03169190613a01565b61225a730769fd68dfb93167989c6f7254cd0d766fb2841f600019600e60009054906101000a90046001600160a01b03166001600160a01b031663ee719bc86040518163ffffffff1660e01b815260040160206040518083038186803b1580156121a957600080fd5b600e5460408051631dce337960e31b815290516122a6926001600160a01b03169160001991839163ee719bc8916004808301926020929190829003018186803b1580156121a957600080fd5b61230e73dab943c03f9e84795dc7bf51ddc71daf0033382b60001973dab943c03f9e84795dc7bf51ddc71daf0033382b6001600160a01b031663ee719bc86040518163ffffffff1660e01b815260040160206040518083038186803b1580156121a957600080fd5b6116b1733ad736904e9e65189c3000c7dd2c8ac8bb7cd4e3600019733ad736904e9e65189c3000c7dd2c8ac8bb7cd4e36001600160a01b031663ee719bc86040518163ffffffff1660e01b815260040160206040518083038186803b1580156121a957600080fd5b60606123a160405180604001604052806008815260200167686172766573743160c01b8152506130fb565b50600d5460405163d1abb90760e01b81528291730769fd68dfb93167989c6f7254cd0d766fb2841f9163d1abb907916123e19160009030906004016148c5565b600060405180830381600087803b1580156123fb57600080fd5b505af192505050801561240c575060015b6124e757612418614c21565b806308c379a014156124db575061242d614c39565b8061243857506124dd565b60408051808201909152601c81527f426f72696e6745524332303a205472616e73666572206661696c6564000000006020918201528151908201207f1a3f0851ddc9e157ae96e52ed9dfd71a8cb4b1cf2a73b26b9f3f9e0aa9469d27146124d55760405162461bcd60e51b815260206004820152601160248201527010b137b934b733a2a921991822b93937b960791b604482015260640161111b565b50919050565b505b3d6000803e3d6000fd5b612510604051806040016040528060088152602001673430b93b32b9ba1960c11b8152506130fb565b60015b60028163ffffffff16116129c65763ffffffff81166000908152600a60209081526040808320548151631dce337960e31b815291516001600160a01b039091169263ee719bc89260048082019391829003018186803b15801561257557600080fd5b505afa158015612589573d6000803e3d6000fd5b505050506040513d601f19601f820116820180604052508101906125ad9190614026565b6040516370a0823160e01b81523060048201526001600160a01b0391909116906370a082319060240160206040518083038186803b1580156125ee57600080fd5b505afa158015612602573d6000803e3d6000fd5b505050506040513d601f19601f82011682018060405250810190612626919061421b565b905061265160405180604001604052806008815260200167686172766573743360c01b8152506130fb565b63ffffffff82166000908152600a6020526040812060010154620f424090612682906001600160801b031684614ae9565b61268c91906149e5565b90506126988183614b08565b915081156129b15763ffffffff83166000908152600a60205260409020546001600160a01b0316733ad736904e9e65189c3000c7dd2c8ac8bb7cd4e314156128345763ffffffff83166000908152600a6020908152604091829020548251631dce337960e31b815292516001600160a01b039091169263ee719bc8926004808301939192829003018186803b15801561273057600080fd5b505afa158015612744573d6000803e3d6000fd5b505050506040513d601f19601f820116820180604052508101906127689190614026565b6001600160a01b0316632e1a7d4d836040518263ffffffff1660e01b815260040161279591815260200190565b600060405180830381600087803b1580156127af57600080fd5b505af11580156127c3573d6000803e3d6000fd5b50505050733ad736904e9e65189c3000c7dd2c8ac8bb7cd4e36001600160a01b031663cf81464b836040518263ffffffff1660e01b81526004016000604051808303818588803b15801561281657600080fd5b505af115801561282a573d6000803e3d6000fd5b50505050506128d0565b61285d604051806040016040528060088152602001671a185c9d995cdd0d60c21b8152506130fb565b63ffffffff83166000908152600a6020526040908190205490516345977d0360e01b8152600481018490526001600160a01b03909116906345977d0390602401600060405180830381600087803b1580156128b757600080fd5b505af11580156128cb573d6000803e3d6000fd5b505050505b6128f960405180604001604052806008815260200167686172766573743560c01b8152506130fb565b63ffffffff83166000908152600a60205260409020546001600160a01b031663a9059cbb61292f6000546001600160a01b031690565b6040516001600160e01b031960e084901b1681526001600160a01b03909116600482015260248101849052604401602060405180830381600087803b15801561297757600080fd5b505af115801561298b573d6000803e3d6000fd5b505050506040513d601f19601f820116820180604052508101906129af919061415a565b505b505080806129be90614b9b565b915050612513565b506129f0604051806040016040528060088152602001671a185c9d995cdd0d60c21b8152506130fb565b919050565b6000546001600160a01b03163314612a1f5760405162461bcd60e51b815260040161111b90614820565b80612a5a5760405162461bcd60e51b815260206004820152600b60248201526a085d985b1a5914995c525960aa1b604482015260640161111b565b6001600160a01b03841660009081526009602052604090205415612aaa5760405162461bcd60e51b815260206004820152600760248201526621756e6971756560c81b604482015260640161111b565b604080516060810182526001600160a01b0386811682526001600160801b038681166020808501918252848601888152600b805460ff9081166000908152600a90945297909220865181546001600160a01b031916961695909517855591516001850180546fffffffffffffffffffffffffffffffff1916919094161790925551600290920191909155549091612b42911686613ae4565b600b805460ff16906000612b5583614bbf565b825460ff9182166101009390930a92830291909202199091161790555060408051606081018252838152600060208083018281528385018381526001600160a01b038b168452600990925293909120825181559251600184015551600290920191909155612bc286611017565b505050505050565b6001546060906001600160a01b03163314612bf75760405162461bcd60e51b815260040161111b906148a6565b8989612c0281613307565b15612c39576005546001600160a01b03838116911614612c345760405162461bcd60e51b815260040161111b9061487e565b612c6c565b612c42816133a2565b15612c6c57612c50826133fe565b612c6c5760405162461bcd60e51b815260040161111b90614855565b6005546001600160a01b038d81169116141580612c8f5750612c8d8b613307565b155b15612cd35784848080601f01602080910402602001604051908101604052809392919081815260200183838082843760009201919091525092955061305192505050565b612d116040518060400160405280601781526020017f696e736964652061667465722061677265656d656e74310000000000000000008152506130fb565b84848080601f0160208091040260200160405190810160405280939291908181526020018383808284376000920182905250600354600c5463ffffffff16808352600a60205260408084205490516323fc23f360e01b81526001600160a01b039182166004820152306024820152604481019290925296995091958695501692506323fc23f3915060640160806040518083038186803b158015612db457600080fd5b505afa158015612dc8573d6000803e3d6000fd5b505050506040513d601f19601f82011682018060405250810190612dec91906141c0565b60055460408051631dce337960e31b81529051939750919550600094506001600160a01b0316925063ee719bc8916004808301926020929190829003018186803b158015612e3957600080fd5b505afa158015612e4d573d6000803e3d6000fd5b505050506040513d601f19601f82011682018060405250810190612e719190614026565b6001600160a01b031663313ce5676040518163ffffffff1660e01b815260040160206040518083038186803b158015612ea957600080fd5b505afa158015612ebd573d6000803e3d6000fd5b505050506040513d601f19601f82011682018060405250810190612ee19190614626565b612eec906012614b1f565b612ef790600a614a3c565b6005546040516370a0823160e01b81523060048201526001600160a01b03909116906370a082319060240160206040518083038186803b158015612f3a57600080fd5b505afa158015612f4e573d6000803e3d6000fd5b505050506040513d601f19601f82011682018060405250810190612f72919061421b565b612f7c91906149e5565b90506000612f8a838561497c565b6001600160801b0316118015612fa05750600081115b15612fb157612fae8661198e565b95505b600080612fbe8e8e613498565b915091506130006040518060400160405280601781526020017f696e736964652061667465722061677265656d656e74340000000000000000008152506130fb565b61300b888383613544565b975061304b6040518060400160405280601781526020017f696e736964652061667465722061677265656d656e74350000000000000000008152506130fb565b50505050505b50509998505050505050505050565b6000546001600160a01b0316331461308a5760405162461bcd60e51b815260040161111b90614820565b6001600160a01b0381166130ef5760405162461bcd60e51b815260206004820152602660248201527f4f776e61626c653a206e6577206f776e657220697320746865207a65726f206160448201526564647265737360d01b606482015260840161111b565b6130f8816136f4565b50565b6130f88160405160240161310f91906146b6565b60408051601f198184030181529190526020810180516001600160e01b031663104c13eb60e21b179052613c0d565b6001600160a01b03831661315157600080fd5b6040805160028082526060808301845292602083019080368337019050509050848160008151811061319357634e487b7160e01b600052603260045260246000fd5b60200260200101906001600160a01b031690816001600160a01b03168152505083816001815181106131d557634e487b7160e01b600052603260045260246000fd5b6001600160a01b039283166020918202929092010152600f54166338ed17398484843061320342603c6149a7565b6040518663ffffffff1660e01b81526004016132239594939291906148e4565b600060405180830381600087803b15801561323d57600080fd5b505af1158015613251573d6000803e3d6000fd5b505050506040513d6000823e601f3d908101601f19168201604052612bc291908101906140ae565b6132be828260405160240161328f9291906147fe565b60408051601f198184030181529190526020810180516001600160e01b03166309710a9d60e41b179052613c0d565b5050565b6132be82826040516024016132d89291906147d4565b60408051601f198184030181529190526020810180516001600160e01b031663319af33360e01b179052613c0d565b60007fa9214cc96615e0085d3bb077758db69497dc2dce3b2b1e97bc93c3d18d83efd3826001600160a01b0316637730599e6040518163ffffffff1660e01b815260040160206040518083038186803b15801561336357600080fd5b505afa158015613377573d6000803e3d6000fd5b505050506040513d601f19601f8201168201806040525081019061339b919061421b565b1492915050565b60007f8aedc3b5d4bf031e11a7e2940f7251c005698405d58e02e1c247fed3b1b3a674826001600160a01b0316637730599e6040518163ffffffff1660e01b815260040160206040518083038186803b15801561336357600080fd5b60006134306040518060400160405280600e81526020016d2fb4b9a7baba383aba2a37b5b2b760911b815250836132c2565b61346a604051806060016040528060258152602001614cee602591396001600160a01b038416600090815260096020526040902054613279565b6001600160a01b0382166000908152600960205260409020541561349057506001919050565b506000919050565b6000806134a783850185614042565b50600254600554604051631cd43d1160e31b81526001600160a01b0391821660048201528184166024820152306044820152929450169063e6a1e8889060640160806040518083038186803b1580156134ff57600080fd5b505afa158015613513573d6000803e3d6000fd5b505050506040513d601f19601f82011682018060405250810190613537919061454d565b5093969095509350505050565b8260005b600b5460ff1663ffffffff821610156135a15763ffffffff81166000818152600a602052604090205461358d9184918790600b88900b906001600160a01b0316613c2e565b91508061359981614b9b565b915050613548565b509392505050565b6000546001600160a01b031633146135d35760405162461bcd60e51b815260040161111b90614820565b6005546001600160a01b0316156136225760405162461bcd60e51b8152602060048201526013602482015272105b1c9958591e481a5b9a5d1a585b1a5e9959606a1b604482015260640161111b565b600580546001600160a01b038087166001600160a01b031992831681179093556007869055600480549186169190921617905560408051606081018252838152600060208083018281528385018381529583526009909152929020815181559151600183015591516002919091015561369a85611017565b5050505050565b6000808285116136c7576136b58342614b08565b6136bf9085614ae9565b9050806136e9565b6136d18542614b08565b6136db9085614ae9565b6136e590826149a7565b9050805b5090505b9392505050565b600080546001600160a01b038381166001600160a01b0319831681178455604051919092169283917f8be0079c531659141344cd1fd0a4f28419497f9722a3daafe3b4186f6b6457e09190a35050565b80518190613841576001546003546040805160008152602081019091526001600160a01b03928316926339255d5b921690635cb398e160e11b906137919088908b908b9060448101614795565b60408051601f19818403018152918152602080830180516001600160e01b03166001600160e01b03199586161790528151600081529081019182905260e086901b90931690526137e59291602481016146c9565b600060405180830381600087803b1580156137ff57600080fd5b505af1158015613813573d6000803e3d6000fd5b505050506040513d6000823e601f3d908101601f1916820160405261383b91908101906142b2565b506139f9565b600154604051632fd0a1cd60e21b81526001600160a01b039091169063bf428734906138719084906004016146b6565b60206040518083038186803b15801561388957600080fd5b505afa15801561389d573d6000803e3d6000fd5b505050506040513d601f19601f820116820180604052508101906138c1919061415a565b806138cb57508051155b6139055760405162461bcd60e51b815260206004820152600b60248201526a216469737472696275746560a81b604482015260640161111b565b6001546003546040805160008152602081019091526001600160a01b0392831692634329d293921690635cb398e160e11b9061394a9088908b908b9060448101614795565b60408051601f19818403018152918152602080830180516001600160e01b03166001600160e01b03199586161790528151600081529081019182905260e086901b909316905261399f92918660248201614709565b600060405180830381600087803b1580156139b957600080fd5b505af11580156139cd573d6000803e3d6000fd5b505050506040513d6000823e601f3d908101601f191682016040526139f591908101906142e5565b5090505b949350505050565b604051636eb1769f60e11b81523060048201526001600160a01b038381166024830152600091839186169063dd62ed3e9060440160206040518083038186803b158015613a4d57600080fd5b505afa158015613a61573d6000803e3d6000fd5b505050506040513d601f19601f82011682018060405250810190613a85919061421b565b613a8f91906149a7565b604080516001600160a01b038616602482015260448082018490528251808303909101815260649091019091526020810180516001600160e01b031663095ea7b360e01b1790529091506116b1908590613d38565b613b126040518060400160405280600c81526020016b086e4cac2e8ca40d2dcc8caf60a31b81525083613279565b613b1b81613e0a565b6001546003546040805160008152602081019091526001600160a01b03928316926339255d5b921690636bc3c20560e11b90613b5e90869088906044810161468f565b60408051601f19818403018152918152602080830180516001600160e01b03166001600160e01b03199586161790528151600081529081019182905260e086901b9093169052613bb29291602481016146c9565b600060405180830381600087803b158015613bcc57600080fd5b505af1158015613be0573d6000803e3d6000fd5b505050506040513d6000823e601f3d908101601f19168201604052613c0891908101906142b2565b505050565b80516a636f6e736f6c652e6c6f67602083016000808483855afa5050505050565b60015460035486916001600160a01b0390811691634329d2939116630465a56b60e31b858989613c62633b9aca008b6149bf565b604080516000815260208101909152613c82949392919060448101614753565b60408051601f19818403018152918152602080830180516001600160e01b03166001600160e01b03199586161790528151600081529081019182905260e086901b9093169052613cd792918660248201614709565b600060405180830381600087803b158015613cf157600080fd5b505af1158015613d05573d6000803e3d6000fd5b505050506040513d6000823e601f3d908101601f19168201604052613d2d91908101906142e5565b509695505050505050565b6000613d8d826040518060400160405280602081526020017f5361666545524332303a206c6f772d6c6576656c2063616c6c206661696c6564815250856001600160a01b0316613e529092919063ffffffff16565b805190915015613c085780806020019051810190613dab919061415a565b613c085760405162461bcd60e51b815260206004820152602a60248201527f5361666545524332303a204552433230206f7065726174696f6e20646964206e6044820152691bdd081cdd58d8d9595960b21b606482015260840161111b565b6040516001600160a01b03821660248201526130f89060440160408051601f198184030181529190526020810180516001600160e01b031663161765e160e11b179052613c0d565b60606139f9848460008585843b613eab5760405162461bcd60e51b815260206004820152601d60248201527f416464726573733a2063616c6c20746f206e6f6e2d636f6e7472616374000000604482015260640161111b565b600080866001600160a01b03168587604051613ec79190614673565b60006040518083038185875af1925050503d8060008114613f04576040519150601f19603f3d011682016040523d82523d6000602084013e613f09565b606091505b5091509150613f19828286613f24565b979650505050505050565b60608315613f335750816136ed565b825115613f435782518084602001fd5b8160405162461bcd60e51b815260040161111b91906146b6565b805180151581146129f057600080fd5b60008083601f840112613f7e578182fd5b50813567ffffffffffffffff811115613f95578182fd5b602083019150836020828501011115613fad57600080fd5b9250929050565b600082601f830112613fc4578081fd5b8151613fcf81614954565b604051613fdc8282614b6e565b828152856020848701011115613ff0578384fd5b614001836020830160208801614b42565b95945050505050565b60006020828403121561401b578081fd5b81356136ed81614cc3565b600060208284031215614037578081fd5b81516136ed81614cc3565b60008060408385031215614054578081fd5b823561405f81614cc3565b9150602083013561406f81614cc3565b809150509250929050565b60008060006060848603121561408e578081fd5b833561409981614cc3565b95602085013595506040909401359392505050565b600060208083850312156140c0578182fd5b825167ffffffffffffffff808211156140d7578384fd5b818501915085601f8301126140ea578384fd5b8151818111156140fc576140fc614c0b565b8060051b915060405161411185840182614b6e565b81815284810184860184860187018a101561412a578788fd5b8795505b8386101561414c57805182526001959095019490860190860161412e565b509098975050505050505050565b60006020828403121561416b578081fd5b6136ed82613f5d565b60008060008060808587031215614189578081fd5b61419285613f5d565b93506141a060208601613f5d565b925060408501516141b081614cd8565b6060959095015193969295505050565b600080600080608085870312156141d5578182fd5b6141de85613f5d565b935060208501516141ee81614cd8565b60408601519093506141ff81614cd8565b606086015190925061421081614cd8565b939692955090935050565b60006020828403121561422c578081fd5b5051919050565b600060208284031215614244578081fd5b813567ffffffffffffffff81111561425a578182fd5b8201601f8101841361426a578182fd5b803561427581614954565b6040516142828282614b6e565b828152866020848601011115614296578485fd5b8260208501602083013791820160200193909352949350505050565b6000602082840312156142c3578081fd5b815167ffffffffffffffff8111156142d9578182fd5b6139f984828501613fb4565b600080604083850312156142f7578182fd5b825167ffffffffffffffff8082111561430e578384fd5b61431a86838701613fb4565b9350602085015191508082111561432f578283fd5b5061433c85828601613fb4565b9150509250929050565b600080600080600080600060a0888a031215614360578485fd5b873561436b81614cc3565b9650602088013561437b81614cc3565b955060408801359450606088013567ffffffffffffffff8082111561439e578485fd5b6143aa8b838c01613f6d565b909650945060808a01359150808211156143c2578384fd5b506143cf8a828b01613f6d565b989b979a50959850939692959293505050565b600080600080600080600080600060c08a8c0312156143ff578283fd5b893561440a81614cc3565b985060208a013561441a81614cc3565b975060408a0135965060608a013567ffffffffffffffff8082111561443d578485fd5b6144498d838e01613f6d565b909850965060808c0135915080821115614461578485fd5b61446d8d838e01613f6d565b909650945060a08c0135915080821115614485578384fd5b506144928c828d01613f6d565b915080935050809150509295985092959850929598565b600080600080608085870312156144be578182fd5b84356144c981614cc3565b935060208501356144d981614cd8565b93969395505050506040820135916060013590565b60008060008060808587031215614503578182fd5b843561450e81614cc3565b935060208501359250604085013561452581614cc3565b9396929550929360600135925050565b600060208284031215614546578081fd5b5035919050565b60008060008060808587031215614562578182fd5b84519350602085015180600b0b8114614579578283fd5b6040860151606090960151949790965092505050565b600080604083850312156145a1578182fd5b82519150602083015161406f81614cd8565b600080604083850312156145c5578182fd5b50508035926020909101359150565b6000806000606084860312156145e8578081fd5b8351925060208401519150604084015190509250925092565b60008060408385031215614613578182fd5b823563ffffffff8116811461405f578283fd5b600060208284031215614637578081fd5b815160ff811681146136ed578182fd5b6000815180845261465f816020860160208601614b42565b601f01601f19169290920160200192915050565b60008251614685818460208701614b42565b9190910192915050565b60018060a01b03841681528260208201526060604082015260006140016060830184614647565b6020815260006136ed6020830184614647565b6001600160a01b03841681526060602082018190526000906146ed90830185614647565b82810360408401526146ff8185614647565b9695505050505050565b6001600160a01b038516815260806020820181905260009061472d90830186614647565b828103604084015261473f8186614647565b90508281036060840152613f198185614647565b6001600160a01b03868116825260208201869052841660408201526001600160801b038316606082015260a060808201819052600090613f1990830184614647565b6001600160a01b038516815263ffffffff841660208201526001600160801b03831660408201526080606082018190526000906146ff90830184614647565b6040815260006147e76040830185614647565b905060018060a01b03831660208301529392505050565b6040815260006148116040830185614647565b90508260208301529392505050565b6020808252818101527f4f776e61626c653a2063616c6c6572206973206e6f7420746865206f776e6572604082015260600190565b6020808252600f908201526e085bdd5d1c1d5d1058d8d95c1d1959608a1b604082015260600190565b6020808252600e908201526d085a5b9c1d5d1058d8d95c1d195960921b604082015260600190565b602080825260059082015264085a1bdcdd60da1b604082015260600190565b92835260208301919091526001600160a01b0316604082015260600190565b600060a082018783526020878185015260a0604085015281875180845260c0860191508289019350845b818110156149335784516001600160a01b03168352938301939183019160010161490e565b50506001600160a01b03969096166060850152505050608001529392505050565b600067ffffffffffffffff82111561496e5761496e614c0b565b50601f01601f191660200190565b60006001600160801b0380831681851680830382111561499e5761499e614bdf565b01949350505050565b600082198211156149ba576149ba614bdf565b500190565b60006001600160801b03808416806149d9576149d9614bf5565b92169190910492915050565b6000826149f4576149f4614bf5565b500490565b600181815b80851115614a34578160001904821115614a1a57614a1a614bdf565b80851615614a2757918102915b93841c93908002906149fe565b509250929050565b60006136ed60ff841683600082614a5557506001614ae3565b81614a6257506000614ae3565b8160018114614a785760028114614a8257614a9e565b6001915050614ae3565b60ff841115614a9357614a93614bdf565b50506001821b614ae3565b5060208310610133831016604e8410600b8410161715614ac1575081810a614ae3565b614acb83836149f9565b8060001904821115614adf57614adf614bdf565b0290505b92915050565b6000816000190483118215151615614b0357614b03614bdf565b500290565b600082821015614b1a57614b1a614bdf565b500390565b600060ff821660ff841680821015614b3957614b39614bdf565b90039392505050565b60005b83811015614b5d578181015183820152602001614b45565b838111156116b15750506000910152565b601f8201601f1916810167ffffffffffffffff81118282101715614b9457614b94614c0b565b6040525050565b600063ffffffff80831681811415614bb557614bb5614bdf565b6001019392505050565b600060ff821660ff811415614bd657614bd6614bdf565b60010192915050565b634e487b7160e01b600052601160045260246000fd5b634e487b7160e01b600052601260045260246000fd5b634e487b7160e01b600052604160045260246000fd5b600060033d1115614c3657600481823e5160e01c5b90565b600060443d1015614c475790565b6040516003193d81016004833e81513d67ffffffffffffffff8160248401118184111715614c7757505050505090565b8285019150815181811115614c8f5750505050505090565b843d8701016020828501011115614ca95750505050505090565b614cb860208286010187614b6e565b509095945050505050565b6001600160a01b03811681146130f857600080fd5b6001600160801b03811681146130f857600080fdfe6d61726b65742e6f7261636c65735b5f7375706572546f6b656e5d2e72657175657374496413da86008ba1c6922daee3e07db95305ef49ebced9f5467a0b8613fcc6b343e3a26469706673582212207ed5136fe86b8e27e3b4d172285ab1085763fee8f562d0ccaf670ebad941be9764736f6c6343000804003360a06040523480156200001157600080fd5b5060405162004d8238038062004d828339810160408190526200003491620000aa565b606081901b6001600160601b031916608052620000513362000058565b50620000da565b600e80546001600160a01b038381166001600160a01b0319831681179093556040519116919082907f8be0079c531659141344cd1fd0a4f28419497f9722a3daafe3b4186f6b6457e090600090a35050565b600060208284031215620000bc578081fd5b81516001600160a01b0381168114620000d3578182fd5b9392505050565b60805160601c614c436200013f6000396000818161046b01528181610dc501528181610e3801528181610fdc01528181611200015281816113780152818161153c015281816115de0152818161168401528181611d1e0152611da50152614c436000f3fe60806040526004361061033e5760003560e01c8063715018a6116101ae578063c68d4283116100eb578063dfdbb2021161008f578063f2fde38b1161006c578063f2fde38b14610a4f578063fad8b32a14610a6f578063fc673c4f14610a8f578063fe9d930314610aaf57005b8063dfdbb202146109d6578063eb3537cc146109f6578063ee719bc814610a3157005b8063d95b6371116100c8578063d95b637114610930578063d9d078d614610950578063d9ff4ad814610970578063dd62ed3e1461099057005b8063c68d4283146108d0578063ca789464146108f0578063cf97256d1461091057005b80639d87674111610152578063a457c2d71161012f578063a457c2d714610850578063a9059cbb14610870578063b84cdd4a14610890578063bb0d196e146108b057005b80639d876741146107f0578063a1b2bf8b14610810578063a3a7e7f31461083057005b80638ddd1c0f1161018b5780638ddd1c0f1461077b578063959b8c3f1461079b57806395d89b41146107bb5780639bd9bbc6146107d057005b8063715018a61461072857806379359f6f1461073d5780638da5cb5b1461075d57005b8063386fa2211161027c57806352d1902d1161022057806362aa5287116101fd57806362aa5287146106a857806362ad1b83146106c85780636c2d9f2f146106e857806370a082311461070857005b806352d1902d14610641578063556f0dc7146106745780635b9d09cc1461068857005b806345977d031161025957806345977d03146105bf57806346951954146105df5780634b61cc33146105ff57806350d75d251461062c57005b8063386fa2211461055f578063395093511461057f57806342fe09801461059f57005b806318160ddd116102e3578063245887fc116102c0578063245887fc146104c357806327048397146104e35780632ec8eec714610503578063313ce5671461054357005b806318160ddd1461043d57806320bc44251461045c57806323b872dd146104a357005b8063095ea7b31161031c578063095ea7b3146103ad57806311bcc81e146103dd57806312a6a3f8146103fd57806316d055d61461041d57005b806306e485381461034057806306fdde031461036b578063090c415e1461038d575b005b34801561034c57600080fd5b50610355610acf565b604051610362919061453b565b60405180910390f35b34801561037757600080fd5b50610380610ae0565b6040516103629190614602565b34801561039957600080fd5b5061033e6103a8366004614046565b610b72565b3480156103b957600080fd5b506103cd6103c836600461401b565b610c26565b6040519015158152602001610362565b3480156103e957600080fd5b5061033e6103f8366004614445565b610c3d565b34801561040957600080fd5b5061033e61041836600461435b565b610c9e565b34801561042957600080fd5b5061033e610438366004613e77565b610dc3565b34801561044957600080fd5b506003545b604051908152602001610362565b34801561046857600080fd5b507f00000000000000000000000000000000000000000000000000000000000000005b6040516001600160a01b039091168152602001610362565b3480156104af57600080fd5b506103cd6104be366004613ec7565b610e1e565b3480156104cf57600080fd5b5061033e6104de36600461401b565b610e36565b3480156104ef57600080fd5b5061033e6104fe3660046143a4565b610ead565b34801561050f57600080fd5b5061052361051e366004613e07565b610f8a565b604080519485526020850193909352918301526060820152608001610362565b34801561054f57600080fd5b5060405160128152602001610362565b34801561056b57600080fd5b5061035561057a366004613e07565b610fa8565b34801561058b57600080fd5b506103cd61059a36600461401b565b61105a565b3480156105ab57600080fd5b5061033e6105ba3660046143c5565b611095565b3480156105cb57600080fd5b5061033e6105da366004614445565b61119f565b3480156105eb57600080fd5b5061033e6105fa366004613e07565b6111f5565b34801561060b57600080fd5b5061061f61061a366004613fa2565b611284565b6040516103629190614588565b34801561063857600080fd5b5061048b6112c9565b34801561064d57600080fd5b507f6bfbb132610e56cb96575dba244667b9d6dbfeffe22b68a79fa16f2d18eb001961044e565b34801561068057600080fd5b50600161044e565b34801561069457600080fd5b5061033e6106a336600461409f565b6112f3565b3480156106b457600080fd5b5061033e6106c3366004613ec7565b611376565b3480156106d457600080fd5b5061033e6106e3366004613f07565b6113ce565b3480156106f457600080fd5b5061061f610703366004613fe7565b61147b565b34801561071457600080fd5b5061044e610723366004613e07565b6114bd565b34801561073457600080fd5b5061033e6114e5565b34801561074957600080fd5b506103cd610758366004613e07565b61151b565b34801561076957600080fd5b50600e546001600160a01b031661048b565b34801561078757600080fd5b5061033e61079636600461430a565b611527565b3480156107a757600080fd5b5061033e6107b6366004613e07565b611a11565b3480156107c757600080fd5b50610380611a62565b3480156107dc57600080fd5b5061033e6107eb36600461409f565b611a71565b3480156107fc57600080fd5b5061033e61080b366004614174565b611ac5565b34801561081c57600080fd5b5061033e61082b36600461435b565b611b34565b34801561083c57600080fd5b5061033e61084b366004613e07565b611bde565b34801561085c57600080fd5b506103cd61086b36600461401b565b611bf2565b34801561087c57600080fd5b506103cd61088b36600461401b565b611c41565b34801561089c57600080fd5b506103cd6108ab36600461401b565b611c4f565b3480156108bc57600080fd5b506103cd6108cb366004613e07565b611ca0565b3480156108dc57600080fd5b5061033e6108eb366004614174565b611cac565b3480156108fc57600080fd5b5061033e61090b36600461401b565b611d1c565b34801561091c57600080fd5b5061033e61092b36600461401b565b611d90565b34801561093c57600080fd5b506103cd61094b366004613e3f565b611e86565b34801561095c57600080fd5b506103cd61096b36600461401b565b611e94565b34801561097c57600080fd5b5061033e61098b366004614174565b611eae565b34801561099c57600080fd5b5061044e6109ab366004613e3f565b6001600160a01b03918216600090815260126020908152604080832093909416825291909152205490565b3480156109e257600080fd5b5061033e6109f1366004614174565b611ed8565b348015610a0257600080fd5b50610a16610a1136600461401b565b611f02565b60408051938452602084019290925290820152606001610362565b348015610a3d57600080fd5b50600f546001600160a01b031661048b565b348015610a5b57600080fd5b5061033e610a6a366004613e07565b612054565b348015610a7b57600080fd5b5061033e610a8a366004613e07565b6120ec565b348015610a9b57600080fd5b5061033e610aaa3660046140ec565b61213d565b348015610abb57600080fd5b5061033e610aca36600461445d565b6121dc565b6060610adb601361222c565b905090565b606060108054610aef90614b1f565b80601f0160208091040260200160405190810160405280929190818152602001828054610b1b90614b1f565b8015610b685780601f10610b3d57610100808354040283529160200191610b68565b820191906000526020600020905b815481529060010190602001808311610b4b57829003601f168201915b5050505050905090565b6000338585604051602001610b8993929190614740565b604051602081830303815290604052805190602001209050610bde8184848080602002602001604051908101604052809392919081815260200183836020028082843760009201919091525061229292505050565b6040518481526001600160a01b0386169033907f30f416fa68fca014a0f334464c64b000ba53e99b6d2afdea9d5ca756372d5985906020015b60405180910390a35050505050565b6000610c333384846122e1565b5060015b92915050565b600e546001600160a01b03163314610c705760405162461bcd60e51b8152600401610c6790614864565b60405180910390fd5b610c9b3333836040518060200160405280600081525060405180602001604052806000815250612408565b50565b6040513390600090610cb69083908790602001614615565b60408051601f1981840301815291905280516020909101209050610cda818461260d565b15610d3a5760405162461bcd60e51b815260206004820152602a60248201527f5375706572666c756964546f6b656e3a2061677265656d656e7420616c726561604482015269191e4818dc99585d195960b21b6064820152608401610c67565b610d778185858080602002602001604051908101604052809392919081815260200183836020028082843760009201919091525061229292505050565b816001600160a01b03167f770ea40a13a4644573ed785e5c7116890709947918747febc5add46feb531e2d868686604051610db4939291906145c0565b60405180910390a25050505050565b7f00000000000000000000000000000000000000000000000000000000000000006001600160a01b03163314610e0b5760405162461bcd60e51b8152600401610c67906146f5565b610e1784848484612649565b5050505050565b6000610e2c33858585612649565b90505b9392505050565b7f00000000000000000000000000000000000000000000000000000000000000006001600160a01b03163314610e7e5760405162461bcd60e51b8152600401610c67906146f5565b610ea93383836040518060200160405280600081525060405180602001604052806000815250612408565b5050565b6040513390600090610ec59083908690602001614615565b604051602081830303815290604052805190602001209050610ee7818461260d565b610f455760405162461bcd60e51b815260206004820152602960248201527f5375706572666c756964546f6b656e3a2061677265656d656e7420646f6573206044820152681b9bdd08195e1a5cdd60ba1b6064820152608401610c67565b610f4f81846127c1565b60405184815233907f71a63dc095de07aa5512ad57a7596a39516317e316981a1cd71000057be1537b9060200160405180910390a250505050565b6000808042610f998582611f02565b91979096509094509092509050565b6001600160a01b038181166000908152600160205260409081902054905163c56a069d60e01b8152901960048201526060917f0000000000000000000000000000000000000000000000000000000000000000169063c56a069d9060240160006040518083038186803b15801561101e57600080fd5b505afa158015611032573d6000803e3d6000fd5b505050506040513d6000823e601f3d908101601f19168201604052610c37919081019061421f565b3360008181526012602090815260408083206001600160a01b03871684529091528120549091610c3391859061109090866127e2565b6122e1565b600054610100900460ff166110b05760005460ff16156110b4565b303b155b6111175760405162461bcd60e51b815260206004820152602e60248201527f496e697469616c697a61626c653a20636f6e747261637420697320616c72656160448201526d191e481a5b9a5d1a585b1a5e995960921b6064820152608401610c67565b600054610100900460ff16158015611139576000805461ffff19166101011790555b600f805460ff8816600160a01b026001600160a81b03199091166001600160a01b038a161717905561116d60108686613cef565b5061117a60118484613cef565b50611184306127ee565b8015611196576000805461ff00191690555b50505050505050565b600e546001600160a01b031633146111c95760405162461bcd60e51b8152600401610c6790614864565b610c9b33333384604051806020016040528060008152506040518060200160405280600081525061291c565b336001600160a01b037f0000000000000000000000000000000000000000000000000000000000000000161461127b5760405162461bcd60e51b815260206004820152602560248201527f5375706572546f6b656e3a206f6e6c7920686f73742063616e2075706461746560448201526420636f646560d81b6064820152608401610c67565b610c9b81612b3d565b6060600085858560405160200161129d93929190614740565b6040516020818303038152906040528051906020012090506112bf8184612d35565b9695505050505050565b6000610adb7f360894a13ba1a3210667c828492db98dca3e2076cc3735a920a3ca505d382bbc5490565b600e546001600160a01b0316331461131d5760405162461bcd60e51b8152600401610c6790614864565b611370333386866040518060200160405280600081525087878080601f01602080910402602001604051908101604052809392919081815260200183838082843760009201919091525061291c92505050565b50505050565b7f00000000000000000000000000000000000000000000000000000000000000006001600160a01b031633146113be5760405162461bcd60e51b8152600401610c67906146f5565b6113c98383836122e1565b505050565b336113db6013828a612de0565b6113f75760405162461bcd60e51b8152600401610c67906147d0565b6114718189898989898080601f01602080910402602001604051908101604052809392919081815260200183838082843760009201919091525050604080516020601f8d018190048102820181019092528b815292508b91508a908190840183828082843760009201919091525060019250612e89915050565b5050505050505050565b606060008484604051602001611492929190614615565b6040516020818303038152906040528051906020012090506114b48184612d35565b95945050505050565b6000806114ca8342611f02565b50509050600081126114dc5780610e2f565b60009392505050565b600e546001600160a01b0316331461150f5760405162461bcd60e51b8152600401610c6790614864565b6115196000612f00565b565b6000610c378242611e94565b604051632329212160e21b81523360048201527f00000000000000000000000000000000000000000000000000000000000000006001600160a01b031690638ca484849060240160206040518083038186803b15801561158657600080fd5b505afa15801561159a573d6000803e3d6000fd5b505050506040513d601f19601f820116820180604052508101906115be91906142d2565b6115da5760405162461bcd60e51b8152600401610c6790614789565b60007f00000000000000000000000000000000000000000000000000000000000000006001600160a01b031663289b3c0d6040518163ffffffff1660e01b815260040160206040518083038186803b15801561163557600080fd5b505afa158015611649573d6000803e3d6000fd5b505050506040513d601f19601f8201168201806040525081019061166d9190613e23565b604051638369a0f160e01b81526001600160a01b037f0000000000000000000000000000000000000000000000000000000000000000811660048301523060248301527f9f60ae461adf056670e03ae602566409933242392cb06744f5747c9f38b05d096044830152919250600091831690638369a0f19060640160206040518083038186803b15801561170057600080fd5b505afa158015611714573d6000803e3d6000fd5b505050506040513d601f19601f820116820180604052508101906117389190613e23565b90506001600160a01b03811661174b5750845b600061175685612f52565b90508361186e576001600160a01b0382166000908152600260205260409020546117809082612fc0565b6001600160a01b0380841660009081526002602052604080822093909355908816815220546117af9082612fcc565b6001600160a01b038781166000818152600260209081526040918290209490945580518c815293840189905291851692909133917f8505c3d8f1f184f032cf0bc4cd80ee61c8b9d94f8907c3281bf0101a2610fe80910160405180910390a4604080516001600160a01b038981168252602082018b9052918101879052600060608201528184169188169033907f5f22b60e58b1d6de858bc27c48d5a4653e052da99e083c1d88bb8c58e1abc8ef9060800160405180910390a4611471565b600061187985612f52565b6001600160a01b03891660009081526002602052604090205490915061189f9083612fc0565b6001600160a01b03808a1660009081526002602052604080822093909355908516815220546118da9082906118d49085612fcc565b90612fcc565b6001600160a01b0380851660009081526002602052604080822093909355908916815220546119099082612fc0565b6001600160a01b038881166000818152600260209081526040918290209490945580518d81529384018a9052918b1692909133917f8505c3d8f1f184f032cf0bc4cd80ee61c8b9d94f8907c3281bf0101a2610fe80910160405180910390a4826001600160a01b03167fd6c9a04afc81e8c614310bbee6c9e84f5abe15b82038bf8347014ce0852e6ffd866040516119a391815260200190565b60405180910390a2604080516001600160a01b038a81168252602082018c9052918101889052606081018790528185169189169033907f5f22b60e58b1d6de858bc27c48d5a4653e052da99e083c1d88bb8c58e1abc8ef9060800160405180910390a4505050505050505050565b33611a1e60138284612fd8565b806001600160a01b0316826001600160a01b03167ff4caeb2d6ca8932a215a353d0703c326ec2d81fc68170f320eb2ab49e9df61f960405160405180910390a35050565b606060118054610aef90614b1f565b6113703333868686868080601f01602080910402602001604051908101604052809392919081815260200183838082843760009201829052506040805160208101909152908152925060019150612e899050565b333014611b145760405162461bcd60e51b815260206004820152601d60248201527f5375706572546f6b656e3a206f6e6c792073656c6620616c6c6f7765640000006044820152606401610c67565b6040805160008152602081019091526113c99033908590859085906130dd565b6040513390600090611b4c9083908790602001614615565b604051602081830303815290604052805190602001209050611ba18185858080602002602001604051908101604052809392919081815260200183836020028082843760009201919091525061229292505050565b336001600160a01b03167f0c4c547b3a4fcaa5be8353b3111472b124155bccc86de811d4a481c9e6e9faca868686604051610db4939291906145c0565b610ea9333383611bed336114bd565b612649565b6000610c333384611090856040518060600160405280602a8152602001614bb7602a91393360009081526012602090815260408083206001600160a01b038d16845290915290205491906131e4565b6000610e2f33338585612649565b600080600080611c5f8686611f02565b9250925092506000611c91828411611c78576000611c8a565b611c8a611c858486614ab9565b612f52565b8590612fc0565b60001315979650505050505050565b6000610c378242611c4f565b333014611cfb5760405162461bcd60e51b815260206004820152601d60248201527f5375706572546f6b656e3a206f6e6c792073656c6620616c6c6f7765640000006044820152606401610c67565b604080516000808252602082019092526113c9913391869186918690613210565b7f00000000000000000000000000000000000000000000000000000000000000006001600160a01b03163314611d645760405162461bcd60e51b8152600401610c67906146f5565b610ea933838484604051806020016040528060008152506040518060200160405280600081525061291c565b604051632329212160e21b81523360048201527f00000000000000000000000000000000000000000000000000000000000000006001600160a01b031690638ca484849060240160206040518083038186803b158015611def57600080fd5b505afa158015611e03573d6000803e3d6000fd5b505050506040513d601f19601f82011682018060405250810190611e2791906142d2565b611e435760405162461bcd60e51b8152600401610c6790614789565b6001600160a01b038216600090815260026020526040902054611e669082612fc0565b6001600160a01b0390921660009081526002602052604090209190915550565b6000610e2f60138484612de0565b600080611ea18484611f02565b5050600013949350505050565b600e546001600160a01b03163314611b145760405162461bcd60e51b8152600401610c6790614864565b600e546001600160a01b03163314611cfb5760405162461bcd60e51b8152600401610c6790614864565b6001600160a01b038216600090815260026020526040812054908080611f2786610fa8565b905060005b815181101561204b576000806000848481518110611f5a57634e487b7160e01b600052603260045260246000fd5b60209081029190910101516040516326cb922f60e21b81523060048201526001600160a01b038c81166024830152604482018c905290911690639b2e48bc9060640160606040518083038186803b158015611fb457600080fd5b505afa158015611fc8573d6000803e3d6000fd5b505050506040513d601f19601f82011682018060405250810190611fec9190614418565b91945092509050611ffd87836127e2565b965061200986826127e2565b955061203381831161201c576000612029565b612029611c858385614ab9565b6118d48a86612fc0565b9750505050808061204390614b5a565b915050611f2c565b50509250925092565b600e546001600160a01b0316331461207e5760405162461bcd60e51b8152600401610c6790614864565b6001600160a01b0381166120e35760405162461bcd60e51b815260206004820152602660248201527f4f776e61626c653a206e6577206f776e657220697320746865207a65726f206160448201526564647265737360d01b6064820152608401610c67565b610c9b81612f00565b336120f960138284613319565b806001600160a01b0316826001600160a01b03167f50546e66e5f44d728365dc3908c63bc5cfeeab470722c1677e3073a6ac294aa160405160405180910390a35050565b3361214a60138289612de0565b6121665760405162461bcd60e51b8152600401610c67906147d0565b61119681888888888080601f01602080910402602001604051908101604052809392919081815260200183838082843760009201919091525050604080516020601f8c018190048102820181019092528a815292508a915089908190840183828082843760009201919091525061240892505050565b6113c933338585858080601f016020809104026020016040519081016040528093929190818152602001838380828437600092018290525060408051602081019091529081529250612408915050565b60608160000180548060200260200160405190810160405280929190818152602001828054801561228657602002820191906000526020600020905b81546001600160a01b03168152600190910190602001808311612268575b50505050509050919050565b60005b81518110156113c95760008282815181106122c057634e487b7160e01b600052603260045260246000fd5b60200260200101519050808285015550806122da90614b5a565b9050612295565b6001600160a01b0383166123455760405162461bcd60e51b815260206004820152602560248201527f5375706572546f6b656e3a20617070726f76652066726f6d207a65726f206164604482015264647265737360d81b6064820152608401610c67565b6001600160a01b0382166123a75760405162461bcd60e51b815260206004820152602360248201527f5375706572546f6b656e3a20617070726f766520746f207a65726f206164647260448201526265737360e81b6064820152608401610c67565b6001600160a01b0383811660008181526012602090815260408083209487168084529482529182902085905590518481527f8c5be1e5ebec7d5bd14f71427d1e84f3dd0314c0f7b2291e5b200ac8c7c3b925910160405180910390a3505050565b600f546001600160a01b03166124605760405162461bcd60e51b815260206004820152601f60248201527f5375706572546f6b656e3a206e6f20756e6465726c79696e6720746f6b656e006044820152606401610c67565b60008061246c85613412565b9150915061247d87878387876130dd565b600f546040516370a0823160e01b81523060048201526000916001600160a01b0316906370a082319060240160206040518083038186803b1580156124c157600080fd5b505afa1580156124d5573d6000803e3d6000fd5b505050506040513d601f19601f820116820180604052508101906124f991906142f2565b600f54909150612513906001600160a01b031688856134ce565b600f546040516370a0823160e01b81523060048201526000916001600160a01b0316906370a082319060240160206040518083038186803b15801561255757600080fd5b505afa15801561256b573d6000803e3d6000fd5b505050506040513d601f19601f8201168201806040525081019061258f91906142f2565b9050600061259d8383613531565b90508085146125be5760405162461bcd60e51b8152600401610c6790614652565b886001600160a01b03167f3bc27981aebbb57f9247dc00fde9d6cd91e4b230083fec3238fedbcba1f9ab3d856040516125f991815260200190565b60405180910390a250505050505050505050565b6000805b8281101561263f5783810154801561262e57600192505050610c37565b5061263881614b5a565b9050612611565b5060009392505050565b60006001600160a01b0384166126715760405162461bcd60e51b8152600401610c67906146af565b6001600160a01b0383166126975760405162461bcd60e51b8152600401610c6790614820565b60003390506126c881868686604051806020016040528060008152506040518060200160405280600081525061353d565b6126f4818686866040518060200160405280600081525060405180602001604052806000815250613673565b846001600160a01b0316866001600160a01b031614612787576127878587611090866040518060600160405280602d8152602001614be1602d9139601260008c6001600160a01b03166001600160a01b0316815260200190815260200160002060008d6001600160a01b03166001600160a01b03168152602001908152602001600020546131e49092919063ffffffff16565b6127b58186868660405180602001604052806000815250604051806020016040528060008152506000613724565b50600195945050505050565b60005b818110156113c9576000838201556127db81614b5a565b90506127c4565b6000610e2f8284614935565b6040516329965a1d60e01b81526001600160a01b03821660048201527fac7fbab5f54a3ca8194167523c6753bfeb96a445279294b6125b68cce21770546024820152306044820152731820a4b7618bde71dce8cdc73aab6c95905fad24906329965a1d90606401600060405180830381600087803b15801561286f57600080fd5b505af1158015612883573d6000803e3d6000fd5b50506040516329965a1d60e01b81526001600160a01b03841660048201527faea199e31a596269b42cdafd93407f14436db6e4cad65417994c2eb37381e05a6024820152306044820152731820a4b7618bde71dce8cdc73aab6c95905fad2492506329965a1d9150606401600060405180830381600087803b15801561290857600080fd5b505af1158015610e17573d6000803e3d6000fd5b600f546001600160a01b03166129745760405162461bcd60e51b815260206004820152601f60248201527f5375706572546f6b656e3a206e6f20756e6465726c79696e6720746f6b656e006044820152606401610c67565b60008061298085613412565b600f546040516370a0823160e01b81523060048201529294509092506000916001600160a01b03909116906370a082319060240160206040518083038186803b1580156129cc57600080fd5b505afa1580156129e0573d6000803e3d6000fd5b505050506040513d601f19601f82011682018060405250810190612a0491906142f2565b600f54909150612a1f906001600160a01b03168930866138c3565b600f546040516370a0823160e01b81523060048201526000916001600160a01b0316906370a082319060240160206040518083038186803b158015612a6357600080fd5b505afa158015612a77573d6000803e3d6000fd5b505050506040513d601f19601f82011682018060405250810190612a9b91906142f2565b90506000612aa98284613531565b9050808514612aca5760405162461bcd60e51b8152600401610c6790614652565b612aed8b8a868c6001600160a01b03168e6001600160a01b031614158b8b613210565b886001600160a01b03167f25ca84076773b0455db53621c459ddc84fe40840e4932a62706a032566f399df85604051612b2891815260200190565b60405180910390a25050505050505050505050565b6000612b677f360894a13ba1a3210667c828492db98dca3e2076cc3735a920a3ca505d382bbc5490565b6001600160a01b03161415612bbe5760405162461bcd60e51b815260206004820152601d60248201527f5555505350726f786961626c653a206e6f742075706772616461626c650000006044820152606401610c67565b806001600160a01b03166352d1902d6040518163ffffffff1660e01b815260040160206040518083038186803b158015612bf757600080fd5b505afa158015612c0b573d6000803e3d6000fd5b505050506040513d601f19601f82011682018060405250810190612c2f91906142f2565b7f6bfbb132610e56cb96575dba244667b9d6dbfeffe22b68a79fa16f2d18eb001914612ca95760405162461bcd60e51b815260206004820152602360248201527f5555505350726f786961626c653a206e6f7420636f6d70617469626c65206c6f60448201526267696360e81b6064820152608401610c67565b612cd1817f360894a13ba1a3210667c828492db98dca3e2076cc3735a920a3ca505d382bbc55565b7fe011bc04c286c344a8fcbb8de77f953da762c3e25d8cdea984147fc4168a5dcc7f6bfbb132610e56cb96575dba244667b9d6dbfeffe22b68a79fa16f2d18eb0019604080519182526001600160a01b03841660208301520160405180910390a150565b6060816001600160401b03811115612d5d57634e487b7160e01b600052604160045260246000fd5b604051908082528060200260200182016040528015612d86578160200160208202803683370190505b50905060005b82811015612dd957600081850154905080838381518110612dbd57634e487b7160e01b600052603260045260246000fd5b602090810291909101015250612dd281614b5a565b9050612d8c565b5092915050565b6000816001600160a01b0316836001600160a01b03161480612e4f57506001600160a01b038316600090815260018501602052604090205460ff168015612e4f57506001600160a01b03808316600090815260038601602090815260408083209387168352929052205460ff16155b80610e2c57506001600160a01b03808316600090815260028601602090815260408083209387168352929052205460ff1690509392505050565b6001600160a01b038616612eaf5760405162461bcd60e51b8152600401610c67906146af565b6001600160a01b038516612ed55760405162461bcd60e51b8152600401610c6790614820565b612ee387878787878761353d565b612ef1878787878787613673565b61119687878787878787613724565b600e80546001600160a01b038381166001600160a01b0319831681179093556040519116919082907f8be0079c531659141344cd1fd0a4f28419497f9722a3daafe3b4186f6b6457e090600090a35050565b60006001600160ff1b03821115612fbc5760405162461bcd60e51b815260206004820152602860248201527f53616665436173743a2076616c756520646f65736e27742066697420696e2061604482015267371034b73a191a9b60c11b6064820152608401610c67565b5090565b6000610e2f82846148f4565b6000610e2f8284614a7a565b806001600160a01b0316826001600160a01b031614156130505760405162461bcd60e51b815260206004820152602d60248201527f4552433737374f70657261746f72733a20617574686f72697a696e672073656c60448201526c331030b99037b832b930ba37b960991b6064820152608401610c67565b6001600160a01b038116600090815260018401602052604090205460ff16156130a6576001600160a01b03918216600090815260039390930160209081526040808520929093168452529020805460ff19169055565b6001600160a01b0380831660009081526002850160209081526040808320938516835292905220805460ff19166001179055505050565b6001600160a01b03841661313e5760405162461bcd60e51b815260206004820152602260248201527f5375706572546f6b656e3a206275726e2066726f6d207a65726f206164647265604482015261737360f01b6064820152608401610c67565b61314d8585600086868661353d565b61315784846138fb565b836001600160a01b0316856001600160a01b03167fa78a9be3a7b862d26933ad85fb11d80ef66b8f972d7cbba06621d583943a409885858560405161319e93929190614899565b60405180910390a36040518381526000906001600160a01b038616907fddf252ad1be2c89b69c2b068fc378daa952ba7f163c4a11628f55a4df523b3ef90602001610c17565b600081848411156132085760405162461bcd60e51b8152600401610c679190614602565b505050900390565b6001600160a01b0385166132665760405162461bcd60e51b815260206004820181905260248201527f5375706572546f6b656e3a206d696e7420746f207a65726f20616464726573736044820152606401610c67565b61327085856139d1565b6132808660008787868689613724565b846001600160a01b0316866001600160a01b03167f2fe5be0146f74c5bce36c0b80911af6c7d86ff27e89d5cfa61fc681327954e5d8685856040516132c793929190614899565b60405180910390a36040518481526001600160a01b038616906000907fddf252ad1be2c89b69c2b068fc378daa952ba7f163c4a11628f55a4df523b3ef906020015b60405180910390a3505050505050565b6001600160a01b0381163314156133855760405162461bcd60e51b815260206004820152602a60248201527f4552433737374f70657261746f72733a207265766f6b696e672073656c662061604482015269399037b832b930ba37b960b11b6064820152608401610c67565b6001600160a01b038116600090815260018401602052604090205460ff16156133df576001600160a01b0380831660009081526003850160209081526040808320938516835292905220805460ff19166001179055505050565b6001600160a01b03918216600090815260029390930160209081526040808520929093168452529020805460ff19169055565b600f54600090819081906012600160a01b90910460ff16101561347157600f5461344790600160a01b900460ff166012614ad0565b61345290600a6149b0565b905061345e818561494d565b925061346a8184614a5b565b91506134c8565b600f546012600160a01b90910460ff1611156134c157600f546134a090601290600160a01b900460ff16614ad0565b6134ab90600a6149b0565b90506134b78185614a5b565b92508391506134c8565b8391508192505b50915091565b6040516001600160a01b0383166024820152604481018290526113c990849063a9059cbb60e01b906064015b60408051601f198184030181529190526020810180516001600160e01b03166001600160e01b031990931692909217909152613a29565b6000610e2f8284614ab9565b60405163555ddc6560e11b81526001600160a01b03861660048201527f29ddb589b1fb5fc7cf394961c1adf5f8c6454761adf795e67fe149f658abe8956024820152600090731820a4b7618bde71dce8cdc73aab6c95905fad249063aabbb8ca9060440160206040518083038186803b1580156135b957600080fd5b505afa1580156135cd573d6000803e3d6000fd5b505050506040513d601f19601f820116820180604052508101906135f19190613e23565b90506001600160a01b0381161561119657604051633ad5cbc160e11b81526001600160a01b038216906375ab978290613638908a908a908a908a908a908a906004016144e1565b600060405180830381600087803b15801561365257600080fd5b505af1158015613666573d6000803e3d6000fd5b5050505050505050505050565b613686858561368186612f52565b613afb565b836001600160a01b0316856001600160a01b0316876001600160a01b03167f06b541ddaa720db2b10a4d0cdac39b8d360425fc073085fac19bc826146779878686866040516136d793929190614899565b60405180910390a4836001600160a01b0316856001600160a01b03167fddf252ad1be2c89b69c2b068fc378daa952ba7f163c4a11628f55a4df523b3ef8560405161330991815260200190565b60405163555ddc6560e11b81526001600160a01b03861660048201527fb281fc8c12954d22544db45de3159a39272895b169a852b314f9cc762e44c53b6024820152600090731820a4b7618bde71dce8cdc73aab6c95905fad249063aabbb8ca9060440160206040518083038186803b1580156137a057600080fd5b505afa1580156137b4573d6000803e3d6000fd5b505050506040513d601f19601f820116820180604052508101906137d89190613e23565b90506001600160a01b03811615613854576040516223de2960e01b81526001600160a01b038216906223de299061381d908b908b908b908b908b908b906004016144e1565b600060405180830381600087803b15801561383757600080fd5b505af115801561384b573d6000803e3d6000fd5b50505050611471565b8115611471576001600160a01b0386163b156114715760405162461bcd60e51b815260206004820152602860248201527f5375706572546f6b656e3a206e6f7420616e20455243373737546f6b656e73526044820152671958da5c1a595b9d60c21b6064820152608401610c67565b6040516001600160a01b03808516602483015283166044820152606481018290526113709085906323b872dd60e01b906084016134fa565b60006139078342611f02565b5050905061391482612f52565b8112156139785760405162461bcd60e51b815260206004820152602c60248201527f5375706572666c756964546f6b656e3a206275726e20616d6f756e742065786360448201526b656564732062616c616e636560a01b6064820152608401610c67565b6139a361398483612f52565b6001600160a01b03851660009081526002602052604090205490612fcc565b6001600160a01b0384166000908152600260205260409020556003546139c99083613531565b600355505050565b6139fc6139dd82612f52565b6001600160a01b03841660009081526002602052604090205490612fc0565b6001600160a01b038316600090815260026020526040902055600354613a2290826127e2565b6003555050565b6000613a7e826040518060400160405280602081526020017f5361666545524332303a206c6f772d6c6576656c2063616c6c206661696c6564815250856001600160a01b0316613be49092919063ffffffff16565b8051909150156113c95780806020019051810190613a9c91906142d2565b6113c95760405162461bcd60e51b815260206004820152602a60248201527f5361666545524332303a204552433230206f7065726174696f6e20646964206e6044820152691bdd081cdd58d8d9595960b21b6064820152608401610c67565b6000613b078442611f02565b5050905081811215613b705760405162461bcd60e51b815260206004820152602c60248201527f5375706572666c756964546f6b656e3a206d6f766520616d6f756e742065786360448201526b656564732062616c616e636560a01b6064820152608401610c67565b6001600160a01b038416600090815260026020526040902054613b939083612fcc565b6001600160a01b038086166000908152600260205260408082209390935590851681522054613bc29083612fc0565b6001600160a01b03909316600090815260026020526040902092909255505050565b6060610e2c848460008585843b613c3d5760405162461bcd60e51b815260206004820152601d60248201527f416464726573733a2063616c6c20746f206e6f6e2d636f6e74726163740000006044820152606401610c67565b600080866001600160a01b03168587604051613c5991906144c5565b60006040518083038185875af1925050503d8060008114613c96576040519150601f19603f3d011682016040523d82523d6000602084013e613c9b565b606091505b5091509150613cab828286613cb6565b979650505050505050565b60608315613cc5575081610e2f565b825115613cd55782518084602001fd5b8160405162461bcd60e51b8152600401610c679190614602565b828054613cfb90614b1f565b90600052602060002090601f016020900481019282613d1d5760008555613d63565b82601f10613d365782800160ff19823516178555613d63565b82800160010185558215613d63579182015b82811115613d63578235825591602001919060010190613d48565b50612fbc9291505b80821115612fbc5760008155600101613d6b565b60008083601f840112613d90578182fd5b5081356001600160401b03811115613da6578182fd5b6020830191508360208260051b8501011115613dc157600080fd5b9250929050565b60008083601f840112613dd9578182fd5b5081356001600160401b03811115613def578182fd5b602083019150836020828501011115613dc157600080fd5b600060208284031215613e18578081fd5b8135610e2f81614ba1565b600060208284031215613e34578081fd5b8151610e2f81614ba1565b60008060408385031215613e51578081fd5b8235613e5c81614ba1565b91506020830135613e6c81614ba1565b809150509250929050565b60008060008060808587031215613e8c578182fd5b8435613e9781614ba1565b93506020850135613ea781614ba1565b92506040850135613eb781614ba1565b9396929550929360600135925050565b600080600060608486031215613edb578283fd5b8335613ee681614ba1565b92506020840135613ef681614ba1565b929592945050506040919091013590565b600080600080600080600060a0888a031215613f21578283fd5b8735613f2c81614ba1565b96506020880135613f3c81614ba1565b95506040880135945060608801356001600160401b0380821115613f5e578485fd5b613f6a8b838c01613dc8565b909650945060808a0135915080821115613f82578384fd5b50613f8f8a828b01613dc8565b989b979a50959850939692959293505050565b60008060008060808587031215613fb7578182fd5b8435613fc281614ba1565b93506020850135613fd281614ba1565b93969395505050506040820135916060013590565b600080600060608486031215613ffb578081fd5b833561400681614ba1565b95602085013595506040909401359392505050565b6000806040838503121561402d578182fd5b823561403881614ba1565b946020939093013593505050565b6000806000806060858703121561405b578182fd5b843561406681614ba1565b93506020850135925060408501356001600160401b03811115614087578283fd5b61409387828801613d7f565b95989497509550505050565b600080600080606085870312156140b4578182fd5b84356140bf81614ba1565b93506020850135925060408501356001600160401b038111156140e0578283fd5b61409387828801613dc8565b60008060008060008060808789031215614104578384fd5b863561410f81614ba1565b95506020870135945060408701356001600160401b0380821115614131578586fd5b61413d8a838b01613dc8565b90965094506060890135915080821115614155578384fd5b5061416289828a01613dc8565b979a9699509497509295939492505050565b600080600060608486031215614188578081fd5b833561419381614ba1565b9250602084810135925060408501356001600160401b03808211156141b6578384fd5b818701915087601f8301126141c9578384fd5b8135818111156141db576141db614b8b565b6141ed601f8201601f191685016148c4565b91508082528884828501011115614202578485fd5b808484018584013784848284010152508093505050509250925092565b60006020808385031215614231578182fd5b82516001600160401b0380821115614247578384fd5b818501915085601f83011261425a578384fd5b81518181111561426c5761426c614b8b565b8060051b915061427d8483016148c4565b8181528481019084860184860187018a1015614297578788fd5b8795505b838610156142c557805194506142b085614ba1565b8483526001959095019491860191860161429b565b5098975050505050505050565b6000602082840312156142e3578081fd5b81518015158114610e2f578182fd5b600060208284031215614303578081fd5b5051919050565b600080600080600060a08688031215614321578283fd5b85359450602086013561433381614ba1565b9350604086013561434381614ba1565b94979396509394606081013594506080013592915050565b60008060006040848603121561436f578081fd5b8335925060208401356001600160401b0381111561438b578182fd5b61439786828701613d7f565b9497909650939450505050565b600080604083850312156143b6578182fd5b50508035926020909101359150565b600080600080600080608087890312156143dd578384fd5b86356143e881614ba1565b9550602087013560ff811681146143fd578485fd5b945060408701356001600160401b0380821115614131578586fd5b60008060006060848603121561442c578081fd5b8351925060208401519150604084015190509250925092565b600060208284031215614456578081fd5b5035919050565b600080600060408486031215614471578081fd5b8335925060208401356001600160401b0381111561448d578182fd5b61439786828701613dc8565b600081518084526144b1816020860160208601614af3565b601f01601f19169290920160200192915050565b600082516144d7818460208701614af3565b9190910192915050565b6001600160a01b0387811682528681166020830152851660408201526060810184905260c06080820181905260009061451c90830185614499565b82810360a084015261452e8185614499565b9998505050505050505050565b6020808252825182820181905260009190848201906040850190845b8181101561457c5783516001600160a01b031683529284019291840191600101614557565b50909695505050505050565b6020808252825182820181905260009190848201906040850190845b8181101561457c578351835292840192918401916001016145a4565b838152604060208201819052810182905260006001600160fb1b038311156145e6578081fd5b8260051b80856060850137919091016060019081529392505050565b602081526000610e2f6020830184614499565b6060808252600d908201526c41677265656d656e744461746160981b60808201526001600160a01b03929092166020830152604082015260a00190565b6020808252603a908201527f5375706572546f6b656e3a20696e666c6174696f6e6172792f6465666c61746960408201527f6f6e61727920746f6b656e73206e6f7420737570706f72746564000000000000606082015260800190565b60208082526026908201527f5375706572546f6b656e3a207472616e736665722066726f6d207a65726f206160408201526564647265737360d01b606082015260800190565b6020808252602b908201527f5375706572666c756964546f6b656e3a204f6e6c7920686f737420636f6e747260408201526a1858dd08185b1b1bddd95960aa1b606082015260800190565b6080808252600e908201526d41677265656d656e74537461746560901b60a08201526001600160a01b039384166020820152919092166040820152606081019190915260c00190565b60208082526027908201527f5375706572666c756964546f6b656e3a206f6e6c79206c6973746564206167726040820152661959595b595b9d60ca1b606082015260800190565b60208082526030908201527f5375706572546f6b656e3a2063616c6c6572206973206e6f7420616e206f706560408201526f3930ba37b9103337b9103437b63232b960811b606082015260800190565b60208082526024908201527f5375706572546f6b656e3a207472616e7366657220746f207a65726f206164646040820152637265737360e01b606082015260800190565b6020808252818101527f4f776e61626c653a2063616c6c6572206973206e6f7420746865206f776e6572604082015260600190565b8381526060602082015260006148b26060830185614499565b82810360408401526112bf8185614499565b604051601f8201601f191681016001600160401b03811182821017156148ec576148ec614b8b565b604052919050565b600080821280156001600160ff1b038490038513161561491657614916614b75565b600160ff1b839003841281161561492f5761492f614b75565b50500190565b6000821982111561494857614948614b75565b500190565b60008261496857634e487b7160e01b81526012600452602481fd5b500490565b600181815b808511156149a857816000190482111561498e5761498e614b75565b8085161561499b57918102915b93841c9390800290614972565b509250929050565b6000610e2f60ff8416836000826149c957506001610c37565b816149d657506000610c37565b81600181146149ec57600281146149f657614a12565b6001915050610c37565b60ff841115614a0757614a07614b75565b50506001821b610c37565b5060208310610133831016604e8410600b8410161715614a35575081810a610c37565b614a3f838361496d565b8060001904821115614a5357614a53614b75565b029392505050565b6000816000190483118215151615614a7557614a75614b75565b500290565b60008083128015600160ff1b850184121615614a9857614a98614b75565b6001600160ff1b0384018313811615614ab357614ab3614b75565b50500390565b600082821015614acb57614acb614b75565b500390565b600060ff821660ff841680821015614aea57614aea614b75565b90039392505050565b60005b83811015614b0e578181015183820152602001614af6565b838111156113705750506000910152565b600181811c90821680614b3357607f821691505b60208210811415614b5457634e487b7160e01b600052602260045260246000fd5b50919050565b6000600019821415614b6e57614b6e614b75565b5060010190565b634e487b7160e01b600052601160045260246000fd5b634e487b7160e01b600052604160045260246000fd5b6001600160a01b0381168114610c9b57600080fdfe5375706572546f6b656e3a2064656372656173656420616c6c6f77616e63652062656c6f77207a65726f5375706572546f6b656e3a207472616e7366657220616d6f756e74206578636565647320616c6c6f77616e6365a26469706673582212202054a1f988019733f317e2974a93fddf9f1698c75d4003cb7e0143856b2d3c6a64736f6c63430008040033",
  "linkReferences": {},
  "deployedLinkReferences": {}
}