{
  "_format": "hh-sol-artifact-1",
  "contractName": "REXReferral",
  "sourceName": "contracts/referral/REXReferral.sol",
  "abi": [
    {
      "inputs": [],
      "stateMutability": "nonpayable",
      "type": "constructor"
    },
    {
      "anonymous": false,
      "inputs": [
        {
          "indexed": false,
          "internalType": "string",
          "name": "name",
          "type": "string"
        },
        {
          "indexed": false,
          "internalType": "string",
          "name": "id",
          "type": "string"
        }
      ],
      "name": "AffiliateApplied",
      "type": "event"
    },
    {
      "anonymous": false,
      "inputs": [
        {
          "indexed": false,
          "internalType": "string",
          "name": "affiliateId",
          "type": "string"
        }
      ],
      "name": "AffiliateWithdrawn",
      "type": "event"
    },
    {
      "anonymous": false,
      "inputs": [
        {
          "indexed": true,
          "internalType": "bytes32",
          "name": "role",
          "type": "bytes32"
        },
        {
          "indexed": true,
          "internalType": "bytes32",
          "name": "previousAdminRole",
          "type": "bytes32"
        },
        {
          "indexed": true,
          "internalType": "bytes32",
          "name": "newAdminRole",
          "type": "bytes32"
        }
      ],
      "name": "RoleAdminChanged",
      "type": "event"
    },
    {
      "anonymous": false,
      "inputs": [
        {
          "indexed": true,
          "internalType": "bytes32",
          "name": "role",
          "type": "bytes32"
        },
        {
          "indexed": true,
          "internalType": "address",
          "name": "account",
          "type": "address"
        },
        {
          "indexed": true,
          "internalType": "address",
          "name": "sender",
          "type": "address"
        }
      ],
      "name": "RoleGranted",
      "type": "event"
    },
    {
      "anonymous": false,
      "inputs": [
        {
          "indexed": true,
          "internalType": "bytes32",
          "name": "role",
          "type": "bytes32"
        },
        {
          "indexed": true,
          "internalType": "address",
          "name": "account",
          "type": "address"
        },
        {
          "indexed": true,
          "internalType": "address",
          "name": "sender",
          "type": "address"
        }
      ],
      "name": "RoleRevoked",
      "type": "event"
    },
    {
      "inputs": [],
      "name": "APP_ROLE",
      "outputs": [
        {
          "internalType": "bytes32",
          "name": "",
          "type": "bytes32"
        }
      ],
      "stateMutability": "view",
      "type": "function"
    },
    {
      "inputs": [],
      "name": "DEFAULT_ADMIN_ROLE",
      "outputs": [
        {
          "internalType": "bytes32",
          "name": "",
          "type": "bytes32"
        }
      ],
      "stateMutability": "view",
      "type": "function"
    },
    {
      "inputs": [
        {
          "internalType": "address",
          "name": "",
          "type": "address"
        }
      ],
      "name": "addressToAffiliate",
      "outputs": [
        {
          "internalType": "uint256",
          "name": "",
          "type": "uint256"
        }
      ],
      "stateMutability": "view",
      "type": "function"
    },
    {
      "inputs": [
        {
          "internalType": "string",
          "name": "",
          "type": "string"
        }
      ],
      "name": "affiliateIdToAffiliate",
      "outputs": [
        {
          "internalType": "uint256",
          "name": "",
          "type": "uint256"
        }
      ],
      "stateMutability": "view",
      "type": "function"
    },
    {
      "inputs": [
        {
          "internalType": "uint256",
          "name": "",
          "type": "uint256"
        }
      ],
      "name": "affiliates",
      "outputs": [
        {
          "internalType": "string",
          "name": "name",
          "type": "string"
        },
        {
          "internalType": "string",
          "name": "id",
          "type": "string"
        },
        {
          "internalType": "bool",
          "name": "enabled",
          "type": "bool"
        },
        {
          "internalType": "uint256",
          "name": "totalRef",
          "type": "uint256"
        },
        {
          "internalType": "address",
          "name": "addr",
          "type": "address"
        }
      ],
      "stateMutability": "view",
      "type": "function"
    },
    {
      "inputs": [
        {
          "internalType": "string",
          "name": "name",
          "type": "string"
        },
        {
          "internalType": "string",
          "name": "affiliateId",
          "type": "string"
        }
      ],
      "name": "applyForAffiliate",
      "outputs": [],
      "stateMutability": "nonpayable",
      "type": "function"
    },
    {
      "inputs": [
        {
          "internalType": "address",
          "name": "newAddress",
          "type": "address"
        }
      ],
      "name": "changeAffiliateAddress",
      "outputs": [],
      "stateMutability": "nonpayable",
      "type": "function"
    },
    {
      "inputs": [
        {
          "internalType": "address",
          "name": "",
          "type": "address"
        }
      ],
      "name": "customerToAffiliate",
      "outputs": [
        {
          "internalType": "uint256",
          "name": "",
          "type": "uint256"
        }
      ],
      "stateMutability": "view",
      "type": "function"
    },
    {
      "inputs": [
        {
          "internalType": "string",
          "name": "affiliateId",
          "type": "string"
        }
      ],
      "name": "disableAffiliate",
      "outputs": [],
      "stateMutability": "nonpayable",
      "type": "function"
    },
    {
      "inputs": [
        {
          "internalType": "address",
          "name": "customerAddr",
          "type": "address"
        }
      ],
      "name": "getAffiliateAddress",
      "outputs": [
        {
          "internalType": "address",
          "name": "",
          "type": "address"
        }
      ],
      "stateMutability": "view",
      "type": "function"
    },
    {
      "inputs": [
        {
          "internalType": "bytes32",
          "name": "role",
          "type": "bytes32"
        }
      ],
      "name": "getRoleAdmin",
      "outputs": [
        {
          "internalType": "bytes32",
          "name": "",
          "type": "bytes32"
        }
      ],
      "stateMutability": "view",
      "type": "function"
    },
    {
      "inputs": [
        {
          "internalType": "bytes32",
          "name": "role",
          "type": "bytes32"
        },
        {
          "internalType": "uint256",
          "name": "index",
          "type": "uint256"
        }
      ],
      "name": "getRoleMember",
      "outputs": [
        {
          "internalType": "address",
          "name": "",
          "type": "address"
        }
      ],
      "stateMutability": "view",
      "type": "function"
    },
    {
      "inputs": [
        {
          "internalType": "bytes32",
          "name": "role",
          "type": "bytes32"
        }
      ],
      "name": "getRoleMemberCount",
      "outputs": [
        {
          "internalType": "uint256",
          "name": "",
          "type": "uint256"
        }
      ],
      "stateMutability": "view",
      "type": "function"
    },
    {
      "inputs": [
        {
          "internalType": "bytes32",
          "name": "role",
          "type": "bytes32"
        },
        {
          "internalType": "address",
          "name": "account",
          "type": "address"
        }
      ],
      "name": "grantRole",
      "outputs": [],
      "stateMutability": "nonpayable",
      "type": "function"
    },
    {
      "inputs": [
        {
          "internalType": "bytes32",
          "name": "role",
          "type": "bytes32"
        },
        {
          "internalType": "address",
          "name": "account",
          "type": "address"
        }
      ],
      "name": "hasRole",
      "outputs": [
        {
          "internalType": "bool",
          "name": "",
          "type": "bool"
        }
      ],
      "stateMutability": "view",
      "type": "function"
    },
    {
      "inputs": [
        {
          "internalType": "string",
          "name": "affiliateId",
          "type": "string"
        }
      ],
      "name": "isAffiliateEnabled",
      "outputs": [
        {
          "internalType": "bool",
          "name": "",
          "type": "bool"
        }
      ],
      "stateMutability": "view",
      "type": "function"
    },
    {
      "inputs": [
        {
          "internalType": "address",
          "name": "",
          "type": "address"
        }
      ],
      "name": "isCustomerOrganic",
      "outputs": [
        {
          "internalType": "bool",
          "name": "",
          "type": "bool"
        }
      ],
      "stateMutability": "view",
      "type": "function"
    },
    {
      "inputs": [
        {
          "internalType": "address",
          "name": "contractAddr",
          "type": "address"
        }
      ],
      "name": "registerApp",
      "outputs": [],
      "stateMutability": "nonpayable",
      "type": "function"
    },
    {
      "inputs": [
        {
          "internalType": "bytes32",
          "name": "role",
          "type": "bytes32"
        },
        {
          "internalType": "address",
          "name": "account",
          "type": "address"
        }
      ],
      "name": "renounceRole",
      "outputs": [],
      "stateMutability": "nonpayable",
      "type": "function"
    },
    {
      "inputs": [
        {
          "internalType": "bytes32",
          "name": "role",
          "type": "bytes32"
        },
        {
          "internalType": "address",
          "name": "account",
          "type": "address"
        }
      ],
      "name": "revokeRole",
      "outputs": [],
      "stateMutability": "nonpayable",
      "type": "function"
    },
    {
      "inputs": [
        {
          "internalType": "address",
          "name": "customerAddr",
          "type": "address"
        },
        {
          "internalType": "string",
          "name": "affiliateId",
          "type": "string"
        }
      ],
      "name": "safeRegisterCustomer",
      "outputs": [],
      "stateMutability": "nonpayable",
      "type": "function"
    },
    {
      "inputs": [
        {
          "internalType": "bytes4",
          "name": "interfaceId",
          "type": "bytes4"
        }
      ],
      "name": "supportsInterface",
      "outputs": [
        {
          "internalType": "bool",
          "name": "",
          "type": "bool"
        }
      ],
      "stateMutability": "view",
      "type": "function"
    },
    {
      "inputs": [
        {
          "internalType": "address",
          "name": "contractAddr",
          "type": "address"
        }
      ],
      "name": "unregisterApp",
      "outputs": [],
      "stateMutability": "nonpayable",
      "type": "function"
    },
    {
      "inputs": [
        {
          "internalType": "string",
          "name": "affiliateId",
          "type": "string"
        }
      ],
      "name": "verifyAffiliate",
      "outputs": [],
      "stateMutability": "nonpayable",
      "type": "function"
    },
    {
      "inputs": [],
      "name": "withdrawAffiliate",
      "outputs": [],
      "stateMutability": "nonpayable",
      "type": "function"
    }
  ],
  "bytecode": "0x60806040523480156200001157600080fd5b506200001f6000336200015f565b6200004c7f7b98b41c1b69918066115c47a3fabea25b5765269638096b0143b9ee263737be6000620001a2565b6040805160e081018252600760a082018181526647656e6573697360c81b60c08401528252825180840184529081526667656e6573697360c81b60208281019190915280830191909152600092820183905260608201839052608082018390526006805460018101825593528151805192936005027ff652222313e28459528d920b65115c16c04f3efc82aaedc97be59f3f377c0d3f0192620000f3928492019062000300565b5060208281015180516200010e926001850192019062000300565b50604082015160028201805460ff191691151591909117905560608201516003820155608090910151600490910180546001600160a01b0319166001600160a01b03909216919091179055620003e3565b620001768282620001ed60201b6200107c1760201c565b60008281526001602090815260409091206200019d918390620011006200028e821b17901c565b505050565b600082815260208190526040808220600101805490849055905190918391839186917fbd79b86ffe0ab8e8776151514217cd7cacd52c909f66475c3af44e129f0b00ff9190a4505050565b6000828152602081815260408083206001600160a01b038516845290915290205460ff166200028a576000828152602081815260408083206001600160a01b03851684529091529020805460ff19166001179055620002493390565b6001600160a01b0316816001600160a01b0316837f2f8788117e7eff1d82e926ec794901d17c78024a50270940304540a733656f0d60405160405180910390a45b5050565b6000620002a5836001600160a01b038416620002ae565b90505b92915050565b6000818152600183016020526040812054620002f757508154600181810184556000848152602080822090930184905584548482528286019093526040902091909155620002a8565b506000620002a8565b8280546200030e90620003a6565b90600052602060002090601f0160209004810192826200033257600085556200037d565b82601f106200034d57805160ff19168380011785556200037d565b828001600101855582156200037d579182015b828111156200037d57825182559160200191906001019062000360565b506200038b9291506200038f565b5090565b5b808211156200038b576000815560010162000390565b600181811c90821680620003bb57607f821691505b60208210811415620003dd57634e487b7160e01b600052602260045260246000fd5b50919050565b611eba80620003f36000396000f3fe608060405234801561001057600080fd5b50600436106101735760003560e01c80634a2f43a5116100de5780639010d07c11610097578063bfdd83f311610071578063bfdd83f31461036e578063ca15c8731461038e578063d547741f146103a1578063ff3204ac146103b457600080fd5b80639010d07c1461034057806391d1485414610353578063a217fddf1461036657600080fd5b80634a2f43a5146102cc5780635d4bea1d146102df578063740356d0146102f25780637493f3fd146103055780637e2bbbbf146103185780637ecd66f81461032b57600080fd5b8063212204d911610130578063212204d91461023a578063248a9ca31461025d5780632b8f9835146102805780632f2ff15d1461029357806336568abe146102a65780633671c717146102b957600080fd5b806301ffc9a7146101785780630e9ebfbf146101a0578063145bc5b1146101cb57806315ec6720146101f957806317a1d80f146102035780631bd7874814610216575b600080fd5b61018b610186366004611b0e565b6103df565b60405190151581526020015b60405180910390f35b6101b36101ae366004611a44565b61040a565b6040516001600160a01b039091168152602001610197565b6101eb6101d9366004611a44565b60046020526000908152604090205481565b604051908152602001610197565b61020161061b565b005b610201610211366004611a44565b610826565b610229610224366004611aaa565b610841565b604051610197959493929190611cc6565b61018b610248366004611a44565b60056020526000908152604090205460ff1681565b6101eb61026b366004611aaa565b60009081526020819052604090206001015490565b61020161028e366004611b36565b6109a6565b6102016102a1366004611ac2565b610a57565b6102016102b4366004611ac2565b610a82565b6102016102c7366004611b71565b610b00565b6102016102da366004611a5e565b610d23565b6102016102ed366004611a44565b610e0b565b610201610300366004611b36565b610e23565b610201610313366004611a44565b610e81565b61018b610326366004611b36565b610f57565b6101eb600080516020611e6583398151915281565b6101b361034e366004611aed565b610ff7565b61018b610361366004611ac2565b611016565b6101eb600081565b6101eb61037c366004611a44565b60026020526000908152604090205481565b6101eb61039c366004611aaa565b61103f565b6102016103af366004611ac2565b611056565b6101eb6103c2366004611b36565b805160208183018101805160038252928201919093012091525481565b60006001600160e01b03198216635a05180f60e01b1480610404575061040482611115565b92915050565b6001600160a01b03811660009081526005602052604081205460ff168061044757506001600160a01b038216600090815260046020526040902054155b1561045457506000919050565b6001600160a01b03821660009081526004602052604081205460068054909190811061049057634e487b7160e01b600052603260045260246000fd5b90600052602060002090600502016040518060a00160405290816000820180546104b990611e03565b80601f01602080910402602001604051908101604052809291908181526020018280546104e590611e03565b80156105325780601f1061050757610100808354040283529160200191610532565b820191906000526020600020905b81548152906001019060200180831161051557829003601f168201915b5050505050815260200160018201805461054b90611e03565b80601f016020809104026020016040519081016040528092919081815260200182805461057790611e03565b80156105c45780601f10610599576101008083540402835291602001916105c4565b820191906000526020600020905b8154815290600101906020018083116105a757829003601f168201915b5050509183525050600282015460ff161515602082015260038201546040808301919091526004909201546001600160a01b03166060909101528101519091506106115750600092915050565b6080015192915050565b336000908152600260205260409020546106505760405162461bcd60e51b815260040161064790611d12565b60405180910390fd5b3360009081526002602052604090205460068054909190811061068357634e487b7160e01b600052603260045260246000fd5b600091825260209091206002600590920201015460ff16156106e75760405162461bcd60e51b815260206004820152601c60248201527f416666696c6961746520697320616c726561647920656e61626c6564000000006044820152606401610647565b3360009081526002602052604081205460068054909190811061071a57634e487b7160e01b600052603260045260246000fd5b9060005260206000209060050201600101805461073690611e03565b80601f016020809104026020016040519081016040528092919081815260200182805461076290611e03565b80156107af5780601f10610784576101008083540402835291602001916107af565b820191906000526020600020905b81548152906001019060200180831161079257829003601f168201915b5050336000908152600260205260408082208290555194955093600393506107da9250859150611bf4565b9081526020016040518091039020819055507f3b5ca57944f3a4aea8415e0d233225d45d5d428f0d68ac1e865a4bcaa809b6b18160405161081b9190611c85565b60405180910390a150565b61083e600080516020611e6583398151915282610a57565b50565b6006818154811061085157600080fd5b906000526020600020906005020160009150905080600001805461087490611e03565b80601f01602080910402602001604051908101604052809291908181526020018280546108a090611e03565b80156108ed5780601f106108c2576101008083540402835291602001916108ed565b820191906000526020600020905b8154815290600101906020018083116108d057829003601f168201915b50505050509080600101805461090290611e03565b80601f016020809104026020016040519081016040528092919081815260200182805461092e90611e03565b801561097b5780601f106109505761010080835404028352916020019161097b565b820191906000526020600020905b81548152906001019060200180831161095e57829003601f168201915b5050505060028301546003840154600490940154929360ff909116929091506001600160a01b031685565b6109b160003361114a565b8060006003826040516109c49190611bf4565b908152602001604051809103902054116109f05760405162461bcd60e51b815260040161064790611d12565b60016006600384604051610a049190611bf4565b90815260200160405180910390205481548110610a3157634e487b7160e01b600052603260045260246000fd5b60009182526020909120600590910201600201805460ff19169115159190911790555050565b600082815260208190526040902060010154610a73813361114a565b610a7d83836111ae565b505050565b6001600160a01b0381163314610af25760405162461bcd60e51b815260206004820152602f60248201527f416363657373436f6e74726f6c3a2063616e206f6e6c792072656e6f756e636560448201526e103937b632b9903337b91039b2b63360891b6064820152608401610647565b610afc82826111d0565b5050565b3360009081526002602052604090205415610b4f5760405162461bcd60e51b815260206004820152600f60248201526e105b1c9958591e48185c1c1b1a5959608a1b6044820152606401610647565b600381604051610b5f9190611bf4565b908152602001604051809103902054600014610bbd5760405162461bcd60e51b815260206004820152601b60248201527f416666696c6961746520494420616c72656164792065786973747300000000006044820152606401610647565b6040805160a0810182528381526020808201849052600092820183905260608201839052336080830152600680546001810182559352815180519293849360059091027ff652222313e28459528d920b65115c16c04f3efc82aaedc97be59f3f377c0d3f0192610c31928492910190611908565b506020828101518051610c4a9260018501920190611908565b50604082015160028201805460ff191691151591909117905560608201516003820155608090910151600490910180546001600160a01b0319166001600160a01b03909216919091179055600654610ca490600190611da5565b33600090815260026020526040902055600654610cc390600190611da5565b600383604051610cd39190611bf4565b9081526020016040518091039020819055507fc806ffe6748910a923eb73c0fe95de2ccb564cc4d63382074a460f74a4eb70ed8383604051610d16929190611c98565b60405180910390a1505050565b610d3b600080516020611e658339815191523361114a565b6001600160a01b03821660009081526005602052604090205460ff1615610d60575050565b6000610d6b8361040a565b6001600160a01b031614610d7d575050565b8051610d8c57610afc826111f2565b6000600382604051610d9e9190611bf4565b90815260200160405180910390205490508060001480610df3575060068181548110610dda57634e487b7160e01b600052603260045260246000fd5b600091825260209091206002600590920201015460ff16155b15610e0157610a7d836111f2565b610a7d83836112a4565b61083e600080516020611e6583398151915282611056565b610e2e60003361114a565b806000600382604051610e419190611bf4565b90815260200160405180910390205411610e6d5760405162461bcd60e51b815260040161064790611d12565b60006006600384604051610a049190611bf4565b33600090815260026020526040902054610ead5760405162461bcd60e51b815260040161064790611d12565b806001600160a01b038116610ed45760405162461bcd60e51b815260040161064790611d41565b336000908152600260205260408120546006805491929183908110610f0957634e487b7160e01b600052603260045260246000fd5b6000918252602080832060046005909302019190910180546001600160a01b039097166001600160a01b03199097168717905533825260029052604080822082905594815293909320555050565b6000816000600382604051610f6c9190611bf4565b90815260200160405180910390205411610f985760405162461bcd60e51b815260040161064790611d12565b6006600384604051610faa9190611bf4565b90815260200160405180910390205481548110610fd757634e487b7160e01b600052603260045260246000fd5b600091825260209091206002600590920201015460ff1691505b50919050565b600082815260016020526040812061100f90836114f2565b9392505050565b6000918252602082815260408084206001600160a01b0393909316845291905290205460ff1690565b6000818152600160205260408120610404906114fe565b600082815260208190526040902060010154611072813361114a565b610a7d83836111d0565b6110868282611016565b610afc576000828152602081815260408083206001600160a01b03851684529091529020805460ff191660011790556110bc3390565b6001600160a01b0316816001600160a01b0316837f2f8788117e7eff1d82e926ec794901d17c78024a50270940304540a733656f0d60405160405180910390a45050565b600061100f836001600160a01b038416611508565b60006001600160e01b03198216637965db0b60e01b148061040457506301ffc9a760e01b6001600160e01b0319831614610404565b6111548282611016565b610afc5761116c816001600160a01b03166014611557565b611177836020611557565b604051602001611188929190611c10565b60408051601f198184030181529082905262461bcd60e51b825261064791600401611c85565b6111b8828261107c565b6000828152600160205260409020610a7d9082611100565b6111da8282611739565b6000828152600160205260409020610a7d908261179e565b806001600160a01b0381166112195760405162461bcd60e51b815260040161064790611d41565b6001600160a01b0382166000908152600460205260409020541561127f5760405162461bcd60e51b815260206004820152601f60248201527f416c7265616479207265676973746572656420746f20616666696c69617465006044820152606401610647565b506001600160a01b03166000908152600560205260409020805460ff19166001179055565b8060006003826040516112b79190611bf4565b908152602001604051809103902054116112e35760405162461bcd60e51b815260040161064790611d12565b826001600160a01b03811661130a5760405162461bcd60e51b815260040161064790611d41565b6001600160a01b03841660009081526005602052604090205460ff16156113735760405162461bcd60e51b815260206004820152601e60248201527f416c72656164792072656769737465726564206f7267616e6963616c6c7900006044820152606401610647565b6001600160a01b038416600090815260046020526040902054156113d95760405162461bcd60e51b815260206004820152601f60248201527f416c7265616479207265676973746572656420746f20616666696c69617465006044820152606401610647565b60006003846040516113eb9190611bf4565b90815260200160405180910390205490506006818154811061141d57634e487b7160e01b600052603260045260246000fd5b600091825260209091206002600590920201015460ff1615156001146114855760405162461bcd60e51b815260206004820152601760248201527f416666696c69617465206973206e6f74206163746976650000000000000000006044820152606401610647565b6001600160a01b03851660009081526004602052604090208190556006805460019190839081106114c657634e487b7160e01b600052603260045260246000fd5b906000526020600020906005020160030160008282546114e69190611d6e565b90915550505050505050565b600061100f83836117b3565b6000610404825490565b600081815260018301602052604081205461154f57508154600181810184556000848152602080822090930184905584548482528286019093526040902091909155610404565b506000610404565b60606000611566836002611d86565b611571906002611d6e565b67ffffffffffffffff81111561159757634e487b7160e01b600052604160045260246000fd5b6040519080825280601f01601f1916602001820160405280156115c1576020820181803683370190505b509050600360fc1b816000815181106115ea57634e487b7160e01b600052603260045260246000fd5b60200101906001600160f81b031916908160001a905350600f60fb1b8160018151811061162757634e487b7160e01b600052603260045260246000fd5b60200101906001600160f81b031916908160001a905350600061164b846002611d86565b611656906001611d6e565b90505b60018111156116ea576f181899199a1a9b1b9c1cb0b131b232b360811b85600f166010811061169857634e487b7160e01b600052603260045260246000fd5b1a60f81b8282815181106116bc57634e487b7160e01b600052603260045260246000fd5b60200101906001600160f81b031916908160001a90535060049490941c936116e381611dec565b9050611659565b50831561100f5760405162461bcd60e51b815260206004820181905260248201527f537472696e67733a20686578206c656e67746820696e73756666696369656e746044820152606401610647565b6117438282611016565b15610afc576000828152602081815260408083206001600160a01b0385168085529252808320805460ff1916905551339285917ff6391f5c32d9c69d2a47ea670b442974b53935d1edc7fd64eb21e047a839171b9190a45050565b600061100f836001600160a01b0384166117eb565b60008260000182815481106117d857634e487b7160e01b600052603260045260246000fd5b9060005260206000200154905092915050565b600081815260018301602052604081205480156118fe57600061180f600183611da5565b855490915060009061182390600190611da5565b90508181146118a457600086600001828154811061185157634e487b7160e01b600052603260045260246000fd5b906000526020600020015490508087600001848154811061188257634e487b7160e01b600052603260045260246000fd5b6000918252602080832090910192909255918252600188019052604090208390555b85548690806118c357634e487b7160e01b600052603160045260246000fd5b600190038181906000526020600020016000905590558560010160008681526020019081526020016000206000905560019350505050610404565b6000915050610404565b82805461191490611e03565b90600052602060002090601f016020900481019282611936576000855561197c565b82601f1061194f57805160ff191683800117855561197c565b8280016001018555821561197c579182015b8281111561197c578251825591602001919060010190611961565b5061198892915061198c565b5090565b5b80821115611988576000815560010161198d565b80356001600160a01b03811681146119b857600080fd5b919050565b600082601f8301126119cd578081fd5b813567ffffffffffffffff808211156119e8576119e8611e4e565b604051601f8301601f19908116603f01168101908282118183101715611a1057611a10611e4e565b81604052838152866020858801011115611a28578485fd5b8360208701602083013792830160200193909352509392505050565b600060208284031215611a55578081fd5b61100f826119a1565b60008060408385031215611a70578081fd5b611a79836119a1565b9150602083013567ffffffffffffffff811115611a94578182fd5b611aa0858286016119bd565b9150509250929050565b600060208284031215611abb578081fd5b5035919050565b60008060408385031215611ad4578182fd5b82359150611ae4602084016119a1565b90509250929050565b60008060408385031215611aff578182fd5b50508035926020909101359150565b600060208284031215611b1f578081fd5b81356001600160e01b03198116811461100f578182fd5b600060208284031215611b47578081fd5b813567ffffffffffffffff811115611b5d578182fd5b611b69848285016119bd565b949350505050565b60008060408385031215611b83578182fd5b823567ffffffffffffffff80821115611b9a578384fd5b611ba6868387016119bd565b93506020850135915080821115611bbb578283fd5b50611aa0858286016119bd565b60008151808452611be0816020860160208601611dbc565b601f01601f19169290920160200192915050565b60008251611c06818460208701611dbc565b9190910192915050565b7f416363657373436f6e74726f6c3a206163636f756e7420000000000000000000815260008351611c48816017850160208801611dbc565b7001034b99036b4b9b9b4b733903937b6329607d1b6017918401918201528351611c79816028840160208801611dbc565b01602801949350505050565b60208152600061100f6020830184611bc8565b604081526000611cab6040830185611bc8565b8281036020840152611cbd8185611bc8565b95945050505050565b60a081526000611cd960a0830188611bc8565b8281036020840152611ceb8188611bc8565b9515156040840152505060608101929092526001600160a01b031660809091015292915050565b6020808252601590820152744e6f7420612076616c696420616666696c6961746560581b604082015260600190565b6020808252601390820152720416464726573732063616e6e6f74206265203606c1b604082015260600190565b60008219821115611d8157611d81611e38565b500190565b6000816000190483118215151615611da057611da0611e38565b500290565b600082821015611db757611db7611e38565b500390565b60005b83811015611dd7578181015183820152602001611dbf565b83811115611de6576000848401525b50505050565b600081611dfb57611dfb611e38565b506000190190565b600181811c90821680611e1757607f821691505b60208210811415610ff157634e487b7160e01b600052602260045260246000fd5b634e487b7160e01b600052601160045260246000fd5b634e487b7160e01b600052604160045260246000fdfe7b98b41c1b69918066115c47a3fabea25b5765269638096b0143b9ee263737bea2646970667358221220578de36f4e6fe007c4a06f554eb088c2460f80432111cb56436529266a33514164736f6c63430008040033",
  "linkReferences": {},
  "deployedLinkReferences": {}
}