{
  "_format": "hh-sol-artifact-1",
  "contractName": "TellorPlayground",
  "sourceName": "contracts/tellor/TellorPlayground.sol",
  "abi": [
    {
      "inputs": [],
      "stateMutability": "nonpayable",
      "type": "constructor"
    },
    {
      "anonymous": false,
      "inputs": [
        {
          "indexed": true,
          "internalType": "address",
          "name": "owner",
          "type": "address"
        },
        {
          "indexed": true,
          "internalType": "address",
          "name": "spender",
          "type": "address"
        },
        {
          "indexed": false,
          "internalType": "uint256",
          "name": "value",
          "type": "uint256"
        }
      ],
      "name": "Approval",
      "type": "event"
    },
    {
      "anonymous": false,
      "inputs": [
        {
          "indexed": false,
          "internalType": "bytes32",
          "name": "_queryId",
          "type": "bytes32"
        },
        {
          "indexed": false,
          "internalType": "uint256",
          "name": "_time",
          "type": "uint256"
        },
        {
          "indexed": false,
          "internalType": "bytes",
          "name": "_value",
          "type": "bytes"
        },
        {
          "indexed": false,
          "internalType": "uint256",
          "name": "_reward",
          "type": "uint256"
        },
        {
          "indexed": false,
          "internalType": "uint256",
          "name": "_nonce",
          "type": "uint256"
        },
        {
          "indexed": false,
          "internalType": "bytes",
          "name": "_queryData",
          "type": "bytes"
        },
        {
          "indexed": false,
          "internalType": "address",
          "name": "_reporter",
          "type": "address"
        }
      ],
      "name": "NewReport",
      "type": "event"
    },
    {
      "anonymous": false,
      "inputs": [
        {
          "indexed": false,
          "internalType": "address",
          "name": "_staker",
          "type": "address"
        },
        {
          "indexed": false,
          "internalType": "uint256",
          "name": "_amount",
          "type": "uint256"
        }
      ],
      "name": "NewStaker",
      "type": "event"
    },
    {
      "anonymous": false,
      "inputs": [
        {
          "indexed": false,
          "internalType": "address",
          "name": "_staker",
          "type": "address"
        },
        {
          "indexed": false,
          "internalType": "uint256",
          "name": "_amount",
          "type": "uint256"
        }
      ],
      "name": "StakeWithdrawRequested",
      "type": "event"
    },
    {
      "anonymous": false,
      "inputs": [
        {
          "indexed": false,
          "internalType": "address",
          "name": "_staker",
          "type": "address"
        }
      ],
      "name": "StakeWithdrawn",
      "type": "event"
    },
    {
      "anonymous": false,
      "inputs": [
        {
          "indexed": true,
          "internalType": "address",
          "name": "_user",
          "type": "address"
        },
        {
          "indexed": true,
          "internalType": "bytes32",
          "name": "_queryId",
          "type": "bytes32"
        },
        {
          "indexed": false,
          "internalType": "uint256",
          "name": "_tip",
          "type": "uint256"
        },
        {
          "indexed": false,
          "internalType": "uint256",
          "name": "_totalTip",
          "type": "uint256"
        },
        {
          "indexed": false,
          "internalType": "bytes",
          "name": "_queryData",
          "type": "bytes"
        }
      ],
      "name": "TipAdded",
      "type": "event"
    },
    {
      "anonymous": false,
      "inputs": [
        {
          "indexed": true,
          "internalType": "address",
          "name": "from",
          "type": "address"
        },
        {
          "indexed": true,
          "internalType": "address",
          "name": "to",
          "type": "address"
        },
        {
          "indexed": false,
          "internalType": "uint256",
          "name": "value",
          "type": "uint256"
        }
      ],
      "name": "Transfer",
      "type": "event"
    },
    {
      "inputs": [
        {
          "internalType": "bytes32",
          "name": "",
          "type": "bytes32"
        }
      ],
      "name": "addresses",
      "outputs": [
        {
          "internalType": "address",
          "name": "",
          "type": "address"
        }
      ],
      "stateMutability": "view",
      "type": "function"
    },
    {
      "inputs": [
        {
          "internalType": "address",
          "name": "_owner",
          "type": "address"
        },
        {
          "internalType": "address",
          "name": "_spender",
          "type": "address"
        }
      ],
      "name": "allowance",
      "outputs": [
        {
          "internalType": "uint256",
          "name": "",
          "type": "uint256"
        }
      ],
      "stateMutability": "view",
      "type": "function"
    },
    {
      "inputs": [
        {
          "internalType": "address",
          "name": "_spender",
          "type": "address"
        },
        {
          "internalType": "uint256",
          "name": "_amount",
          "type": "uint256"
        }
      ],
      "name": "approve",
      "outputs": [
        {
          "internalType": "bool",
          "name": "",
          "type": "bool"
        }
      ],
      "stateMutability": "nonpayable",
      "type": "function"
    },
    {
      "inputs": [
        {
          "internalType": "address",
          "name": "_account",
          "type": "address"
        }
      ],
      "name": "balanceOf",
      "outputs": [
        {
          "internalType": "uint256",
          "name": "",
          "type": "uint256"
        }
      ],
      "stateMutability": "view",
      "type": "function"
    },
    {
      "inputs": [
        {
          "internalType": "bytes32",
          "name": "_queryId",
          "type": "bytes32"
        },
        {
          "internalType": "uint256",
          "name": "_timestamp",
          "type": "uint256"
        }
      ],
      "name": "beginDispute",
      "outputs": [],
      "stateMutability": "nonpayable",
      "type": "function"
    },
    {
      "inputs": [],
      "name": "decimals",
      "outputs": [
        {
          "internalType": "uint8",
          "name": "",
          "type": "uint8"
        }
      ],
      "stateMutability": "view",
      "type": "function"
    },
    {
      "inputs": [
        {
          "internalType": "uint256",
          "name": "_amount",
          "type": "uint256"
        }
      ],
      "name": "depositStake",
      "outputs": [],
      "stateMutability": "nonpayable",
      "type": "function"
    },
    {
      "inputs": [
        {
          "internalType": "address",
          "name": "_user",
          "type": "address"
        }
      ],
      "name": "faucet",
      "outputs": [],
      "stateMutability": "nonpayable",
      "type": "function"
    },
    {
      "inputs": [
        {
          "internalType": "bytes32",
          "name": "_queryId",
          "type": "bytes32"
        }
      ],
      "name": "getCurrentReward",
      "outputs": [
        {
          "internalType": "uint256",
          "name": "",
          "type": "uint256"
        },
        {
          "internalType": "uint256",
          "name": "",
          "type": "uint256"
        }
      ],
      "stateMutability": "view",
      "type": "function"
    },
    {
      "inputs": [
        {
          "internalType": "bytes32",
          "name": "_queryId",
          "type": "bytes32"
        }
      ],
      "name": "getNewValueCountbyQueryId",
      "outputs": [
        {
          "internalType": "uint256",
          "name": "",
          "type": "uint256"
        }
      ],
      "stateMutability": "view",
      "type": "function"
    },
    {
      "inputs": [
        {
          "internalType": "bytes32",
          "name": "_queryId",
          "type": "bytes32"
        },
        {
          "internalType": "uint256",
          "name": "_timestamp",
          "type": "uint256"
        }
      ],
      "name": "getReporterByTimestamp",
      "outputs": [
        {
          "internalType": "address",
          "name": "",
          "type": "address"
        }
      ],
      "stateMutability": "view",
      "type": "function"
    },
    {
      "inputs": [
        {
          "internalType": "address",
          "name": "_staker",
          "type": "address"
        }
      ],
      "name": "getStakerInfo",
      "outputs": [
        {
          "internalType": "uint256",
          "name": "",
          "type": "uint256"
        },
        {
          "internalType": "uint256",
          "name": "",
          "type": "uint256"
        },
        {
          "internalType": "uint256",
          "name": "",
          "type": "uint256"
        },
        {
          "internalType": "uint256",
          "name": "",
          "type": "uint256"
        },
        {
          "internalType": "uint256",
          "name": "",
          "type": "uint256"
        }
      ],
      "stateMutability": "view",
      "type": "function"
    },
    {
      "inputs": [
        {
          "internalType": "bytes32",
          "name": "_queryId",
          "type": "bytes32"
        },
        {
          "internalType": "uint256",
          "name": "_index",
          "type": "uint256"
        }
      ],
      "name": "getTimestampbyQueryIdandIndex",
      "outputs": [
        {
          "internalType": "uint256",
          "name": "",
          "type": "uint256"
        }
      ],
      "stateMutability": "view",
      "type": "function"
    },
    {
      "inputs": [
        {
          "internalType": "bytes32",
          "name": "_hash",
          "type": "bytes32"
        }
      ],
      "name": "getVoteRounds",
      "outputs": [
        {
          "internalType": "uint256[]",
          "name": "",
          "type": "uint256[]"
        }
      ],
      "stateMutability": "view",
      "type": "function"
    },
    {
      "inputs": [
        {
          "internalType": "bytes32",
          "name": "",
          "type": "bytes32"
        },
        {
          "internalType": "uint256",
          "name": "",
          "type": "uint256"
        }
      ],
      "name": "isDisputed",
      "outputs": [
        {
          "internalType": "bool",
          "name": "",
          "type": "bool"
        }
      ],
      "stateMutability": "view",
      "type": "function"
    },
    {
      "inputs": [],
      "name": "name",
      "outputs": [
        {
          "internalType": "string",
          "name": "",
          "type": "string"
        }
      ],
      "stateMutability": "view",
      "type": "function"
    },
    {
      "inputs": [
        {
          "internalType": "bytes32",
          "name": "",
          "type": "bytes32"
        },
        {
          "internalType": "uint256",
          "name": "",
          "type": "uint256"
        }
      ],
      "name": "reporterByTimestamp",
      "outputs": [
        {
          "internalType": "address",
          "name": "",
          "type": "address"
        }
      ],
      "stateMutability": "view",
      "type": "function"
    },
    {
      "inputs": [
        {
          "internalType": "uint256",
          "name": "_amount",
          "type": "uint256"
        }
      ],
      "name": "requestStakingWithdraw",
      "outputs": [],
      "stateMutability": "nonpayable",
      "type": "function"
    },
    {
      "inputs": [
        {
          "internalType": "bytes32",
          "name": "_queryId",
          "type": "bytes32"
        },
        {
          "internalType": "uint256",
          "name": "_timestamp",
          "type": "uint256"
        }
      ],
      "name": "retrieveData",
      "outputs": [
        {
          "internalType": "bytes",
          "name": "",
          "type": "bytes"
        }
      ],
      "stateMutability": "view",
      "type": "function"
    },
    {
      "inputs": [
        {
          "internalType": "bytes32",
          "name": "_queryId",
          "type": "bytes32"
        },
        {
          "internalType": "bytes",
          "name": "_value",
          "type": "bytes"
        },
        {
          "internalType": "uint256",
          "name": "_nonce",
          "type": "uint256"
        },
        {
          "internalType": "bytes",
          "name": "_queryData",
          "type": "bytes"
        }
      ],
      "name": "submitValue",
      "outputs": [],
      "stateMutability": "nonpayable",
      "type": "function"
    },
    {
      "inputs": [],
      "name": "symbol",
      "outputs": [
        {
          "internalType": "string",
          "name": "",
          "type": "string"
        }
      ],
      "stateMutability": "view",
      "type": "function"
    },
    {
      "inputs": [],
      "name": "timeBasedReward",
      "outputs": [
        {
          "internalType": "uint256",
          "name": "",
          "type": "uint256"
        }
      ],
      "stateMutability": "view",
      "type": "function"
    },
    {
      "inputs": [],
      "name": "timeOfLastNewValue",
      "outputs": [
        {
          "internalType": "uint256",
          "name": "",
          "type": "uint256"
        }
      ],
      "stateMutability": "view",
      "type": "function"
    },
    {
      "inputs": [
        {
          "internalType": "bytes32",
          "name": "",
          "type": "bytes32"
        },
        {
          "internalType": "uint256",
          "name": "",
          "type": "uint256"
        }
      ],
      "name": "timestamps",
      "outputs": [
        {
          "internalType": "uint256",
          "name": "",
          "type": "uint256"
        }
      ],
      "stateMutability": "view",
      "type": "function"
    },
    {
      "inputs": [
        {
          "internalType": "bytes32",
          "name": "_queryId",
          "type": "bytes32"
        },
        {
          "internalType": "uint256",
          "name": "_amount",
          "type": "uint256"
        },
        {
          "internalType": "bytes",
          "name": "_queryData",
          "type": "bytes"
        }
      ],
      "name": "tipQuery",
      "outputs": [],
      "stateMutability": "nonpayable",
      "type": "function"
    },
    {
      "inputs": [
        {
          "internalType": "bytes32",
          "name": "",
          "type": "bytes32"
        }
      ],
      "name": "tips",
      "outputs": [
        {
          "internalType": "uint256",
          "name": "",
          "type": "uint256"
        }
      ],
      "stateMutability": "view",
      "type": "function"
    },
    {
      "inputs": [],
      "name": "tipsInContract",
      "outputs": [
        {
          "internalType": "uint256",
          "name": "",
          "type": "uint256"
        }
      ],
      "stateMutability": "view",
      "type": "function"
    },
    {
      "inputs": [],
      "name": "totalSupply",
      "outputs": [
        {
          "internalType": "uint256",
          "name": "",
          "type": "uint256"
        }
      ],
      "stateMutability": "view",
      "type": "function"
    },
    {
      "inputs": [
        {
          "internalType": "address",
          "name": "_recipient",
          "type": "address"
        },
        {
          "internalType": "uint256",
          "name": "_amount",
          "type": "uint256"
        }
      ],
      "name": "transfer",
      "outputs": [
        {
          "internalType": "bool",
          "name": "",
          "type": "bool"
        }
      ],
      "stateMutability": "nonpayable",
      "type": "function"
    },
    {
      "inputs": [
        {
          "internalType": "address",
          "name": "_sender",
          "type": "address"
        },
        {
          "internalType": "address",
          "name": "_recipient",
          "type": "address"
        },
        {
          "internalType": "uint256",
          "name": "_amount",
          "type": "uint256"
        }
      ],
      "name": "transferFrom",
      "outputs": [
        {
          "internalType": "bool",
          "name": "",
          "type": "bool"
        }
      ],
      "stateMutability": "nonpayable",
      "type": "function"
    },
    {
      "inputs": [
        {
          "internalType": "bytes32",
          "name": "",
          "type": "bytes32"
        },
        {
          "internalType": "uint256",
          "name": "",
          "type": "uint256"
        }
      ],
      "name": "values",
      "outputs": [
        {
          "internalType": "bytes",
          "name": "",
          "type": "bytes"
        }
      ],
      "stateMutability": "view",
      "type": "function"
    },
    {
      "inputs": [],
      "name": "voteCount",
      "outputs": [
        {
          "internalType": "uint256",
          "name": "",
          "type": "uint256"
        }
      ],
      "stateMutability": "view",
      "type": "function"
    },
    {
      "inputs": [
        {
          "internalType": "bytes32",
          "name": "",
          "type": "bytes32"
        },
        {
          "internalType": "uint256",
          "name": "",
          "type": "uint256"
        }
      ],
      "name": "voteRounds",
      "outputs": [
        {
          "internalType": "uint256",
          "name": "",
          "type": "uint256"
        }
      ],
      "stateMutability": "view",
      "type": "function"
    },
    {
      "inputs": [],
      "name": "withdrawStake",
      "outputs": [],
      "stateMutability": "nonpayable",
      "type": "function"
    }
  ],
  "bytecode": "0x608060405242600a553480156200001557600080fd5b506040805180820190915260108082526f15195b1b1bdc941b185e59dc9bdd5b9960821b60209092019182526200004f91600e9162000114565b50604080518082019091526004808252630545242560e41b60209092019182526200007d91600f9162000114565b506010805460ff1916601217905560405130906000908190620000c6906020017f5f474f5645524e414e43455f434f4e5452414354000000000000000000000000815260140190565b60405160208183030381529060405280519060200120815260200190815260200160002060006101000a8154816001600160a01b0302191690836001600160a01b03160217905550620001f7565b8280546200012290620001ba565b90600052602060002090601f01602090048101928262000146576000855562000191565b82601f106200016157805160ff191683800117855562000191565b8280016001018555821562000191579182015b828111156200019157825182559160200191906001019062000174565b506200019f929150620001a3565b5090565b5b808211156200019f5760008155600101620001a4565b600181811c90821680620001cf57607f821691505b60208210811415620001f157634e487b7160e01b600052602260045260246000fd5b50919050565b611b2f80620002076000396000f3fe608060405234801561001057600080fd5b50600436106102065760003560e01c806377b03e0d1161011a578063c5958af9116100ad578063ce5e11bf1161007c578063ce5e11bf14610530578063dd62ed3e14610543578063e07c54861461057c578063ef0234ad146105b0578063f25133f3146105c357600080fd5b8063c5958af9146104ee578063c638407114610501578063c979fe9f1461050a578063cb82cc8f1461051d57600080fd5b8063a1e588a5116100e9578063a1e588a514610498578063a9059cbb146104c0578063b86d1d63146104d3578063bed9d861146104e657600080fd5b806377b03e0d1461044e5780638929f4c61461046e57806395d89b411461048157806396426d971461048957600080fd5b8063313ce5671161019d578063699f200f1161016c578063699f200f1461037b57806369d43bd3146103a45780636fd4f229146103ad57806370a08231146103b6578063733bdef0146103df57600080fd5b8063313ce567146103055780635eaa9ced1461031a578063602bf2271461032d57806364473df21461034d57600080fd5b80631f379acc116101d95780631f379acc14610271578063217053c01461028657806323b872dd146102d2578063248638e5146102e557600080fd5b806306fdde031461020b578063091b50ff14610229578063095ea7b31461023c57806318160ddd1461025f575b600080fd5b6102136105d6565b60405161022091906119ce565b60405180910390f35b61021361023736600461185d565b610668565b61024f61024a366004611777565b61070d565b6040519015158152602001610220565b600d545b604051908152602001610220565b61028461027f36600461185d565b610724565b005b6102ba61029436600461185d565b60026020908152600092835260408084209091529082529020546001600160a01b031681565b6040516001600160a01b039091168152602001610220565b61024f6102e036600461173c565b6107ec565b6102f86102f33660046117a0565b61083e565b6040516102209190611917565b60105460405160ff9091168152602001610220565b6102846103283660046117b8565b6108a0565b61026361033b3660046117a0565b60056020526000908152604090205481565b61024f61035b36600461185d565b600160209081526000928352604080842090915290825290205460ff1681565b6102ba6103893660046117a0565b6000602081905290815260409020546001600160a01b031681565b610263600b5481565b610263600a5481565b6102636103c43660046116e9565b6001600160a01b031660009081526009602052604090205490565b6104266103ed3660046116e9565b6001600160a01b031660009081526003602081905260409091208054600182015460028301549383015460049093015491949093929190565b604080519586526020860194909452928401919091526060830152608082015260a001610220565b61026361045c3660046117a0565b60009081526004602052604090205490565b61028461047c3660046117a0565b610aac565b610213610b87565b6102636706f05b59d3b2000081565b6104ab6104a63660046117a0565b610b96565b60408051928352602083019190915201610220565b61024f6104ce366004611777565b610c29565b6102846104e13660046116e9565b610c36565b610284610c4c565b6102136104fc36600461185d565b610d5a565b610263600c5481565b61026361051836600461185d565b610e08565b61028461052b3660046117a0565b610e39565b61026361053e36600461185d565b610f14565b61026361055136600461170a565b6001600160a01b03918216600090815260086020908152604080832093909416825291909152205490565b6102ba61058a36600461185d565b60009182526002602090815260408084209284529190529020546001600160a01b031690565b6102846105be36600461187e565b610f81565b6102636105d136600461185d565b611092565b6060600e80546105e590611a77565b80601f016020809104026020016040519081016040528092919081815260200182805461061190611a77565b801561065e5780601f106106335761010080835404028352916020019161065e565b820191906000526020600020905b81548152906001019060200180831161064157829003601f168201915b5050505050905090565b60066020908152600092835260408084209091529082529020805461068c90611a77565b80601f01602080910402602001604051908101604052809291908181526020018280546106b890611a77565b80156107055780601f106106da57610100808354040283529160200191610705565b820191906000526020600020905b8154815290600101906020018083116106e857829003601f168201915b505050505081565b600061071a3384846110ae565b5060015b92915050565b60408051602080820180845260008084528681526006835284812086825290925292902090516107549290611539565b5060008281526001602081815260408084208585529091528220805460ff19169091179055600c80549161078783611ab2565b91905055506007600083836040516020016107ac929190918252602082015260400190565b60408051601f19818403018152918152815160209283012083528282019390935291016000908120600c5481546001810183559183529290912001555050565b60006107f98484846111ca565b6001600160a01b03841660009081526008602090815260408083203380855292529091205461083491869161082f908690611a60565b6110ae565b5060019392505050565b60008181526007602090815260409182902080548351818402810184019094528084526060939283018282801561089457602002820191906000526020600020905b815481526020019060010190808311610880575b50505050509050919050565b60008581526004602052604090205482146109025760405162461bcd60e51b815260206004820152601760248201527f6e6f6e63652073686f756c6420626520636f727265637400000000000000000060448201526064015b60405180910390fd5b80516020820120851480610917575060648511155b6109635760405162461bcd60e51b815260206004820152601d60248201527f6964206d7573742062652068617368206f66206279746573206461746100000060448201526064016108f9565b600085815260066020908152604080832042845290915290206109879085856115bd565b5060008581526004602090815260408220805460018101825590835290822042910155806109b487610b96565b909250905060006109c58383611a09565b11156109db576109d9336104ce8484611a09565b505b42600a8190555081600b60008282546109f49190611a60565b90915550506000878152600560209081526040808320839055600282528083204280855290835281842080546001600160a01b03191633908117909155845260039283905290832091820155600401805491610a4f83611ab2565b909155507fab1d593f8e2ecb165106e30a39db6769078d35c3fdbb110f24932f0d7af68c29905087428888610a848688611a09565b898933604051610a9b98979695949392919061195b565b60405180910390a150505050505050565b3360009081526003602052604090206001810154821115610b0f5760405162461bcd60e51b815260206004820152601b60248201527f696e73756666696369656e74207374616b65642062616c616e6365000000000060448201526064016108f9565b428155600281018054839190600090610b29908490611a09565b9250508190555081816001016000828254610b449190611a60565b909155505060408051338152602081018490527f3d8d9df4bd0172df32e557fa48e96435cd7f2cac06aaffacfaee608e6f7898ef91015b60405180910390a15050565b6060600f80546105e590611a77565b6000806000600a5442610ba99190611a60565b9050600061012c610bc26706f05b59d3b2000084611a41565b610bcc9190611a21565b9050600b5481610bdc9190611a09565b306000908152600960205260409020541015610c1257600b5430600090815260096020526040902054610c0f9190611a60565b90505b600094855260056020526040909420549492505050565b600061071a3384846111ca565b610c4981683635c9adc5dea00000611331565b50565b336000908152600360205260409020805462093a8090610c6c9042611a60565b1015610caf5760405162461bcd60e51b8152602060048201526012602482015271372064617973206469646e2774207061737360701b60448201526064016108f9565b6000816002015411610d0e5760405162461bcd60e51b815260206004820152602260248201527f7265706f72746572206e6f74206c6f636b656420666f72207769746864726177604482015261185b60f21b60648201526084016108f9565b610d1d303383600201546111ca565b600060028201556040513381527f4a7934670bd8304e7da22378be1368f7c4fef17c5aee81804beda8638fe428ec9060200160405180910390a150565b60008281526006602090815260408083208484529091529020805460609190610d8290611a77565b80601f0160208091040260200160405190810160405280929190818152602001828054610dae90611a77565b8015610dfb5780601f10610dd057610100808354040283529160200191610dfb565b820191906000526020600020905b815481529060010190602001808311610dde57829003601f168201915b5050505050905092915050565b60076020528160005260406000208181548110610e2457600080fd5b90600052602060002001600091509150505481565b336000908152600360205260409020600281015415610eab5781816002015410610e7c5781816002016000828254610e719190611a60565b90915550610ebf9050565b610e963330836002015485610e919190611a60565b611411565b610e9f57600080fd5b60006002820155610ebf565b610eb6333084611411565b610ebf57600080fd5b428155600181018054839190600090610ed9908490611a09565b909155505060408051338152602081018490527fa96c2cce65119a2170d1711a6e82f18f2006448828483ba7545e5954765436479101610b7b565b600082815260046020526040812054801580610f305750828111155b15610f3f57600091505061071e565b6000848152600460205260409020805484908110610f6d57634e487b7160e01b600052603260045260246000fd5b906000526020600020015491505092915050565b80516020820120831480610f96575060648311155b610fe25760405162461bcd60e51b815260206004820152601d60248201527f6964206d7573742062652068617368206f66206279746573206461746100000060448201526064016108f9565b610fed3330846111ca565b610ff8600283611a21565b91506110043083611455565b81600b60008282546110169190611a09565b909155505060008381526005602052604081208054849290611039908490611a09565b909155505060008381526005602052604090819020549051849133917fd951d408a0f5057da5c25b826fb5ce403d56542962b6ac6994dbc6d5432fbff5916110859187919087906119e1565b60405180910390a3505050565b60046020528160005260406000208181548110610e2457600080fd5b6001600160a01b0383166111105760405162461bcd60e51b8152602060048201526024808201527f45524332303a20617070726f76652066726f6d20746865207a65726f206164646044820152637265737360e01b60648201526084016108f9565b6001600160a01b0382166111715760405162461bcd60e51b815260206004820152602260248201527f45524332303a20617070726f766520746f20746865207a65726f206164647265604482015261737360f01b60648201526084016108f9565b6001600160a01b0383811660008181526008602090815260408083209487168084529482529182902085905590518481527f8c5be1e5ebec7d5bd14f71427d1e84f3dd0314c0f7b2291e5b200ac8c7c3b9259101611085565b6001600160a01b03831661122e5760405162461bcd60e51b815260206004820152602560248201527f45524332303a207472616e736665722066726f6d20746865207a65726f206164604482015264647265737360d81b60648201526084016108f9565b6001600160a01b0382166112905760405162461bcd60e51b815260206004820152602360248201527f45524332303a207472616e7366657220746f20746865207a65726f206164647260448201526265737360e81b60648201526084016108f9565b6001600160a01b038316600090815260096020526040812080548392906112b8908490611a60565b90915550506001600160a01b038216600090815260096020526040812080548392906112e5908490611a09565b92505081905550816001600160a01b0316836001600160a01b03167fddf252ad1be2c89b69c2b068fc378daa952ba7f163c4a11628f55a4df523b3ef8360405161108591815260200190565b6001600160a01b0382166113875760405162461bcd60e51b815260206004820152601f60248201527f45524332303a206d696e7420746f20746865207a65726f20616464726573730060448201526064016108f9565b80600d60008282546113999190611a09565b90915550506001600160a01b038216600090815260096020526040812080548392906113c6908490611a09565b90915550506040518181526001600160a01b038316906000907fddf252ad1be2c89b69c2b068fc378daa952ba7f163c4a11628f55a4df523b3ef906020015b60405180910390a35050565b600061141e8484846111ca565b6001600160a01b0384166000908152600860209081526040808320308452909152902054610834908590339061082f908690611a60565b6001600160a01b0382166114b55760405162461bcd60e51b815260206004820152602160248201527f45524332303a206275726e2066726f6d20746865207a65726f206164647265736044820152607360f81b60648201526084016108f9565b6001600160a01b038216600090815260096020526040812080548392906114dd908490611a60565b9250508190555080600d60008282546114f69190611a60565b90915550506040518181526000906001600160a01b038416907fddf252ad1be2c89b69c2b068fc378daa952ba7f163c4a11628f55a4df523b3ef90602001611405565b82805461154590611a77565b90600052602060002090601f01602090048101928261156757600085556115ad565b82601f1061158057805160ff19168380011785556115ad565b828001600101855582156115ad579182015b828111156115ad578251825591602001919060010190611592565b506115b9929150611631565b5090565b8280546115c990611a77565b90600052602060002090601f0160209004810192826115eb57600085556115ad565b82601f106116045782800160ff198235161785556115ad565b828001600101855582156115ad579182015b828111156115ad578235825591602001919060010190611616565b5b808211156115b95760008155600101611632565b80356001600160a01b038116811461165d57600080fd5b919050565b600082601f830112611672578081fd5b813567ffffffffffffffff8082111561168d5761168d611ae3565b604051601f8301601f19908116603f011681019082821181831017156116b5576116b5611ae3565b816040528381528660208588010111156116cd578485fd5b8360208701602083013792830160200193909352509392505050565b6000602082840312156116fa578081fd5b61170382611646565b9392505050565b6000806040838503121561171c578081fd5b61172583611646565b915061173360208401611646565b90509250929050565b600080600060608486031215611750578081fd5b61175984611646565b925061176760208501611646565b9150604084013590509250925092565b60008060408385031215611789578182fd5b61179283611646565b946020939093013593505050565b6000602082840312156117b1578081fd5b5035919050565b6000806000806000608086880312156117cf578081fd5b85359450602086013567ffffffffffffffff808211156117ed578283fd5b818801915088601f830112611800578283fd5b81358181111561180e578384fd5b89602082850101111561181f578384fd5b60208301965080955050604088013593506060880135915080821115611843578283fd5b5061185088828901611662565b9150509295509295909350565b6000806040838503121561186f578182fd5b50508035926020909101359150565b600080600060608486031215611892578283fd5b8335925060208401359150604084013567ffffffffffffffff8111156118b6578182fd5b6118c286828701611662565b9150509250925092565b60008151808452815b818110156118f1576020818501810151868301820152016118d5565b818111156119025782602083870101525b50601f01601f19169290920160200192915050565b6020808252825182820181905260009190848201906040850190845b8181101561194f57835183529284019291840191600101611933565b50909695505050505050565b88815287602082015260e060408201528560e0820152600061010087898285013781818985010152601f19601f8901168301876060850152866080850152818482030160a08501526119af828201876118cc565b9250505060018060a01b03831660c08301529998505050505050505050565b60208152600061170360208301846118cc565b838152826020820152606060408201526000611a0060608301846118cc565b95945050505050565b60008219821115611a1c57611a1c611acd565b500190565b600082611a3c57634e487b7160e01b81526012600452602481fd5b500490565b6000816000190483118215151615611a5b57611a5b611acd565b500290565b600082821015611a7257611a72611acd565b500390565b600181811c90821680611a8b57607f821691505b60208210811415611aac57634e487b7160e01b600052602260045260246000fd5b50919050565b6000600019821415611ac657611ac6611acd565b5060010190565b634e487b7160e01b600052601160045260246000fd5b634e487b7160e01b600052604160045260246000fdfea26469706673582212206cab9afd7a0a5cecc945aabe8474ece4788135b560c76546a68098e9ce534adc64736f6c63430008040033",
  "linkReferences": {},
  "deployedLinkReferences": {}
}