{
  "_format": "hh-sol-artifact-1",
  "contractName": "TellorPlayground",
  "sourceName": "contracts/tellor/TellorPlayground.sol",
  "abi": [
    {
      "inputs": [
        {
          "internalType": "string",
          "name": "name",
          "type": "string"
        },
        {
          "internalType": "string",
          "name": "symbol",
          "type": "string"
        }
      ],
      "stateMutability": "nonpayable",
      "type": "constructor"
    },
    {
      "anonymous": false,
      "inputs": [
        {
          "indexed": true,
          "internalType": "address",
          "name": "owner",
          "type": "address"
        },
        {
          "indexed": true,
          "internalType": "address",
          "name": "spender",
          "type": "address"
        },
        {
          "indexed": false,
          "internalType": "uint256",
          "name": "value",
          "type": "uint256"
        }
      ],
      "name": "Approval",
      "type": "event"
    },
    {
      "anonymous": false,
      "inputs": [
        {
          "indexed": false,
          "internalType": "uint256",
          "name": "_requestId",
          "type": "uint256"
        },
        {
          "indexed": false,
          "internalType": "uint256",
          "name": "_time",
          "type": "uint256"
        },
        {
          "indexed": false,
          "internalType": "bytes",
          "name": "_value",
          "type": "bytes"
        }
      ],
      "name": "NewBytesValue",
      "type": "event"
    },
    {
      "anonymous": false,
      "inputs": [
        {
          "indexed": false,
          "internalType": "uint256",
          "name": "_requestId",
          "type": "uint256"
        },
        {
          "indexed": false,
          "internalType": "uint256",
          "name": "_time",
          "type": "uint256"
        },
        {
          "indexed": false,
          "internalType": "uint256",
          "name": "_value",
          "type": "uint256"
        }
      ],
      "name": "NewValue",
      "type": "event"
    },
    {
      "anonymous": false,
      "inputs": [
        {
          "indexed": true,
          "internalType": "address",
          "name": "_sender",
          "type": "address"
        },
        {
          "indexed": true,
          "internalType": "uint256",
          "name": "_requestId",
          "type": "uint256"
        },
        {
          "indexed": false,
          "internalType": "uint256",
          "name": "_tip",
          "type": "uint256"
        }
      ],
      "name": "TipAdded",
      "type": "event"
    },
    {
      "anonymous": false,
      "inputs": [
        {
          "indexed": true,
          "internalType": "address",
          "name": "from",
          "type": "address"
        },
        {
          "indexed": true,
          "internalType": "address",
          "name": "to",
          "type": "address"
        },
        {
          "indexed": false,
          "internalType": "uint256",
          "name": "value",
          "type": "uint256"
        }
      ],
      "name": "Transfer",
      "type": "event"
    },
    {
      "inputs": [
        {
          "internalType": "uint256",
          "name": "_requestId",
          "type": "uint256"
        },
        {
          "internalType": "uint256",
          "name": "_amount",
          "type": "uint256"
        }
      ],
      "name": "addTip",
      "outputs": [],
      "stateMutability": "nonpayable",
      "type": "function"
    },
    {
      "inputs": [
        {
          "internalType": "address",
          "name": "owner",
          "type": "address"
        },
        {
          "internalType": "address",
          "name": "spender",
          "type": "address"
        }
      ],
      "name": "allowance",
      "outputs": [
        {
          "internalType": "uint256",
          "name": "",
          "type": "uint256"
        }
      ],
      "stateMutability": "view",
      "type": "function"
    },
    {
      "inputs": [
        {
          "internalType": "address",
          "name": "spender",
          "type": "address"
        },
        {
          "internalType": "uint256",
          "name": "amount",
          "type": "uint256"
        }
      ],
      "name": "approve",
      "outputs": [
        {
          "internalType": "bool",
          "name": "",
          "type": "bool"
        }
      ],
      "stateMutability": "nonpayable",
      "type": "function"
    },
    {
      "inputs": [
        {
          "internalType": "address",
          "name": "account",
          "type": "address"
        }
      ],
      "name": "balanceOf",
      "outputs": [
        {
          "internalType": "uint256",
          "name": "",
          "type": "uint256"
        }
      ],
      "stateMutability": "view",
      "type": "function"
    },
    {
      "inputs": [
        {
          "internalType": "address",
          "name": "",
          "type": "address"
        }
      ],
      "name": "balances",
      "outputs": [
        {
          "internalType": "uint256",
          "name": "",
          "type": "uint256"
        }
      ],
      "stateMutability": "view",
      "type": "function"
    },
    {
      "inputs": [
        {
          "internalType": "uint256",
          "name": "",
          "type": "uint256"
        },
        {
          "internalType": "uint256",
          "name": "",
          "type": "uint256"
        }
      ],
      "name": "bytesValues",
      "outputs": [
        {
          "internalType": "bytes",
          "name": "",
          "type": "bytes"
        }
      ],
      "stateMutability": "view",
      "type": "function"
    },
    {
      "inputs": [],
      "name": "decimals",
      "outputs": [
        {
          "internalType": "uint8",
          "name": "",
          "type": "uint8"
        }
      ],
      "stateMutability": "view",
      "type": "function"
    },
    {
      "inputs": [
        {
          "internalType": "address",
          "name": "spender",
          "type": "address"
        },
        {
          "internalType": "uint256",
          "name": "subtractedValue",
          "type": "uint256"
        }
      ],
      "name": "decreaseAllowance",
      "outputs": [
        {
          "internalType": "bool",
          "name": "",
          "type": "bool"
        }
      ],
      "stateMutability": "nonpayable",
      "type": "function"
    },
    {
      "inputs": [
        {
          "internalType": "uint256",
          "name": "_requestId",
          "type": "uint256"
        },
        {
          "internalType": "uint256",
          "name": "_timestamp",
          "type": "uint256"
        }
      ],
      "name": "disputeBytesValue",
      "outputs": [],
      "stateMutability": "nonpayable",
      "type": "function"
    },
    {
      "inputs": [
        {
          "internalType": "uint256",
          "name": "_requestId",
          "type": "uint256"
        },
        {
          "internalType": "uint256",
          "name": "_timestamp",
          "type": "uint256"
        }
      ],
      "name": "disputeValue",
      "outputs": [],
      "stateMutability": "nonpayable",
      "type": "function"
    },
    {
      "inputs": [
        {
          "internalType": "address",
          "name": "user",
          "type": "address"
        }
      ],
      "name": "faucet",
      "outputs": [],
      "stateMutability": "nonpayable",
      "type": "function"
    },
    {
      "inputs": [
        {
          "internalType": "uint256",
          "name": "_requestId",
          "type": "uint256"
        }
      ],
      "name": "getNewValueCountbyRequestId",
      "outputs": [
        {
          "internalType": "uint256",
          "name": "",
          "type": "uint256"
        }
      ],
      "stateMutability": "view",
      "type": "function"
    },
    {
      "inputs": [
        {
          "internalType": "uint256",
          "name": "_requestId",
          "type": "uint256"
        },
        {
          "internalType": "uint256",
          "name": "index",
          "type": "uint256"
        }
      ],
      "name": "getTimestampbyRequestIDandIndex",
      "outputs": [
        {
          "internalType": "uint256",
          "name": "",
          "type": "uint256"
        }
      ],
      "stateMutability": "view",
      "type": "function"
    },
    {
      "inputs": [
        {
          "internalType": "address",
          "name": "spender",
          "type": "address"
        },
        {
          "internalType": "uint256",
          "name": "addedValue",
          "type": "uint256"
        }
      ],
      "name": "increaseAllowance",
      "outputs": [
        {
          "internalType": "bool",
          "name": "",
          "type": "bool"
        }
      ],
      "stateMutability": "nonpayable",
      "type": "function"
    },
    {
      "inputs": [
        {
          "internalType": "uint256",
          "name": "",
          "type": "uint256"
        },
        {
          "internalType": "uint256",
          "name": "",
          "type": "uint256"
        }
      ],
      "name": "isDisputed",
      "outputs": [
        {
          "internalType": "bool",
          "name": "",
          "type": "bool"
        }
      ],
      "stateMutability": "view",
      "type": "function"
    },
    {
      "inputs": [
        {
          "internalType": "uint256",
          "name": "_requestId",
          "type": "uint256"
        },
        {
          "internalType": "uint256",
          "name": "_timestamp",
          "type": "uint256"
        }
      ],
      "name": "isInDispute",
      "outputs": [
        {
          "internalType": "bool",
          "name": "",
          "type": "bool"
        }
      ],
      "stateMutability": "view",
      "type": "function"
    },
    {
      "inputs": [],
      "name": "name",
      "outputs": [
        {
          "internalType": "string",
          "name": "",
          "type": "string"
        }
      ],
      "stateMutability": "view",
      "type": "function"
    },
    {
      "inputs": [
        {
          "internalType": "uint256",
          "name": "_requestId",
          "type": "uint256"
        },
        {
          "internalType": "uint256",
          "name": "_timestamp",
          "type": "uint256"
        }
      ],
      "name": "retrieveBytesData",
      "outputs": [
        {
          "internalType": "bytes",
          "name": "",
          "type": "bytes"
        }
      ],
      "stateMutability": "view",
      "type": "function"
    },
    {
      "inputs": [
        {
          "internalType": "uint256",
          "name": "_requestId",
          "type": "uint256"
        },
        {
          "internalType": "uint256",
          "name": "_timestamp",
          "type": "uint256"
        }
      ],
      "name": "retrieveData",
      "outputs": [
        {
          "internalType": "uint256",
          "name": "",
          "type": "uint256"
        }
      ],
      "stateMutability": "view",
      "type": "function"
    },
    {
      "inputs": [
        {
          "internalType": "uint256",
          "name": "_requestId",
          "type": "uint256"
        },
        {
          "internalType": "bytes",
          "name": "_value",
          "type": "bytes"
        }
      ],
      "name": "submitBytesValue",
      "outputs": [],
      "stateMutability": "nonpayable",
      "type": "function"
    },
    {
      "inputs": [
        {
          "internalType": "uint256",
          "name": "_requestId",
          "type": "uint256"
        },
        {
          "internalType": "uint256",
          "name": "_value",
          "type": "uint256"
        }
      ],
      "name": "submitValue",
      "outputs": [],
      "stateMutability": "nonpayable",
      "type": "function"
    },
    {
      "inputs": [],
      "name": "symbol",
      "outputs": [
        {
          "internalType": "string",
          "name": "",
          "type": "string"
        }
      ],
      "stateMutability": "view",
      "type": "function"
    },
    {
      "inputs": [
        {
          "internalType": "uint256",
          "name": "",
          "type": "uint256"
        },
        {
          "internalType": "uint256",
          "name": "",
          "type": "uint256"
        }
      ],
      "name": "timestamps",
      "outputs": [
        {
          "internalType": "uint256",
          "name": "",
          "type": "uint256"
        }
      ],
      "stateMutability": "view",
      "type": "function"
    },
    {
      "inputs": [],
      "name": "totalSupply",
      "outputs": [
        {
          "internalType": "uint256",
          "name": "",
          "type": "uint256"
        }
      ],
      "stateMutability": "view",
      "type": "function"
    },
    {
      "inputs": [
        {
          "internalType": "address",
          "name": "recipient",
          "type": "address"
        },
        {
          "internalType": "uint256",
          "name": "amount",
          "type": "uint256"
        }
      ],
      "name": "transfer",
      "outputs": [
        {
          "internalType": "bool",
          "name": "",
          "type": "bool"
        }
      ],
      "stateMutability": "nonpayable",
      "type": "function"
    },
    {
      "inputs": [
        {
          "internalType": "address",
          "name": "sender",
          "type": "address"
        },
        {
          "internalType": "address",
          "name": "recipient",
          "type": "address"
        },
        {
          "internalType": "uint256",
          "name": "amount",
          "type": "uint256"
        }
      ],
      "name": "transferFrom",
      "outputs": [
        {
          "internalType": "bool",
          "name": "",
          "type": "bool"
        }
      ],
      "stateMutability": "nonpayable",
      "type": "function"
    },
    {
      "inputs": [
        {
          "internalType": "uint256",
          "name": "",
          "type": "uint256"
        },
        {
          "internalType": "uint256",
          "name": "",
          "type": "uint256"
        }
      ],
      "name": "values",
      "outputs": [
        {
          "internalType": "uint256",
          "name": "",
          "type": "uint256"
        }
      ],
      "stateMutability": "view",
      "type": "function"
    }
  ],
  "bytecode": "0x60806040523480156200001157600080fd5b50604051620014d6380380620014d68339810160408190526200003491620001ce565b81516200004990600890602085019062000075565b5080516200005f90600990602084019062000075565b5050600a805460ff191660121790555062000288565b828054620000839062000235565b90600052602060002090601f016020900481019282620000a75760008555620000f2565b82601f10620000c257805160ff1916838001178555620000f2565b82800160010185558215620000f2579182015b82811115620000f2578251825591602001919060010190620000d5565b506200010092915062000104565b5090565b5b8082111562000100576000815560010162000105565b600082601f8301126200012c578081fd5b81516001600160401b038082111562000149576200014962000272565b604051601f8301601f19908116603f0116810190828211818310171562000174576200017462000272565b8160405283815260209250868385880101111562000190578485fd5b8491505b83821015620001b3578582018301518183018401529082019062000194565b83821115620001c457848385830101525b9695505050505050565b60008060408385031215620001e1578182fd5b82516001600160401b0380821115620001f8578384fd5b62000206868387016200011b565b935060208501519150808211156200021c578283fd5b506200022b858286016200011b565b9150509250929050565b600181811c908216806200024a57607f821691505b602082108114156200026c57634e487b7160e01b600052602260045260246000fd5b50919050565b634e487b7160e01b600052604160045260246000fd5b61123e80620002986000396000f3fe608060405234801561001057600080fd5b50600436106101a95760003560e01c8063752d49a1116100f9578063acebfc5411610097578063b86d1d6311610071578063b86d1d631461043b578063dd62ed3e1461044e578063df2322b414610487578063fb0ceb041461049a57600080fd5b8063acebfc54146103b3578063b041d696146103fa578063b0ea38e01461042857600080fd5b806395d89b41116100d357806395d89b411461035d578063a318370114610365578063a457c2d71461038d578063a9059cbb146103a057600080fd5b8063752d49a11461030e57806377fbb6631461032157806393fa49151461033457600080fd5b806327e235e3116101665780633df0777b116101405780633df0777b1461028457806346eee1c4146102b257806362f55112146102d257806370a08231146102e557600080fd5b806327e235e31461023c578063313ce5671461025c578063395093511461027157600080fd5b806306fdde03146101ae578063083710a6146101cc578063095ea7b3146101e157806318160ddd1461020457806321a045b21461021657806323b872dd14610229575b600080fd5b6101b66104ad565b6040516101c391906110cd565b60405180910390f35b6101df6101da366004611061565b61053f565b005b6101f46101ef366004610f6a565b610596565b60405190151581526020016101c3565b6007545b6040519081526020016101c3565b6101b6610224366004611061565b6105ad565b6101f4610237366004610f2f565b61065b565b61020861024a366004610ee3565b60046020526000908152604090205481565b600a5460405160ff90911681526020016101c3565b6101f461027f366004610f6a565b6106c4565b6101f4610292366004611061565b600091825260026020908152604080842092845291905290205460ff1690565b6102086102c0366004610f93565b60009081526003602052604090205490565b6101df6102e0366004611061565b6106fa565b6102086102f3366004610ee3565b6001600160a01b031660009081526005602052604090205490565b6101df61031c366004611061565b610779565b61020861032f366004611061565b6107c0565b610208610342366004611061565b60009182526020828152604080842092845291905290205490565b6101b661082d565b610208610373366004611061565b600060208181529281526040808220909352908152205481565b6101f461039b366004610f6a565b61083c565b6101f46103ae366004610f6a565b61088b565b6101df6103c1366004611061565b6000828152602081815260408083208484528252808320839055938252600281528382209282529190915220805460ff19166001179055565b6101f4610408366004611061565b600260209081526000928352604080842090915290825290205460ff1681565b6101b6610436366004611061565b610898565b6101df610449366004610ee3565b61093d565b61020861045c366004610efd565b6001600160a01b03918216600090815260066020908152604080832093909416825291909152205490565b6101df610495366004610fab565b610953565b6102086104a8366004611061565b6109d3565b6060600880546104bc9061112e565b80601f01602080910402602001604051908101604052809291908181526020018280546104e89061112e565b80156105355780601f1061050a57610100808354040283529160200191610535565b820191906000526020600020905b81548152906001019060200180831161051857829003601f168201915b5050505050905090565b604080516020808201808452600080845286815260018352848120868252909252929020905161056f9290610e2e565b5060009182526002602090815260408084209284529190529020805460ff19166001179055565b60006105a3338484610a04565b5060015b92915050565b600082815260016020908152604080832084845290915290208054606091906105d59061112e565b80601f01602080910402602001604051908101604052809291908181526020018280546106019061112e565b801561064e5780601f106106235761010080835404028352916020019161064e565b820191906000526020600020905b81548152906001019060200180831161063157829003601f168201915b5050505050905092915050565b6000610668848484610b2e565b6106ba84336106b5856040518060600160405280602881526020016111bc602891396001600160a01b038a1660009081526006602090815260408083203384529091529020549190610cb4565b610a04565b5060019392505050565b3360008181526006602090815260408083206001600160a01b038716845290915281205490916105a39185906106b59086610cee565b60008281526020818152604080832042808552908352818420859055858452600383528184208054600181018255908552938390209093018390558051858152918201929092529081018290527fba11e319aee26e7bbac889432515ba301ec8f6d27bf6b94829c21a65c5f6ff25906060015b60405180910390a15050565b610784333083610b2e565b604051818152829033907f9e771e1220a6c2e407f3601f70a769ca9fff75a110d1687e0b582824673a1f5c906020015b60405180910390a35050565b6000828152600360205260408120548015806107dc5750828111155b156107eb5760009150506105a7565b600084815260036020526040902080548490811061081957634e487b7160e01b600052603260045260246000fd5b906000526020600020015491505092915050565b6060600980546104bc9061112e565b60006105a333846106b5856040518060600160405280602581526020016111e4602591393360009081526006602090815260408083206001600160a01b038d1684529091529020549190610cb4565b60006105a3338484610b2e565b6001602090815260009283526040808420909152908252902080546108bc9061112e565b80601f01602080910402602001604051908101604052809291908181526020018280546108e89061112e565b80156109355780601f1061090a57610100808354040283529160200191610935565b820191906000526020600020905b81548152906001019060200180831161091857829003601f168201915b505050505081565b61095081683635c9adc5dea00000610d54565b50565b60008281526001602090815260408083204284528252909120825161097a92840190610e2e565b50600082815260036020908152604080832080546001810182559084529190922042910181905590517f98a81ced8c27ffa7bd859dc5b5692978efd27ed7ed8d815a3ea284a33b4b582b9161076d9185919085906110e0565b600360205281600052604060002081815481106109ef57600080fd5b90600052602060002001600091509150505481565b6001600160a01b038316610a6b5760405162461bcd60e51b8152602060048201526024808201527f45524332303a20617070726f76652066726f6d20746865207a65726f206164646044820152637265737360e01b60648201526084015b60405180910390fd5b6001600160a01b038216610acc5760405162461bcd60e51b815260206004820152602260248201527f45524332303a20617070726f766520746f20746865207a65726f206164647265604482015261737360f01b6064820152608401610a62565b6001600160a01b0383811660008181526006602090815260408083209487168084529482529182902085905590518481527f8c5be1e5ebec7d5bd14f71427d1e84f3dd0314c0f7b2291e5b200ac8c7c3b92591015b60405180910390a3505050565b6001600160a01b038316610b925760405162461bcd60e51b815260206004820152602560248201527f45524332303a207472616e736665722066726f6d20746865207a65726f206164604482015264647265737360d81b6064820152608401610a62565b6001600160a01b038216610bf45760405162461bcd60e51b815260206004820152602360248201527f45524332303a207472616e7366657220746f20746865207a65726f206164647260448201526265737360e81b6064820152608401610a62565b610c3181604051806060016040528060268152602001611196602691396001600160a01b0386166000908152600560205260409020549190610cb4565b6001600160a01b038085166000908152600560205260408082209390935590841681522054610c609082610cee565b6001600160a01b0380841660008181526005602052604090819020939093559151908516907fddf252ad1be2c89b69c2b068fc378daa952ba7f163c4a11628f55a4df523b3ef90610b219085815260200190565b60008184841115610cd85760405162461bcd60e51b8152600401610a6291906110cd565b506000610ce58486611117565b95945050505050565b600080610cfb83856110ff565b905083811015610d4d5760405162461bcd60e51b815260206004820152601b60248201527f536166654d6174683a206164646974696f6e206f766572666c6f7700000000006044820152606401610a62565b9392505050565b6001600160a01b038216610daa5760405162461bcd60e51b815260206004820152601f60248201527f45524332303a206d696e7420746f20746865207a65726f2061646472657373006044820152606401610a62565b600754610db79082610cee565b6007556001600160a01b038216600090815260056020526040902054610ddd9082610cee565b6001600160a01b0383166000818152600560205260408082209390935591519091907fddf252ad1be2c89b69c2b068fc378daa952ba7f163c4a11628f55a4df523b3ef906107b49085815260200190565b828054610e3a9061112e565b90600052602060002090601f016020900481019282610e5c5760008555610ea2565b82601f10610e7557805160ff1916838001178555610ea2565b82800160010185558215610ea2579182015b82811115610ea2578251825591602001919060010190610e87565b50610eae929150610eb2565b5090565b5b80821115610eae5760008155600101610eb3565b80356001600160a01b0381168114610ede57600080fd5b919050565b600060208284031215610ef4578081fd5b610d4d82610ec7565b60008060408385031215610f0f578081fd5b610f1883610ec7565b9150610f2660208401610ec7565b90509250929050565b600080600060608486031215610f43578081fd5b610f4c84610ec7565b9250610f5a60208501610ec7565b9150604084013590509250925092565b60008060408385031215610f7c578182fd5b610f8583610ec7565b946020939093013593505050565b600060208284031215610fa4578081fd5b5035919050565b60008060408385031215610fbd578182fd5b82359150602083013567ffffffffffffffff80821115610fdb578283fd5b818501915085601f830112610fee578283fd5b8135818111156110005761100061117f565b604051601f8201601f19908116603f011681019083821181831017156110285761102861117f565b81604052828152886020848701011115611040578586fd5b82602086016020830137856020848301015280955050505050509250929050565b60008060408385031215611073578182fd5b50508035926020909101359150565b60008151808452815b818110156110a75760208185018101518683018201520161108b565b818111156110b85782602083870101525b50601f01601f19169290920160200192915050565b602081526000610d4d6020830184611082565b838152826020820152606060408201526000610ce56060830184611082565b6000821982111561111257611112611169565b500190565b60008282101561112957611129611169565b500390565b600181811c9082168061114257607f821691505b6020821081141561116357634e487b7160e01b600052602260045260246000fd5b50919050565b634e487b7160e01b600052601160045260246000fd5b634e487b7160e01b600052604160045260246000fdfe45524332303a207472616e7366657220616d6f756e7420657863656564732062616c616e636545524332303a207472616e7366657220616d6f756e74206578636565647320616c6c6f77616e636545524332303a2064656372656173656420616c6c6f77616e63652062656c6f77207a65726fa264697066735822122025a40b35cb5b048d1e733306ac23f81a5b746a4ad8827f0c8f15d8201e18eb9e64736f6c63430008040033",
  "linkReferences": {},
  "deployedLinkReferences": {}
}