{
  "_format": "hh-sol-artifact-1",
  "contractName": "UsingTellor",
  "sourceName": "contracts/tellor/UsingTellor.sol",
  "abi": [
    {
      "inputs": [
        {
          "internalType": "address payable",
          "name": "_tellor",
          "type": "address"
        }
      ],
      "stateMutability": "nonpayable",
      "type": "constructor"
    },
    {
      "inputs": [
        {
          "internalType": "bytes32",
          "name": "_queryId",
          "type": "bytes32"
        }
      ],
      "name": "getCurrentValue",
      "outputs": [
        {
          "internalType": "bool",
          "name": "_ifRetrieve",
          "type": "bool"
        },
        {
          "internalType": "bytes",
          "name": "_value",
          "type": "bytes"
        },
        {
          "internalType": "uint256",
          "name": "_timestampRetrieved",
          "type": "uint256"
        }
      ],
      "stateMutability": "view",
      "type": "function"
    },
    {
      "inputs": [
        {
          "internalType": "bytes32",
          "name": "_queryId",
          "type": "bytes32"
        },
        {
          "internalType": "uint256",
          "name": "_timestamp",
          "type": "uint256"
        }
      ],
      "name": "getDataBefore",
      "outputs": [
        {
          "internalType": "bool",
          "name": "_ifRetrieve",
          "type": "bool"
        },
        {
          "internalType": "bytes",
          "name": "_value",
          "type": "bytes"
        },
        {
          "internalType": "uint256",
          "name": "_timestampRetrieved",
          "type": "uint256"
        }
      ],
      "stateMutability": "view",
      "type": "function"
    },
    {
      "inputs": [
        {
          "internalType": "bytes32",
          "name": "_queryId",
          "type": "bytes32"
        },
        {
          "internalType": "uint256",
          "name": "_timestamp",
          "type": "uint256"
        }
      ],
      "name": "getIndexForDataBefore",
      "outputs": [
        {
          "internalType": "bool",
          "name": "_found",
          "type": "bool"
        },
        {
          "internalType": "uint256",
          "name": "_index",
          "type": "uint256"
        }
      ],
      "stateMutability": "view",
      "type": "function"
    },
    {
      "inputs": [
        {
          "internalType": "bytes32",
          "name": "_queryId",
          "type": "bytes32"
        }
      ],
      "name": "getNewValueCountbyQueryId",
      "outputs": [
        {
          "internalType": "uint256",
          "name": "",
          "type": "uint256"
        }
      ],
      "stateMutability": "view",
      "type": "function"
    },
    {
      "inputs": [
        {
          "internalType": "bytes32",
          "name": "_queryId",
          "type": "bytes32"
        },
        {
          "internalType": "uint256",
          "name": "_index",
          "type": "uint256"
        }
      ],
      "name": "getTimestampbyQueryIdandIndex",
      "outputs": [
        {
          "internalType": "uint256",
          "name": "",
          "type": "uint256"
        }
      ],
      "stateMutability": "view",
      "type": "function"
    },
    {
      "inputs": [
        {
          "internalType": "bytes32",
          "name": "_queryId",
          "type": "bytes32"
        },
        {
          "internalType": "uint256",
          "name": "_timestamp",
          "type": "uint256"
        }
      ],
      "name": "isInDispute",
      "outputs": [
        {
          "internalType": "bool",
          "name": "",
          "type": "bool"
        }
      ],
      "stateMutability": "view",
      "type": "function"
    },
    {
      "inputs": [
        {
          "internalType": "bytes32",
          "name": "_queryId",
          "type": "bytes32"
        },
        {
          "internalType": "uint256",
          "name": "_timestamp",
          "type": "uint256"
        }
      ],
      "name": "retrieveData",
      "outputs": [
        {
          "internalType": "bytes",
          "name": "",
          "type": "bytes"
        }
      ],
      "stateMutability": "view",
      "type": "function"
    },
    {
      "inputs": [],
      "name": "tellor",
      "outputs": [
        {
          "internalType": "contract ITellor",
          "name": "",
          "type": "address"
        }
      ],
      "stateMutability": "view",
      "type": "function"
    }
  ],
  "bytecode": "0x608060405234801561001057600080fd5b5060405161107538038061107583398101604081905261002f91610054565b600080546001600160a01b0319166001600160a01b0392909216919091179055610082565b600060208284031215610065578081fd5b81516001600160a01b038116811461007b578182fd5b9392505050565b610fe4806100916000396000f3fe608060405234801561001057600080fd5b50600436106100885760003560e01c8063a792765f1161005b578063a792765f1461012b578063adf1639d1461014d578063c5958af914610160578063ce5e11bf1461018057600080fd5b80631959ad5b1461008d57806329449085146100bd57806344e87f91146100e757806377b03e0d1461010a575b600080fd5b6000546100a0906001600160a01b031681565b6040516001600160a01b0390911681526020015b60405180910390f35b6100d06100cb366004610d9f565b610193565b6040805192151583526020830191909152016100b4565b6100fa6100f5366004610d9f565b6105bf565b60405190151581526020016100b4565b61011d610118366004610d87565b61073d565b6040519081526020016100b4565b61013e610139366004610d9f565b6107c0565b6040516100b493929190610e94565b61013e61015b366004610d87565b61097b565b61017361016e366004610d9f565b610ba5565b6040516100b49190610ebf565b61011d61018e366004610d9f565b610c34565b600080546040516377b03e0d60e01b815260048101859052829182916001600160a01b03909116906377b03e0d9060240160206040518083038186803b1580156101dc57600080fd5b505afa1580156101f0573d6000803e3d6000fd5b505050506040513d601f19601f820116820180604052508101906102149190610e50565b905080156105af576000808061022b600185610f3b565b6000805460405163ce5e11bf60e01b8152600481018c90526024810186905292935090916001600160a01b039091169063ce5e11bf9060440160206040518083038186803b15801561027c57600080fd5b505afa158015610290573d6000803e3d6000fd5b505050506040513d601f19601f820116820180604052508101906102b49190610e50565b90508781106102ce576000809650965050505050506105b8565b60005460405163ce5e11bf60e01b8152600481018b9052602481018490526001600160a01b039091169063ce5e11bf9060440160206040518083038186803b15801561031957600080fd5b505afa15801561032d573d6000803e3d6000fd5b505050506040513d601f19601f820116820180604052508101906103519190610e50565b90508781101561036b57506001955093506105b892505050565b8260026103788285610f3b565b6103829190610f1b565b61038d906001610f03565b6103979190610f03565b60005460405163ce5e11bf60e01b8152600481018c9052602481018390529195506001600160a01b03169063ce5e11bf9060440160206040518083038186803b1580156103e357600080fd5b505afa1580156103f7573d6000803e3d6000fd5b505050506040513d601f19601f8201168201806040525081019061041b9190610e50565b9050878110156104e557600080546001600160a01b031663ce5e11bf8b610443886001610f03565b6040516001600160e01b031960e085901b1681526004810192909252602482015260440160206040518083038186803b15801561047f57600080fd5b505afa158015610493573d6000803e3d6000fd5b505050506040513d601f19601f820116820180604052508101906104b79190610e50565b90508881106104d257600185975097505050505050506105b8565b6104dd856001610f03565b93505061036b565b600080546001600160a01b031663ce5e11bf8b610503600189610f3b565b6040516001600160e01b031960e085901b1681526004810192909252602482015260440160206040518083038186803b15801561053f57600080fd5b505afa158015610553573d6000803e3d6000fd5b505050506040513d601f19601f820116820180604052508101906105779190610e50565b90508881101561059c57600161058d8187610f3b565b975097505050505050506105b8565b6105a7600186610f3b565b92505061036b565b60008092509250505b9250929050565b600080546040517317d1d3d5915493905390d157d0d3d395149050d560621b602082015282916001600160a01b03169063699f200f90603401604051602081830303815290604052805190602001206040518263ffffffff1660e01b815260040161062c91815260200190565b60206040518083038186803b15801561064457600080fd5b505afa158015610658573d6000803e3d6000fd5b505050506040513d601f19601f8201168201806040525081019061067c9190610cb8565b90506000816001600160a01b031663248638e586866040516020016106ab929190918252602082015260400190565b604051602081830303815290604052805190602001206040518263ffffffff1660e01b81526004016106df91815260200190565b60006040518083038186803b1580156106f757600080fd5b505afa15801561070b573d6000803e3d6000fd5b505050506040513d6000823e601f3d908101601f191682016040526107339190810190610cdf565b5111949350505050565b600080546040516377b03e0d60e01b8152600481018490526001600160a01b03909116906377b03e0d9060240160206040518083038186803b15801561078257600080fd5b505afa158015610796573d6000803e3d6000fd5b505050506040513d601f19601f820116820180604052508101906107ba9190610e50565b92915050565b6000606060008060006107d38787610193565b91509150816107fd5760006040518060200160405280600081525060009450945094505050610974565b6000805460405163ce5e11bf60e01b8152600481018a9052602481018490526001600160a01b039091169063ce5e11bf9060440160206040518083038186803b15801561084957600080fd5b505afa15801561085d573d6000803e3d6000fd5b505050506040513d601f19601f820116820180604052508101906108819190610e50565b60005460405163c5958af960e01b8152600481018b9052602481018390529192506001600160a01b03169063c5958af99060440160006040518083038186803b1580156108cd57600080fd5b505afa1580156108e1573d6000803e3d6000fd5b505050506040513d6000823e601f3d908101601f191682016040526109099190810190610dc0565b604080516020808201909252600090528151908201209095507fc5d2460186f7233c927e7db2dcc703c0e500b653ca82273b7bfad8045d85a4701461095657600195509250610974915050565b60006040518060200160405280600081525060009550955095505050505b9250925092565b600080546040516377b03e0d60e01b815260048101849052606091839182916001600160a01b0316906377b03e0d9060240160206040518083038186803b1580156109c557600080fd5b505afa1580156109d9573d6000803e3d6000fd5b505050506040513d601f19601f820116820180604052508101906109fd9190610e50565b905080610a20575050604080516020810190915260008082529250905081610b9e565b600080546001600160a01b031663ce5e11bf87610a3e600186610f3b565b6040516001600160e01b031960e085901b1681526004810192909252602482015260440160206040518083038186803b158015610a7a57600080fd5b505afa158015610a8e573d6000803e3d6000fd5b505050506040513d601f19601f82011682018060405250810190610ab29190610e50565b60005460405163c5958af960e01b815260048101899052602481018390529192506001600160a01b03169063c5958af99060440160006040518083038186803b158015610afe57600080fd5b505afa158015610b12573d6000803e3d6000fd5b505050506040513d6000823e601f3d908101601f19168201604052610b3a9190810190610dc0565b604080516020808201909252600090528151908201209094507fc5d2460186f7233c927e7db2dcc703c0e500b653ca82273b7bfad8045d85a47014610b8657600194509150610b9e9050565b60408051602081019091526000808252955093509150505b9193909250565b60005460405163c5958af960e01b815260048101849052602481018390526060916001600160a01b03169063c5958af99060440160006040518083038186803b158015610bf157600080fd5b505afa158015610c05573d6000803e3d6000fd5b505050506040513d6000823e601f3d908101601f19168201604052610c2d9190810190610dc0565b9392505050565b6000805460405163ce5e11bf60e01b815260048101859052602481018490526001600160a01b039091169063ce5e11bf9060440160206040518083038186803b158015610c8057600080fd5b505afa158015610c94573d6000803e3d6000fd5b505050506040513d601f19601f82011682018060405250810190610c2d9190610e50565b600060208284031215610cc9578081fd5b81516001600160a01b0381168114610c2d578182fd5b60006020808385031215610cf1578182fd5b825167ffffffffffffffff80821115610d08578384fd5b818501915085601f830112610d1b578384fd5b815181811115610d2d57610d2d610f98565b8060051b9150610d3e848301610ed2565b8181528481019084860184860187018a1015610d58578788fd5b8795505b83861015610d7a578051835260019590950194918601918601610d5c565b5098975050505050505050565b600060208284031215610d98578081fd5b5035919050565b60008060408385031215610db1578081fd5b50508035926020909101359150565b600060208284031215610dd1578081fd5b815167ffffffffffffffff80821115610de8578283fd5b818401915084601f830112610dfb578283fd5b815181811115610e0d57610e0d610f98565b610e20601f8201601f1916602001610ed2565b9150808252856020828501011115610e36578384fd5b610e47816020840160208601610f52565b50949350505050565b600060208284031215610e61578081fd5b5051919050565b60008151808452610e80816020860160208601610f52565b601f01601f19169290920160200192915050565b8315158152606060208201526000610eaf6060830185610e68565b9050826040830152949350505050565b602081526000610c2d6020830184610e68565b604051601f8201601f1916810167ffffffffffffffff81118282101715610efb57610efb610f98565b604052919050565b60008219821115610f1657610f16610f82565b500190565b600082610f3657634e487b7160e01b81526012600452602481fd5b500490565b600082821015610f4d57610f4d610f82565b500390565b60005b83811015610f6d578181015183820152602001610f55565b83811115610f7c576000848401525b50505050565b634e487b7160e01b600052601160045260246000fd5b634e487b7160e01b600052604160045260246000fdfea2646970667358221220e3bee677c8196b31cc74157923a2175c8388799b49ac4b565a17163d5217effd64736f6c63430008040033",
  "linkReferences": {},
  "deployedLinkReferences": {}
}