{
  "_format": "hh-sol-artifact-1",
  "contractName": "MockTellor",
  "sourceName": "contracts/tellor/MockTellor.sol",
  "abi": [
    {
      "inputs": [],
      "stateMutability": "nonpayable",
      "type": "constructor"
    },
    {
      "inputs": [],
      "name": "firstToken",
      "outputs": [
        {
          "internalType": "uint8",
          "name": "",
          "type": "uint8"
        }
      ],
      "stateMutability": "view",
      "type": "function"
    },
    {
      "inputs": [
        {
          "internalType": "string",
          "name": "token",
          "type": "string"
        },
        {
          "internalType": "string",
          "name": "ticker",
          "type": "string"
        },
        {
          "internalType": "uint16",
          "name": "value",
          "type": "uint16"
        },
        {
          "internalType": "uint16",
          "name": "value2",
          "type": "uint16"
        }
      ],
      "name": "requestData",
      "outputs": [],
      "stateMutability": "nonpayable",
      "type": "function"
    }
  ],
  "bytecode": "0x608060405234801561001057600080fd5b506101e0806100206000396000f3fe608060405234801561001057600080fd5b50600436106100365760003560e01c80632b15e2bd1461003b5780636bb0e77b14610051575b600080fd5b61004f610049366004610112565b50505050565b005b60005461005e9060ff1681565b60405160ff909116815260200160405180910390f35b600082601f830112610084578081fd5b813567ffffffffffffffff8082111561009f5761009f610194565b604051601f8301601f19908116603f011681019082821181831017156100c7576100c7610194565b816040528381528660208588010111156100df578485fd5b8360208701602083013792830160200193909352509392505050565b803561ffff8116811461010d57600080fd5b919050565b60008060008060808587031215610127578384fd5b843567ffffffffffffffff8082111561013e578586fd5b61014a88838901610074565b9550602087013591508082111561015f578485fd5b5061016c87828801610074565b93505061017b604086016100fb565b9150610189606086016100fb565b905092959194509250565b634e487b7160e01b600052604160045260246000fdfea264697066735822122078720763d445a0ed678ab02a3cfc2b244a089b6342f2d92de18b89a15c0b3caf64736f6c63430008040033",
  "linkReferences": {},
  "deployedLinkReferences": {}
}