{
  "_format": "hh-sol-artifact-1",
  "contractName": "REXSushiFarmMarketBase",
  "sourceName": "contracts/REXSushiFarmMarketBase.sol",
  "abi": [
    {
      "inputs": [
        {
          "internalType": "address",
          "name": "_owner",
          "type": "address"
        },
        {
          "internalType": "address",
          "name": "_slpAddress",
          "type": "address"
        },
        {
          "internalType": "address",
          "name": "_token1",
          "type": "address"
        },
        {
          "internalType": "uint256",
          "name": "_poolId",
          "type": "uint256"
        },
        {
          "internalType": "contract ISuperfluid",
          "name": "_host",
          "type": "address"
        },
        {
          "internalType": "contract IConstantFlowAgreementV1",
          "name": "_cfa",
          "type": "address"
        },
        {
          "internalType": "contract IInstantDistributionAgreementV1",
          "name": "_ida",
          "type": "address"
        }
      ],
      "stateMutability": "nonpayable",
      "type": "constructor"
    },
    {
      "anonymous": false,
      "inputs": [
        {
          "indexed": false,
          "internalType": "uint256",
          "name": "totalAmount",
          "type": "uint256"
        },
        {
          "indexed": false,
          "internalType": "uint256",
          "name": "feeCollected",
          "type": "uint256"
        },
        {
          "indexed": false,
          "internalType": "address",
          "name": "token",
          "type": "address"
        }
      ],
      "name": "Distribution",
      "type": "event"
    },
    {
      "anonymous": false,
      "inputs": [
        {
          "indexed": true,
          "internalType": "address",
          "name": "previousOwner",
          "type": "address"
        },
        {
          "indexed": true,
          "internalType": "address",
          "name": "newOwner",
          "type": "address"
        }
      ],
      "name": "OwnershipTransferred",
      "type": "event"
    },
    {
      "inputs": [
        {
          "internalType": "uint256",
          "name": "amount",
          "type": "uint256"
        },
        {
          "internalType": "uint256",
          "name": "deadline",
          "type": "uint256"
        }
      ],
      "name": "_swapAndDeposit",
      "outputs": [
        {
          "internalType": "uint256",
          "name": "",
          "type": "uint256"
        }
      ],
      "stateMutability": "nonpayable",
      "type": "function"
    },
    {
      "inputs": [
        {
          "internalType": "contract ISuperToken",
          "name": "_token",
          "type": "address"
        },
        {
          "internalType": "uint128",
          "name": "_feeRate",
          "type": "uint128"
        },
        {
          "internalType": "uint256",
          "name": "_emissionRate",
          "type": "uint256"
        },
        {
          "internalType": "uint256",
          "name": "_requestId",
          "type": "uint256"
        }
      ],
      "name": "addOutputPool",
      "outputs": [],
      "stateMutability": "nonpayable",
      "type": "function"
    },
    {
      "inputs": [
        {
          "internalType": "contract ISuperToken",
          "name": "_superToken",
          "type": "address"
        },
        {
          "internalType": "address",
          "name": "_agreementClass",
          "type": "address"
        },
        {
          "internalType": "bytes32",
          "name": "",
          "type": "bytes32"
        },
        {
          "internalType": "bytes",
          "name": "_agreementData",
          "type": "bytes"
        },
        {
          "internalType": "bytes",
          "name": "",
          "type": "bytes"
        },
        {
          "internalType": "bytes",
          "name": "_ctx",
          "type": "bytes"
        }
      ],
      "name": "afterAgreementCreated",
      "outputs": [
        {
          "internalType": "bytes",
          "name": "newCtx",
          "type": "bytes"
        }
      ],
      "stateMutability": "nonpayable",
      "type": "function"
    },
    {
      "inputs": [
        {
          "internalType": "contract ISuperToken",
          "name": "_superToken",
          "type": "address"
        },
        {
          "internalType": "address",
          "name": "_agreementClass",
          "type": "address"
        },
        {
          "internalType": "bytes32",
          "name": "",
          "type": "bytes32"
        },
        {
          "internalType": "bytes",
          "name": "_agreementData",
          "type": "bytes"
        },
        {
          "internalType": "bytes",
          "name": "",
          "type": "bytes"
        },
        {
          "internalType": "bytes",
          "name": "_ctx",
          "type": "bytes"
        }
      ],
      "name": "afterAgreementTerminated",
      "outputs": [
        {
          "internalType": "bytes",
          "name": "newCtx",
          "type": "bytes"
        }
      ],
      "stateMutability": "nonpayable",
      "type": "function"
    },
    {
      "inputs": [
        {
          "internalType": "contract ISuperToken",
          "name": "_superToken",
          "type": "address"
        },
        {
          "internalType": "address",
          "name": "_agreementClass",
          "type": "address"
        },
        {
          "internalType": "bytes32",
          "name": "",
          "type": "bytes32"
        },
        {
          "internalType": "bytes",
          "name": "_agreementData",
          "type": "bytes"
        },
        {
          "internalType": "bytes",
          "name": "",
          "type": "bytes"
        },
        {
          "internalType": "bytes",
          "name": "_ctx",
          "type": "bytes"
        }
      ],
      "name": "afterAgreementUpdated",
      "outputs": [
        {
          "internalType": "bytes",
          "name": "newCtx",
          "type": "bytes"
        }
      ],
      "stateMutability": "nonpayable",
      "type": "function"
    },
    {
      "inputs": [
        {
          "internalType": "contract ISuperToken",
          "name": "",
          "type": "address"
        },
        {
          "internalType": "address",
          "name": "",
          "type": "address"
        },
        {
          "internalType": "bytes32",
          "name": "",
          "type": "bytes32"
        },
        {
          "internalType": "bytes",
          "name": "",
          "type": "bytes"
        },
        {
          "internalType": "bytes",
          "name": "",
          "type": "bytes"
        }
      ],
      "name": "beforeAgreementCreated",
      "outputs": [
        {
          "internalType": "bytes",
          "name": "",
          "type": "bytes"
        }
      ],
      "stateMutability": "view",
      "type": "function"
    },
    {
      "inputs": [
        {
          "internalType": "contract ISuperToken",
          "name": "",
          "type": "address"
        },
        {
          "internalType": "address",
          "name": "",
          "type": "address"
        },
        {
          "internalType": "bytes32",
          "name": "",
          "type": "bytes32"
        },
        {
          "internalType": "bytes",
          "name": "",
          "type": "bytes"
        },
        {
          "internalType": "bytes",
          "name": "",
          "type": "bytes"
        }
      ],
      "name": "beforeAgreementTerminated",
      "outputs": [
        {
          "internalType": "bytes",
          "name": "",
          "type": "bytes"
        }
      ],
      "stateMutability": "view",
      "type": "function"
    },
    {
      "inputs": [
        {
          "internalType": "contract ISuperToken",
          "name": "",
          "type": "address"
        },
        {
          "internalType": "address",
          "name": "",
          "type": "address"
        },
        {
          "internalType": "bytes32",
          "name": "",
          "type": "bytes32"
        },
        {
          "internalType": "bytes",
          "name": "",
          "type": "bytes"
        },
        {
          "internalType": "bytes",
          "name": "",
          "type": "bytes"
        }
      ],
      "name": "beforeAgreementUpdated",
      "outputs": [
        {
          "internalType": "bytes",
          "name": "",
          "type": "bytes"
        }
      ],
      "stateMutability": "view",
      "type": "function"
    },
    {
      "inputs": [
        {
          "internalType": "bytes",
          "name": "ctx",
          "type": "bytes"
        }
      ],
      "name": "distribute",
      "outputs": [
        {
          "internalType": "bytes",
          "name": "newCtx",
          "type": "bytes"
        }
      ],
      "stateMutability": "nonpayable",
      "type": "function"
    },
    {
      "inputs": [
        {
          "internalType": "uint256",
          "name": "_requestId",
          "type": "uint256"
        }
      ],
      "name": "getCurrentValue",
      "outputs": [
        {
          "internalType": "bool",
          "name": "ifRetrieve",
          "type": "bool"
        },
        {
          "internalType": "uint256",
          "name": "value",
          "type": "uint256"
        },
        {
          "internalType": "uint256",
          "name": "timestampRetrieved",
          "type": "uint256"
        }
      ],
      "stateMutability": "view",
      "type": "function"
    },
    {
      "inputs": [
        {
          "internalType": "bytes",
          "name": "ctx",
          "type": "bytes"
        }
      ],
      "name": "harvest",
      "outputs": [
        {
          "internalType": "bytes",
          "name": "newCtx",
          "type": "bytes"
        }
      ],
      "stateMutability": "nonpayable",
      "type": "function"
    },
    {
      "inputs": [
        {
          "internalType": "contract ISuperToken",
          "name": "_inputToken",
          "type": "address"
        },
        {
          "internalType": "uint256",
          "name": "_rateTolerance",
          "type": "uint256"
        },
        {
          "internalType": "contract ITellor",
          "name": "_tellor",
          "type": "address"
        },
        {
          "internalType": "uint256",
          "name": "_inputTokenRequestId",
          "type": "uint256"
        }
      ],
      "name": "initializeMarket",
      "outputs": [],
      "stateMutability": "nonpayable",
      "type": "function"
    },
    {
      "inputs": [],
      "name": "masterChef",
      "outputs": [
        {
          "internalType": "contract IMiniChefV2",
          "name": "",
          "type": "address"
        }
      ],
      "stateMutability": "view",
      "type": "function"
    },
    {
      "inputs": [],
      "name": "maticx",
      "outputs": [
        {
          "internalType": "address",
          "name": "",
          "type": "address"
        }
      ],
      "stateMutability": "view",
      "type": "function"
    },
    {
      "inputs": [],
      "name": "maticxRequestId",
      "outputs": [
        {
          "internalType": "uint256",
          "name": "",
          "type": "uint256"
        }
      ],
      "stateMutability": "view",
      "type": "function"
    },
    {
      "inputs": [],
      "name": "owner",
      "outputs": [
        {
          "internalType": "address",
          "name": "",
          "type": "address"
        }
      ],
      "stateMutability": "view",
      "type": "function"
    },
    {
      "inputs": [],
      "name": "poolId",
      "outputs": [
        {
          "internalType": "uint256",
          "name": "",
          "type": "uint256"
        }
      ],
      "stateMutability": "view",
      "type": "function"
    },
    {
      "inputs": [],
      "name": "renounceOwnership",
      "outputs": [],
      "stateMutability": "nonpayable",
      "type": "function"
    },
    {
      "inputs": [],
      "name": "sushi",
      "outputs": [
        {
          "internalType": "address",
          "name": "",
          "type": "address"
        }
      ],
      "stateMutability": "view",
      "type": "function"
    },
    {
      "inputs": [],
      "name": "sushiRouter",
      "outputs": [
        {
          "internalType": "address",
          "name": "",
          "type": "address"
        }
      ],
      "stateMutability": "view",
      "type": "function"
    },
    {
      "inputs": [],
      "name": "sushix",
      "outputs": [
        {
          "internalType": "address",
          "name": "",
          "type": "address"
        }
      ],
      "stateMutability": "view",
      "type": "function"
    },
    {
      "inputs": [],
      "name": "sushixRequestId",
      "outputs": [
        {
          "internalType": "uint256",
          "name": "",
          "type": "uint256"
        }
      ],
      "stateMutability": "view",
      "type": "function"
    },
    {
      "inputs": [],
      "name": "token1",
      "outputs": [
        {
          "internalType": "address",
          "name": "",
          "type": "address"
        }
      ],
      "stateMutability": "view",
      "type": "function"
    },
    {
      "inputs": [
        {
          "internalType": "address",
          "name": "newOwner",
          "type": "address"
        }
      ],
      "name": "transferOwnership",
      "outputs": [],
      "stateMutability": "nonpayable",
      "type": "function"
    },
    {
      "inputs": [
        {
          "internalType": "contract ISuperToken",
          "name": "_token",
          "type": "address"
        }
      ],
      "name": "updateTokenPrice",
      "outputs": [],
      "stateMutability": "nonpayable",
      "type": "function"
    }
  ],
  "bytecode": "0x60806040523480156200001157600080fd5b506040516200919f3803806200919f833981016040819052620000349162000913565b86838383620000433362000239565b600180546001600160a01b038086166001600160a01b0319928316179092556002805485841690831617905560038054928416929091169190911790556200008b8462000289565b50505050600083604051620000a09062000905565b6001600160a01b039091168152602001604051809103906000f080158015620000cd573d6000803e3d6000fd5b506040516285fc1360e71b81526001600160a01b0389811660048301526012602483015260806044830152600c60848301526b05269636f6368657420534c560a41b60a483015260c06064830152600660c4830152650726578534c560d41b60e4830152919250908216906342fe09809061010401600060405180830381600087803b1580156200015d57600080fd5b505af115801562000172573d6000803e3d6000fd5b5050600e80546001600160a01b038086166001600160a01b03199283168117909355600d8a9055600c8054918c16918316919091179055600f8054909116731b02da8cb0d097eb8d57a175b88c7d8b47997506179055620001dd92509050614e206000604d6200034d565b6200020473dab943c03f9e84795dc7bf51ddc71daf0033382b62030d406000604d6200034d565b6200022b733ad736904e9e65189c3000c7dd2c8ac8bb7cd4e362030d406000604d6200034d565b505050505050505062000bd4565b600080546001600160a01b038381166001600160a01b0319831681178455604051919092169283917f8be0079c531659141344cd1fd0a4f28419497f9722a3daafe3b4186f6b6457e09190a35050565b6000546001600160a01b03163314620002d85760405162461bcd60e51b815260206004820181905260248201526000805160206200917f83398151915260448201526064015b60405180910390fd5b6001600160a01b0381166200033f5760405162461bcd60e51b815260206004820152602660248201527f4f776e61626c653a206e6577206f776e657220697320746865207a65726f206160448201526564647265737360d01b6064820152608401620002cf565b6200034a8162000239565b50565b6000546001600160a01b03163314620003985760405162461bcd60e51b815260206004820181905260248201526000805160206200917f8339815191526044820152606401620002cf565b80620003d55760405162461bcd60e51b815260206004820152600b60248201526a085d985b1a5914995c525960aa1b6044820152606401620002cf565b6001600160a01b03841660009081526009602052604090205415620004275760405162461bcd60e51b815260206004820152600760248201526621756e6971756560c81b6044820152606401620002cf565b604080516060810182526001600160a01b0386811682526001600160801b038681166020808501918252848601888152600b805460ff9081166000908152600a90945297909220865181546001600160a01b031916961695909517855591516001850180546001600160801b031916919094161790925551600290920191909155549091620004b891168662000546565b600b805460ff16906000620004cd8362000b6f565b825460ff9182166101009390930a92830291909202199091161790555060408051606081018252838152600060208083018281528385018381526005546001600160a01b031684526009909252939091208251815592516001840155516002909201919091556200053e8662000640565b505050505050565b6001546003546040805160008152602081019091526001600160a01b03928316926339255d5b921690636bc3c20560e11b906200058b90869088906044810162000af0565b60408051601f19818403018152918152602080830180516001600160e01b03166001600160e01b03199586161790528151600081529081019182905260e086901b9093169052620005e192916024810162000aac565b600060405180830381600087803b158015620005fc57600080fd5b505af115801562000611573d6000803e3d6000fd5b505050506040513d6000823e601f3d908101601f191682016040526200063b9190810190620009b1565b505050565b6001600160a01b0381166000908152600960205260408120548190819062000668906200072a565b92509250925082620006b05760405162461bcd60e51b815260206004820152601060248201526f2167657443757272656e7456616c756560801b6044820152606401620002cf565b620006be610e104262000b22565b811015620006ff5760405162461bcd60e51b815260206004820152600d60248201526c2163757272656e7456616c756560981b6044820152606401620002cf565b6001600160a01b03909316600090815260096020526040902060018101919091556002019190915550565b600480546040516311bbb87160e21b81529182018390526000918291829182916001600160a01b0316906346eee1c49060240160206040518083038186803b1580156200077657600080fd5b505afa1580156200078b573d6000803e3d6000fd5b505050506040513d601f19601f82011682018060405250810190620007b1919062000a65565b6004549091506000906001600160a01b03166377fbb66387620007d660018662000b22565b6040516001600160e01b031960e085901b1681526004810192909252602482015260440160206040518083038186803b1580156200081357600080fd5b505afa15801562000828573d6000803e3d6000fd5b505050506040513d601f19601f820116820180604052508101906200084e919062000a65565b600480546040516393fa491560e01b8152918201899052602482018390529192506000916001600160a01b0316906393fa49159060440160206040518083038186803b1580156200089e57600080fd5b505afa158015620008b3573d6000803e3d6000fd5b505050506040513d601f19601f82011682018060405250810190620008d9919062000a65565b90508015620008f2576001955093509150620008fe9050565b50600094508493509150505b9193909250565b614d8280620043fd83390190565b600080600080600080600060e0888a0312156200092e578283fd5b87516200093b8162000bbe565b60208901519097506200094e8162000bbe565b6040890151909650620009618162000bbe565b606089015160808a015191965094506200097b8162000bbe565b60a08901519093506200098e8162000bbe565b60c0890151909250620009a18162000bbe565b8091505092959891949750929550565b600060208284031215620009c3578081fd5b81516001600160401b0380821115620009da578283fd5b818401915084601f830112620009ee578283fd5b81518181111562000a035762000a0362000ba8565b604051601f8201601f19908116603f0116810190838211818310171562000a2e5762000a2e62000ba8565b8160405282815287602084870101111562000a47578586fd5b62000a5a83602083016020880162000b3c565b979650505050505050565b60006020828403121562000a77578081fd5b5051919050565b6000815180845262000a9881602086016020860162000b3c565b601f01601f19169290920160200192915050565b6001600160a01b038416815260606020820181905260009062000ad29083018562000a7e565b828103604084015262000ae6818562000a7e565b9695505050505050565b60018060a01b038416815282602082015260606040820152600062000b19606083018462000a7e565b95945050505050565b60008282101562000b375762000b3762000b92565b500390565b60005b8381101562000b5957818101518382015260200162000b3f565b8381111562000b69576000848401525b50505050565b600060ff821660ff81141562000b895762000b8962000b92565b60010192915050565b634e487b7160e01b600052601160045260246000fd5b634e487b7160e01b600052604160045260246000fd5b6001600160a01b03811681146200034a57600080fd5b6138198062000be46000396000f3fe608060405234801561001057600080fd5b50600436106101735760003560e01c8063715018a6116100de578063c12fc38b11610097578063d33fcc0811610071578063d33fcc0814610351578063d86ed3e514610364578063ec2c9c5214610377578063f2fde38b1461039257600080fd5b8063c12fc38b14610318578063ce5c7f611461032b578063d21220a71461033e57600080fd5b8063715018a6146102c1578063827906a9146102c9578063868ad6da146102e4578063884d1f40146102ec5780638da5cb5b146102ff5780638edfea3a1461031057600080fd5b80633fcad964116101305780633fcad9641461022257806353c11f991461025257806354f5d56914610265578063575a86b2146102785780635f9e7d77146102935780636d13582c146102a657600080fd5b80630a087903146101785780630a1da710146101b057806321746615146101d1578063230dbd29146101e657806330d9c915146102065780633e0dc34e14610219575b600080fd5b610193736b3595068778dd592e39a122f4f5a5cf09c90fe281565b6040516001600160a01b0390911681526020015b60405180910390f35b6101c36101be366004613295565b6103a5565b6040519081526020016101a7565b6101e46101df366004612dba565b610b70565b005b6101f96101f43660046130c4565b610c57565b6040516101a79190613336565b6101f9610214366004613028565b610db9565b6101c3600d5481565b610235610230366004613217565b610e1c565b6040805193151584526020840192909252908201526060016101a7565b6101f96102603660046130c4565b610fe7565b6101e46102733660046131d0565b6111f0565b61019373c2edad668740f1aa35e4d8f227fb8e17dca888cd81565b6101f96102a1366004613028565b611359565b610193731b02da8cb0d097eb8d57a175b88c7d8b4799750681565b6101e46113c0565b610193733ad736904e9e65189c3000c7dd2c8ac8bb7cd4e381565b6101c3605081565b6101f96102fa366004613028565b6113f6565b6000546001600160a01b0316610193565b6101c3600681565b6101f9610326366004612f15565b611459565b6101f9610339366004612f15565b611a27565b600c54610193906001600160a01b031681565b6101e461035f36600461318b565b611f8f565b6101f96103723660046130c4565b612166565b61019373dab943c03f9e84795dc7bf51ddc71daf0033382b81565b6101e46103a0366004612dba565b6122c8565b600080600560000160009054906101000a90046001600160a01b03166001600160a01b031663ee719bc86040518163ffffffff1660e01b815260040160206040518083038186803b1580156103f957600080fd5b505afa15801561040d573d6000803e3d6000fd5b505050506040513d601f19601f820116820180604052508101906104319190612ddd565b600c546005546040516370a0823160e01b81523060048201529293506001600160a01b03918216929116906311bcc81e9082906370a082319060240160206040518083038186803b15801561048557600080fd5b505afa158015610499573d6000803e3d6000fd5b505050506040513d601f19601f820116820180604052508101906104bd9190612efd565b6040518263ffffffff1660e01b81526004016104db91815260200190565b600060405180830381600087803b1580156104f557600080fd5b505af1158015610509573d6000803e3d6000fd5b50506040516370a0823160e01b8152306004820152600092506001600160a01b03851691506370a082319060240160206040518083038186803b15801561054f57600080fd5b505afa158015610563573d6000803e3d6000fd5b505050506040513d601f19601f820116820180604052508101906105879190612efd565b600c546001600160a01b0390811660009081526009602052604080822060019081015460055490941683529082200154929350916105c590846135de565b6105cf91906135ca565b905081156105ed576105ed84846105e76002866135ca565b84612363565b6040516370a0823160e01b81523060048201526001600160a01b038516906370a082319060240160206040518083038186803b15801561062c57600080fd5b505afa158015610640573d6000803e3d6000fd5b505050506040513d601f19601f820116820180604052508101906106649190612efd565b6040516370a0823160e01b81523060048201529092506000906001600160a01b038516906370a082319060240160206040518083038186803b1580156106a957600080fd5b505afa1580156106bd573d6000803e3d6000fd5b505050506040513d601f19601f820116820180604052508101906106e19190612efd565b90506000831180156106f35750600081115b15610b6557600f5460405163095ea7b360e01b81526001600160a01b039182166004820152602481018390529085169063095ea7b390604401602060405180830381600087803b15801561074657600080fd5b505af115801561075a573d6000803e3d6000fd5b505050506040513d601f19601f8201168201806040525081019061077e9190612edd565b50600f54600090819081906001600160a01b031663e8e33700898989888680306107a942603c61358c565b60405160e08a901b6001600160e01b03191681526001600160a01b039889166004820152968816602488015260448701959095526064860193909352608485019190915260a484015290921660c482015260e481019190915261010401606060405180830381600087803b15801561082057600080fd5b505af1158015610834573d6000803e3d6000fd5b505050506040513d601f19601f8201168201806040525081019061085891906132b6565b9250925092506000600e60009054906101000a90046001600160a01b03166001600160a01b031663ee719bc86040518163ffffffff1660e01b815260040160206040518083038186803b1580156108ae57600080fd5b505afa1580156108c2573d6000803e3d6000fd5b505050506040513d601f19601f820116820180604052508101906108e69190612ddd565b6040516370a0823160e01b81523060048201526001600160a01b0391909116906370a082319060240160206040518083038186803b15801561092757600080fd5b505afa15801561093b573d6000803e3d6000fd5b505050506040513d601f19601f8201168201806040525081019061095f9190612efd565b9050600e60009054906101000a90046001600160a01b03166001600160a01b031663ee719bc86040518163ffffffff1660e01b815260040160206040518083038186803b1580156109af57600080fd5b505afa1580156109c3573d6000803e3d6000fd5b505050506040513d601f19601f820116820180604052508101906109e79190612ddd565b60405163095ea7b360e01b815273c2edad668740f1aa35e4d8f227fb8e17dca888cd6004820152602481018390526001600160a01b03919091169063095ea7b390604401602060405180830381600087803b158015610a4557600080fd5b505af1158015610a59573d6000803e3d6000fd5b505050506040513d601f19601f82011682018060405250810190610a7d9190612edd565b50600d54604051638dbdbe6d60e01b815273c2edad668740f1aa35e4d8f227fb8e17dca888cd91638dbdbe6d91610abb9190859030906004016134d5565b600060405180830381600087803b158015610ad557600080fd5b505af1158015610ae9573d6000803e3d6000fd5b5050600e5460408051600081526020810191829052636fedd90160e11b9091526001600160a01b03909116925063dfdbb2029150610b2e90309085906024810161330f565b600060405180830381600087803b158015610b4857600080fd5b505af1158015610b5c573d6000803e3d6000fd5b50505050505050505b505050505092915050565b6001600160a01b03811660009081526009602052604081205481908190610b9690610e1c565b92509250925082610be15760405162461bcd60e51b815260206004820152601060248201526f2167657443757272656e7456616c756560801b60448201526064015b60405180910390fd5b610bed610e10426135fd565b811015610c2c5760405162461bcd60e51b815260206004820152600d60248201526c2163757272656e7456616c756560981b6044820152606401610bd8565b6001600160a01b03909316600090815260096020526040902060018101919091556002019190915550565b6001546060906001600160a01b03163314610c845760405162461bcd60e51b8152600401610bd8906134b6565b8989610c8f8161249e565b15610ce7576005546001600160a01b03838116911614610ce25760405162461bcd60e51b815260206004820152600e60248201526d085a5b9c1d5d1058d8d95c1d195960921b6044820152606401610bd8565b610d3c565b610cf081612539565b15610d3c57610cfe82612595565b610d3c5760405162461bcd60e51b815260206004820152600f60248201526e085bdd5d1c1d5d1058d8d95c1d1959608a1b6044820152606401610bd8565b84848080601f0160208091040260200160405190810160405280939291908181526020018383808284376000920182905250939650839250610d8291508c90508b6125c3565b91509150610d8f85611a27565b9450610d9a85611459565b9450610da785838361266f565b9e9d5050505050505050505050505050565b60405162461bcd60e51b815260206004820152602f60248201527f556e737570706f727465642063616c6c6261636b202d204265666f726520416760448201526e1c99595b595b9d0810dc99585d1959608a1b6064820152606090608401610bd8565b600480546040516311bbb87160e21b81529182018390526000918291829182916001600160a01b0316906346eee1c49060240160206040518083038186803b158015610e6757600080fd5b505afa158015610e7b573d6000803e3d6000fd5b505050506040513d601f19601f82011682018060405250810190610e9f9190612efd565b6004549091506000906001600160a01b03166377fbb66387610ec26001866135fd565b6040516001600160e01b031960e085901b1681526004810192909252602482015260440160206040518083038186803b158015610efe57600080fd5b505afa158015610f12573d6000803e3d6000fd5b505050506040513d601f19601f82011682018060405250810190610f369190612efd565b600480546040516393fa491560e01b8152918201899052602482018390529192506000916001600160a01b0316906393fa49159060440160206040518083038186803b158015610f8557600080fd5b505afa158015610f99573d6000803e3d6000fd5b505050506040513d601f19601f82011682018060405250810190610fbd9190612efd565b90508015610fd4576001955093509150610fe09050565b50600094508493509150505b9193909250565b6001546060906001600160a01b031633146110145760405162461bcd60e51b8152600401610bd8906134b6565b6110406040518060400160405280600b81526020016a6a6169206d61746120646960a81b8152506126d5565b82828080601f016020809104026020016040519081016040528093929190818152602001838380828437600092018290525093945061108592508a91508990506125c3565b5090506110948282600061266f565b600254600554604051631cd43d1160e31b81526001600160a01b039182166004820152848216602482015230604482015292945060009283928392169063e6a1e8889060640160806040518083038186803b1580156110f257600080fd5b505afa158015611106573d6000803e3d6000fd5b505050506040513d601f19601f8201168201806040525081019061112a919061322f565b50506006549094509092506111509083906bffffffffffffffffffffffff861690612718565b6005546040516323b872dd60e01b81523060048201526001600160a01b038781166024830152604482018490529293509116906323b872dd90606401602060405180830381600087803b1580156111a657600080fd5b505af11580156111ba573d6000803e3d6000fd5b505050506040513d601f19601f820116820180604052508101906111de9190612edd565b50505050509998505050505050505050565b6000546001600160a01b0316331461121a5760405162461bcd60e51b8152600401610bd890613481565b600054600160a81b900460ff1661123e57600054600160a01b900460ff1615611242565b303b155b6112a55760405162461bcd60e51b815260206004820152602e60248201527f496e697469616c697a61626c653a20636f6e747261637420697320616c72656160448201526d191e481a5b9a5d1a585b1a5e995960921b6064820152608401610bd8565b600054600160a81b900460ff161580156112cf576000805461ffff60a01b191661010160a01b1790555b600580546001600160a01b038088166001600160a01b03199283168117909355600787905560048054918716919092161790556040805160608101825284815260006020808301828152838501838152958352600990915292902090518155905160018201559051600291909101558015611352576000805460ff60a81b191690555b5050505050565b60405162461bcd60e51b815260206004820152603360248201527f556e737570706f727465642063616c6c6261636b202d20204265666f7265204160448201527219dc99595b595b9d0815195c9b5a5b985d1959606a1b6064820152606090608401610bd8565b6000546001600160a01b031633146113ea5760405162461bcd60e51b8152600401610bd890613481565b6113f460006127aa565b565b60405162461bcd60e51b815260206004820152602f60248201527f556e737570706f727465642063616c6c6261636b202d204265666f726520416760448201526e1c99595b595b9d081d5c19185d1959608a1b6064820152606090608401610bd8565b80611466610e10426135fd565b6000805160206137c4833981519152546001600160a01b031660009081526009602052604090206002015410156114cf5760405162461bcd60e51b815260206004820152600d60248201526c2163757272656e7456616c756560981b6044820152606401610bd8565b6005546040516370a0823160e01b8152306004820152611558916001600160a01b0316906370a082319060240160206040518083038186803b15801561151457600080fd5b505afa158015611528573d6000803e3d6000fd5b505050506040513d601f19601f8201168201806040525081019061154c9190612efd565b6101be42610e1061358c565b506000808052600a6020526000805160206137c4833981519152546040516370a0823160e01b81523060048201526001600160a01b03909116906370a082319060240160206040518083038186803b1580156115b357600080fd5b505afa1580156115c7573d6000803e3d6000fd5b505050506040513d601f19601f820116820180604052508101906115eb9190612efd565b6003546000808052600a6020526000805160206137c483398151915254604051632266eabb60e21b81526001600160a01b0391821660048201523060248201526044810183905260648101859052939450909291169063899baaec90608401604080518083038186803b15801561166157600080fd5b505afa158015611675573d6000803e3d6000fd5b505050506040513d601f19601f820116820180604052508101906116999190613271565b509050806116a8575050919050565b6000808052600a6020527f13da86008ba1c6922daee3e07db95305ef49ebced9f5467a0b8613fcc6b343e454620f4240906116ec906001600160801b0316846135de565b6116f691906135ca565b9050600061170482846135fd565b6000808052600a6020526000805160206137c4833981519152549192506117369183906001600160a01b0316886127fa565b60008052600a6020526000805160206137c4833981519152546040519196507fed4b43d1c43fa6de2432cc50d2bbc8db51d9ce0d2095d0a5cfac618764e9fe589161178e91849186916001600160a01b0316906134d5565b60405180910390a160015b600b5460ff1663ffffffff82161015611a1d5763ffffffff81166000908152600a6020526040908190205490516370a0823160e01b81523060048201526001600160a01b03909116906370a082319060240160206040518083038186803b15801561180357600080fd5b505afa158015611817573d6000803e3d6000fd5b505050506040513d601f19601f8201168201806040525081019061183b9190612efd565b94508415611a0b5763ffffffff81166000908152600a60205260409020600101546001600160801b0316156119445763ffffffff81166000908152600a6020526040902060010154620f42409061189b906001600160801b0316876135de565b6118a591906135ca565b92506118b183866135fd565b63ffffffff82166000908152600a60205260409020549092506118e190829084906001600160a01b0316896127fa565b63ffffffff82166000908152600a6020526040908190205490519197507fed4b43d1c43fa6de2432cc50d2bbc8db51d9ce0d2095d0a5cfac618764e9fe589161193791859187916001600160a01b0316906134d5565b60405180910390a1611a0b565b63ffffffff81166000908152600a602052604090206002015460065461196a90426135fd565b61197491906135de565b915084821015611a0b5763ffffffff81166000908152600a60205260409020546119ab90829084906001600160a01b0316896127fa565b63ffffffff82166000908152600a60205260408082205490519298507fed4b43d1c43fa6de2432cc50d2bbc8db51d9ce0d2095d0a5cfac618764e9fe5892611a0292869290916001600160a01b03909116906134d5565b60405180910390a15b80611a1581613671565b915050611799565b5050505050919050565b600d5460405163d1abb90760e01b8152829173c2edad668740f1aa35e4d8f227fb8e17dca888cd9163d1abb90791611a669160009030906004016134d5565b600060405180830381600087803b158015611a8057600080fd5b505af1925050508015611a91575060015b611b6c57611a9d6136f7565b806308c379a01415611b605750611ab261370f565b80611abd5750611b62565b60408051808201909152601c81527f426f72696e6745524332303a205472616e73666572206661696c6564000000006020918201528151908201207f1a3f0851ddc9e157ae96e52ed9dfd71a8cb4b1cf2a73b26b9f3f9e0aa9469d2714611b5a5760405162461bcd60e51b815260206004820152601160248201527010b137b934b733a2a921991822b93937b960791b6044820152606401610bd8565b50919050565b505b3d6000803e3d6000fd5b60015b60028163ffffffff1611611b5a5763ffffffff81166000908152600a60209081526040808320548151631dce337960e31b815291516001600160a01b039091169263ee719bc89260048082019391829003018186803b158015611bd157600080fd5b505afa158015611be5573d6000803e3d6000fd5b505050506040513d601f19601f82011682018060405250810190611c099190612ddd565b6040516370a0823160e01b81523060048201526001600160a01b0391909116906370a082319060240160206040518083038186803b158015611c4a57600080fd5b505afa158015611c5e573d6000803e3d6000fd5b505050506040513d601f19601f82011682018060405250810190611c829190612efd565b63ffffffff83166000908152600a602052604081206001015491925090620f424090611cb7906001600160801b0316846135de565b611cc191906135ca565b9050611ccd81836135fd565b91508115611f7a5763ffffffff83166000908152600a60205260409020546001600160a01b0316733ad736904e9e65189c3000c7dd2c8ac8bb7cd4e31415611e695763ffffffff83166000908152600a6020908152604091829020548251631dce337960e31b815292516001600160a01b039091169263ee719bc8926004808301939192829003018186803b158015611d6557600080fd5b505afa158015611d79573d6000803e3d6000fd5b505050506040513d601f19601f82011682018060405250810190611d9d9190612ddd565b6001600160a01b0316632e1a7d4d836040518263ffffffff1660e01b8152600401611dca91815260200190565b600060405180830381600087803b158015611de457600080fd5b505af1158015611df8573d6000803e3d6000fd5b50505050733ad736904e9e65189c3000c7dd2c8ac8bb7cd4e36001600160a01b031663cf81464b836040518263ffffffff1660e01b81526004016000604051808303818588803b158015611e4b57600080fd5b505af1158015611e5f573d6000803e3d6000fd5b5050505050611edc565b63ffffffff83166000908152600a6020526040908190205490516345977d0360e01b8152600481018490526001600160a01b03909116906345977d0390602401600060405180830381600087803b158015611ec357600080fd5b505af1158015611ed7573d6000803e3d6000fd5b505050505b63ffffffff83166000908152600a60205260409081902054600854915163a9059cbb60e01b81526001600160a01b0392831660048201526024810184905291169063a9059cbb90604401602060405180830381600087803b158015611f4057600080fd5b505af1158015611f54573d6000803e3d6000fd5b505050506040513d601f19601f82011682018060405250810190611f789190612edd565b505b50508080611f8790613671565b915050611b6f565b6000546001600160a01b03163314611fb95760405162461bcd60e51b8152600401610bd890613481565b80611ff45760405162461bcd60e51b815260206004820152600b60248201526a085d985b1a5914995c525960aa1b6044820152606401610bd8565b6001600160a01b038416600090815260096020526040902054156120445760405162461bcd60e51b815260206004820152600760248201526621756e6971756560c81b6044820152606401610bd8565b604080516060810182526001600160a01b0386811682526001600160801b038681166020808501918252848601888152600b805460ff9081166000908152600a90945297909220865181546001600160a01b031916961695909517855591516001850180546fffffffffffffffffffffffffffffffff19169190941617909255516002909201919091555490916120dc911686612ab7565b600b805460ff169060006120ef83613695565b825460ff9182166101009390930a92830291909202199091161790555060408051606081018252838152600060208083018281528385018381526005546001600160a01b0316845260099092529390912082518155925160018401555160029092019190915561215e86610b70565b505050505050565b6001546060906001600160a01b031633146121935760405162461bcd60e51b8152600401610bd8906134b6565b898961219e8161249e565b156121f6576005546001600160a01b038381169116146121f15760405162461bcd60e51b815260206004820152600e60248201526d085a5b9c1d5d1058d8d95c1d195960921b6044820152606401610bd8565b61224b565b6121ff81612539565b1561224b5761220d82612595565b61224b5760405162461bcd60e51b815260206004820152600f60248201526e085bdd5d1c1d5d1058d8d95c1d1959608a1b6044820152606401610bd8565b84848080601f01602080910402602001604051908101604052809392919081815260200183838082843760009201919091525050604080518082019091526015815274199b1bddc81a185cc81899595b8818dc99585d1959605a1b60208201529295506122bb9291506126d59050565b600080610d828b8b6125c3565b6000546001600160a01b031633146122f25760405162461bcd60e51b8152600401610bd890613481565b6001600160a01b0381166123575760405162461bcd60e51b815260206004820152602660248201527f4f776e61626c653a206e6577206f776e657220697320746865207a65726f206160448201526564647265737360d01b6064820152608401610bd8565b612360816127aa565b50565b6001600160a01b03831661237657600080fd5b604080516002808252606080830184529260208301908036833701905050905084816000815181106123b857634e487b7160e01b600052603260045260246000fd5b60200260200101906001600160a01b031690816001600160a01b03168152505083816001815181106123fa57634e487b7160e01b600052603260045260246000fd5b6001600160a01b039283166020918202929092010152600f54166338ed17398484843061242842603c61358c565b6040518663ffffffff1660e01b81526004016124489594939291906134f4565b600060405180830381600087803b15801561246257600080fd5b505af1158015612476573d6000803e3d6000fd5b505050506040513d6000823e601f3d908101601f1916820160405261215e9190810190612e31565b60007fa9214cc96615e0085d3bb077758db69497dc2dce3b2b1e97bc93c3d18d83efd3826001600160a01b0316637730599e6040518163ffffffff1660e01b815260040160206040518083038186803b1580156124fa57600080fd5b505afa15801561250e573d6000803e3d6000fd5b505050506040513d601f19601f820116820180604052508101906125329190612efd565b1492915050565b60007f8aedc3b5d4bf031e11a7e2940f7251c005698405d58e02e1c247fed3b1b3a674826001600160a01b0316637730599e6040518163ffffffff1660e01b815260040160206040518083038186803b1580156124fa57600080fd5b6001600160a01b038116600090815260096020526040812054156125bb57506001919050565b506000919050565b6000806125d283850185612df9565b50600254600554604051631cd43d1160e31b81526001600160a01b0391821660048201528184166024820152306044820152929450169063e6a1e8889060640160806040518083038186803b15801561262a57600080fd5b505afa15801561263e573d6000803e3d6000fd5b505050506040513d601f19601f82011682018060405250810190612662919061322f565b5093969095509350505050565b606060005b600b5460ff1663ffffffff821610156126cd5763ffffffff81166000818152600a60205260409020546126b99184918790600b88900b906001600160a01b0316612ba9565b9150806126c581613671565b915050612674565b509392505050565b612360816040516024016126e99190613336565b60408051601f198184030181529190526020810180516001600160e01b031663104c13eb60e21b179052612cb3565b6000808483811161273f5761272d84426135fd565b61273790866135de565b915081612761565b61274981426135fd565b61275390866135de565b61275d908361358c565b9150815b506127a16040518060400160405280601881526020017f556e696e76657374656420616d6f756e742069733a202573000000000000000081525083612cd4565b50949350505050565b600080546001600160a01b038381166001600160a01b0319831681178455604051919092169283917f8be0079c531659141344cd1fd0a4f28419497f9722a3daafe3b4186f6b6457e09190a35050565b805181906128f7576001546003546040805160008152602081019091526001600160a01b03928316926339255d5b921690635cb398e160e11b906128479088908b908b9060448101613420565b60408051601f19818403018152918152602080830180516001600160e01b03166001600160e01b03199586161790528151600081529081019182905260e086901b909316905261289b929160248101613349565b600060405180830381600087803b1580156128b557600080fd5b505af11580156128c9573d6000803e3d6000fd5b505050506040513d6000823e601f3d908101601f191682016040526128f19190810190612f94565b50612aaf565b600154604051632fd0a1cd60e21b81526001600160a01b039091169063bf42873490612927908490600401613336565b60206040518083038186803b15801561293f57600080fd5b505afa158015612953573d6000803e3d6000fd5b505050506040513d601f19601f820116820180604052508101906129779190612edd565b8061298157508051155b6129bb5760405162461bcd60e51b815260206004820152600b60248201526a216469737472696275746560a81b6044820152606401610bd8565b6001546003546040805160008152602081019091526001600160a01b0392831692634329d293921690635cb398e160e11b90612a009088908b908b9060448101613420565b60408051601f19818403018152918152602080830180516001600160e01b03166001600160e01b03199586161790528151600081529081019182905260e086901b9093169052612a5592918660248201613389565b600060405180830381600087803b158015612a6f57600080fd5b505af1158015612a83573d6000803e3d6000fd5b505050506040513d6000823e601f3d908101601f19168201604052612aab9190810190612fc7565b5090505b949350505050565b6001546003546040805160008152602081019091526001600160a01b03928316926339255d5b921690636bc3c20560e11b90612afa90869088906044810161330f565b60408051601f19818403018152918152602080830180516001600160e01b03166001600160e01b03199586161790528151600081529081019182905260e086901b9093169052612b4e929160248101613349565b600060405180830381600087803b158015612b6857600080fd5b505af1158015612b7c573d6000803e3d6000fd5b505050506040513d6000823e601f3d908101601f19168201604052612ba49190810190612f94565b505050565b60015460035486916001600160a01b0390811691634329d2939116630465a56b60e31b858989612bdd633b9aca008b6135a4565b604080516000815260208101909152612bfd9493929190604481016133de565b60408051601f19818403018152918152602080830180516001600160e01b03166001600160e01b03199586161790528151600081529081019182905260e086901b9093169052612c5292918660248201613389565b600060405180830381600087803b158015612c6c57600080fd5b505af1158015612c80573d6000803e3d6000fd5b505050506040513d6000823e601f3d908101601f19168201604052612ca89190810190612fc7565b509695505050505050565b80516a636f6e736f6c652e6c6f67602083016000808483855afa5050505050565b612d198282604051602401612cea92919061345f565b60408051601f198184030181529190526020810180516001600160e01b03166309710a9d60e41b179052612cb3565b5050565b60008083601f840112612d2e578182fd5b50813567ffffffffffffffff811115612d45578182fd5b602083019150836020828501011115612d5d57600080fd5b9250929050565b600082601f830112612d74578081fd5b8151612d7f81613564565b604051612d8c8282613644565b828152856020848701011115612da0578384fd5b612db1836020830160208801613614565b95945050505050565b600060208284031215612dcb578081fd5b8135612dd681613799565b9392505050565b600060208284031215612dee578081fd5b8151612dd681613799565b60008060408385031215612e0b578081fd5b8235612e1681613799565b91506020830135612e2681613799565b809150509250929050565b60006020808385031215612e43578182fd5b825167ffffffffffffffff80821115612e5a578384fd5b818501915085601f830112612e6d578384fd5b815181811115612e7f57612e7f6136e1565b8060051b9150604051612e9485840182613644565b81815284810184860184860187018a1015612ead578788fd5b8795505b83861015612ecf578051825260019590950194908601908601612eb1565b509098975050505050505050565b600060208284031215612eee578081fd5b81518015158114612dd6578182fd5b600060208284031215612f0e578081fd5b5051919050565b600060208284031215612f26578081fd5b813567ffffffffffffffff811115612f3c578182fd5b8201601f81018413612f4c578182fd5b8035612f5781613564565b604051612f648282613644565b828152866020848601011115612f78578485fd5b8260208501602083013791820160200193909352949350505050565b600060208284031215612fa5578081fd5b815167ffffffffffffffff811115612fbb578182fd5b612aaf84828501612d64565b60008060408385031215612fd9578182fd5b825167ffffffffffffffff80821115612ff0578384fd5b612ffc86838701612d64565b93506020850151915080821115613011578283fd5b5061301e85828601612d64565b9150509250929050565b600080600080600080600060a0888a031215613042578283fd5b873561304d81613799565b9650602088013561305d81613799565b955060408801359450606088013567ffffffffffffffff80821115613080578485fd5b61308c8b838c01612d1d565b909650945060808a01359150808211156130a4578384fd5b506130b18a828b01612d1d565b989b979a50959850939692959293505050565b600080600080600080600080600060c08a8c0312156130e1578283fd5b89356130ec81613799565b985060208a01356130fc81613799565b975060408a0135965060608a013567ffffffffffffffff8082111561311f578485fd5b61312b8d838e01612d1d565b909850965060808c0135915080821115613143578485fd5b61314f8d838e01612d1d565b909650945060a08c0135915080821115613167578384fd5b506131748c828d01612d1d565b915080935050809150509295985092959850929598565b600080600080608085870312156131a0578182fd5b84356131ab81613799565b935060208501356131bb816137ae565b93969395505050506040820135916060013590565b600080600080608085870312156131e5578182fd5b84356131f081613799565b935060208501359250604085013561320781613799565b9396929550929360600135925050565b600060208284031215613228578081fd5b5035919050565b60008060008060808587031215613244578182fd5b84519350602085015180600b0b811461325b578283fd5b6040860151606090960151949790965092505050565b60008060408385031215613283578182fd5b825191506020830151612e26816137ae565b600080604083850312156132a7578182fd5b50508035926020909101359150565b6000806000606084860312156132ca578081fd5b8351925060208401519150604084015190509250925092565b600081518084526132fb816020860160208601613614565b601f01601f19169290920160200192915050565b60018060a01b0384168152826020820152606060408201526000612db160608301846132e3565b602081526000612dd660208301846132e3565b6001600160a01b038416815260606020820181905260009061336d908301856132e3565b828103604084015261337f81856132e3565b9695505050505050565b6001600160a01b03851681526080602082018190526000906133ad908301866132e3565b82810360408401526133bf81866132e3565b905082810360608401526133d381856132e3565b979650505050505050565b6001600160a01b03868116825260208201869052841660408201526001600160801b038316606082015260a0608082018190526000906133d3908301846132e3565b6001600160a01b038516815263ffffffff841660208201526001600160801b038316604082015260806060820181905260009061337f908301846132e3565b60408152600061347260408301856132e3565b90508260208301529392505050565b6020808252818101527f4f776e61626c653a2063616c6c6572206973206e6f7420746865206f776e6572604082015260600190565b602080825260059082015264085a1bdcdd60da1b604082015260600190565b92835260208301919091526001600160a01b0316604082015260600190565b600060a082018783526020878185015260a0604085015281875180845260c0860191508289019350845b818110156135435784516001600160a01b03168352938301939183019160010161351e565b50506001600160a01b03969096166060850152505050608001529392505050565b600067ffffffffffffffff82111561357e5761357e6136e1565b50601f01601f191660200190565b6000821982111561359f5761359f6136b5565b500190565b60006001600160801b03808416806135be576135be6136cb565b92169190910492915050565b6000826135d9576135d96136cb565b500490565b60008160001904831182151516156135f8576135f86136b5565b500290565b60008282101561360f5761360f6136b5565b500390565b60005b8381101561362f578181015183820152602001613617565b8381111561363e576000848401525b50505050565b601f8201601f1916810167ffffffffffffffff8111828210171561366a5761366a6136e1565b6040525050565b600063ffffffff8083168181141561368b5761368b6136b5565b6001019392505050565b600060ff821660ff8114156136ac576136ac6136b5565b60010192915050565b634e487b7160e01b600052601160045260246000fd5b634e487b7160e01b600052601260045260246000fd5b634e487b7160e01b600052604160045260246000fd5b600060033d111561370c57600481823e5160e01c5b90565b600060443d101561371d5790565b6040516003193d81016004833e81513d67ffffffffffffffff816024840111818411171561374d57505050505090565b82850191508151818111156137655750505050505090565b843d870101602082850101111561377f5750505050505090565b61378e60208286010187613644565b509095945050505050565b6001600160a01b038116811461236057600080fd5b6001600160801b038116811461236057600080fdfe13da86008ba1c6922daee3e07db95305ef49ebced9f5467a0b8613fcc6b343e3a26469706673582212209ceb205cc6ea5a845cfad03e02a5c8efaeff86ac775181339ff699e7565685d364736f6c6343000804003360a06040523480156200001157600080fd5b5060405162004d8238038062004d828339810160408190526200003491620000aa565b606081901b6001600160601b031916608052620000513362000058565b50620000da565b600e80546001600160a01b038381166001600160a01b0319831681179093556040519116919082907f8be0079c531659141344cd1fd0a4f28419497f9722a3daafe3b4186f6b6457e090600090a35050565b600060208284031215620000bc578081fd5b81516001600160a01b0381168114620000d3578182fd5b9392505050565b60805160601c614c436200013f6000396000818161046b01528181610dc501528181610e3801528181610fdc01528181611200015281816113780152818161153c015281816115de0152818161168401528181611d1e0152611da50152614c436000f3fe60806040526004361061033e5760003560e01c8063715018a6116101ae578063c68d4283116100eb578063dfdbb2021161008f578063f2fde38b1161006c578063f2fde38b14610a4f578063fad8b32a14610a6f578063fc673c4f14610a8f578063fe9d930314610aaf57005b8063dfdbb202146109d6578063eb3537cc146109f6578063ee719bc814610a3157005b8063d95b6371116100c8578063d95b637114610930578063d9d078d614610950578063d9ff4ad814610970578063dd62ed3e1461099057005b8063c68d4283146108d0578063ca789464146108f0578063cf97256d1461091057005b80639d87674111610152578063a457c2d71161012f578063a457c2d714610850578063a9059cbb14610870578063b84cdd4a14610890578063bb0d196e146108b057005b80639d876741146107f0578063a1b2bf8b14610810578063a3a7e7f31461083057005b80638ddd1c0f1161018b5780638ddd1c0f1461077b578063959b8c3f1461079b57806395d89b41146107bb5780639bd9bbc6146107d057005b8063715018a61461072857806379359f6f1461073d5780638da5cb5b1461075d57005b8063386fa2211161027c57806352d1902d1161022057806362aa5287116101fd57806362aa5287146106a857806362ad1b83146106c85780636c2d9f2f146106e857806370a082311461070857005b806352d1902d14610641578063556f0dc7146106745780635b9d09cc1461068857005b806345977d031161025957806345977d03146105bf57806346951954146105df5780634b61cc33146105ff57806350d75d251461062c57005b8063386fa2211461055f578063395093511461057f57806342fe09801461059f57005b806318160ddd116102e3578063245887fc116102c0578063245887fc146104c357806327048397146104e35780632ec8eec714610503578063313ce5671461054357005b806318160ddd1461043d57806320bc44251461045c57806323b872dd146104a357005b8063095ea7b31161031c578063095ea7b3146103ad57806311bcc81e146103dd57806312a6a3f8146103fd57806316d055d61461041d57005b806306e485381461034057806306fdde031461036b578063090c415e1461038d575b005b34801561034c57600080fd5b50610355610acf565b604051610362919061453b565b60405180910390f35b34801561037757600080fd5b50610380610ae0565b6040516103629190614602565b34801561039957600080fd5b5061033e6103a8366004614046565b610b72565b3480156103b957600080fd5b506103cd6103c836600461401b565b610c26565b6040519015158152602001610362565b3480156103e957600080fd5b5061033e6103f8366004614445565b610c3d565b34801561040957600080fd5b5061033e61041836600461435b565b610c9e565b34801561042957600080fd5b5061033e610438366004613e77565b610dc3565b34801561044957600080fd5b506003545b604051908152602001610362565b34801561046857600080fd5b507f00000000000000000000000000000000000000000000000000000000000000005b6040516001600160a01b039091168152602001610362565b3480156104af57600080fd5b506103cd6104be366004613ec7565b610e1e565b3480156104cf57600080fd5b5061033e6104de36600461401b565b610e36565b3480156104ef57600080fd5b5061033e6104fe3660046143a4565b610ead565b34801561050f57600080fd5b5061052361051e366004613e07565b610f8a565b604080519485526020850193909352918301526060820152608001610362565b34801561054f57600080fd5b5060405160128152602001610362565b34801561056b57600080fd5b5061035561057a366004613e07565b610fa8565b34801561058b57600080fd5b506103cd61059a36600461401b565b61105a565b3480156105ab57600080fd5b5061033e6105ba3660046143c5565b611095565b3480156105cb57600080fd5b5061033e6105da366004614445565b61119f565b3480156105eb57600080fd5b5061033e6105fa366004613e07565b6111f5565b34801561060b57600080fd5b5061061f61061a366004613fa2565b611284565b6040516103629190614588565b34801561063857600080fd5b5061048b6112c9565b34801561064d57600080fd5b507f6bfbb132610e56cb96575dba244667b9d6dbfeffe22b68a79fa16f2d18eb001961044e565b34801561068057600080fd5b50600161044e565b34801561069457600080fd5b5061033e6106a336600461409f565b6112f3565b3480156106b457600080fd5b5061033e6106c3366004613ec7565b611376565b3480156106d457600080fd5b5061033e6106e3366004613f07565b6113ce565b3480156106f457600080fd5b5061061f610703366004613fe7565b61147b565b34801561071457600080fd5b5061044e610723366004613e07565b6114bd565b34801561073457600080fd5b5061033e6114e5565b34801561074957600080fd5b506103cd610758366004613e07565b61151b565b34801561076957600080fd5b50600e546001600160a01b031661048b565b34801561078757600080fd5b5061033e61079636600461430a565b611527565b3480156107a757600080fd5b5061033e6107b6366004613e07565b611a11565b3480156107c757600080fd5b50610380611a62565b3480156107dc57600080fd5b5061033e6107eb36600461409f565b611a71565b3480156107fc57600080fd5b5061033e61080b366004614174565b611ac5565b34801561081c57600080fd5b5061033e61082b36600461435b565b611b34565b34801561083c57600080fd5b5061033e61084b366004613e07565b611bde565b34801561085c57600080fd5b506103cd61086b36600461401b565b611bf2565b34801561087c57600080fd5b506103cd61088b36600461401b565b611c41565b34801561089c57600080fd5b506103cd6108ab36600461401b565b611c4f565b3480156108bc57600080fd5b506103cd6108cb366004613e07565b611ca0565b3480156108dc57600080fd5b5061033e6108eb366004614174565b611cac565b3480156108fc57600080fd5b5061033e61090b36600461401b565b611d1c565b34801561091c57600080fd5b5061033e61092b36600461401b565b611d90565b34801561093c57600080fd5b506103cd61094b366004613e3f565b611e86565b34801561095c57600080fd5b506103cd61096b36600461401b565b611e94565b34801561097c57600080fd5b5061033e61098b366004614174565b611eae565b34801561099c57600080fd5b5061044e6109ab366004613e3f565b6001600160a01b03918216600090815260126020908152604080832093909416825291909152205490565b3480156109e257600080fd5b5061033e6109f1366004614174565b611ed8565b348015610a0257600080fd5b50610a16610a1136600461401b565b611f02565b60408051938452602084019290925290820152606001610362565b348015610a3d57600080fd5b50600f546001600160a01b031661048b565b348015610a5b57600080fd5b5061033e610a6a366004613e07565b612054565b348015610a7b57600080fd5b5061033e610a8a366004613e07565b6120ec565b348015610a9b57600080fd5b5061033e610aaa3660046140ec565b61213d565b348015610abb57600080fd5b5061033e610aca36600461445d565b6121dc565b6060610adb601361222c565b905090565b606060108054610aef90614b1f565b80601f0160208091040260200160405190810160405280929190818152602001828054610b1b90614b1f565b8015610b685780601f10610b3d57610100808354040283529160200191610b68565b820191906000526020600020905b815481529060010190602001808311610b4b57829003601f168201915b5050505050905090565b6000338585604051602001610b8993929190614740565b604051602081830303815290604052805190602001209050610bde8184848080602002602001604051908101604052809392919081815260200183836020028082843760009201919091525061229292505050565b6040518481526001600160a01b0386169033907f30f416fa68fca014a0f334464c64b000ba53e99b6d2afdea9d5ca756372d5985906020015b60405180910390a35050505050565b6000610c333384846122e1565b5060015b92915050565b600e546001600160a01b03163314610c705760405162461bcd60e51b8152600401610c6790614864565b60405180910390fd5b610c9b3333836040518060200160405280600081525060405180602001604052806000815250612408565b50565b6040513390600090610cb69083908790602001614615565b60408051601f1981840301815291905280516020909101209050610cda818461260d565b15610d3a5760405162461bcd60e51b815260206004820152602a60248201527f5375706572666c756964546f6b656e3a2061677265656d656e7420616c726561604482015269191e4818dc99585d195960b21b6064820152608401610c67565b610d778185858080602002602001604051908101604052809392919081815260200183836020028082843760009201919091525061229292505050565b816001600160a01b03167f770ea40a13a4644573ed785e5c7116890709947918747febc5add46feb531e2d868686604051610db4939291906145c0565b60405180910390a25050505050565b7f00000000000000000000000000000000000000000000000000000000000000006001600160a01b03163314610e0b5760405162461bcd60e51b8152600401610c67906146f5565b610e1784848484612649565b5050505050565b6000610e2c33858585612649565b90505b9392505050565b7f00000000000000000000000000000000000000000000000000000000000000006001600160a01b03163314610e7e5760405162461bcd60e51b8152600401610c67906146f5565b610ea93383836040518060200160405280600081525060405180602001604052806000815250612408565b5050565b6040513390600090610ec59083908690602001614615565b604051602081830303815290604052805190602001209050610ee7818461260d565b610f455760405162461bcd60e51b815260206004820152602960248201527f5375706572666c756964546f6b656e3a2061677265656d656e7420646f6573206044820152681b9bdd08195e1a5cdd60ba1b6064820152608401610c67565b610f4f81846127c1565b60405184815233907f71a63dc095de07aa5512ad57a7596a39516317e316981a1cd71000057be1537b9060200160405180910390a250505050565b6000808042610f998582611f02565b91979096509094509092509050565b6001600160a01b038181166000908152600160205260409081902054905163c56a069d60e01b8152901960048201526060917f0000000000000000000000000000000000000000000000000000000000000000169063c56a069d9060240160006040518083038186803b15801561101e57600080fd5b505afa158015611032573d6000803e3d6000fd5b505050506040513d6000823e601f3d908101601f19168201604052610c37919081019061421f565b3360008181526012602090815260408083206001600160a01b03871684529091528120549091610c3391859061109090866127e2565b6122e1565b600054610100900460ff166110b05760005460ff16156110b4565b303b155b6111175760405162461bcd60e51b815260206004820152602e60248201527f496e697469616c697a61626c653a20636f6e747261637420697320616c72656160448201526d191e481a5b9a5d1a585b1a5e995960921b6064820152608401610c67565b600054610100900460ff16158015611139576000805461ffff19166101011790555b600f805460ff8816600160a01b026001600160a81b03199091166001600160a01b038a161717905561116d60108686613cef565b5061117a60118484613cef565b50611184306127ee565b8015611196576000805461ff00191690555b50505050505050565b600e546001600160a01b031633146111c95760405162461bcd60e51b8152600401610c6790614864565b610c9b33333384604051806020016040528060008152506040518060200160405280600081525061291c565b336001600160a01b037f0000000000000000000000000000000000000000000000000000000000000000161461127b5760405162461bcd60e51b815260206004820152602560248201527f5375706572546f6b656e3a206f6e6c7920686f73742063616e2075706461746560448201526420636f646560d81b6064820152608401610c67565b610c9b81612b3d565b6060600085858560405160200161129d93929190614740565b6040516020818303038152906040528051906020012090506112bf8184612d35565b9695505050505050565b6000610adb7f360894a13ba1a3210667c828492db98dca3e2076cc3735a920a3ca505d382bbc5490565b600e546001600160a01b0316331461131d5760405162461bcd60e51b8152600401610c6790614864565b611370333386866040518060200160405280600081525087878080601f01602080910402602001604051908101604052809392919081815260200183838082843760009201919091525061291c92505050565b50505050565b7f00000000000000000000000000000000000000000000000000000000000000006001600160a01b031633146113be5760405162461bcd60e51b8152600401610c67906146f5565b6113c98383836122e1565b505050565b336113db6013828a612de0565b6113f75760405162461bcd60e51b8152600401610c67906147d0565b6114718189898989898080601f01602080910402602001604051908101604052809392919081815260200183838082843760009201919091525050604080516020601f8d018190048102820181019092528b815292508b91508a908190840183828082843760009201919091525060019250612e89915050565b5050505050505050565b606060008484604051602001611492929190614615565b6040516020818303038152906040528051906020012090506114b48184612d35565b95945050505050565b6000806114ca8342611f02565b50509050600081126114dc5780610e2f565b60009392505050565b600e546001600160a01b0316331461150f5760405162461bcd60e51b8152600401610c6790614864565b6115196000612f00565b565b6000610c378242611e94565b604051632329212160e21b81523360048201527f00000000000000000000000000000000000000000000000000000000000000006001600160a01b031690638ca484849060240160206040518083038186803b15801561158657600080fd5b505afa15801561159a573d6000803e3d6000fd5b505050506040513d601f19601f820116820180604052508101906115be91906142d2565b6115da5760405162461bcd60e51b8152600401610c6790614789565b60007f00000000000000000000000000000000000000000000000000000000000000006001600160a01b031663289b3c0d6040518163ffffffff1660e01b815260040160206040518083038186803b15801561163557600080fd5b505afa158015611649573d6000803e3d6000fd5b505050506040513d601f19601f8201168201806040525081019061166d9190613e23565b604051638369a0f160e01b81526001600160a01b037f0000000000000000000000000000000000000000000000000000000000000000811660048301523060248301527f9f60ae461adf056670e03ae602566409933242392cb06744f5747c9f38b05d096044830152919250600091831690638369a0f19060640160206040518083038186803b15801561170057600080fd5b505afa158015611714573d6000803e3d6000fd5b505050506040513d601f19601f820116820180604052508101906117389190613e23565b90506001600160a01b03811661174b5750845b600061175685612f52565b90508361186e576001600160a01b0382166000908152600260205260409020546117809082612fc0565b6001600160a01b0380841660009081526002602052604080822093909355908816815220546117af9082612fcc565b6001600160a01b038781166000818152600260209081526040918290209490945580518c815293840189905291851692909133917f8505c3d8f1f184f032cf0bc4cd80ee61c8b9d94f8907c3281bf0101a2610fe80910160405180910390a4604080516001600160a01b038981168252602082018b9052918101879052600060608201528184169188169033907f5f22b60e58b1d6de858bc27c48d5a4653e052da99e083c1d88bb8c58e1abc8ef9060800160405180910390a4611471565b600061187985612f52565b6001600160a01b03891660009081526002602052604090205490915061189f9083612fc0565b6001600160a01b03808a1660009081526002602052604080822093909355908516815220546118da9082906118d49085612fcc565b90612fcc565b6001600160a01b0380851660009081526002602052604080822093909355908916815220546119099082612fc0565b6001600160a01b038881166000818152600260209081526040918290209490945580518d81529384018a9052918b1692909133917f8505c3d8f1f184f032cf0bc4cd80ee61c8b9d94f8907c3281bf0101a2610fe80910160405180910390a4826001600160a01b03167fd6c9a04afc81e8c614310bbee6c9e84f5abe15b82038bf8347014ce0852e6ffd866040516119a391815260200190565b60405180910390a2604080516001600160a01b038a81168252602082018c9052918101889052606081018790528185169189169033907f5f22b60e58b1d6de858bc27c48d5a4653e052da99e083c1d88bb8c58e1abc8ef9060800160405180910390a4505050505050505050565b33611a1e60138284612fd8565b806001600160a01b0316826001600160a01b03167ff4caeb2d6ca8932a215a353d0703c326ec2d81fc68170f320eb2ab49e9df61f960405160405180910390a35050565b606060118054610aef90614b1f565b6113703333868686868080601f01602080910402602001604051908101604052809392919081815260200183838082843760009201829052506040805160208101909152908152925060019150612e899050565b333014611b145760405162461bcd60e51b815260206004820152601d60248201527f5375706572546f6b656e3a206f6e6c792073656c6620616c6c6f7765640000006044820152606401610c67565b6040805160008152602081019091526113c99033908590859085906130dd565b6040513390600090611b4c9083908790602001614615565b604051602081830303815290604052805190602001209050611ba18185858080602002602001604051908101604052809392919081815260200183836020028082843760009201919091525061229292505050565b336001600160a01b03167f0c4c547b3a4fcaa5be8353b3111472b124155bccc86de811d4a481c9e6e9faca868686604051610db4939291906145c0565b610ea9333383611bed336114bd565b612649565b6000610c333384611090856040518060600160405280602a8152602001614bb7602a91393360009081526012602090815260408083206001600160a01b038d16845290915290205491906131e4565b6000610e2f33338585612649565b600080600080611c5f8686611f02565b9250925092506000611c91828411611c78576000611c8a565b611c8a611c858486614ab9565b612f52565b8590612fc0565b60001315979650505050505050565b6000610c378242611c4f565b333014611cfb5760405162461bcd60e51b815260206004820152601d60248201527f5375706572546f6b656e3a206f6e6c792073656c6620616c6c6f7765640000006044820152606401610c67565b604080516000808252602082019092526113c9913391869186918690613210565b7f00000000000000000000000000000000000000000000000000000000000000006001600160a01b03163314611d645760405162461bcd60e51b8152600401610c67906146f5565b610ea933838484604051806020016040528060008152506040518060200160405280600081525061291c565b604051632329212160e21b81523360048201527f00000000000000000000000000000000000000000000000000000000000000006001600160a01b031690638ca484849060240160206040518083038186803b158015611def57600080fd5b505afa158015611e03573d6000803e3d6000fd5b505050506040513d601f19601f82011682018060405250810190611e2791906142d2565b611e435760405162461bcd60e51b8152600401610c6790614789565b6001600160a01b038216600090815260026020526040902054611e669082612fc0565b6001600160a01b0390921660009081526002602052604090209190915550565b6000610e2f60138484612de0565b600080611ea18484611f02565b5050600013949350505050565b600e546001600160a01b03163314611b145760405162461bcd60e51b8152600401610c6790614864565b600e546001600160a01b03163314611cfb5760405162461bcd60e51b8152600401610c6790614864565b6001600160a01b038216600090815260026020526040812054908080611f2786610fa8565b905060005b815181101561204b576000806000848481518110611f5a57634e487b7160e01b600052603260045260246000fd5b60209081029190910101516040516326cb922f60e21b81523060048201526001600160a01b038c81166024830152604482018c905290911690639b2e48bc9060640160606040518083038186803b158015611fb457600080fd5b505afa158015611fc8573d6000803e3d6000fd5b505050506040513d601f19601f82011682018060405250810190611fec9190614418565b91945092509050611ffd87836127e2565b965061200986826127e2565b955061203381831161201c576000612029565b612029611c858385614ab9565b6118d48a86612fc0565b9750505050808061204390614b5a565b915050611f2c565b50509250925092565b600e546001600160a01b0316331461207e5760405162461bcd60e51b8152600401610c6790614864565b6001600160a01b0381166120e35760405162461bcd60e51b815260206004820152602660248201527f4f776e61626c653a206e6577206f776e657220697320746865207a65726f206160448201526564647265737360d01b6064820152608401610c67565b610c9b81612f00565b336120f960138284613319565b806001600160a01b0316826001600160a01b03167f50546e66e5f44d728365dc3908c63bc5cfeeab470722c1677e3073a6ac294aa160405160405180910390a35050565b3361214a60138289612de0565b6121665760405162461bcd60e51b8152600401610c67906147d0565b61119681888888888080601f01602080910402602001604051908101604052809392919081815260200183838082843760009201919091525050604080516020601f8c018190048102820181019092528a815292508a915089908190840183828082843760009201919091525061240892505050565b6113c933338585858080601f016020809104026020016040519081016040528093929190818152602001838380828437600092018290525060408051602081019091529081529250612408915050565b60608160000180548060200260200160405190810160405280929190818152602001828054801561228657602002820191906000526020600020905b81546001600160a01b03168152600190910190602001808311612268575b50505050509050919050565b60005b81518110156113c95760008282815181106122c057634e487b7160e01b600052603260045260246000fd5b60200260200101519050808285015550806122da90614b5a565b9050612295565b6001600160a01b0383166123455760405162461bcd60e51b815260206004820152602560248201527f5375706572546f6b656e3a20617070726f76652066726f6d207a65726f206164604482015264647265737360d81b6064820152608401610c67565b6001600160a01b0382166123a75760405162461bcd60e51b815260206004820152602360248201527f5375706572546f6b656e3a20617070726f766520746f207a65726f206164647260448201526265737360e81b6064820152608401610c67565b6001600160a01b0383811660008181526012602090815260408083209487168084529482529182902085905590518481527f8c5be1e5ebec7d5bd14f71427d1e84f3dd0314c0f7b2291e5b200ac8c7c3b925910160405180910390a3505050565b600f546001600160a01b03166124605760405162461bcd60e51b815260206004820152601f60248201527f5375706572546f6b656e3a206e6f20756e6465726c79696e6720746f6b656e006044820152606401610c67565b60008061246c85613412565b9150915061247d87878387876130dd565b600f546040516370a0823160e01b81523060048201526000916001600160a01b0316906370a082319060240160206040518083038186803b1580156124c157600080fd5b505afa1580156124d5573d6000803e3d6000fd5b505050506040513d601f19601f820116820180604052508101906124f991906142f2565b600f54909150612513906001600160a01b031688856134ce565b600f546040516370a0823160e01b81523060048201526000916001600160a01b0316906370a082319060240160206040518083038186803b15801561255757600080fd5b505afa15801561256b573d6000803e3d6000fd5b505050506040513d601f19601f8201168201806040525081019061258f91906142f2565b9050600061259d8383613531565b90508085146125be5760405162461bcd60e51b8152600401610c6790614652565b886001600160a01b03167f3bc27981aebbb57f9247dc00fde9d6cd91e4b230083fec3238fedbcba1f9ab3d856040516125f991815260200190565b60405180910390a250505050505050505050565b6000805b8281101561263f5783810154801561262e57600192505050610c37565b5061263881614b5a565b9050612611565b5060009392505050565b60006001600160a01b0384166126715760405162461bcd60e51b8152600401610c67906146af565b6001600160a01b0383166126975760405162461bcd60e51b8152600401610c6790614820565b60003390506126c881868686604051806020016040528060008152506040518060200160405280600081525061353d565b6126f4818686866040518060200160405280600081525060405180602001604052806000815250613673565b846001600160a01b0316866001600160a01b031614612787576127878587611090866040518060600160405280602d8152602001614be1602d9139601260008c6001600160a01b03166001600160a01b0316815260200190815260200160002060008d6001600160a01b03166001600160a01b03168152602001908152602001600020546131e49092919063ffffffff16565b6127b58186868660405180602001604052806000815250604051806020016040528060008152506000613724565b50600195945050505050565b60005b818110156113c9576000838201556127db81614b5a565b90506127c4565b6000610e2f8284614935565b6040516329965a1d60e01b81526001600160a01b03821660048201527fac7fbab5f54a3ca8194167523c6753bfeb96a445279294b6125b68cce21770546024820152306044820152731820a4b7618bde71dce8cdc73aab6c95905fad24906329965a1d90606401600060405180830381600087803b15801561286f57600080fd5b505af1158015612883573d6000803e3d6000fd5b50506040516329965a1d60e01b81526001600160a01b03841660048201527faea199e31a596269b42cdafd93407f14436db6e4cad65417994c2eb37381e05a6024820152306044820152731820a4b7618bde71dce8cdc73aab6c95905fad2492506329965a1d9150606401600060405180830381600087803b15801561290857600080fd5b505af1158015610e17573d6000803e3d6000fd5b600f546001600160a01b03166129745760405162461bcd60e51b815260206004820152601f60248201527f5375706572546f6b656e3a206e6f20756e6465726c79696e6720746f6b656e006044820152606401610c67565b60008061298085613412565b600f546040516370a0823160e01b81523060048201529294509092506000916001600160a01b03909116906370a082319060240160206040518083038186803b1580156129cc57600080fd5b505afa1580156129e0573d6000803e3d6000fd5b505050506040513d601f19601f82011682018060405250810190612a0491906142f2565b600f54909150612a1f906001600160a01b03168930866138c3565b600f546040516370a0823160e01b81523060048201526000916001600160a01b0316906370a082319060240160206040518083038186803b158015612a6357600080fd5b505afa158015612a77573d6000803e3d6000fd5b505050506040513d601f19601f82011682018060405250810190612a9b91906142f2565b90506000612aa98284613531565b9050808514612aca5760405162461bcd60e51b8152600401610c6790614652565b612aed8b8a868c6001600160a01b03168e6001600160a01b031614158b8b613210565b886001600160a01b03167f25ca84076773b0455db53621c459ddc84fe40840e4932a62706a032566f399df85604051612b2891815260200190565b60405180910390a25050505050505050505050565b6000612b677f360894a13ba1a3210667c828492db98dca3e2076cc3735a920a3ca505d382bbc5490565b6001600160a01b03161415612bbe5760405162461bcd60e51b815260206004820152601d60248201527f5555505350726f786961626c653a206e6f742075706772616461626c650000006044820152606401610c67565b806001600160a01b03166352d1902d6040518163ffffffff1660e01b815260040160206040518083038186803b158015612bf757600080fd5b505afa158015612c0b573d6000803e3d6000fd5b505050506040513d601f19601f82011682018060405250810190612c2f91906142f2565b7f6bfbb132610e56cb96575dba244667b9d6dbfeffe22b68a79fa16f2d18eb001914612ca95760405162461bcd60e51b815260206004820152602360248201527f5555505350726f786961626c653a206e6f7420636f6d70617469626c65206c6f60448201526267696360e81b6064820152608401610c67565b612cd1817f360894a13ba1a3210667c828492db98dca3e2076cc3735a920a3ca505d382bbc55565b7fe011bc04c286c344a8fcbb8de77f953da762c3e25d8cdea984147fc4168a5dcc7f6bfbb132610e56cb96575dba244667b9d6dbfeffe22b68a79fa16f2d18eb0019604080519182526001600160a01b03841660208301520160405180910390a150565b6060816001600160401b03811115612d5d57634e487b7160e01b600052604160045260246000fd5b604051908082528060200260200182016040528015612d86578160200160208202803683370190505b50905060005b82811015612dd957600081850154905080838381518110612dbd57634e487b7160e01b600052603260045260246000fd5b602090810291909101015250612dd281614b5a565b9050612d8c565b5092915050565b6000816001600160a01b0316836001600160a01b03161480612e4f57506001600160a01b038316600090815260018501602052604090205460ff168015612e4f57506001600160a01b03808316600090815260038601602090815260408083209387168352929052205460ff16155b80610e2c57506001600160a01b03808316600090815260028601602090815260408083209387168352929052205460ff1690509392505050565b6001600160a01b038616612eaf5760405162461bcd60e51b8152600401610c67906146af565b6001600160a01b038516612ed55760405162461bcd60e51b8152600401610c6790614820565b612ee387878787878761353d565b612ef1878787878787613673565b61119687878787878787613724565b600e80546001600160a01b038381166001600160a01b0319831681179093556040519116919082907f8be0079c531659141344cd1fd0a4f28419497f9722a3daafe3b4186f6b6457e090600090a35050565b60006001600160ff1b03821115612fbc5760405162461bcd60e51b815260206004820152602860248201527f53616665436173743a2076616c756520646f65736e27742066697420696e2061604482015267371034b73a191a9b60c11b6064820152608401610c67565b5090565b6000610e2f82846148f4565b6000610e2f8284614a7a565b806001600160a01b0316826001600160a01b031614156130505760405162461bcd60e51b815260206004820152602d60248201527f4552433737374f70657261746f72733a20617574686f72697a696e672073656c60448201526c331030b99037b832b930ba37b960991b6064820152608401610c67565b6001600160a01b038116600090815260018401602052604090205460ff16156130a6576001600160a01b03918216600090815260039390930160209081526040808520929093168452529020805460ff19169055565b6001600160a01b0380831660009081526002850160209081526040808320938516835292905220805460ff19166001179055505050565b6001600160a01b03841661313e5760405162461bcd60e51b815260206004820152602260248201527f5375706572546f6b656e3a206275726e2066726f6d207a65726f206164647265604482015261737360f01b6064820152608401610c67565b61314d8585600086868661353d565b61315784846138fb565b836001600160a01b0316856001600160a01b03167fa78a9be3a7b862d26933ad85fb11d80ef66b8f972d7cbba06621d583943a409885858560405161319e93929190614899565b60405180910390a36040518381526000906001600160a01b038616907fddf252ad1be2c89b69c2b068fc378daa952ba7f163c4a11628f55a4df523b3ef90602001610c17565b600081848411156132085760405162461bcd60e51b8152600401610c679190614602565b505050900390565b6001600160a01b0385166132665760405162461bcd60e51b815260206004820181905260248201527f5375706572546f6b656e3a206d696e7420746f207a65726f20616464726573736044820152606401610c67565b61327085856139d1565b6132808660008787868689613724565b846001600160a01b0316866001600160a01b03167f2fe5be0146f74c5bce36c0b80911af6c7d86ff27e89d5cfa61fc681327954e5d8685856040516132c793929190614899565b60405180910390a36040518481526001600160a01b038616906000907fddf252ad1be2c89b69c2b068fc378daa952ba7f163c4a11628f55a4df523b3ef906020015b60405180910390a3505050505050565b6001600160a01b0381163314156133855760405162461bcd60e51b815260206004820152602a60248201527f4552433737374f70657261746f72733a207265766f6b696e672073656c662061604482015269399037b832b930ba37b960b11b6064820152608401610c67565b6001600160a01b038116600090815260018401602052604090205460ff16156133df576001600160a01b0380831660009081526003850160209081526040808320938516835292905220805460ff19166001179055505050565b6001600160a01b03918216600090815260029390930160209081526040808520929093168452529020805460ff19169055565b600f54600090819081906012600160a01b90910460ff16101561347157600f5461344790600160a01b900460ff166012614ad0565b61345290600a6149b0565b905061345e818561494d565b925061346a8184614a5b565b91506134c8565b600f546012600160a01b90910460ff1611156134c157600f546134a090601290600160a01b900460ff16614ad0565b6134ab90600a6149b0565b90506134b78185614a5b565b92508391506134c8565b8391508192505b50915091565b6040516001600160a01b0383166024820152604481018290526113c990849063a9059cbb60e01b906064015b60408051601f198184030181529190526020810180516001600160e01b03166001600160e01b031990931692909217909152613a29565b6000610e2f8284614ab9565b60405163555ddc6560e11b81526001600160a01b03861660048201527f29ddb589b1fb5fc7cf394961c1adf5f8c6454761adf795e67fe149f658abe8956024820152600090731820a4b7618bde71dce8cdc73aab6c95905fad249063aabbb8ca9060440160206040518083038186803b1580156135b957600080fd5b505afa1580156135cd573d6000803e3d6000fd5b505050506040513d601f19601f820116820180604052508101906135f19190613e23565b90506001600160a01b0381161561119657604051633ad5cbc160e11b81526001600160a01b038216906375ab978290613638908a908a908a908a908a908a906004016144e1565b600060405180830381600087803b15801561365257600080fd5b505af1158015613666573d6000803e3d6000fd5b5050505050505050505050565b613686858561368186612f52565b613afb565b836001600160a01b0316856001600160a01b0316876001600160a01b03167f06b541ddaa720db2b10a4d0cdac39b8d360425fc073085fac19bc826146779878686866040516136d793929190614899565b60405180910390a4836001600160a01b0316856001600160a01b03167fddf252ad1be2c89b69c2b068fc378daa952ba7f163c4a11628f55a4df523b3ef8560405161330991815260200190565b60405163555ddc6560e11b81526001600160a01b03861660048201527fb281fc8c12954d22544db45de3159a39272895b169a852b314f9cc762e44c53b6024820152600090731820a4b7618bde71dce8cdc73aab6c95905fad249063aabbb8ca9060440160206040518083038186803b1580156137a057600080fd5b505afa1580156137b4573d6000803e3d6000fd5b505050506040513d601f19601f820116820180604052508101906137d89190613e23565b90506001600160a01b03811615613854576040516223de2960e01b81526001600160a01b038216906223de299061381d908b908b908b908b908b908b906004016144e1565b600060405180830381600087803b15801561383757600080fd5b505af115801561384b573d6000803e3d6000fd5b50505050611471565b8115611471576001600160a01b0386163b156114715760405162461bcd60e51b815260206004820152602860248201527f5375706572546f6b656e3a206e6f7420616e20455243373737546f6b656e73526044820152671958da5c1a595b9d60c21b6064820152608401610c67565b6040516001600160a01b03808516602483015283166044820152606481018290526113709085906323b872dd60e01b906084016134fa565b60006139078342611f02565b5050905061391482612f52565b8112156139785760405162461bcd60e51b815260206004820152602c60248201527f5375706572666c756964546f6b656e3a206275726e20616d6f756e742065786360448201526b656564732062616c616e636560a01b6064820152608401610c67565b6139a361398483612f52565b6001600160a01b03851660009081526002602052604090205490612fcc565b6001600160a01b0384166000908152600260205260409020556003546139c99083613531565b600355505050565b6139fc6139dd82612f52565b6001600160a01b03841660009081526002602052604090205490612fc0565b6001600160a01b038316600090815260026020526040902055600354613a2290826127e2565b6003555050565b6000613a7e826040518060400160405280602081526020017f5361666545524332303a206c6f772d6c6576656c2063616c6c206661696c6564815250856001600160a01b0316613be49092919063ffffffff16565b8051909150156113c95780806020019051810190613a9c91906142d2565b6113c95760405162461bcd60e51b815260206004820152602a60248201527f5361666545524332303a204552433230206f7065726174696f6e20646964206e6044820152691bdd081cdd58d8d9595960b21b6064820152608401610c67565b6000613b078442611f02565b5050905081811215613b705760405162461bcd60e51b815260206004820152602c60248201527f5375706572666c756964546f6b656e3a206d6f766520616d6f756e742065786360448201526b656564732062616c616e636560a01b6064820152608401610c67565b6001600160a01b038416600090815260026020526040902054613b939083612fcc565b6001600160a01b038086166000908152600260205260408082209390935590851681522054613bc29083612fc0565b6001600160a01b03909316600090815260026020526040902092909255505050565b6060610e2c848460008585843b613c3d5760405162461bcd60e51b815260206004820152601d60248201527f416464726573733a2063616c6c20746f206e6f6e2d636f6e74726163740000006044820152606401610c67565b600080866001600160a01b03168587604051613c5991906144c5565b60006040518083038185875af1925050503d8060008114613c96576040519150601f19603f3d011682016040523d82523d6000602084013e613c9b565b606091505b5091509150613cab828286613cb6565b979650505050505050565b60608315613cc5575081610e2f565b825115613cd55782518084602001fd5b8160405162461bcd60e51b8152600401610c679190614602565b828054613cfb90614b1f565b90600052602060002090601f016020900481019282613d1d5760008555613d63565b82601f10613d365782800160ff19823516178555613d63565b82800160010185558215613d63579182015b82811115613d63578235825591602001919060010190613d48565b50612fbc9291505b80821115612fbc5760008155600101613d6b565b60008083601f840112613d90578182fd5b5081356001600160401b03811115613da6578182fd5b6020830191508360208260051b8501011115613dc157600080fd5b9250929050565b60008083601f840112613dd9578182fd5b5081356001600160401b03811115613def578182fd5b602083019150836020828501011115613dc157600080fd5b600060208284031215613e18578081fd5b8135610e2f81614ba1565b600060208284031215613e34578081fd5b8151610e2f81614ba1565b60008060408385031215613e51578081fd5b8235613e5c81614ba1565b91506020830135613e6c81614ba1565b809150509250929050565b60008060008060808587031215613e8c578182fd5b8435613e9781614ba1565b93506020850135613ea781614ba1565b92506040850135613eb781614ba1565b9396929550929360600135925050565b600080600060608486031215613edb578283fd5b8335613ee681614ba1565b92506020840135613ef681614ba1565b929592945050506040919091013590565b600080600080600080600060a0888a031215613f21578283fd5b8735613f2c81614ba1565b96506020880135613f3c81614ba1565b95506040880135945060608801356001600160401b0380821115613f5e578485fd5b613f6a8b838c01613dc8565b909650945060808a0135915080821115613f82578384fd5b50613f8f8a828b01613dc8565b989b979a50959850939692959293505050565b60008060008060808587031215613fb7578182fd5b8435613fc281614ba1565b93506020850135613fd281614ba1565b93969395505050506040820135916060013590565b600080600060608486031215613ffb578081fd5b833561400681614ba1565b95602085013595506040909401359392505050565b6000806040838503121561402d578182fd5b823561403881614ba1565b946020939093013593505050565b6000806000806060858703121561405b578182fd5b843561406681614ba1565b93506020850135925060408501356001600160401b03811115614087578283fd5b61409387828801613d7f565b95989497509550505050565b600080600080606085870312156140b4578182fd5b84356140bf81614ba1565b93506020850135925060408501356001600160401b038111156140e0578283fd5b61409387828801613dc8565b60008060008060008060808789031215614104578384fd5b863561410f81614ba1565b95506020870135945060408701356001600160401b0380821115614131578586fd5b61413d8a838b01613dc8565b90965094506060890135915080821115614155578384fd5b5061416289828a01613dc8565b979a9699509497509295939492505050565b600080600060608486031215614188578081fd5b833561419381614ba1565b9250602084810135925060408501356001600160401b03808211156141b6578384fd5b818701915087601f8301126141c9578384fd5b8135818111156141db576141db614b8b565b6141ed601f8201601f191685016148c4565b91508082528884828501011115614202578485fd5b808484018584013784848284010152508093505050509250925092565b60006020808385031215614231578182fd5b82516001600160401b0380821115614247578384fd5b818501915085601f83011261425a578384fd5b81518181111561426c5761426c614b8b565b8060051b915061427d8483016148c4565b8181528481019084860184860187018a1015614297578788fd5b8795505b838610156142c557805194506142b085614ba1565b8483526001959095019491860191860161429b565b5098975050505050505050565b6000602082840312156142e3578081fd5b81518015158114610e2f578182fd5b600060208284031215614303578081fd5b5051919050565b600080600080600060a08688031215614321578283fd5b85359450602086013561433381614ba1565b9350604086013561434381614ba1565b94979396509394606081013594506080013592915050565b60008060006040848603121561436f578081fd5b8335925060208401356001600160401b0381111561438b578182fd5b61439786828701613d7f565b9497909650939450505050565b600080604083850312156143b6578182fd5b50508035926020909101359150565b600080600080600080608087890312156143dd578384fd5b86356143e881614ba1565b9550602087013560ff811681146143fd578485fd5b945060408701356001600160401b0380821115614131578586fd5b60008060006060848603121561442c578081fd5b8351925060208401519150604084015190509250925092565b600060208284031215614456578081fd5b5035919050565b600080600060408486031215614471578081fd5b8335925060208401356001600160401b0381111561448d578182fd5b61439786828701613dc8565b600081518084526144b1816020860160208601614af3565b601f01601f19169290920160200192915050565b600082516144d7818460208701614af3565b9190910192915050565b6001600160a01b0387811682528681166020830152851660408201526060810184905260c06080820181905260009061451c90830185614499565b82810360a084015261452e8185614499565b9998505050505050505050565b6020808252825182820181905260009190848201906040850190845b8181101561457c5783516001600160a01b031683529284019291840191600101614557565b50909695505050505050565b6020808252825182820181905260009190848201906040850190845b8181101561457c578351835292840192918401916001016145a4565b838152604060208201819052810182905260006001600160fb1b038311156145e6578081fd5b8260051b80856060850137919091016060019081529392505050565b602081526000610e2f6020830184614499565b6060808252600d908201526c41677265656d656e744461746160981b60808201526001600160a01b03929092166020830152604082015260a00190565b6020808252603a908201527f5375706572546f6b656e3a20696e666c6174696f6e6172792f6465666c61746960408201527f6f6e61727920746f6b656e73206e6f7420737570706f72746564000000000000606082015260800190565b60208082526026908201527f5375706572546f6b656e3a207472616e736665722066726f6d207a65726f206160408201526564647265737360d01b606082015260800190565b6020808252602b908201527f5375706572666c756964546f6b656e3a204f6e6c7920686f737420636f6e747260408201526a1858dd08185b1b1bddd95960aa1b606082015260800190565b6080808252600e908201526d41677265656d656e74537461746560901b60a08201526001600160a01b039384166020820152919092166040820152606081019190915260c00190565b60208082526027908201527f5375706572666c756964546f6b656e3a206f6e6c79206c6973746564206167726040820152661959595b595b9d60ca1b606082015260800190565b60208082526030908201527f5375706572546f6b656e3a2063616c6c6572206973206e6f7420616e206f706560408201526f3930ba37b9103337b9103437b63232b960811b606082015260800190565b60208082526024908201527f5375706572546f6b656e3a207472616e7366657220746f207a65726f206164646040820152637265737360e01b606082015260800190565b6020808252818101527f4f776e61626c653a2063616c6c6572206973206e6f7420746865206f776e6572604082015260600190565b8381526060602082015260006148b26060830185614499565b82810360408401526112bf8185614499565b604051601f8201601f191681016001600160401b03811182821017156148ec576148ec614b8b565b604052919050565b600080821280156001600160ff1b038490038513161561491657614916614b75565b600160ff1b839003841281161561492f5761492f614b75565b50500190565b6000821982111561494857614948614b75565b500190565b60008261496857634e487b7160e01b81526012600452602481fd5b500490565b600181815b808511156149a857816000190482111561498e5761498e614b75565b8085161561499b57918102915b93841c9390800290614972565b509250929050565b6000610e2f60ff8416836000826149c957506001610c37565b816149d657506000610c37565b81600181146149ec57600281146149f657614a12565b6001915050610c37565b60ff841115614a0757614a07614b75565b50506001821b610c37565b5060208310610133831016604e8410600b8410161715614a35575081810a610c37565b614a3f838361496d565b8060001904821115614a5357614a53614b75565b029392505050565b6000816000190483118215151615614a7557614a75614b75565b500290565b60008083128015600160ff1b850184121615614a9857614a98614b75565b6001600160ff1b0384018313811615614ab357614ab3614b75565b50500390565b600082821015614acb57614acb614b75565b500390565b600060ff821660ff841680821015614aea57614aea614b75565b90039392505050565b60005b83811015614b0e578181015183820152602001614af6565b838111156113705750506000910152565b600181811c90821680614b3357607f821691505b60208210811415614b5457634e487b7160e01b600052602260045260246000fd5b50919050565b6000600019821415614b6e57614b6e614b75565b5060010190565b634e487b7160e01b600052601160045260246000fd5b634e487b7160e01b600052604160045260246000fd5b6001600160a01b0381168114610c9b57600080fdfe5375706572546f6b656e3a2064656372656173656420616c6c6f77616e63652062656c6f77207a65726f5375706572546f6b656e3a207472616e7366657220616d6f756e74206578636565647320616c6c6f77616e6365a26469706673582212202054a1f988019733f317e2974a93fddf9f1698c75d4003cb7e0143856b2d3c6a64736f6c634300080400334f776e61626c653a2063616c6c6572206973206e6f7420746865206f776e6572",
  "linkReferences": {},
  "deployedLinkReferences": {}
}