{
  "_format": "hh-sol-artifact-1",
  "contractName": "REXMarket",
  "sourceName": "contracts/REXMarket.sol",
  "abi": [
    {
      "inputs": [
        {
          "internalType": "address",
          "name": "_owner",
          "type": "address"
        },
        {
          "internalType": "contract ISuperfluid",
          "name": "_host",
          "type": "address"
        },
        {
          "internalType": "contract IConstantFlowAgreementV1",
          "name": "_cfa",
          "type": "address"
        },
        {
          "internalType": "contract IInstantDistributionAgreementV1",
          "name": "_ida",
          "type": "address"
        },
        {
          "internalType": "string",
          "name": "_registrationKey",
          "type": "string"
        }
      ],
      "stateMutability": "nonpayable",
      "type": "constructor"
    },
    {
      "anonymous": false,
      "inputs": [
        {
          "indexed": false,
          "internalType": "uint256",
          "name": "totalAmount",
          "type": "uint256"
        },
        {
          "indexed": false,
          "internalType": "uint256",
          "name": "feeCollected",
          "type": "uint256"
        },
        {
          "indexed": false,
          "internalType": "address",
          "name": "token",
          "type": "address"
        }
      ],
      "name": "Distribution",
      "type": "event"
    },
    {
      "anonymous": false,
      "inputs": [
        {
          "indexed": true,
          "internalType": "address",
          "name": "previousOwner",
          "type": "address"
        },
        {
          "indexed": true,
          "internalType": "address",
          "name": "newOwner",
          "type": "address"
        }
      ],
      "name": "OwnershipTransferred",
      "type": "event"
    },
    {
      "inputs": [
        {
          "internalType": "contract ISuperToken",
          "name": "_token",
          "type": "address"
        },
        {
          "internalType": "uint128",
          "name": "_feeRate",
          "type": "uint128"
        },
        {
          "internalType": "uint256",
          "name": "_emissionRate",
          "type": "uint256"
        },
        {
          "internalType": "uint256",
          "name": "_requestId",
          "type": "uint256"
        }
      ],
      "name": "addOutputPool",
      "outputs": [],
      "stateMutability": "nonpayable",
      "type": "function"
    },
    {
      "inputs": [
        {
          "internalType": "contract ISuperToken",
          "name": "_superToken",
          "type": "address"
        },
        {
          "internalType": "address",
          "name": "_agreementClass",
          "type": "address"
        },
        {
          "internalType": "bytes32",
          "name": "",
          "type": "bytes32"
        },
        {
          "internalType": "bytes",
          "name": "_agreementData",
          "type": "bytes"
        },
        {
          "internalType": "bytes",
          "name": "",
          "type": "bytes"
        },
        {
          "internalType": "bytes",
          "name": "_ctx",
          "type": "bytes"
        }
      ],
      "name": "afterAgreementCreated",
      "outputs": [
        {
          "internalType": "bytes",
          "name": "newCtx",
          "type": "bytes"
        }
      ],
      "stateMutability": "nonpayable",
      "type": "function"
    },
    {
      "inputs": [
        {
          "internalType": "contract ISuperToken",
          "name": "",
          "type": "address"
        },
        {
          "internalType": "address",
          "name": "",
          "type": "address"
        },
        {
          "internalType": "bytes32",
          "name": "",
          "type": "bytes32"
        },
        {
          "internalType": "bytes",
          "name": "_agreementData",
          "type": "bytes"
        },
        {
          "internalType": "bytes",
          "name": "_cbdata",
          "type": "bytes"
        },
        {
          "internalType": "bytes",
          "name": "_ctx",
          "type": "bytes"
        }
      ],
      "name": "afterAgreementTerminated",
      "outputs": [
        {
          "internalType": "bytes",
          "name": "newCtx",
          "type": "bytes"
        }
      ],
      "stateMutability": "nonpayable",
      "type": "function"
    },
    {
      "inputs": [
        {
          "internalType": "contract ISuperToken",
          "name": "_superToken",
          "type": "address"
        },
        {
          "internalType": "address",
          "name": "_agreementClass",
          "type": "address"
        },
        {
          "internalType": "bytes32",
          "name": "",
          "type": "bytes32"
        },
        {
          "internalType": "bytes",
          "name": "_agreementData",
          "type": "bytes"
        },
        {
          "internalType": "bytes",
          "name": "",
          "type": "bytes"
        },
        {
          "internalType": "bytes",
          "name": "_ctx",
          "type": "bytes"
        }
      ],
      "name": "afterAgreementUpdated",
      "outputs": [
        {
          "internalType": "bytes",
          "name": "newCtx",
          "type": "bytes"
        }
      ],
      "stateMutability": "nonpayable",
      "type": "function"
    },
    {
      "inputs": [
        {
          "internalType": "contract ISuperToken",
          "name": "",
          "type": "address"
        },
        {
          "internalType": "address",
          "name": "",
          "type": "address"
        },
        {
          "internalType": "bytes32",
          "name": "",
          "type": "bytes32"
        },
        {
          "internalType": "bytes",
          "name": "",
          "type": "bytes"
        },
        {
          "internalType": "bytes",
          "name": "",
          "type": "bytes"
        }
      ],
      "name": "beforeAgreementCreated",
      "outputs": [
        {
          "internalType": "bytes",
          "name": "",
          "type": "bytes"
        }
      ],
      "stateMutability": "view",
      "type": "function"
    },
    {
      "inputs": [
        {
          "internalType": "contract ISuperToken",
          "name": "_superToken",
          "type": "address"
        },
        {
          "internalType": "address",
          "name": "_agreementClass",
          "type": "address"
        },
        {
          "internalType": "bytes32",
          "name": "",
          "type": "bytes32"
        },
        {
          "internalType": "bytes",
          "name": "_agreementData",
          "type": "bytes"
        },
        {
          "internalType": "bytes",
          "name": "_ctx",
          "type": "bytes"
        }
      ],
      "name": "beforeAgreementTerminated",
      "outputs": [
        {
          "internalType": "bytes",
          "name": "cbdata",
          "type": "bytes"
        }
      ],
      "stateMutability": "view",
      "type": "function"
    },
    {
      "inputs": [
        {
          "internalType": "contract ISuperToken",
          "name": "",
          "type": "address"
        },
        {
          "internalType": "address",
          "name": "",
          "type": "address"
        },
        {
          "internalType": "bytes32",
          "name": "",
          "type": "bytes32"
        },
        {
          "internalType": "bytes",
          "name": "",
          "type": "bytes"
        },
        {
          "internalType": "bytes",
          "name": "",
          "type": "bytes"
        }
      ],
      "name": "beforeAgreementUpdated",
      "outputs": [
        {
          "internalType": "bytes",
          "name": "",
          "type": "bytes"
        }
      ],
      "stateMutability": "view",
      "type": "function"
    },
    {
      "inputs": [
        {
          "internalType": "bytes",
          "name": "_ctx",
          "type": "bytes"
        }
      ],
      "name": "distribute",
      "outputs": [
        {
          "internalType": "bytes",
          "name": "newCtx",
          "type": "bytes"
        }
      ],
      "stateMutability": "nonpayable",
      "type": "function"
    },
    {
      "inputs": [
        {
          "internalType": "uint256",
          "name": "_requestId",
          "type": "uint256"
        }
      ],
      "name": "getCurrentValue",
      "outputs": [
        {
          "internalType": "bool",
          "name": "ifRetrieve",
          "type": "bool"
        },
        {
          "internalType": "uint256",
          "name": "value",
          "type": "uint256"
        },
        {
          "internalType": "uint256",
          "name": "timestampRetrieved",
          "type": "uint256"
        }
      ],
      "stateMutability": "view",
      "type": "function"
    },
    {
      "inputs": [
        {
          "internalType": "uint32",
          "name": "index",
          "type": "uint32"
        },
        {
          "internalType": "address",
          "name": "streamer",
          "type": "address"
        }
      ],
      "name": "getIDAShares",
      "outputs": [
        {
          "internalType": "bool",
          "name": "exist",
          "type": "bool"
        },
        {
          "internalType": "bool",
          "name": "approved",
          "type": "bool"
        },
        {
          "internalType": "uint128",
          "name": "units",
          "type": "uint128"
        },
        {
          "internalType": "uint256",
          "name": "pendingDistribution",
          "type": "uint256"
        }
      ],
      "stateMutability": "view",
      "type": "function"
    },
    {
      "inputs": [
        {
          "internalType": "address",
          "name": "streamer",
          "type": "address"
        }
      ],
      "name": "getStreamRate",
      "outputs": [
        {
          "internalType": "int96",
          "name": "requesterFlowRate",
          "type": "int96"
        }
      ],
      "stateMutability": "view",
      "type": "function"
    },
    {
      "inputs": [
        {
          "internalType": "bytes",
          "name": "_ctx",
          "type": "bytes"
        }
      ],
      "name": "harvest",
      "outputs": [
        {
          "internalType": "bytes",
          "name": "newCtx",
          "type": "bytes"
        }
      ],
      "stateMutability": "nonpayable",
      "type": "function"
    },
    {
      "inputs": [
        {
          "internalType": "contract ISuperToken",
          "name": "_inputToken",
          "type": "address"
        },
        {
          "internalType": "uint256",
          "name": "_rateTolerance",
          "type": "uint256"
        },
        {
          "internalType": "contract ITellor",
          "name": "_tellor",
          "type": "address"
        },
        {
          "internalType": "uint256",
          "name": "_inputTokenRequestId",
          "type": "uint256"
        }
      ],
      "name": "initializeMarket",
      "outputs": [],
      "stateMutability": "nonpayable",
      "type": "function"
    },
    {
      "inputs": [],
      "name": "owner",
      "outputs": [
        {
          "internalType": "address",
          "name": "",
          "type": "address"
        }
      ],
      "stateMutability": "view",
      "type": "function"
    },
    {
      "inputs": [],
      "name": "renounceOwnership",
      "outputs": [],
      "stateMutability": "nonpayable",
      "type": "function"
    },
    {
      "inputs": [
        {
          "internalType": "address",
          "name": "newOwner",
          "type": "address"
        }
      ],
      "name": "transferOwnership",
      "outputs": [],
      "stateMutability": "nonpayable",
      "type": "function"
    },
    {
      "inputs": [
        {
          "internalType": "contract ISuperToken",
          "name": "_token",
          "type": "address"
        }
      ],
      "name": "updateTokenPrice",
      "outputs": [],
      "stateMutability": "nonpayable",
      "type": "function"
    }
  ],
  "bytecode": "0x6080604052600c805463ffffffff191690553480156200001e57600080fd5b5060405162002b1b38038062002b1b833981016040819052620000419162000325565b6200004c3362000194565b600180546001600160a01b038087166001600160a01b0319928316179092556002805486841690831617905560038054928516929091169190911790556200009485620001e4565b641500000001620000b182620002b9602090811b6200143917901c565b815115620001275760015460405163bd1c448b60e01b81526001600160a01b039091169063bd1c448b90620000ed90849086906004016200047c565b600060405180830381600087803b1580156200010857600080fd5b505af11580156200011d573d6000803e3d6000fd5b5050505062000188565b6001546040516315a722b960e31b8152600481018390526001600160a01b039091169063ad3915c890602401600060405180830381600087803b1580156200016e57600080fd5b505af115801562000183573d6000803e3d6000fd5b505050505b505050505050620004fe565b600080546001600160a01b038381166001600160a01b0319831681178455604051919092169283917f8be0079c531659141344cd1fd0a4f28419497f9722a3daafe3b4186f6b6457e09190a35050565b6000546001600160a01b03163314620002445760405162461bcd60e51b815260206004820181905260248201527f4f776e61626c653a2063616c6c6572206973206e6f7420746865206f776e657260448201526064015b60405180910390fd5b6001600160a01b038116620002ab5760405162461bcd60e51b815260206004820152602660248201527f4f776e61626c653a206e6577206f776e657220697320746865207a65726f206160448201526564647265737360d01b60648201526084016200023b565b620002b68162000194565b50565b620002b681604051602401620002d0919062000460565b60408051601f198184030181529190526020810180516001600160e01b0390811663104c13eb60e21b179091526200030416565b80516a636f6e736f6c652e6c6f67602083016000808483855afa5050505050565b600080600080600060a086880312156200033d578081fd5b85516200034a81620004e8565b60208701519095506200035d81620004e8565b60408701519094506200037081620004e8565b60608701519093506200038381620004e8565b60808701519092506001600160401b0380821115620003a0578283fd5b818801915088601f830112620003b4578283fd5b815181811115620003c957620003c9620004d2565b604051601f8201601f19908116603f01168101908382118183101715620003f457620003f4620004d2565b816040528281528b60208487010111156200040d578586fd5b620004208360208301602088016200049f565b80955050505050509295509295909350565b600081518084526200044c8160208601602086016200049f565b601f01601f19169290920160200192915050565b60208152600062000475602083018462000432565b9392505050565b82815260406020820152600062000497604083018462000432565b949350505050565b60005b83811015620004bc578181015183820152602001620004a2565b83811115620004cc576000848401525b50505050565b634e487b7160e01b600052604160045260246000fd5b6001600160a01b0381168114620002b657600080fd5b61260d806200050e6000396000f3fe608060405234801561001057600080fd5b506004361061010b5760003560e01c806369f07e05116100a2578063c12fc38b11610071578063c12fc38b1461026a578063ce5c7f611461026a578063d33fcc081461027e578063d86ed3e514610291578063f2fde38b146102a457600080fd5b806369f07e051461020e578063715018a614610234578063884d1f401461023c5780638da5cb5b1461024f57600080fd5b80633fcad964116100de5780633fcad964146101a557806353c11f99146101d557806354f5d569146101e85780635f9e7d77146101fb57600080fd5b80630c9dfd1e14610110578063217466151461015d578063230dbd291461017257806330d9c91514610192575b600080fd5b61012361011e366004612036565b6102b7565b6040516101549493929190931515845291151560208401526001600160801b03166040830152606082015260800190565b60405180910390f35b61017061016b366004611b95565b610376565b005b610185610180366004611e89565b6104f9565b60405161015491906120a8565b6101856101a0366004611ded565b61060f565b6101b86101b3366004611fdc565b610672565b604080519315158452602084019290925290820152606001610154565b6101856101e3366004611e89565b61083d565b6101706101f6366004611f95565b61096b565b610185610209366004611ded565b610a63565b61022161021c366004611b95565b610c05565b604051600b9190910b8152602001610154565b610170610ca1565b61018561024a366004611ded565b610cd7565b6000546040516001600160a01b039091168152602001610154565b610185610278366004611ce5565b50606090565b61017061028c366004611f50565b610d3a565b61018561029f366004611e89565b610f0f565b6101706102b2366004611b95565b61139e565b60035463ffffffff83166000818152600a6020526040808220549051635b53405160e01b81526001600160a01b0391821660048201523060248201526044810193909352848116606484015290928392839283921690635b5340519060840160806040518083038186803b15801561032e57600080fd5b505afa158015610342573d6000803e3d6000fd5b505050506040513d601f19601f820116820180604052508101906103669190611c26565b9299919850965090945092505050565b61039d604051806040016040528060058152602001643a37b5b2b760d91b8152508261147c565b6001600160a01b038116600090815260096020526040812054819081906103c390610672565b60408051808201825260038152621c9a5960ea1b6020808301919091526001600160a01b038a16600090815260099091529190912054939650919450925061040a916114c5565b61043e604051806040016040528060128152602001711d1a5b595cdd185b5c14995d1c9a595d995960721b815250826114c5565b826104835760405162461bcd60e51b815260206004820152601060248201526f2167657443757272656e7456616c756560801b60448201526064015b60405180910390fd5b61048f610e1042612498565b8110156104ce5760405162461bcd60e51b815260206004820152600d60248201526c2163757272656e7456616c756560981b604482015260640161047a565b6001600160a01b03909316600090815260096020526040902060018101919091556002019190915550565b6001546060906001600160a01b031633146105265760405162461bcd60e51b815260040161047a90612294565b89896105318161150a565b15610568576005546001600160a01b038381169116146105635760405162461bcd60e51b815260040161047a9061226c565b61059b565b610571816115a5565b1561059b5761057f82611601565b61059b5760405162461bcd60e51b815260040161047a90612243565b84848080601f01602080910402602001604051908101604052809392919081815260200183838082843760009201829052509396508392506105e191508c90508b6116a0565b915091506105ed606090565b50606094506105fd85838361174c565b9e9d5050505050505050505050505050565b60405162461bcd60e51b815260206004820152602f60248201527f556e737570706f727465642063616c6c6261636b202d204265666f726520416760448201526e1c99595b595b9d0810dc99585d1959608a1b606482015260609060840161047a565b600480546040516311bbb87160e21b81529182018390526000918291829182916001600160a01b0316906346eee1c49060240160206040518083038186803b1580156106bd57600080fd5b505afa1580156106d1573d6000803e3d6000fd5b505050506040513d601f19601f820116820180604052508101906106f59190611ccd565b6004549091506000906001600160a01b03166377fbb66387610718600186612498565b6040516001600160e01b031960e085901b1681526004810192909252602482015260440160206040518083038186803b15801561075457600080fd5b505afa158015610768573d6000803e3d6000fd5b505050506040513d601f19601f8201168201806040525081019061078c9190611ccd565b600480546040516393fa491560e01b8152918201899052602482018390529192506000916001600160a01b0316906393fa49159060440160206040518083038186803b1580156107db57600080fd5b505afa1580156107ef573d6000803e3d6000fd5b505050506040513d601f19601f820116820180604052508101906108139190611ccd565b9050801561082a5760019550935091506108369050565b50600094508493509150505b9193909250565b6001546060906001600160a01b0316331461086a5760405162461bcd60e51b815260040161047a90612294565b82828080601f01602080910402602001604051908101604052809392919081815260200183838082843760009201829052509394506108af92508a91508990506116a0565b50905060006108c086880188611fdc565b6005546040516323b872dd60e01b81523060048201526001600160a01b038581166024830152604482018490529293509116906323b872dd90606401602060405180830381600087803b15801561091657600080fd5b505af115801561092a573d6000803e3d6000fd5b505050506040513d601f19601f8201168201806040525081019061094e9190611c0c565b5061095b8383600061174c565b9c9b505050505050505050505050565b6000546001600160a01b031633146109955760405162461bcd60e51b815260040161047a9061220e565b6005546001600160a01b0316156109e45760405162461bcd60e51b8152602060048201526013602482015272105b1c9958591e481a5b9a5d1a585b1a5e9959606a1b604482015260640161047a565b600580546001600160a01b038087166001600160a01b0319928316811790935560078690556004805491861691909216179055604080516060810182528381526000602080830182815283850183815295835260099091529290208151815591516001830155915160029190910155610a5c85610376565b5050505050565b60608787610a708161150a565b15610aa7576005546001600160a01b03838116911614610aa25760405162461bcd60e51b815260040161047a9061226c565b610ada565b610ab0816115a5565b15610ada57610abe82611601565b610ada5760405162461bcd60e51b815260040161047a90612243565b6001546001600160a01b03163314610b045760405162461bcd60e51b815260040161047a90612294565b6000610b1088886116a0565b50600254600554604051631cd43d1160e31b81526001600160a01b03918216600482015281841660248201523060448201529293506000928392919091169063e6a1e8889060640160806040518083038186803b158015610b7057600080fd5b505afa158015610b84573d6000803e3d6000fd5b505050506040513d601f19601f82011682018060405250810190610ba89190611ff4565b5050915091506000610bce83836bffffffffffffffffffffffff166005600101546117b1565b905080604051602001610be391815260200190565b6040516020818303038152906040529650505050505050979650505050505050565b600254600554604051631cd43d1160e31b81526001600160a01b0391821660048201528382166024820152306044820152600092919091169063e6a1e8889060640160806040518083038186803b158015610c5f57600080fd5b505afa158015610c73573d6000803e3d6000fd5b505050506040513d601f19601f82011682018060405250810190610c979190611ff4565b5090949350505050565b6000546001600160a01b03163314610ccb5760405162461bcd60e51b815260040161047a9061220e565b610cd56000611802565b565b60405162461bcd60e51b815260206004820152602f60248201527f556e737570706f727465642063616c6c6261636b202d204265666f726520416760448201526e1c99595b595b9d081d5c19185d1959608a1b606482015260609060840161047a565b6000546001600160a01b03163314610d645760405162461bcd60e51b815260040161047a9061220e565b80610d9f5760405162461bcd60e51b815260206004820152600b60248201526a085d985b1a5914995c525960aa1b604482015260640161047a565b6001600160a01b03841660009081526009602052604090205415610def5760405162461bcd60e51b815260206004820152600760248201526621756e6971756560c81b604482015260640161047a565b604080516060810182526001600160a01b0386811682526001600160801b038681166020808501918252848601888152600b805460ff9081166000908152600a90945297909220865181546001600160a01b031916961695909517855591516001850180546fffffffffffffffffffffffffffffffff1916919094161790925551600290920191909155549091610e87911686611852565b600b805460ff16906000610e9a83612526565b825460ff9182166101009390930a92830291909202199091161790555060408051606081018252838152600060208083018281528385018381526001600160a01b038b168452600990925293909120825181559251600184015551600290920191909155610f0786610376565b505050505050565b6001546060906001600160a01b03163314610f3c5760405162461bcd60e51b815260040161047a90612294565b8989610f478161150a565b15610f7e576005546001600160a01b03838116911614610f795760405162461bcd60e51b815260040161047a9061226c565b610fb1565b610f87816115a5565b15610fb157610f9582611601565b610fb15760405162461bcd60e51b815260040161047a90612243565b6005546001600160a01b038d81169116141580610fd45750610fd28b61150a565b155b156110185784848080601f01602080910402602001604051908101604052809392919081815260200183838082843760009201919091525092955061138f92505050565b6110566040518060400160405280601781526020017f696e736964652061667465722061677265656d656e7431000000000000000000815250611439565b84848080601f0160208091040260200160405190810160405280939291908181526020018383808284376000920182905250600354600c5463ffffffff16808352600a60205260408084205490516323fc23f360e01b81526001600160a01b039182166004820152306024820152604481019290925296995091958695501692506323fc23f3915060640160806040518083038186803b1580156110f957600080fd5b505afa15801561110d573d6000803e3d6000fd5b505050506040513d601f19601f820116820180604052508101906111319190611c72565b60055460408051631dce337960e31b81529051939750919550600094506001600160a01b0316925063ee719bc8916004808301926020929190829003018186803b15801561117e57600080fd5b505afa158015611192573d6000803e3d6000fd5b505050506040513d601f19601f820116820180604052508101906111b69190611bb8565b6001600160a01b031663313ce5676040518163ffffffff1660e01b815260040160206040518083038186803b1580156111ee57600080fd5b505afa158015611202573d6000803e3d6000fd5b505050506040513d601f19601f82011682018060405250810190611226919061205b565b6112319060126124af565b61123c90600a6123cc565b6005546040516370a0823160e01b81523060048201526001600160a01b03909116906370a082319060240160206040518083038186803b15801561127f57600080fd5b505afa158015611293573d6000803e3d6000fd5b505050506040513d601f19601f820116820180604052508101906112b79190611ccd565b6112c19190612375565b905060006112cf838561230c565b6001600160801b03161180156112e55750600081115b156112ef57606095505b6000806112fc8e8e6116a0565b9150915061133e6040518060400160405280601781526020017f696e736964652061667465722061677265656d656e7434000000000000000000815250611439565b61134988838361174c565b97506113896040518060400160405280601781526020017f696e736964652061667465722061677265656d656e7435000000000000000000815250611439565b50505050505b50509998505050505050505050565b6000546001600160a01b031633146113c85760405162461bcd60e51b815260040161047a9061220e565b6001600160a01b03811661142d5760405162461bcd60e51b815260206004820152602660248201527f4f776e61626c653a206e6577206f776e657220697320746865207a65726f206160448201526564647265737360d01b606482015260840161047a565b61143681611802565b50565b6114368160405160240161144d91906120a8565b60408051601f198184030181529190526020810180516001600160e01b031663104c13eb60e21b17905261197b565b6114c182826040516024016114929291906121c2565b60408051601f198184030181529190526020810180516001600160e01b031663319af33360e01b17905261197b565b5050565b6114c182826040516024016114db9291906121ec565b60408051601f198184030181529190526020810180516001600160e01b03166309710a9d60e41b17905261197b565b60007fa9214cc96615e0085d3bb077758db69497dc2dce3b2b1e97bc93c3d18d83efd3826001600160a01b0316637730599e6040518163ffffffff1660e01b815260040160206040518083038186803b15801561156657600080fd5b505afa15801561157a573d6000803e3d6000fd5b505050506040513d601f19601f8201168201806040525081019061159e9190611ccd565b1492915050565b60007f8aedc3b5d4bf031e11a7e2940f7251c005698405d58e02e1c247fed3b1b3a674826001600160a01b0316637730599e6040518163ffffffff1660e01b815260040160206040518083038186803b15801561156657600080fd5b60006116336040518060400160405280600e81526020016d2fb4b9a7baba383aba2a37b5b2b760911b8152508361147c565b61166d6040518060600160405280602581526020016125b3602591396001600160a01b0384166000908152600960205260409020546114c5565b6001600160a01b0382166000908152600960205260409020541561169357506001919050565b506000919050565b919050565b6000806116af83850185611bd4565b50600254600554604051631cd43d1160e31b81526001600160a01b0391821660048201528184166024820152306044820152929450169063e6a1e8889060640160806040518083038186803b15801561170757600080fd5b505afa15801561171b573d6000803e3d6000fd5b505050506040513d601f19601f8201168201806040525081019061173f9190611ff4565b5093969095509350505050565b8260005b600b5460ff1663ffffffff821610156117a95763ffffffff81166000818152600a60205260409020546117959184918790600b88900b906001600160a01b031661199c565b9150806117a181612502565b915050611750565b509392505050565b6000808285116117d7576117c58342612498565b6117cf9085612479565b9050806117f9565b6117e18542612498565b6117eb9085612479565b6117f59082612337565b9050805b50949350505050565b600080546001600160a01b038381166001600160a01b0319831681178455604051919092169283917f8be0079c531659141344cd1fd0a4f28419497f9722a3daafe3b4186f6b6457e09190a35050565b6118806040518060400160405280600c81526020016b086e4cac2e8ca40d2dcc8caf60a31b815250836114c5565b61188981611aa6565b6001546003546040805160008152602081019091526001600160a01b03928316926339255d5b921690636bc3c20560e11b906118cc908690889060448101612192565b60408051601f19818403018152918152602080830180516001600160e01b03166001600160e01b03199586161790528151600081529081019182905260e086901b90931690526119209291602481016120bb565b600060405180830381600087803b15801561193a57600080fd5b505af115801561194e573d6000803e3d6000fd5b505050506040513d6000823e601f3d908101601f191682016040526119769190810190611d59565b505050565b80516a636f6e736f6c652e6c6f67602083016000808483855afa5050505050565b60015460035486916001600160a01b0390811691634329d2939116630465a56b60e31b8589896119d0633b9aca008b61234f565b6040805160008152602081019091526119f0949392919060448101612150565b60408051601f19818403018152918152602080830180516001600160e01b03166001600160e01b03199586161790528151600081529081019182905260e086901b9093169052611a45929186602482016120fb565b600060405180830381600087803b158015611a5f57600080fd5b505af1158015611a73573d6000803e3d6000fd5b505050506040513d6000823e601f3d908101601f19168201604052611a9b9190810190611d8c565b509695505050505050565b6040516001600160a01b03821660248201526114369060440160408051601f198184030181529190526020810180516001600160e01b031663161765e160e11b17905261197b565b8051801515811461169b57600080fd5b60008083601f840112611b0f578182fd5b50813567ffffffffffffffff811115611b26578182fd5b602083019150836020828501011115611b3e57600080fd5b9250929050565b600082601f830112611b55578081fd5b8151611b68611b63826122e4565b6122b3565b818152846020838601011115611b7c578283fd5b611b8d8260208301602087016124d2565b949350505050565b600060208284031215611ba6578081fd5b8135611bb181612588565b9392505050565b600060208284031215611bc9578081fd5b8151611bb181612588565b60008060408385031215611be6578081fd5b8235611bf181612588565b91506020830135611c0181612588565b809150509250929050565b600060208284031215611c1d578081fd5b611bb182611aee565b60008060008060808587031215611c3b578182fd5b611c4485611aee565b9350611c5260208601611aee565b92506040850151611c628161259d565b6060959095015193969295505050565b60008060008060808587031215611c87578384fd5b611c9085611aee565b93506020850151611ca08161259d565b6040860151909350611cb18161259d565b6060860151909250611cc28161259d565b939692955090935050565b600060208284031215611cde578081fd5b5051919050565b600060208284031215611cf6578081fd5b813567ffffffffffffffff811115611d0c578182fd5b8201601f81018413611d1c578182fd5b8035611d2a611b63826122e4565b818152856020838501011115611d3e578384fd5b81602084016020830137908101602001929092525092915050565b600060208284031215611d6a578081fd5b815167ffffffffffffffff811115611d80578182fd5b611b8d84828501611b45565b60008060408385031215611d9e578182fd5b825167ffffffffffffffff80821115611db5578384fd5b611dc186838701611b45565b93506020850151915080821115611dd6578283fd5b50611de385828601611b45565b9150509250929050565b600080600080600080600060a0888a031215611e07578485fd5b8735611e1281612588565b96506020880135611e2281612588565b955060408801359450606088013567ffffffffffffffff80821115611e45578485fd5b611e518b838c01611afe565b909650945060808a0135915080821115611e69578384fd5b50611e768a828b01611afe565b989b979a50959850939692959293505050565b600080600080600080600080600060c08a8c031215611ea6578283fd5b8935611eb181612588565b985060208a0135611ec181612588565b975060408a0135965060608a013567ffffffffffffffff80821115611ee4578485fd5b611ef08d838e01611afe565b909850965060808c0135915080821115611f08578485fd5b611f148d838e01611afe565b909650945060a08c0135915080821115611f2c578384fd5b50611f398c828d01611afe565b915080935050809150509295985092959850929598565b60008060008060808587031215611f65578182fd5b8435611f7081612588565b93506020850135611f808161259d565b93969395505050506040820135916060013590565b60008060008060808587031215611faa578182fd5b8435611fb581612588565b9350602085013592506040850135611fcc81612588565b9396929550929360600135925050565b600060208284031215611fed578081fd5b5035919050565b60008060008060808587031215612009578182fd5b84519350602085015180600b0b8114612020578283fd5b6040860151606090960151949790965092505050565b60008060408385031215612048578182fd5b823563ffffffff81168114611bf1578283fd5b60006020828403121561206c578081fd5b815160ff81168114611bb1578182fd5b600081518084526120948160208601602086016124d2565b601f01601f19169290920160200192915050565b602081526000611bb1602083018461207c565b6001600160a01b03841681526060602082018190526000906120df9083018561207c565b82810360408401526120f1818561207c565b9695505050505050565b6001600160a01b038516815260806020820181905260009061211f9083018661207c565b8281036040840152612131818661207c565b90508281036060840152612145818561207c565b979650505050505050565b6001600160a01b03868116825260208201869052841660408201526001600160801b038316606082015260a0608082018190526000906121459083018461207c565b60018060a01b03841681528260208201526060604082015260006121b9606083018461207c565b95945050505050565b6040815260006121d5604083018561207c565b905060018060a01b03831660208301529392505050565b6040815260006121ff604083018561207c565b90508260208301529392505050565b6020808252818101527f4f776e61626c653a2063616c6c6572206973206e6f7420746865206f776e6572604082015260600190565b6020808252600f908201526e085bdd5d1c1d5d1058d8d95c1d1959608a1b604082015260600190565b6020808252600e908201526d085a5b9c1d5d1058d8d95c1d195960921b604082015260600190565b602080825260059082015264085a1bdcdd60da1b604082015260600190565b604051601f8201601f1916810167ffffffffffffffff811182821017156122dc576122dc612572565b604052919050565b600067ffffffffffffffff8211156122fe576122fe612572565b50601f01601f191660200190565b60006001600160801b0380831681851680830382111561232e5761232e612546565b01949350505050565b6000821982111561234a5761234a612546565b500190565b60006001600160801b03808416806123695761236961255c565b92169190910492915050565b6000826123845761238461255c565b500490565b600181815b808511156123c45781600019048211156123aa576123aa612546565b808516156123b757918102915b93841c939080029061238e565b509250929050565b6000611bb160ff8416836000826123e557506001612473565b816123f257506000612473565b816001811461240857600281146124125761242e565b6001915050612473565b60ff84111561242357612423612546565b50506001821b612473565b5060208310610133831016604e8410600b8410161715612451575081810a612473565b61245b8383612389565b806000190482111561246f5761246f612546565b0290505b92915050565b600081600019048311821515161561249357612493612546565b500290565b6000828210156124aa576124aa612546565b500390565b600060ff821660ff8416808210156124c9576124c9612546565b90039392505050565b60005b838110156124ed5781810151838201526020016124d5565b838111156124fc576000848401525b50505050565b600063ffffffff8083168181141561251c5761251c612546565b6001019392505050565b600060ff821660ff81141561253d5761253d612546565b60010192915050565b634e487b7160e01b600052601160045260246000fd5b634e487b7160e01b600052601260045260246000fd5b634e487b7160e01b600052604160045260246000fd5b6001600160a01b038116811461143657600080fd5b6001600160801b038116811461143657600080fdfe6d61726b65742e6f7261636c65735b5f7375706572546f6b656e5d2e726571756573744964a26469706673582212206bfebed7cf255a6ee8692daca069795444a74538857360f2780af5b0aa41e3e764736f6c63430008040033",
  "linkReferences": {},
  "deployedLinkReferences": {}
}