{
  "contractName": "SuperfluidGovernanceII",
  "abi": [
    {
      "anonymous": false,
      "inputs": [
        {
          "indexed": true,
          "internalType": "contract ISuperfluid",
          "name": "host",
          "type": "address"
        },
        {
          "indexed": true,
          "internalType": "contract ISuperfluidToken",
          "name": "superToken",
          "type": "address"
        },
        {
          "indexed": false,
          "internalType": "bool",
          "name": "set",
          "type": "bool"
        },
        {
          "indexed": false,
          "internalType": "uint256",
          "name": "liquidationPeriod",
          "type": "uint256"
        }
      ],
      "name": "CFAv1LiquidationPeriodChanged",
      "type": "event"
    },
    {
      "anonymous": false,
      "inputs": [
        {
          "indexed": false,
          "internalType": "bytes32",
          "name": "uuid",
          "type": "bytes32"
        },
        {
          "indexed": false,
          "internalType": "address",
          "name": "codeAddress",
          "type": "address"
        }
      ],
      "name": "CodeUpdated",
      "type": "event"
    },
    {
      "anonymous": false,
      "inputs": [
        {
          "indexed": true,
          "internalType": "contract ISuperfluid",
          "name": "host",
          "type": "address"
        },
        {
          "indexed": true,
          "internalType": "contract ISuperfluidToken",
          "name": "superToken",
          "type": "address"
        },
        {
          "indexed": false,
          "internalType": "bytes32",
          "name": "key",
          "type": "bytes32"
        },
        {
          "indexed": false,
          "internalType": "bool",
          "name": "set",
          "type": "bool"
        },
        {
          "indexed": false,
          "internalType": "uint256",
          "name": "value",
          "type": "uint256"
        }
      ],
      "name": "ConfigChanged",
      "type": "event"
    },
    {
      "anonymous": false,
      "inputs": [
        {
          "indexed": true,
          "internalType": "address",
          "name": "previousOwner",
          "type": "address"
        },
        {
          "indexed": true,
          "internalType": "address",
          "name": "newOwner",
          "type": "address"
        }
      ],
      "name": "OwnershipTransferred",
      "type": "event"
    },
    {
      "anonymous": false,
      "inputs": [
        {
          "indexed": true,
          "internalType": "contract ISuperfluid",
          "name": "host",
          "type": "address"
        },
        {
          "indexed": true,
          "internalType": "contract ISuperfluidToken",
          "name": "superToken",
          "type": "address"
        },
        {
          "indexed": false,
          "internalType": "bool",
          "name": "set",
          "type": "bool"
        },
        {
          "indexed": false,
          "internalType": "address",
          "name": "rewardAddress",
          "type": "address"
        }
      ],
      "name": "RewardAddressChanged",
      "type": "event"
    },
    {
      "anonymous": false,
      "inputs": [
        {
          "indexed": true,
          "internalType": "contract ISuperfluid",
          "name": "host",
          "type": "address"
        },
        {
          "indexed": true,
          "internalType": "contract ISuperfluidToken",
          "name": "superToken",
          "type": "address"
        },
        {
          "indexed": false,
          "internalType": "bool",
          "name": "set",
          "type": "bool"
        },
        {
          "indexed": false,
          "internalType": "address",
          "name": "forwarder",
          "type": "address"
        },
        {
          "indexed": false,
          "internalType": "bool",
          "name": "enabled",
          "type": "bool"
        }
      ],
      "name": "TrustedForwarderChanged",
      "type": "event"
    },
    {
      "inputs": [
        {
          "internalType": "contract ISuperfluid",
          "name": "host",
          "type": "address"
        },
        {
          "internalType": "address",
          "name": "factory",
          "type": "address"
        }
      ],
      "name": "authorizeAppFactory",
      "outputs": [],
      "stateMutability": "nonpayable",
      "type": "function"
    },
    {
      "inputs": [
        {
          "internalType": "contract ISuperfluid",
          "name": "host",
          "type": "address"
        },
        {
          "internalType": "contract ISuperfluidToken",
          "name": "superToken",
          "type": "address"
        }
      ],
      "name": "clearCFAv1LiquidationPeriod",
      "outputs": [],
      "stateMutability": "nonpayable",
      "type": "function"
    },
    {
      "inputs": [
        {
          "internalType": "contract ISuperfluid",
          "name": "host",
          "type": "address"
        },
        {
          "internalType": "contract ISuperfluidToken",
          "name": "superToken",
          "type": "address"
        },
        {
          "internalType": "bytes32",
          "name": "key",
          "type": "bytes32"
        },
        {
          "internalType": "uint256",
          "name": "value",
          "type": "uint256"
        }
      ],
      "name": "setConfig",
      "outputs": [],
      "stateMutability": "nonpayable",
      "type": "function"
    },
    {
      "inputs": [
        {
          "internalType": "contract ISuperfluid",
          "name": "host",
          "type": "address"
        },
        {
          "internalType": "contract ISuperfluidToken",
          "name": "superToken",
          "type": "address"
        }
      ],
      "name": "clearRewardAddress",
      "outputs": [],
      "stateMutability": "nonpayable",
      "type": "function"
    },
    {
      "inputs": [
        {
          "internalType": "contract ISuperfluid",
          "name": "host",
          "type": "address"
        },
        {
          "internalType": "contract ISuperfluidToken",
          "name": "superToken",
          "type": "address"
        },
        {
          "internalType": "address",
          "name": "forwarder",
          "type": "address"
        }
      ],
      "name": "clearTrustedForwarder",
      "outputs": [],
      "stateMutability": "nonpayable",
      "type": "function"
    },
    {
      "inputs": [
        {
          "internalType": "contract ISuperfluid",
          "name": "host",
          "type": "address"
        },
        {
          "internalType": "contract ISuperfluidToken",
          "name": "superToken",
          "type": "address"
        },
        {
          "internalType": "address",
          "name": "forwarder",
          "type": "address"
        }
      ],
      "name": "disableTrustedForwarder",
      "outputs": [],
      "stateMutability": "nonpayable",
      "type": "function"
    },
    {
      "inputs": [
        {
          "internalType": "contract ISuperfluid",
          "name": "host",
          "type": "address"
        },
        {
          "internalType": "contract ISuperfluidToken",
          "name": "superToken",
          "type": "address"
        },
        {
          "internalType": "address",
          "name": "forwarder",
          "type": "address"
        }
      ],
      "name": "enableTrustedForwarder",
      "outputs": [],
      "stateMutability": "nonpayable",
      "type": "function"
    },
    {
      "inputs": [
        {
          "internalType": "contract ISuperfluid",
          "name": "host",
          "type": "address"
        },
        {
          "internalType": "contract ISuperfluidToken",
          "name": "superToken",
          "type": "address"
        }
      ],
      "name": "getCFAv1LiquidationPeriod",
      "outputs": [
        {
          "internalType": "uint256",
          "name": "value",
          "type": "uint256"
        }
      ],
      "stateMutability": "view",
      "type": "function"
    },
    {
      "inputs": [],
      "name": "getCodeAddress",
      "outputs": [
        {
          "internalType": "address",
          "name": "codeAddress",
          "type": "address"
        }
      ],
      "stateMutability": "view",
      "type": "function"
    },
    {
      "inputs": [
        {
          "internalType": "contract ISuperfluid",
          "name": "host",
          "type": "address"
        },
        {
          "internalType": "contract ISuperfluidToken",
          "name": "superToken",
          "type": "address"
        },
        {
          "internalType": "bytes32",
          "name": "key",
          "type": "bytes32"
        }
      ],
      "name": "getConfigAsAddress",
      "outputs": [
        {
          "internalType": "address",
          "name": "value",
          "type": "address"
        }
      ],
      "stateMutability": "view",
      "type": "function"
    },
    {
      "inputs": [
        {
          "internalType": "contract ISuperfluid",
          "name": "host",
          "type": "address"
        },
        {
          "internalType": "contract ISuperfluidToken",
          "name": "superToken",
          "type": "address"
        },
        {
          "internalType": "bytes32",
          "name": "key",
          "type": "bytes32"
        }
      ],
      "name": "getConfigAsUint256",
      "outputs": [
        {
          "internalType": "uint256",
          "name": "period",
          "type": "uint256"
        }
      ],
      "stateMutability": "view",
      "type": "function"
    },
    {
      "inputs": [
        {
          "internalType": "contract ISuperfluid",
          "name": "host",
          "type": "address"
        },
        {
          "internalType": "contract ISuperfluidToken",
          "name": "superToken",
          "type": "address"
        }
      ],
      "name": "getRewardAddress",
      "outputs": [
        {
          "internalType": "address",
          "name": "",
          "type": "address"
        }
      ],
      "stateMutability": "view",
      "type": "function"
    },
    {
      "inputs": [
        {
          "internalType": "contract ISuperfluid",
          "name": "host",
          "type": "address"
        },
        {
          "internalType": "address",
          "name": "factory",
          "type": "address"
        }
      ],
      "name": "isAuthorizedAppFactory",
      "outputs": [
        {
          "internalType": "bool",
          "name": "",
          "type": "bool"
        }
      ],
      "stateMutability": "view",
      "type": "function"
    },
    {
      "inputs": [
        {
          "internalType": "contract ISuperfluid",
          "name": "host",
          "type": "address"
        },
        {
          "internalType": "contract ISuperfluidToken",
          "name": "superToken",
          "type": "address"
        },
        {
          "internalType": "address",
          "name": "forwarder",
          "type": "address"
        }
      ],
      "name": "isTrustedForwarder",
      "outputs": [
        {
          "internalType": "bool",
          "name": "",
          "type": "bool"
        }
      ],
      "stateMutability": "view",
      "type": "function"
    },
    {
      "inputs": [],
      "name": "owner",
      "outputs": [
        {
          "internalType": "address",
          "name": "",
          "type": "address"
        }
      ],
      "stateMutability": "view",
      "type": "function"
    },
    {
      "inputs": [
        {
          "internalType": "contract ISuperfluid",
          "name": "host",
          "type": "address"
        },
        {
          "internalType": "address",
          "name": "agreementClass",
          "type": "address"
        }
      ],
      "name": "registerAgreementClass",
      "outputs": [],
      "stateMutability": "nonpayable",
      "type": "function"
    },
    {
      "inputs": [],
      "name": "renounceOwnership",
      "outputs": [],
      "stateMutability": "nonpayable",
      "type": "function"
    },
    {
      "inputs": [
        {
          "internalType": "contract ISuperfluid",
          "name": "host",
          "type": "address"
        },
        {
          "internalType": "address",
          "name": "newGov",
          "type": "address"
        }
      ],
      "name": "replaceGovernance",
      "outputs": [],
      "stateMutability": "nonpayable",
      "type": "function"
    },
    {
      "inputs": [
        {
          "internalType": "contract ISuperfluid",
          "name": "host",
          "type": "address"
        },
        {
          "internalType": "contract ISuperfluidToken",
          "name": "superToken",
          "type": "address"
        },
        {
          "internalType": "uint256",
          "name": "value",
          "type": "uint256"
        }
      ],
      "name": "setCFAv1LiquidationPeriod",
      "outputs": [],
      "stateMutability": "nonpayable",
      "type": "function"
    },
    {
      "inputs": [
        {
          "internalType": "contract ISuperfluid",
          "name": "host",
          "type": "address"
        },
        {
          "internalType": "contract ISuperfluidToken",
          "name": "superToken",
          "type": "address"
        },
        {
          "internalType": "address",
          "name": "rewardAddress",
          "type": "address"
        }
      ],
      "name": "setRewardAddress",
      "outputs": [],
      "stateMutability": "nonpayable",
      "type": "function"
    },
    {
      "inputs": [
        {
          "internalType": "address",
          "name": "newOwner",
          "type": "address"
        }
      ],
      "name": "transferOwnership",
      "outputs": [],
      "stateMutability": "nonpayable",
      "type": "function"
    },
    {
      "inputs": [
        {
          "internalType": "contract ISuperfluid",
          "name": "host",
          "type": "address"
        },
        {
          "internalType": "address",
          "name": "factory",
          "type": "address"
        }
      ],
      "name": "unauthorizeAppFactory",
      "outputs": [],
      "stateMutability": "nonpayable",
      "type": "function"
    },
    {
      "inputs": [
        {
          "internalType": "contract ISuperfluid",
          "name": "host",
          "type": "address"
        },
        {
          "internalType": "address",
          "name": "hostNewLogic",
          "type": "address"
        },
        {
          "internalType": "address[]",
          "name": "agreementClassNewLogics",
          "type": "address[]"
        },
        {
          "internalType": "address",
          "name": "superTokenFactoryNewLogic",
          "type": "address"
        }
      ],
      "name": "updateContracts",
      "outputs": [],
      "stateMutability": "nonpayable",
      "type": "function"
    },
    {
      "inputs": [
        {
          "internalType": "contract ISuperfluid",
          "name": "host",
          "type": "address"
        },
        {
          "internalType": "contract ISuperToken",
          "name": "token",
          "type": "address"
        }
      ],
      "name": "updateSuperTokenLogic",
      "outputs": [],
      "stateMutability": "nonpayable",
      "type": "function"
    },
    {
      "inputs": [
        {
          "internalType": "contract ISuperfluid",
          "name": "host",
          "type": "address"
        },
        {
          "internalType": "bytes32",
          "name": "key",
          "type": "bytes32"
        }
      ],
      "name": "whiteListNewApp",
      "outputs": [],
      "stateMutability": "nonpayable",
      "type": "function"
    },
    {
      "inputs": [],
      "name": "proxiableUUID",
      "outputs": [
        {
          "internalType": "bytes32",
          "name": "",
          "type": "bytes32"
        }
      ],
      "stateMutability": "pure",
      "type": "function"
    },
    {
      "inputs": [
        {
          "internalType": "address",
          "name": "newAddress",
          "type": "address"
        }
      ],
      "name": "updateCode",
      "outputs": [],
      "stateMutability": "nonpayable",
      "type": "function"
    }
  ],
  "bytecode": "0x608060405234801561001057600080fd5b50600061001b61006a565b600080546001600160a01b0319166001600160a01b0383169081178255604051929350917f8be0079c531659141344cd1fd0a4f28419497f9722a3daafe3b4186f6b6457e0908290a35061006e565b3390565b6115ee8061007d6000396000f3fe608060405234801561001057600080fd5b506004361061018e5760003560e01c80638369a0f1116100de578063ab846f1a11610097578063e447cc1d11610071578063e447cc1d146105ad578063f047a2d9146105db578063f2fde38b14610613578063fa6e0cfe146106395761018e565b8063ab846f1a14610519578063af8f7a6114610551578063cadf8f851461057f5761018e565b80638369a0f1146104255780638abe04e91461043b5780638b93b3f51461047d5780638ce93379146104ab5780638da5cb5b146104e35780638e6fce95146104eb5761018e565b8063469519541161014b57806352d1902d1161012557806352d1902d14610395578063715018a6146103af5780637dce4f81146103b757806380f70cba146103ef5761018e565b8063469519541461033157806346bdec541461035757806350d75d251461038d5761018e565b806317dcabbf1461019357806319df62ab146101c157806325c955c31461020b5780633255290814610239578063427942a41461027157806344864b2514610303575b600080fd5b6101bf600480360360408110156101a957600080fd5b506001600160a01b038135169060200135610667565b005b6101ef600480360360408110156101d757600080fd5b506001600160a01b0381358116916020013516610679565b604080516001600160a01b039092168252519081900360200190f35b6101bf6004803603604081101561022157600080fd5b506001600160a01b03813581169160200135166106ad565b6101bf6004803603606081101561024f57600080fd5b506001600160a01b0381358116916020810135821691604090910135166106c1565b6101bf6004803603608081101561028757600080fd5b6001600160a01b0382358116926020810135909116918101906060810160408201356401000000008111156102bb57600080fd5b8201836020820111156102cd57600080fd5b803590602001918460208302840111640100000000831117156102ef57600080fd5b9193509150356001600160a01b031661073d565b6101bf6004803603604081101561031957600080fd5b506001600160a01b03813581169160200135166108d6565b6101bf6004803603602081101561034757600080fd5b50356001600160a01b031661094c565b6101bf6004803603606081101561036d57600080fd5b506001600160a01b03813581169160208101359091169060400135610960565b6101ef6109d8565b61039d6109e7565b60408051918252519081900360200190f35b6101bf610a0b565b6101bf600480360360608110156103cd57600080fd5b506001600160a01b038135811691602081013582169160409091013516610ac9565b61039d6004803603606081101561040557600080fd5b506001600160a01b03813581169160208101359091169060400135610b35565b6101ef6004803603606081101561040557600080fd5b6104696004803603604081101561045157600080fd5b506001600160a01b0381358116916020013516610ba6565b604080519115158252519081900360200190f35b6101bf6004803603604081101561049357600080fd5b506001600160a01b0381358116916020013516610bc6565b6101bf600480360360608110156104c157600080fd5b506001600160a01b038135811691602081013582169160409091013516610c1b565b6101ef610c7d565b61039d6004803603604081101561050157600080fd5b506001600160a01b0381358116916020013516610c8c565b6101bf6004803603606081101561052f57600080fd5b506001600160a01b038135811691602081013582169160409091013516610cb9565b6101bf6004803603604081101561056757600080fd5b506001600160a01b0381358116916020013516610d20565b6101bf6004803603604081101561059557600080fd5b506001600160a01b0381358116916020013516610d96565b6101bf600480360360408110156105c357600080fd5b506001600160a01b0381358116916020013516610def565b610469600480360360608110156105f157600080fd5b506001600160a01b038135811691602081013582169160409091013516610e65565b6101bf6004803603602081101561062957600080fd5b50356001600160a01b0316610e80565b6101bf6004803603604081101561064f57600080fd5b506001600160a01b0381358116916020013516610f94565b610675826000836001610fed565b5050565b60006106a683837f9f60ae461adf056670e03ae602566409933242392cb06744f5747c9f38b05d09610b35565b9392505050565b6106758260006106bc8461109f565b6110f4565b60408051600181526001600160a01b038381166020830152825181861693918716927f14e12f219a4f9023456dc7832e10119ab768b8ccefc8cb79bc6de0419781eeeb92908290030190a361073883837f9f60ae461adf056670e03ae602566409933242392cb06744f5747c9f38b05d09846111a4565b505050565b8461074781611259565b6001600160a01b038516156107be57856001600160a01b03166346951954866040518263ffffffff1660e01b815260040180826001600160a01b03168152602001915050600060405180830381600087803b1580156107a557600080fd5b505af11580156107b9573d6000803e3d6000fd5b505050505b60005b8381101561085657866001600160a01b03166306cecba88686848181106107e457fe5b905060200201356001600160a01b03166040518263ffffffff1660e01b815260040180826001600160a01b03168152602001915050600060405180830381600087803b15801561083357600080fd5b505af1158015610847573d6000803e3d6000fd5b505050508060010190506107c1565b506001600160a01b038216156108ce57856001600160a01b03166354fbc493836040518263ffffffff1660e01b815260040180826001600160a01b03168152602001915050600060405180830381600087803b1580156108b557600080fd5b505af11580156108c9573d6000803e3d6000fd5b505050505b505050505050565b816108e081611259565b826001600160a01b0316637283100c836040518263ffffffff1660e01b815260040180826001600160a01b03168152602001915050600060405180830381600087803b15801561092f57600080fd5b505af1158015610943573d6000803e3d6000fd5b50505050505050565b61095461125d565b61095d816112bd565b50565b60408051600181526020810183905281516001600160a01b0380861693908716927f3cbad89c3bb0ff70e832f6d6fa458ff3f5487e8156ec52e8814c46c59e919289929081900390910190a361073883837f1ca463a216b802472396d1b8a5b5b695d935b1d24311e89b020144e6613f15aa84610fed565b60006109e2611420565b905090565b7f42262e3b6ca1f8f82e158e1ac4ddf4e6273aa6499266ae17bcaceb238305423990565b610a13611445565b6001600160a01b0316610a24610c7d565b6001600160a01b031614610a7f576040805162461bcd60e51b815260206004820181905260248201527f4f776e61626c653a2063616c6c6572206973206e6f7420746865206f776e6572604482015290519081900360640190fd5b600080546040516001600160a01b03909116907f8be0079c531659141344cd1fd0a4f28419497f9722a3daafe3b4186f6b6457e0908390a3600080546001600160a01b0319169055565b610ade8383610ad784611449565b6000610fed565b60408051600181526001600160a01b0383811660208301526000828401529151828516928616917f168da2dec91b2e06e30d49955479383e76f71ba185807a8a5b75e2ed563e1d27919081900360600190a3505050565b6001600160a01b03808416600090815260016020908152604080832093861683529281528282208483529052908120805460ff16610b9a57506001600160a01b0384166000908152600160209081526040808320838052825280832085845290915290205b60010154949350505050565b6000610bbc836000610bb78561109f565b610b35565b6001149392505050565b803b80610c045760405162461bcd60e51b81526004018080602001828103825260218152602001806114e66021913960400191505060405180910390fd5b50610675826000610c148461109f565b6001610fed565b6040805160008082526001600160a01b038481166020840152828401919091529151828516928616917f168da2dec91b2e06e30d49955479383e76f71ba185807a8a5b75e2ed563e1d27919081900360600190a361073883836106bc84611449565b6000546001600160a01b031690565b60006106a683837f1ca463a216b802472396d1b8a5b5b695d935b1d24311e89b020144e6613f15aa610b35565b610cc78383610c1484611449565b6040805160018082526001600160a01b038481166020840152828401919091529151828516928616917f168da2dec91b2e06e30d49955479383e76f71ba185807a8a5b75e2ed563e1d27919081900360600190a3505050565b604080516000808252602082015281516001600160a01b0380851693908616927f3cbad89c3bb0ff70e832f6d6fa458ff3f5487e8156ec52e8814c46c59e919289929081900390910190a361067582827f1ca463a216b802472396d1b8a5b5b695d935b1d24311e89b020144e6613f15aa6110f4565b81610da081611259565b826001600160a01b03166315a024e1836040518263ffffffff1660e01b815260040180826001600160a01b03168152602001915050600060405180830381600087803b15801561092f57600080fd5b604080516000808252602082015281516001600160a01b0380851693908616927f14e12f219a4f9023456dc7832e10119ab768b8ccefc8cb79bc6de0419781eeeb929081900390910190a361067582827f9f60ae461adf056670e03ae602566409933242392cb06744f5747c9f38b05d096110f4565b6000610e758484610bb785611449565b600114949350505050565b610e88611445565b6001600160a01b0316610e99610c7d565b6001600160a01b031614610ef4576040805162461bcd60e51b815260206004820181905260248201527f4f776e61626c653a2063616c6c6572206973206e6f7420746865206f776e6572604482015290519081900360640190fd5b6001600160a01b038116610f395760405162461bcd60e51b81526004018080602001828103825260268152602001806115076026913960400191505060405180910390fd5b600080546040516001600160a01b03808516939216917f8be0079c531659141344cd1fd0a4f28419497f9722a3daafe3b4186f6b6457e091a3600080546001600160a01b0319166001600160a01b0392909216919091179055565b81610f9e81611259565b826001600160a01b031663787afde7836040518263ffffffff1660e01b815260040180826001600160a01b03168152602001915050600060405180830381600087803b15801561092f57600080fd5b83610ff781611259565b604080518481526001602082015280820184905290516001600160a01b0380871692908816917f33afe19ae6902b933890ff48190fabdc4cf7f5ab499be9c4d9d98e3b4562e3909181900360600190a350604080518082018252600180825260208083019485526001600160a01b039788166000908152828252848120979098168852958652828720948752939094529093209151825460ff19169015151782559151910155565b6000816040516020018080602001836001600160a01b031681526020018281038252603981526020018061152d6039913960400192505050604051602081830303815290604052805190602001209050919050565b826110fe81611259565b604080518381526000602082018190528183015290516001600160a01b0380861692908716917f33afe19ae6902b933890ff48190fabdc4cf7f5ab499be9c4d9d98e3b4562e3909181900360600190a350604080518082018252600080825260208083018281526001600160a01b03978816835260018083528584209790981683529581528382209482529390935291209051815460ff19169015151781559051910155565b836111ae81611259565b60408051848152600160208201526001600160a01b03848116828401529151828716928816917f33afe19ae6902b933890ff48190fabdc4cf7f5ab499be9c4d9d98e3b4562e390919081900360600190a35060408051808201825260018082526001600160a01b03938416602080840191825297851660009081528289528481209790951685529587528284209484529390955290209251835460ff19169015151783559051910155565b61095d5b611265611445565b6001600160a01b0316611276610c7d565b6001600160a01b0316146112bb5760405162461bcd60e51b81526004018080602001828103825260218152602001806115986021913960400191505060405180910390fd5b565b60006112c7611420565b6001600160a01b03161415611323576040805162461bcd60e51b815260206004820152601d60248201527f5555505350726f786961626c653a206e6f742075706772616461626c65000000604482015290519081900360640190fd5b806001600160a01b03166352d1902d6040518163ffffffff1660e01b815260040160206040518083038186803b15801561135c57600080fd5b505afa158015611370573d6000803e3d6000fd5b505050506040513d602081101561138657600080fd5b50516113906109e7565b146113cc5760405162461bcd60e51b81526004018080602001828103825260238152602001806114c36023913960400191505060405180910390fd5b6113d58161149e565b7fe011bc04c286c344a8fcbb8de77f953da762c3e25d8cdea984147fc4168a5dcc6113fe6109e7565b604080519182526001600160a01b03841660208301528051918290030190a150565b7f360894a13ba1a3210667c828492db98dca3e2076cc3735a920a3ca505d382bbc5490565b3390565b6000816040516020018080602001836001600160a01b03168152602001828103825260328152602001806115666032913960400192505050604051602081830303815290604052805190602001209050919050565b7f360894a13ba1a3210667c828492db98dca3e2076cc3735a920a3ca505d382bbc5556fe5555505350726f786961626c653a206e6f7420636f6d70617469626c65206c6f6769635346476f763a20666163746f7279206d757374206265206120636f6e74726163744f776e61626c653a206e6577206f776e657220697320746865207a65726f20616464726573736f72672e7375706572666c7569642d66696e616e63652e7375706572666c7569642e61707057686974654c697374696e672e666163746f72796f72672e7375706572666c7569642d66696e616e63652e7375706572666c7569642e74727573746564466f727761726465725346476f7649493a206f6e6c79206f776e657220697320617574686f72697a6564a2646970667358221220c964737b27d94f31b9b29b86a59ad6b56bfbf17b24b20f4a6903762c7918a21164736f6c63430007060033",
  "immutableReferences": {},
  "source": "// SPDX-License-Identifier: AGPLv3\npragma solidity 0.7.6;\n\nimport { UUPSProxy } from \"../upgradability/UUPSProxy.sol\";\nimport { Ownable } from \"@openzeppelin/contracts/access/Ownable.sol\";\nimport { UUPSProxiable } from \"../upgradability/UUPSProxiable.sol\";\nimport { SuperfluidGovernanceBase } from \"./SuperfluidGovernanceBase.sol\";\nimport { ISuperfluid } from \"../interfaces/superfluid/ISuperfluid.sol\";\n\n/**\n * @dev A proxy for governance which is both ownable and upgradable\n * IMPORTANT! Make sure the inheritance order remains in sync with the logic contract (Ownable first)!\n */\n// solhint-disable-next-line no-empty-blocks\ncontract SuperfluidGovernanceIIProxy is Ownable, UUPSProxy { }\n\ncontract SuperfluidGovernanceII is\n    Ownable,\n    UUPSProxiable,\n    SuperfluidGovernanceBase\n{\n    function _requireAuthorised() private view {\n        require(owner() == _msgSender(), \"SFGovII: only owner is authorized\");\n    }\n\n    /**************************************************************************\n    * UUPSProxiable\n    **************************************************************************/\n\n    // TODO: do we need initialize() here?\n\n    function proxiableUUID() public pure override returns (bytes32) {\n        return keccak256(\"org.superfluid-finance.contracts.SuperfluidGovernanceII.implementation\");\n    }\n\n    function updateCode(address newAddress)\n        external override\n    {\n        _requireAuthorised();\n        _updateCodeAddress(newAddress);\n    }\n\n    /**************************************************************************\n    * SuperfluidGovernanceBase\n    **************************************************************************/\n\n    function _requireAuthorised(ISuperfluid /*host*/)\n        internal view override\n    {\n        _requireAuthorised();\n    }\n}\n",
  "sourcePath": "/home/juiroy/projects/sfxdx/protocol-monorepo/packages/ethereum-contracts/contracts/gov/SuperfluidGovernanceII.sol",
  "compiler": {
    "name": "solc",
    "version": "0.7.6+commit.7338295f.Emscripten.clang"
  },
  "schemaVersion": "3.4.3",
  "updatedAt": "2021-10-03T18:05:07.168Z",
  "devdoc": {
    "kind": "dev",
    "methods": {
      "authorizeAppFactory(address,address)": {
        "details": "allows the given factory to register new apps without requiring onetime keys",
        "params": {
          "factory": "must be an initialized contract"
        }
      },
      "getCodeAddress()": {
        "details": "Get current implementation code address."
      },
      "getConfigAsAddress(address,address,bytes32)": {
        "details": "Get configuration as address value"
      },
      "getConfigAsUint256(address,address,bytes32)": {
        "details": "Get configuration as uint256 value"
      },
      "isAuthorizedAppFactory(address,address)": {
        "details": "tells if the given factory is authorized to register apps"
      },
      "owner()": {
        "details": "Returns the address of the current owner."
      },
      "proxiableUUID()": {
        "details": "Proxiable UUID marker function.      This would help to avoid wrong logic contract to be used for upgrading."
      },
      "registerAgreementClass(address,address)": {
        "details": "Register a new agreement class"
      },
      "renounceOwnership()": {
        "details": "Leaves the contract without owner. It will not be possible to call `onlyOwner` functions anymore. Can only be called by the current owner. NOTE: Renouncing ownership will leave the contract without an owner, thereby removing any functionality that is only available to the owner."
      },
      "replaceGovernance(address,address)": {
        "details": "Replace the current governance with a new governance"
      },
      "transferOwnership(address)": {
        "details": "Transfers ownership of the contract to a new account (`newOwner`). Can only be called by the current owner."
      },
      "unauthorizeAppFactory(address,address)": {
        "details": "withdraws authorization from a factory to register new apps. Doesn't affect apps previously registered by the factory."
      },
      "updateContracts(address,address,address[],address)": {
        "details": "Update logics of the contracts NOTE: - Because they might have inter-dependencies, it is good to have one single function to update them all"
      },
      "updateSuperTokenLogic(address,address)": {
        "details": "Update supertoken logic contract to the latest that is managed by the super token factory"
      },
      "whiteListNewApp(address,bytes32)": {
        "details": "Whitelist a new app using a onetime key",
        "params": {
          "key": "is a deployer specific hash key which can be used once to register an app NOTE: To generate the key, use the SuperfluidGovernanceConfigs.getAppRegistrationConfigKey offchain."
        }
      }
    },
    "version": 1
  },
  "userdoc": {
    "kind": "user",
    "methods": {},
    "version": 1
  }
}