{
  "_format": "hh-sol-artifact-1",
  "contractName": "REXOneWayMarket",
  "sourceName": "contracts/REXOneWayMarket.sol",
  "abi": [
    {
      "inputs": [
        {
          "internalType": "address",
          "name": "_owner",
          "type": "address"
        },
        {
          "internalType": "contract ISuperfluid",
          "name": "_host",
          "type": "address"
        },
        {
          "internalType": "contract IConstantFlowAgreementV1",
          "name": "_cfa",
          "type": "address"
        },
        {
          "internalType": "contract IInstantDistributionAgreementV1",
          "name": "_ida",
          "type": "address"
        },
        {
          "internalType": "string",
          "name": "_registrationKey",
          "type": "string"
        },
        {
          "internalType": "contract IREXReferral",
          "name": "_rexReferral",
          "type": "address"
        }
      ],
      "stateMutability": "nonpayable",
      "type": "constructor"
    },
    {
      "anonymous": false,
      "inputs": [
        {
          "indexed": false,
          "internalType": "uint256",
          "name": "totalAmount",
          "type": "uint256"
        },
        {
          "indexed": false,
          "internalType": "uint256",
          "name": "feeCollected",
          "type": "uint256"
        },
        {
          "indexed": false,
          "internalType": "address",
          "name": "token",
          "type": "address"
        }
      ],
      "name": "Distribution",
      "type": "event"
    },
    {
      "anonymous": false,
      "inputs": [
        {
          "indexed": true,
          "internalType": "address",
          "name": "previousOwner",
          "type": "address"
        },
        {
          "indexed": true,
          "internalType": "address",
          "name": "newOwner",
          "type": "address"
        }
      ],
      "name": "OwnershipTransferred",
      "type": "event"
    },
    {
      "inputs": [
        {
          "internalType": "contract ISuperToken",
          "name": "_token",
          "type": "address"
        },
        {
          "internalType": "uint128",
          "name": "_feeRate",
          "type": "uint128"
        },
        {
          "internalType": "uint256",
          "name": "_emissionRate",
          "type": "uint256"
        },
        {
          "internalType": "uint256",
          "name": "_requestId",
          "type": "uint256"
        }
      ],
      "name": "addOutputPool",
      "outputs": [],
      "stateMutability": "nonpayable",
      "type": "function"
    },
    {
      "inputs": [
        {
          "internalType": "contract ISuperToken",
          "name": "_superToken",
          "type": "address"
        },
        {
          "internalType": "address",
          "name": "_agreementClass",
          "type": "address"
        },
        {
          "internalType": "bytes32",
          "name": "",
          "type": "bytes32"
        },
        {
          "internalType": "bytes",
          "name": "_agreementData",
          "type": "bytes"
        },
        {
          "internalType": "bytes",
          "name": "",
          "type": "bytes"
        },
        {
          "internalType": "bytes",
          "name": "_ctx",
          "type": "bytes"
        }
      ],
      "name": "afterAgreementCreated",
      "outputs": [
        {
          "internalType": "bytes",
          "name": "_newCtx",
          "type": "bytes"
        }
      ],
      "stateMutability": "nonpayable",
      "type": "function"
    },
    {
      "inputs": [
        {
          "internalType": "contract ISuperToken",
          "name": "_superToken",
          "type": "address"
        },
        {
          "internalType": "address",
          "name": "_agreementClass",
          "type": "address"
        },
        {
          "internalType": "bytes32",
          "name": "",
          "type": "bytes32"
        },
        {
          "internalType": "bytes",
          "name": "_agreementData",
          "type": "bytes"
        },
        {
          "internalType": "bytes",
          "name": "_cbdata",
          "type": "bytes"
        },
        {
          "internalType": "bytes",
          "name": "_ctx",
          "type": "bytes"
        }
      ],
      "name": "afterAgreementTerminated",
      "outputs": [
        {
          "internalType": "bytes",
          "name": "_newCtx",
          "type": "bytes"
        }
      ],
      "stateMutability": "nonpayable",
      "type": "function"
    },
    {
      "inputs": [
        {
          "internalType": "contract ISuperToken",
          "name": "_superToken",
          "type": "address"
        },
        {
          "internalType": "address",
          "name": "_agreementClass",
          "type": "address"
        },
        {
          "internalType": "bytes32",
          "name": "",
          "type": "bytes32"
        },
        {
          "internalType": "bytes",
          "name": "_agreementData",
          "type": "bytes"
        },
        {
          "internalType": "bytes",
          "name": "_cbdata",
          "type": "bytes"
        },
        {
          "internalType": "bytes",
          "name": "_ctx",
          "type": "bytes"
        }
      ],
      "name": "afterAgreementUpdated",
      "outputs": [
        {
          "internalType": "bytes",
          "name": "_newCtx",
          "type": "bytes"
        }
      ],
      "stateMutability": "nonpayable",
      "type": "function"
    },
    {
      "inputs": [
        {
          "internalType": "contract ISuperToken",
          "name": "_superToken",
          "type": "address"
        },
        {
          "internalType": "address",
          "name": "_agreementClass",
          "type": "address"
        },
        {
          "internalType": "bytes32",
          "name": "",
          "type": "bytes32"
        },
        {
          "internalType": "bytes",
          "name": "_agreementData",
          "type": "bytes"
        },
        {
          "internalType": "bytes",
          "name": "",
          "type": "bytes"
        }
      ],
      "name": "beforeAgreementCreated",
      "outputs": [
        {
          "internalType": "bytes",
          "name": "_cbdata",
          "type": "bytes"
        }
      ],
      "stateMutability": "view",
      "type": "function"
    },
    {
      "inputs": [
        {
          "internalType": "contract ISuperToken",
          "name": "_superToken",
          "type": "address"
        },
        {
          "internalType": "address",
          "name": "_agreementClass",
          "type": "address"
        },
        {
          "internalType": "bytes32",
          "name": "",
          "type": "bytes32"
        },
        {
          "internalType": "bytes",
          "name": "_agreementData",
          "type": "bytes"
        },
        {
          "internalType": "bytes",
          "name": "",
          "type": "bytes"
        }
      ],
      "name": "beforeAgreementTerminated",
      "outputs": [
        {
          "internalType": "bytes",
          "name": "_cbdata",
          "type": "bytes"
        }
      ],
      "stateMutability": "view",
      "type": "function"
    },
    {
      "inputs": [
        {
          "internalType": "contract ISuperToken",
          "name": "_superToken",
          "type": "address"
        },
        {
          "internalType": "address",
          "name": "_agreementClass",
          "type": "address"
        },
        {
          "internalType": "bytes32",
          "name": "",
          "type": "bytes32"
        },
        {
          "internalType": "bytes",
          "name": "_agreementData",
          "type": "bytes"
        },
        {
          "internalType": "bytes",
          "name": "_ctx",
          "type": "bytes"
        }
      ],
      "name": "beforeAgreementUpdated",
      "outputs": [
        {
          "internalType": "bytes",
          "name": "_cbdata",
          "type": "bytes"
        }
      ],
      "stateMutability": "view",
      "type": "function"
    },
    {
      "inputs": [
        {
          "internalType": "bytes",
          "name": "ctx",
          "type": "bytes"
        }
      ],
      "name": "distribute",
      "outputs": [
        {
          "internalType": "bytes",
          "name": "newCtx",
          "type": "bytes"
        }
      ],
      "stateMutability": "nonpayable",
      "type": "function"
    },
    {
      "inputs": [
        {
          "internalType": "address",
          "name": "streamer",
          "type": "address"
        }
      ],
      "name": "emergencyCloseStream",
      "outputs": [],
      "stateMutability": "nonpayable",
      "type": "function"
    },
    {
      "inputs": [],
      "name": "emergencyDrain",
      "outputs": [],
      "stateMutability": "nonpayable",
      "type": "function"
    },
    {
      "inputs": [
        {
          "internalType": "uint256",
          "name": "_requestId",
          "type": "uint256"
        }
      ],
      "name": "getCurrentValue",
      "outputs": [
        {
          "internalType": "bool",
          "name": "_ifRetrieve",
          "type": "bool"
        },
        {
          "internalType": "uint256",
          "name": "_value",
          "type": "uint256"
        },
        {
          "internalType": "uint256",
          "name": "_timestampRetrieved",
          "type": "uint256"
        }
      ],
      "stateMutability": "view",
      "type": "function"
    },
    {
      "inputs": [
        {
          "internalType": "uint32",
          "name": "_index",
          "type": "uint32"
        }
      ],
      "name": "getEmissionRate",
      "outputs": [
        {
          "internalType": "uint256",
          "name": "",
          "type": "uint256"
        }
      ],
      "stateMutability": "view",
      "type": "function"
    },
    {
      "inputs": [
        {
          "internalType": "uint32",
          "name": "_index",
          "type": "uint32"
        }
      ],
      "name": "getFeeRate",
      "outputs": [
        {
          "internalType": "uint128",
          "name": "",
          "type": "uint128"
        }
      ],
      "stateMutability": "view",
      "type": "function"
    },
    {
      "inputs": [
        {
          "internalType": "uint32",
          "name": "_index",
          "type": "uint32"
        },
        {
          "internalType": "address",
          "name": "_streamer",
          "type": "address"
        }
      ],
      "name": "getIDAShares",
      "outputs": [
        {
          "internalType": "bool",
          "name": "_exist",
          "type": "bool"
        },
        {
          "internalType": "bool",
          "name": "_approved",
          "type": "bool"
        },
        {
          "internalType": "uint128",
          "name": "_units",
          "type": "uint128"
        },
        {
          "internalType": "uint256",
          "name": "_pendingDistribution",
          "type": "uint256"
        }
      ],
      "stateMutability": "view",
      "type": "function"
    },
    {
      "inputs": [],
      "name": "getInputToken",
      "outputs": [
        {
          "internalType": "contract ISuperToken",
          "name": "",
          "type": "address"
        }
      ],
      "stateMutability": "view",
      "type": "function"
    },
    {
      "inputs": [],
      "name": "getLastDistributionAt",
      "outputs": [
        {
          "internalType": "uint256",
          "name": "",
          "type": "uint256"
        }
      ],
      "stateMutability": "view",
      "type": "function"
    },
    {
      "inputs": [
        {
          "internalType": "contract ISuperToken",
          "name": "token",
          "type": "address"
        }
      ],
      "name": "getOracleInfo",
      "outputs": [
        {
          "components": [
            {
              "internalType": "uint256",
              "name": "requestId",
              "type": "uint256"
            },
            {
              "internalType": "uint256",
              "name": "usdPrice",
              "type": "uint256"
            },
            {
              "internalType": "uint256",
              "name": "lastUpdatedAt",
              "type": "uint256"
            }
          ],
          "internalType": "struct REXMarket.OracleInfo",
          "name": "",
          "type": "tuple"
        }
      ],
      "stateMutability": "view",
      "type": "function"
    },
    {
      "inputs": [
        {
          "internalType": "uint32",
          "name": "_index",
          "type": "uint32"
        }
      ],
      "name": "getOuputPool",
      "outputs": [
        {
          "components": [
            {
              "internalType": "contract ISuperToken",
              "name": "token",
              "type": "address"
            },
            {
              "internalType": "uint128",
              "name": "feeRate",
              "type": "uint128"
            },
            {
              "internalType": "uint256",
              "name": "emissionRate",
              "type": "uint256"
            }
          ],
          "internalType": "struct REXMarket.OutputPool",
          "name": "",
          "type": "tuple"
        }
      ],
      "stateMutability": "view",
      "type": "function"
    },
    {
      "inputs": [],
      "name": "getRateTolerance",
      "outputs": [
        {
          "internalType": "uint256",
          "name": "",
          "type": "uint256"
        }
      ],
      "stateMutability": "view",
      "type": "function"
    },
    {
      "inputs": [
        {
          "internalType": "address",
          "name": "_streamer",
          "type": "address"
        },
        {
          "internalType": "contract ISuperToken",
          "name": "_token",
          "type": "address"
        }
      ],
      "name": "getStreamRate",
      "outputs": [
        {
          "internalType": "int96",
          "name": "_requesterFlowRate",
          "type": "int96"
        }
      ],
      "stateMutability": "view",
      "type": "function"
    },
    {
      "inputs": [],
      "name": "getTellorOracle",
      "outputs": [
        {
          "internalType": "address",
          "name": "",
          "type": "address"
        }
      ],
      "stateMutability": "view",
      "type": "function"
    },
    {
      "inputs": [],
      "name": "getTotalInflow",
      "outputs": [
        {
          "internalType": "int96",
          "name": "",
          "type": "int96"
        }
      ],
      "stateMutability": "view",
      "type": "function"
    },
    {
      "inputs": [
        {
          "internalType": "contract ISuperToken",
          "name": "_inputToken",
          "type": "address"
        },
        {
          "internalType": "uint256",
          "name": "_rateTolerance",
          "type": "uint256"
        },
        {
          "internalType": "contract ITellor",
          "name": "_tellor",
          "type": "address"
        },
        {
          "internalType": "uint256",
          "name": "_inputTokenRequestId",
          "type": "uint256"
        },
        {
          "internalType": "uint128",
          "name": "_affiliateFee",
          "type": "uint128"
        },
        {
          "internalType": "uint128",
          "name": "_feeRate",
          "type": "uint128"
        }
      ],
      "name": "initializeMarket",
      "outputs": [],
      "stateMutability": "nonpayable",
      "type": "function"
    },
    {
      "inputs": [
        {
          "internalType": "contract IUniswapV2Router02",
          "name": "_router",
          "type": "address"
        },
        {
          "internalType": "contract ITellor",
          "name": "_tellor",
          "type": "address"
        },
        {
          "internalType": "contract ISuperToken",
          "name": "_inputToken",
          "type": "address"
        },
        {
          "internalType": "uint256",
          "name": "_rateTolerance",
          "type": "uint256"
        },
        {
          "internalType": "uint256",
          "name": "_inputTokenRequestId",
          "type": "uint256"
        },
        {
          "internalType": "contract ISuperToken",
          "name": "_outputToken",
          "type": "address"
        },
        {
          "internalType": "uint128",
          "name": "_feeRate",
          "type": "uint128"
        },
        {
          "internalType": "uint256",
          "name": "_ouptutTokenRequestId",
          "type": "uint256"
        }
      ],
      "name": "initializeOneWayMarket",
      "outputs": [],
      "stateMutability": "nonpayable",
      "type": "function"
    },
    {
      "inputs": [],
      "name": "isAppJailed",
      "outputs": [
        {
          "internalType": "bool",
          "name": "",
          "type": "bool"
        }
      ],
      "stateMutability": "view",
      "type": "function"
    },
    {
      "inputs": [],
      "name": "owner",
      "outputs": [
        {
          "internalType": "address",
          "name": "",
          "type": "address"
        }
      ],
      "stateMutability": "view",
      "type": "function"
    },
    {
      "inputs": [],
      "name": "renounceOwnership",
      "outputs": [],
      "stateMutability": "nonpayable",
      "type": "function"
    },
    {
      "inputs": [
        {
          "internalType": "uint32",
          "name": "_index",
          "type": "uint32"
        },
        {
          "internalType": "uint128",
          "name": "_emissionRate",
          "type": "uint128"
        }
      ],
      "name": "setEmissionRate",
      "outputs": [],
      "stateMutability": "nonpayable",
      "type": "function"
    },
    {
      "inputs": [
        {
          "internalType": "uint32",
          "name": "_index",
          "type": "uint32"
        },
        {
          "internalType": "uint128",
          "name": "_feeRate",
          "type": "uint128"
        }
      ],
      "name": "setFeeRate",
      "outputs": [],
      "stateMutability": "nonpayable",
      "type": "function"
    },
    {
      "inputs": [
        {
          "internalType": "uint256",
          "name": "_rate",
          "type": "uint256"
        }
      ],
      "name": "setRateTolerance",
      "outputs": [],
      "stateMutability": "nonpayable",
      "type": "function"
    },
    {
      "inputs": [
        {
          "internalType": "address",
          "name": "_router",
          "type": "address"
        }
      ],
      "name": "setRouter",
      "outputs": [],
      "stateMutability": "nonpayable",
      "type": "function"
    },
    {
      "inputs": [
        {
          "internalType": "address",
          "name": "newOwner",
          "type": "address"
        }
      ],
      "name": "transferOwnership",
      "outputs": [],
      "stateMutability": "nonpayable",
      "type": "function"
    },
    {
      "inputs": [
        {
          "internalType": "contract ISuperToken",
          "name": "_token",
          "type": "address"
        }
      ],
      "name": "updateTokenPrice",
      "outputs": [],
      "stateMutability": "nonpayable",
      "type": "function"
    },
    {
      "inputs": [],
      "name": "updateTokenPrices",
      "outputs": [],
      "stateMutability": "nonpayable",
      "type": "function"
    }
  ],
  "bytecode": "0x60806040523480156200001157600080fd5b50604051620055ae380380620055ae8339810160408190526200003491620002be565b858585858585620000453362000187565b600180546001600160a01b038088166001600160a01b0319928316179092556002805487841690831617905560038054868416908316179055600e8054928416929091169190911790556200009a86620001d7565b815160019015620001135760015460405163bd1c448b60e01b81526001600160a01b039091169063bd1c448b90620000d99084908790600401620003dc565b600060405180830381600087803b158015620000f457600080fd5b505af115801562000109573d6000803e3d6000fd5b5050505062000174565b6001546040516315a722b960e31b8152600481018390526001600160a01b039091169063ad3915c890602401600060405180830381600087803b1580156200015a57600080fd5b505af11580156200016f573d6000803e3d6000fd5b505050505b5050505050505050505050505062000477565b600080546001600160a01b038381166001600160a01b0319831681178455604051919092169283917f8be0079c531659141344cd1fd0a4f28419497f9722a3daafe3b4186f6b6457e09190a35050565b6000546001600160a01b03163314620002375760405162461bcd60e51b815260206004820181905260248201527f4f776e61626c653a2063616c6c6572206973206e6f7420746865206f776e657260448201526064015b60405180910390fd5b6001600160a01b0381166200029e5760405162461bcd60e51b815260206004820152602660248201527f4f776e61626c653a206e6577206f776e657220697320746865207a65726f206160448201526564647265737360d01b60648201526084016200022e565b620002a98162000187565b50565b8051620002b98162000461565b919050565b60008060008060008060c08789031215620002d7578182fd5b8651620002e48162000461565b6020880151909650620002f78162000461565b60408801519095506200030a8162000461565b60608801519094506200031d8162000461565b60808801519093506001600160401b03808211156200033a578384fd5b818901915089601f8301126200034e578384fd5b8151818111156200036357620003636200044b565b604051601f8201601f19908116603f011681019083821181831017156200038e576200038e6200044b565b816040528281528c6020848701011115620003a7578687fd5b620003ba83602083016020880162000418565b8096505050505050620003d060a08801620002ac565b90509295509295509295565b82815260406020820152600082518060408401526200040381606085016020870162000418565b601f01601f1916919091016060019392505050565b60005b83811015620004355781810151838201526020016200041b565b8381111562000445576000848401525b50505050565b634e487b7160e01b600052604160045260246000fd5b6001600160a01b0381168114620002a957600080fd5b61512780620004876000396000f3fe608060405234801561001057600080fd5b50600436106102065760003560e01c8063884d1f401161011a578063c51f8f4e116100ad578063e52e43da1161007c578063e52e43da14610546578063e8e75cbd14610557578063f19a31c2146105a1578063f2fde38b146105b4578063fe1b09dd146105c757600080fd5b8063c51f8f4e14610505578063cdf5bd7514610518578063d33fcc0814610520578063d86ed3e51461053357600080fd5b8063bfdb6b04116100e9578063bfdb6b04146104a2578063c0d78655146104d7578063c12fc38b146104ea578063c24c14e0146104fd57600080fd5b8063884d1f40146104595780638d21b5931461046c5780638da5cb5b1461047e578063b9bb02291461048f57600080fd5b8063416c339d1161019d5780635f9e7d771161016c5780635f9e7d771461035f578063715018a61461037257806380f8620f1461037a57806381dca2b61461039f57806383688be61461044657600080fd5b8063416c339d1461030b57806353c11f991461032657806358a61d3d146103395780635ce81f991461034c57600080fd5b8063230dbd29116101d9578063230dbd29146102985780632caac08b146102b857806330d9c915146102c05780633fcad964146102db57600080fd5b80630c9dfd1e1461020b5780630f2dc3d61461025857806315843a011461026d5780632174661514610285575b600080fd5b61021e6102193660046148ea565b6105f0565b60405161024f9493929190931515845291151560208401526001600160801b03166040830152606082015260800190565b60405180910390f35b61026b610266366004614126565b6106af565b005b610275610855565b604051901515815260200161024f565b61026b610293366004614126565b6108d6565b6102ab6102a63660046144cd565b6109b8565b60405161024f91906149b6565b61026b610b04565b6102ab6102ce366004614431565b6060979650505050505050565b6102ee6102e93660046146d5565b610e80565b60408051931515845260208401929092529082015260600161024f565b610313611044565b604051600b9190910b815260200161024f565b6102ab6103343660046144cd565b6110ce565b61026b6103473660046146d5565b611227565b61026b61035a366004614905565b611256565b6102ab61036d366004614431565b6112a9565b61026b611334565b6004546001600160a01b03165b6040516001600160a01b03909116815260200161024f565b6104126103ad3660046148d0565b60408051606080820183526000808352602080840182905292840181905263ffffffff949094168452600b8252928290208251938401835280546001600160a01b0316845260018101546001600160801b031691840191909152600201549082015290565b6040805182516001600160a01b031681526020808401516001600160801b031690820152918101519082015260600161024f565b61026b6104543660046145d9565b61136a565b6102ab610467366004614431565b611486565b6007545b60405190815260200161024f565b6000546001600160a01b0316610387565b61031361049d366004614196565b611536565b6104b56104b0366004614126565b6115cd565b604080518251815260208084015190820152918101519082015260600161024f565b61026b6104e5366004614126565b611633565b6102ab6104f8366004614329565b61167f565b61026b611df9565b61026b610513366004614648565b611e5e565b600654610470565b61026b61052e366004614594565b612152565b6102ab6105413660046144cd565b61233f565b6005546001600160a01b0316610387565b6105896105653660046148d0565b63ffffffff166000908152600b60205260409020600101546001600160801b031690565b6040516001600160801b03909116815260200161024f565b61026b6105af366004614905565b612478565b61026b6105c2366004614126565b6124db565b6104706105d53660046148d0565b63ffffffff166000908152600b602052604090206002015490565b60035463ffffffff83166000818152600b6020526040808220549051635b53405160e01b81526001600160a01b0391821660048201523060248201526044810193909352848116606484015290928392839283921690635b5340519060840160806040518083038186803b15801561066757600080fd5b505afa15801561067b573d6000803e3d6000fd5b505050506040513d601f19601f8201168201806040525081019061069f919061426a565b9299919850965090945092505050565b600154604051636b4f333560e01b81523060048201526000916001600160a01b031690636b4f33359060240160206040518083038186803b1580156106f357600080fd5b505afa158015610707573d6000803e3d6000fd5b505050506040513d601f19601f8201168201806040525081019061072b9190614250565b9050806107695760405162461bcd60e51b8152602060048201526007602482015266085a985a5b195960ca1b60448201526064015b60405180910390fd5b6001546002546005546040805160008152602081019091526001600160a01b03938416936339255d5b93811692635a5999e360e11b926107b492909116908890309060448101614a9a565b60408051601f198184030181529181526020820180516001600160e01b03166001600160e01b03199485161790525160e085901b90921682526107fa92916004016149c9565b600060405180830381600087803b15801561081457600080fd5b505af1158015610828573d6000803e3d6000fd5b505050506040513d6000823e601f3d908101601f19168201604052610850919081019061439d565b505050565b600154604051636b4f333560e01b81523060048201526000916001600160a01b031690636b4f33359060240160206040518083038186803b15801561089957600080fd5b505afa1580156108ad573d6000803e3d6000fd5b505050506040513d601f19601f820116820180604052508101906108d19190614250565b905090565b6001600160a01b0381166000908152600a6020526040812054819081906108fc90610e80565b925092509250826109425760405162461bcd60e51b815260206004820152601060248201526f2167657443757272656e7456616c756560801b6044820152606401610760565b61094e610e1042614fbb565b81101561098d5760405162461bcd60e51b815260206004820152600d60248201526c2163757272656e7456616c756560981b6044820152606401610760565b6001600160a01b039093166000908152600a6020526040902060018101919091556002019190915550565b60606109c2612573565b6109cc8a8a6125b5565b6005546001600160a01b038b811691161415806109ef57506109ed89612692565b155b15610a335782828080601f016020809104026020016040519081016040528093929190818152602001838380828437600092019190915250929350610af792505050565b82828080601f0160208091040260200160405190810160405280939291908181526020018383808284376000920182905250939450839250610a7a91508a9050898e61272d565b5090925090506000610a8e878901896146d5565b9050610a986127db565b15610aa957610aa68461167f565b93505b60006040518060800160405280856001600160a01b0316815260200183600b0b815260200184600b0b81526020018f6001600160a01b03168152509050610af08582612935565b9450505050505b9998505050505050505050565b6000546001600160a01b03163314610b2e5760405162461bcd60e51b815260040161076090614bcb565b60025460055460405163e8e7e2d160e01b81526001600160a01b03918216600482015230602482015291169063e8e7e2d19060440160206040518083038186803b158015610b7b57600080fd5b505afa158015610b8f573d6000803e3d6000fd5b505050506040513d601f19601f82011682018060405250810190610bb391906146ed565b600b0b15610bf45760405162461bcd60e51b815260206004820152600e60248201526d217a65726f53747265616d65727360901b6044820152606401610760565b6005546001600160a01b031663a9059cbb610c176000546001600160a01b031690565b6005546040516370a0823160e01b81523060048201526001600160a01b03909116906370a082319060240160206040518083038186803b158015610c5a57600080fd5b505afa158015610c6e573d6000803e3d6000fd5b505050506040513d601f19601f82011682018060405250810190610c929190614311565b6040516001600160e01b031960e085901b1681526001600160a01b0390921660048301526024820152604401602060405180830381600087803b158015610cd857600080fd5b505af1158015610cec573d6000803e3d6000fd5b505050506040513d601f19601f82011682018060405250810190610d109190614250565b5060005b600d5460ff1663ffffffff82161015610e7d5763ffffffff81166000908152600b60205260409020546001600160a01b031663a9059cbb610d5d6000546001600160a01b031690565b63ffffffff84166000908152600b6020526040908190205490516370a0823160e01b81523060048201526001600160a01b03909116906370a082319060240160206040518083038186803b158015610db457600080fd5b505afa158015610dc8573d6000803e3d6000fd5b505050506040513d601f19601f82011682018060405250810190610dec9190614311565b6040516001600160e01b031960e085901b1681526001600160a01b0390921660048301526024820152604401602060405180830381600087803b158015610e3257600080fd5b505af1158015610e46573d6000803e3d6000fd5b505050506040513d601f19601f82011682018060405250810190610e6a9190614250565b5080610e7581615021565b915050610d14565b50565b600480546040516311bbb87160e21b81529182018390526000918291829182916001600160a01b0316906346eee1c49060240160206040518083038186803b158015610ecb57600080fd5b505afa158015610edf573d6000803e3d6000fd5b505050506040513d601f19601f82011682018060405250810190610f039190614311565b6004549091506001600160a01b03166377fbb66386610f23600185614fbb565b6040516001600160e01b031960e085901b1681526004810192909252602482015260440160206040518083038186803b158015610f5f57600080fd5b505afa158015610f73573d6000803e3d6000fd5b505050506040513d601f19601f82011682018060405250810190610f979190614311565b600480546040516393fa491560e01b81529294506001600160a01b0316916393fa491591610fd2918991879101918252602082015260400190565b60206040518083038186803b158015610fea57600080fd5b505afa158015610ffe573d6000803e3d6000fd5b505050506040513d601f19601f820116820180604052508101906110229190614311565b9250821561103457600193505061103d565b60008093509350505b9193909250565b60025460055460405163e8e7e2d160e01b81526001600160a01b039182166004820152306024820152600092919091169063e8e7e2d19060440160206040518083038186803b15801561109657600080fd5b505afa1580156110aa573d6000803e3d6000fd5b505050506040513d601f19601f820116820180604052508101906108d191906146ed565b60606110d8612573565b6110e28a8a6125b5565b82828080601f0160208091040260200160405190810160405280939291908181526020018383808284376000920182905250939450611127925050508789018961415e565b50905060008061113987890189614850565b9150915060006040518060800160405280856001600160a01b0316815260200183600b0b81526020016000600b0b81526020018f6001600160a01b031681525090506111858582612935565b6005546040516323b872dd60e01b81523060048201526001600160a01b038781166024830152604482018790529297509116906323b872dd90606401602060405180830381600087803b1580156111db57600080fd5b505af192505050801561120b575060408051601f3d908101601f1916820190925261120891810190614250565b60015b61121457611216565b505b505050509998505050505050505050565b6000546001600160a01b031633146112515760405162461bcd60e51b815260040161076090614bcb565b600755565b6000546001600160a01b031633146112805760405162461bcd60e51b815260040161076090614bcb565b63ffffffff9091166000908152600b602052604090206001600160801b03909116600290910155565b60606112b3612573565b6112bd88886125b5565b60008060006112cd88888d61272d565b92509250925060006112f382846bffffffffffffffffffffffff16600560010154612aa5565b90508083604051602001611314929190918252600b0b602082015260400190565b604051602081830303815290604052945050505050979650505050505050565b6000546001600160a01b0316331461135e5760405162461bcd60e51b815260040161076090614bcb565b6113686000612ad2565b565b6000546001600160a01b031633146113945760405162461bcd60e51b815260040161076090614bcb565b6005546001600160a01b0316156113e35760405162461bcd60e51b8152602060048201526013602482015272105b1c9958591e481a5b9a5d1a585b1a5e9959606a1b6044820152606401610760565b600580546001600160a01b038089166001600160a01b0319928316811790935560078890556001600160801b03848116908616600160801b026001600160801b0319161760085560048054918816919092161790556040805160608101825285815260006020808301828152838501838152958352600a909152929020815181559151600183015591516002919091015561147d876108d6565b50505050505050565b60606114a0886005546001600160a01b0391821691161490565b15806114b257506114b087612692565b155b156114f65782828080601f01602080910402602001604051908101604052809392919081815260200183838082843760009201919091525092935061152b92505050565b600061150386868b61272d565b5060408051600b83900b60208201529193500190506040516020818303038152906040529150505b979650505050505050565b600254604051631cd43d1160e31b81526001600160a01b0383811660048301528481166024830152306044830152600092169063e6a1e8889060640160806040518083038186803b15801561158a57600080fd5b505afa15801561159e573d6000803e3d6000fd5b505050506040513d601f19601f820116820180604052508101906115c29190614871565b509095945050505050565b6115f160405180606001604052806000815260200160008152602001600081525090565b506001600160a01b03166000908152600a6020908152604091829020825160608101845281548152600182015492810192909252600201549181019190915290565b6000546001600160a01b0316331461165d5760405162461bcd60e51b815260040161076090614bcb565b600f80546001600160a01b0319166001600160a01b0392909216919091179055565b8061168c610e1042614fbb565b6000805160206150d2833981519152546001600160a01b03166000908152600a602052604090206002015410156116f55760405162461bcd60e51b815260206004820152600d60248201526c2163757272656e7456616c756560981b6044820152606401610760565b6116ff6000612b22565b60008052600b6020526000805160206150d2833981519152546040516370a0823160e01b8152306004820152611798916001600160a01b0316906370a08231906024015b60206040518083038186803b15801561175b57600080fd5b505afa15801561176f573d6000803e3d6000fd5b505050506040513d601f19601f820116820180604052508101906117939190614311565b612b22565b6005546040516370a0823160e01b81523060048201526117ca916001600160a01b0316906370a0823190602401611743565b60055460008052600b6020526000805160206150d2833981519152546040516370a0823160e01b8152306004820152611878926001600160a01b0390811692169082906370a082319060240160206040518083038186803b15801561182e57600080fd5b505afa158015611842573d6000803e3d6000fd5b505050506040513d601f19601f820116820180604052508101906118669190614311565b6118734262057e40614d1e565b612b67565b506118b76040518060400160405280601e81526020017f746f6b656e20737761702066756e6374696f6e20636f6d706c65746564210000815250613264565b6000808052600b6020526000805160206150d2833981519152546040516370a0823160e01b81523060048201526001600160a01b03909116906370a082319060240160206040518083038186803b15801561191157600080fd5b505afa158015611925573d6000803e3d6000fd5b505050506040513d601f19601f820116820180604052508101906119499190614311565b905061197a6040518060400160405280600d81526020016c6f757470757442616c616e636560981b815250826132a7565b6003546000808052600b6020526000805160206150d283398151915254604051632266eabb60e21b81526001600160a01b03918216600482015230602482015260448101839052606481018590529192169063899baaec90608401604080518083038186803b1580156119ec57600080fd5b505afa158015611a00573d6000803e3d6000fd5b505050506040513d601f19601f82011682018060405250810190611a2491906148ac565b50905080611a33575050919050565b600854600090620f424090611a51906001600160801b031684614f25565b611a5b9190614d5c565b90506000611a698284614fbb565b9050611a9a6040518060400160405280600d81526020016c6f757074757442616c616e636560981b815250856132a7565b611ac86040518060400160405280600c81526020016b1858dd1d585b105b5bdd5b9d60a21b815250846132a7565b611af76040518060400160405280600d81526020016c1999595cd0dbdb1b1958dd1959609a1b815250836132a7565b611b236040518060400160405280600a815260200169191a5cdd105b5bdd5b9d60b21b815250826132a7565b6000808052600b6020526000805160206150d283398151915254611b53919085906001600160a01b0316886132ec565b60008052600b60209081526000805160206150d283398151915254604080518781529283018690526001600160a01b03909116908201529095507fed4b43d1c43fa6de2432cc50d2bbc8db51d9ce0d2095d0a5cfac618764e9fe589060600160405180910390a160015b600d5460ff1663ffffffff82161015611dea5763ffffffff81166000908152600b6020526040908190205490516370a0823160e01b81523060048201526001600160a01b03909116906370a082319060240160206040518083038186803b158015611c2757600080fd5b505afa158015611c3b573d6000803e3d6000fd5b505050506040513d601f19601f82011682018060405250810190611c5f9190614311565b94508415611dd8576008546001600160801b031615611d0c5763ffffffff81166000908152600b6020526040902054611ca590829087906001600160a01b0316896132ec565b63ffffffff82166000908152600b60209081526040918290205482518981529182018790526001600160a01b03168183015290519197507fed4b43d1c43fa6de2432cc50d2bbc8db51d9ce0d2095d0a5cfac618764e9fe58919081900360600190a1611dd8565b63ffffffff81166000908152600b6020526040902060020154600654611d329042614fbb565b611d3c9190614f25565b935084841015611dd85763ffffffff81166000908152600b6020526040902054611d7390829086906001600160a01b0316896132ec565b63ffffffff82166000908152600b60209081526040808320548151898152928301939093526001600160a01b039092168183015290519197507fed4b43d1c43fa6de2432cc50d2bbc8db51d9ce0d2095d0a5cfac618764e9fe58919081900360600190a15b80611de281615021565b915050611bbd565b50504260065550919392505050565b600554611e0e906001600160a01b03166108d6565b60005b600d5460ff1663ffffffff82161015610e7d5763ffffffff81166000908152600b6020526040902054611e4c906001600160a01b03166108d6565b80611e5681615021565b915050611e11565b6000546001600160a01b03163314611e885760405162461bcd60e51b815260040161076090614bcb565b600054600160a81b900460ff16611eac57600054600160a01b900460ff1615611eb0565b303b155b611f135760405162461bcd60e51b815260206004820152602e60248201527f496e697469616c697a61626c653a20636f6e747261637420697320616c72656160448201526d191e481a5b9a5d1a585b1a5e995960921b6064820152608401610760565b600054600160a81b900460ff16158015611f3d576000805461ffff60a01b191661010160a01b1790555b600f80546001600160a01b0319166001600160a01b038b16179055611f6987878a88620186a08861136a565b611f768484600085612152565b600f5460055460408051631dce337960e31b81529051612011936001600160a01b03908116936000199391169163ee719bc891600480820192602092909190829003018186803b158015611fc957600080fd5b505afa158015611fdd573d6000803e3d6000fd5b505050506040513d601f19601f820116820180604052508101906120019190614142565b6001600160a01b031691906134e3565b61205130600019866001600160a01b031663ee719bc86040518163ffffffff1660e01b815260040160206040518083038186803b158015611fc957600080fd5b600f5460008052600b60209081526000805160206150d28339815191525460408051631dce337960e31b815290516120b8946001600160a01b0390811694600019949091169263ee719bc89260048083019392829003018186803b158015611fc957600080fd5b60055460408051631dce337960e31b81529051612104926001600160a01b03169160001991839163ee719bc8916004808301926020929190829003018186803b158015611fc957600080fd5b60008052600b6020526000805160206150d283398151915254612133906001600160a01b0316806000196134e3565b8015612147576000805460ff60a81b191690555b505050505050505050565b6000546001600160a01b0316331461217c5760405162461bcd60e51b815260040161076090614bcb565b806121b75760405162461bcd60e51b815260206004820152600b60248201526a085d985b1a5914995c525960aa1b6044820152606401610760565b6001600160a01b0384166000908152600a6020526040902054156122075760405162461bcd60e51b815260206004820152600760248201526621756e6971756560c81b6044820152606401610760565b604080516060810182526001600160a01b038681168083526001600160801b038781166020808601918252858701898152600d805460ff9081166000908152600b85528a81208a5181546001600160a01b0319169a1699909917895594516001890180546001600160801b031916919097161790955590516002909601959095558454938252600c905294909420805491851663ffffffff199092169190911790555490916122b79116866135cc565b600d805460ff169060006122ca83615045565b825460ff9182166101009390930a92830291909202199091161790555060408051606081018252838152600060208083018281528385018381526001600160a01b038b168452600a90925293909120825181559251600184015551600290920191909155612337866108d6565b505050505050565b6060612349612573565b6123538a8a6125b5565b6005546001600160a01b038b81169116141580612376575061237489612692565b155b156123ba5782828080601f016020809104026020016040519081016040528093929190818152602001838380828437600092019190915250929350610af792505050565b82828080601f0160208091040260200160405190810160405280939291908181526020018383808284376000920191909152509293506123fd92506127db915050565b1561240e5761240b8161167f565b90505b60008061241c89898e61272d565b509150915061242b83836136b5565b604080516080810182526001600160a01b03808516825260006020830152600b84900b92820192909252908d1660608201526124678482612935565b9d9c50505050505050505050505050565b6000546001600160a01b031633146124a25760405162461bcd60e51b815260040161076090614bcb565b63ffffffff919091166000908152600b6020526040902060010180546001600160801b0319166001600160801b03909216919091179055565b6000546001600160a01b031633146125055760405162461bcd60e51b815260040161076090614bcb565b6001600160a01b03811661256a5760405162461bcd60e51b815260206004820152602660248201527f4f776e61626c653a206e6577206f776e657220697320746865207a65726f206160448201526564647265737360d01b6064820152608401610760565b610e7d81612ad2565b6001546001600160a01b031633146113685760405162461bcd60e51b8152602060048201526005602482015264085a1bdcdd60da1b6044820152606401610760565b6125be81612692565b15612615576005546001600160a01b038381169116146126115760405162461bcd60e51b815260206004820152600e60248201526d085a5b9c1d5d1058d8d95c1d195960921b6044820152606401610760565b5050565b61261e816137e6565b15612611576001600160a01b038083166000818152600c602090815260408083205463ffffffff168352600b909152902054909116146126115760405162461bcd60e51b815260206004820152600f60248201526e085bdd5d1c1d5d1058d8d95c1d1959608a1b6044820152606401610760565b60007fa9214cc96615e0085d3bb077758db69497dc2dce3b2b1e97bc93c3d18d83efd3826001600160a01b0316637730599e6040518163ffffffff1660e01b815260040160206040518083038186803b1580156126ee57600080fd5b505afa158015612702573d6000803e3d6000fd5b505050506040513d601f19601f820116820180604052508101906127269190614311565b1492915050565b6000808061273d8587018761415e565b50600254604051631cd43d1160e31b81526001600160a01b038781166004830152808416602483015230604483015292955091169063e6a1e8889060640160806040518083038186803b15801561279357600080fd5b505afa1580156127a7573d6000803e3d6000fd5b505050506040513d601f19601f820116820180604052508101906127cb9190614871565b5094989097509095509350505050565b6003546000808052600b6020526000805160206150d2833981519152546040516323fc23f360e01b81526001600160a01b03918216600482015230602482015260448101839052919283928392909116906323fc23f39060640160806040518083038186803b15801561284d57600080fd5b505afa158015612861573d6000803e3d6000fd5b505050506040513d601f19601f8201168201806040525081019061288591906142b6565b6005546040516370a0823160e01b8152306004820152929650909450600093506001600160a01b031691506370a082319060240160206040518083038186803b1580156128d157600080fd5b505afa1580156128e5573d6000803e3d6000fd5b505050506040513d601f19601f820116820180604052508101906129099190614311565b905060006129178385614cf3565b6001600160801b031611801561292d5750600081115b935050505090565b816000808061294385613842565b92509250925060005b600d5460ff1663ffffffff82161015612a9b57855163ffffffff82166000818152600b602052604090205461298e9288929188906001600160a01b0316613c73565b94506129d3858263ffffffff166129ad6000546001600160a01b031690565b63ffffffff85166000908152600b602052604090205487906001600160a01b0316613c73565b600e548751604051630e9ebfbf60e01b81526001600160a01b039182166004820152929750612a8792889263ffffffff8616921690630e9ebfbf9060240160206040518083038186803b158015612a2957600080fd5b505afa158015612a3d573d6000803e3d6000fd5b505050506040513d601f19601f82011682018060405250810190612a619190614142565b63ffffffff85166000908152600b602052604090205486906001600160a01b0316613c73565b945080612a9381615021565b91505061294c565b5050505092915050565b6000818411612ab45781612ab6565b835b612ac09042614fbb565b612aca9084614f25565b949350505050565b600080546001600160a01b038381166001600160a01b0319831681178455604051919092169283917f8be0079c531659141344cd1fd0a4f28419497f9722a3daafe3b4186f6b6457e09190a35050565b610e7d81604051602401612b3891815260200190565b60408051601f198184030181529190526020810180516001600160e01b031663f5b1bba960e01b179052613d7d565b60008060006060600080896001600160a01b031663ee719bc86040518163ffffffff1660e01b815260040160206040518083038186803b158015612baa57600080fd5b505afa158015612bbe573d6000803e3d6000fd5b505050506040513d601f19601f82011682018060405250810190612be29190614142565b9450886001600160a01b031663ee719bc86040518163ffffffff1660e01b815260040160206040518083038186803b158015612c1d57600080fd5b505afa158015612c31573d6000803e3d6000fd5b505050506040513d601f19601f82011682018060405250810190612c559190614142565b6040516308de640f60e11b8152600481018a90529094506001600160a01b038b16906311bcc81e90602401600060405180830381600087803b158015612c9a57600080fd5b505af1158015612cae573d6000803e3d6000fd5b50505050846001600160a01b031663313ce5676040518163ffffffff1660e01b815260040160206040518083038186803b158015612ceb57600080fd5b505afa158015612cff573d6000803e3d6000fd5b505050506040513d601f19601f82011682018060405250810190612d239190614930565b612d2e906012614fd2565b612d3990600a614db3565b6040516370a0823160e01b81523060048201526001600160a01b038716906370a082319060240160206040518083038186803b158015612d7857600080fd5b505afa158015612d8c573d6000803e3d6000fd5b505050506040513d601f19601f82011682018060405250810190612db09190614311565b612dba9190614f25565b6001600160a01b03808b166000908152600a6020526040808220600190810154938f1683529120015491995090612df1908a614f25565b612dfb9190614d5c565b600754909250620f424090612e109082614fbb565b612e1a9084614f25565b612e249190614d5c565b9150670de0b6b3a7640000846001600160a01b031663313ce5676040518163ffffffff1660e01b815260040160206040518083038186803b158015612e6857600080fd5b505afa158015612e7c573d6000803e3d6000fd5b505050506040513d601f19601f82011682018060405250810190612ea09190614930565b612eab90600a614db3565b612eb59084614f25565b612ebf9190614d5c565b9150846001600160a01b031663313ce5676040518163ffffffff1660e01b815260040160206040518083038186803b158015612efa57600080fd5b505afa158015612f0e573d6000803e3d6000fd5b505050506040513d601f19601f82011682018060405250810190612f329190614930565b612f3d906012614fd2565b612f4890600a614db3565b612f529089614d5c565b604080516002808252606082018352929a5091906020830190803683370190505092508483600081518110612f9757634e487b7160e01b600052603260045260246000fd5b60200260200101906001600160a01b031690816001600160a01b0316815250508383600181518110612fd957634e487b7160e01b600052603260045260246000fd5b6001600160a01b039283166020918202929092010152600f546040516338ed173960e01b81529116906338ed17399061301f908b90600090889030908e90600401614c00565b600060405180830381600087803b15801561303957600080fd5b505af115801561304d573d6000803e3d6000fd5b505050506040513d6000823e601f3d908101601f1916820160405261307591908101906141a8565b506040516370a0823160e01b81523060048201526001600160a01b038516906370a082319060240160206040518083038186803b1580156130b557600080fd5b505afa1580156130c9573d6000803e3d6000fd5b505050506040513d601f19601f820116820180604052508101906130ed9190614311565b905061311e6040518060400160405280600d81526020016c1bdd5d1c1d5d08185b5bdd5b9d609a1b815250826132a7565b61314e6040518060400160405280600e81526020016d1b5a5b9a5b5d5b48185b5bdd5b9d60921b815250836132a7565b886001600160a01b03166345977d03856001600160a01b031663313ce5676040518163ffffffff1660e01b815260040160206040518083038186803b15801561319657600080fd5b505afa1580156131aa573d6000803e3d6000fd5b505050506040513d601f19601f820116820180604052508101906131ce9190614930565b6131d9906012614fd2565b6131e490600a614db3565b6131ee9084614f25565b6040518263ffffffff1660e01b815260040161320c91815260200190565b600060405180830381600087803b15801561322657600080fd5b505af115801561323a573d6000803e3d6000fd5b50505050610af7604051806040016040528060098152602001681d5c19d9dc9859195960ba1b8152505b610e7d8160405160240161327891906149b6565b60408051601f198184030181529190526020810180516001600160e01b031663104c13eb60e21b179052613d7d565b61261182826040516024016132bd929190614ba9565b60408051601f198184030181529190526020810180516001600160e01b03166309710a9d60e41b179052613d7d565b805181906133e9576001546003546040805160008152602081019091526001600160a01b03928316926339255d5b921690635cb398e160e11b906133399088908b908b9060448101614b40565b60408051601f19818403018152918152602080830180516001600160e01b03166001600160e01b03199586161790528151600081529081019182905260e086901b909316905261338d929160248101614a10565b600060405180830381600087803b1580156133a757600080fd5b505af11580156133bb573d6000803e3d6000fd5b505050506040513d6000823e601f3d908101601f191682016040526133e3919081019061439d565b50612aca565b6001546003546040805160008152602081019091526001600160a01b0392831692634329d293921690635cb398e160e11b9061342e9088908b908b9060448101614b40565b60408051601f19818403018152918152602080830180516001600160e01b03166001600160e01b03199586161790528151600081529081019182905260e086901b909316905261348392918660248201614a50565b600060405180830381600087803b15801561349d57600080fd5b505af11580156134b1573d6000803e3d6000fd5b505050506040513d6000823e601f3d908101601f191682016040526134d991908101906143d0565b5095945050505050565b604051636eb1769f60e11b81523060048201526001600160a01b038381166024830152600091839186169063dd62ed3e9060440160206040518083038186803b15801561352f57600080fd5b505afa158015613543573d6000803e3d6000fd5b505050506040513d601f19601f820116820180604052508101906135679190614311565b6135719190614d1e565b604080516001600160a01b038616602482015260448082018490528251808303909101815260649091019091526020810180516001600160e01b031663095ea7b360e01b1790529091506135c6908590613d9e565b50505050565b6135f3604051806040016040528060058152602001640d2dcc8caf60db1b815250836132a7565b61361e604051806040016040528060098152602001683234b9ba2a37b5b2b760b91b81525082613e70565b6001546003546040805160008152602081019091526001600160a01b03928316926339255d5b921690636bc3c20560e11b90613661908690889060448101614b10565b60408051601f19818403018152918152602080830180516001600160e01b03166001600160e01b03199586161790528151600081529081019182905260e086901b90931690526107fa929160248101614a10565b600154604051631fb6491d60e11b81526000916001600160a01b031690633f6c923a906136e69086906004016149b6565b60006040518083038186803b1580156136fe57600080fd5b505afa158015613712573d6000803e3d6000fd5b505050506040513d6000823e601f3d908101601f1916820160405261373a919081019061474d565b9050606060008260a0015151111561376b578160a001518060200190518101906137649190614707565b905061377c565b506040805160208101909152600081525b600e54604051634a2f43a560e01b81526001600160a01b0390911690634a2f43a5906137ae9086908590600401614992565b600060405180830381600087803b1580156137c857600080fd5b505af11580156137dc573d6000803e3d6000fd5b5050505050505050565b60007f8aedc3b5d4bf031e11a7e2940f7251c005698405d58e02e1c247fed3b1b3a674826001600160a01b0316637730599e6040518163ffffffff1660e01b815260040160206040518083038186803b1580156126ee57600080fd5b60608101516001600160a01b03166000908152600c60205260408120548190819061387f9063ffffffff166102196000546001600160a01b031690565b5093506138949150633b9aca00905083614ef6565b600e548551604051630e9ebfbf60e01b81526001600160a01b039182166004820152929450600092911690630e9ebfbf9060240160206040518083038186803b1580156138e057600080fd5b505afa1580156138f4573d6000803e3d6000fd5b505050506040513d601f19601f820116820180604052508101906139189190614142565b90506001600160a01b0381161561396e5760608501516001600160a01b03166000908152600c60205260409020546139569063ffffffff16826105f0565b50935061396b9150633b9aca00905083614ef6565b91505b6000856020015186604001516139849190614f44565b905060008082600b0b1315613a5e57600854620f4240906139b2906001600160801b0316600b85900b614f25565b6139bc9190614d5c565b90506001600160a01b03831615613a4d57600854620f4240906139ef90600160801b90046001600160801b031682614f93565b6139f99083614ef6565b613a039190614d36565b613a0d9086614cf3565b600854909550620f424090613a3290600160801b90046001600160801b031683614ef6565b613a3c9190614d36565b613a469085614cf3565b9350613bfb565b613a578186614cf3565b9450613bfb565b613a6a82600019614e60565b600854909250620f424090613a8c906001600160801b0316600b85900b614f25565b613a969190614d5c565b90506001600160a01b03831615613bee57600854620f424090613ac990600160801b90046001600160801b031682614f93565b613ad39083614ef6565b613add9190614d36565b613ae79086614f93565b9450613b1d6040518060400160405280600981526020016864616f53686172657360b81b815250866001600160801b03166132a7565b6040805180820190915260048152630dac2e8d60e31b6020820152600854613b779190620f424090613b5f90600160801b90046001600160801b031685614ef6565b613b699190614d36565b6001600160801b03166132a7565b600854620f424090613b9990600160801b90046001600160801b031683614ef6565b613ba39190614d36565b613bad9085614f93565b9350613be96040518060400160405280600f81526020016e616666696c6961746553686172657360881b815250856001600160801b03166132a7565b613bfb565b613bf88186614f93565b94505b600854620f424090613c16906001600160801b031682614f93565b8860400151600b0b613c289190614ef6565b613c329190614d36565b9550613c696040518060400160405280600a8152602001697573657253686172657360b01b815250876001600160801b03166132a7565b5050509193909250565b60015460035486916001600160a01b0390811691634329d2939116630465a56b60e31b858989613ca7633b9aca008b614d36565b604080516000815260208101909152613cc7949392919060448101614ace565b60408051601f19818403018152918152602080830180516001600160e01b03166001600160e01b03199586161790528151600081529081019182905260e086901b9093169052613d1c92918660248201614a50565b600060405180830381600087803b158015613d3657600080fd5b505af1158015613d4a573d6000803e3d6000fd5b505050506040513d6000823e601f3d908101601f19168201604052613d7291908101906143d0565b509695505050505050565b80516a636f6e736f6c652e6c6f67602083016000808483855afa5050505050565b6000613df3826040518060400160405280602081526020017f5361666545524332303a206c6f772d6c6576656c2063616c6c206661696c6564815250856001600160a01b0316613eb59092919063ffffffff16565b8051909150156108505780806020019051810190613e119190614250565b6108505760405162461bcd60e51b815260206004820152602a60248201527f5361666545524332303a204552433230206f7065726174696f6e20646964206e6044820152691bdd081cdd58d8d9595960b21b6064820152608401610760565b6126118282604051602401613e86929190614b7f565b60408051601f198184030181529190526020810180516001600160e01b031663319af33360e01b179052613d7d565b6060612aca8484600085613ecb565b9392505050565b606082471015613f2c5760405162461bcd60e51b815260206004820152602660248201527f416464726573733a20696e73756666696369656e742062616c616e636520666f6044820152651c8818d85b1b60d21b6064820152608401610760565b843b613f7a5760405162461bcd60e51b815260206004820152601d60248201527f416464726573733a2063616c6c20746f206e6f6e2d636f6e74726163740000006044820152606401610760565b600080866001600160a01b03168587604051613f969190614976565b60006040518083038185875af1925050503d8060008114613fd3576040519150601f19603f3d011682016040523d82523d6000602084013e613fd8565b606091505b509150915061152b82828660608315613ff2575081613ec4565b8251156140025782518084602001fd5b8160405162461bcd60e51b815260040161076091906149b6565b600061402f61402a84614ccb565b614c9a565b905082815283838301111561404357600080fd5b613ec4836020830184614ff5565b805161405c816150a7565b919050565b8051801515811461405c57600080fd5b80516001600160e01b03198116811461405c57600080fd5b60008083601f84011261409a578182fd5b50813567ffffffffffffffff8111156140b1578182fd5b6020830191508360208285010111156140c957600080fd5b9250929050565b600082601f8301126140e0578081fd5b613ec48383516020850161401c565b8051600b81900b811461405c57600080fd5b803563ffffffff8116811461405c57600080fd5b805160ff8116811461405c57600080fd5b600060208284031215614137578081fd5b8135613ec4816150a7565b600060208284031215614153578081fd5b8151613ec4816150a7565b60008060408385031215614170578081fd5b823561417b816150a7565b9150602083013561418b816150a7565b809150509250929050565b60008060408385031215614170578182fd5b600060208083850312156141ba578182fd5b825167ffffffffffffffff808211156141d1578384fd5b818501915085601f8301126141e4578384fd5b8151818111156141f6576141f6615091565b8060051b9150614207848301614c9a565b8181528481019084860184860187018a1015614221578788fd5b8795505b83861015614243578051835260019590950194918601918601614225565b5098975050505050505050565b600060208284031215614261578081fd5b613ec482614061565b6000806000806080858703121561427f578182fd5b61428885614061565b935061429660208601614061565b925060408501516142a6816150bc565b6060959095015193969295505050565b600080600080608085870312156142cb578182fd5b6142d485614061565b935060208501516142e4816150bc565b60408601519093506142f5816150bc565b6060860151909250614306816150bc565b939692955090935050565b600060208284031215614322578081fd5b5051919050565b60006020828403121561433a578081fd5b813567ffffffffffffffff811115614350578182fd5b8201601f81018413614360578182fd5b803561436e61402a82614ccb565b818152856020838501011115614382578384fd5b81602084016020830137908101602001929092525092915050565b6000602082840312156143ae578081fd5b815167ffffffffffffffff8111156143c4578182fd5b612aca848285016140d0565b600080604083850312156143e2578182fd5b825167ffffffffffffffff808211156143f9578384fd5b614405868387016140d0565b9350602085015191508082111561441a578283fd5b50614427858286016140d0565b9150509250929050565b600080600080600080600060a0888a03121561444b578485fd5b8735614456816150a7565b96506020880135614466816150a7565b955060408801359450606088013567ffffffffffffffff80821115614489578485fd5b6144958b838c01614089565b909650945060808a01359150808211156144ad578384fd5b506144ba8a828b01614089565b989b979a50959850939692959293505050565b600080600080600080600080600060c08a8c0312156144ea578283fd5b89356144f5816150a7565b985060208a0135614505816150a7565b975060408a0135965060608a013567ffffffffffffffff80821115614528578485fd5b6145348d838e01614089565b909850965060808c013591508082111561454c578485fd5b6145588d838e01614089565b909650945060a08c0135915080821115614570578384fd5b5061457d8c828d01614089565b915080935050809150509295985092959850929598565b600080600080608085870312156145a9578182fd5b84356145b4816150a7565b935060208501356145c4816150bc565b93969395505050506040820135916060013590565b60008060008060008060c087890312156145f1578384fd5b86356145fc816150a7565b9550602087013594506040870135614613816150a7565b935060608701359250608087013561462a816150bc565b915060a087013561463a816150bc565b809150509295509295509295565b600080600080600080600080610100898b031215614664578182fd5b883561466f816150a7565b9750602089013561467f816150a7565b9650604089013561468f816150a7565b9550606089013594506080890135935060a08901356146ad816150a7565b925060c08901356146bd816150bc565b8092505060e089013590509295985092959890939650565b6000602082840312156146e6578081fd5b5035919050565b6000602082840312156146fe578081fd5b613ec4826140ef565b600060208284031215614718578081fd5b815167ffffffffffffffff81111561472e578182fd5b8201601f8101841361473e578182fd5b612aca8482516020840161401c565b60006020828403121561475e578081fd5b815167ffffffffffffffff80821115614775578283fd5b908301906101608286031215614789578283fd5b614791614c70565b61479a83614115565b81526147a860208401614115565b6020820152604083015160408201526147c360608401614051565b60608201526147d460808401614071565b608082015260a0830151828111156147ea578485fd5b6147f6878286016140d0565b60a08301525060c083015160c082015260e083015160e082015261010091508183015182820152610120915061482d828401614051565b828201526101409150614841828401614051565b91810191909152949350505050565b60008060408385031215614862578182fd5b50508035926020909101359150565b60008060008060808587031215614886578182fd5b84519350614896602086016140ef565b6040860151606090960151949790965092505050565b600080604083850312156148be578182fd5b82519150602083015161418b816150bc565b6000602082840312156148e1578081fd5b613ec482614101565b600080604083850312156148fc578182fd5b61417b83614101565b60008060408385031215614917578182fd5b61492083614101565b9150602083013561418b816150bc565b600060208284031215614941578081fd5b613ec482614115565b60008151808452614962816020860160208601614ff5565b601f01601f19169290920160200192915050565b60008251614988818460208701614ff5565b9190910192915050565b6001600160a01b0383168152604060208201819052600090612aca9083018461494a565b602081526000613ec4602083018461494a565b6001600160a01b03831681526060602082018190526000906149ed9083018461494a565b8281036040938401526002815261060f60f31b6020820152919091019392505050565b6001600160a01b0384168152606060208201819052600090614a349083018561494a565b8281036040840152614a46818561494a565b9695505050505050565b6001600160a01b0385168152608060208201819052600090614a749083018661494a565b8281036040840152614a86818661494a565b9050828103606084015261152b818561494a565b6001600160a01b038581168252848116602083015283166040820152608060608201819052600090614a469083018461494a565b6001600160a01b03868116825260208201869052841660408201526001600160801b038316606082015260a06080820181905260009061152b9083018461494a565b60018060a01b0384168152826020820152606060408201526000614b37606083018461494a565b95945050505050565b6001600160a01b038516815263ffffffff841660208201526001600160801b0383166040820152608060608201819052600090614a469083018461494a565b604081526000614b92604083018561494a565b905060018060a01b03831660208301529392505050565b604081526000614bbc604083018561494a565b90508260208301529392505050565b6020808252818101527f4f776e61626c653a2063616c6c6572206973206e6f7420746865206f776e6572604082015260600190565b600060a082018783526020878185015260a0604085015281875180845260c0860191508289019350845b81811015614c4f5784516001600160a01b031683529383019391830191600101614c2a565b50506001600160a01b03969096166060850152505050608001529392505050565b604051610160810167ffffffffffffffff81118282101715614c9457614c94615091565b60405290565b604051601f8201601f1916810167ffffffffffffffff81118282101715614cc357614cc3615091565b604052919050565b600067ffffffffffffffff821115614ce557614ce5615091565b50601f01601f191660200190565b60006001600160801b03808316818516808303821115614d1557614d15615065565b01949350505050565b60008219821115614d3157614d31615065565b500190565b60006001600160801b0380841680614d5057614d5061507b565b92169190910492915050565b600082614d6b57614d6b61507b565b500490565b600181815b80851115614dab578160001904821115614d9157614d91615065565b80851615614d9e57918102915b93841c9390800290614d75565b509250929050565b6000613ec460ff841683600082614dcc57506001614e5a565b81614dd957506000614e5a565b8160018114614def5760028114614df957614e15565b6001915050614e5a565b60ff841115614e0a57614e0a615065565b50506001821b614e5a565b5060208310610133831016604e8410600b8410161715614e38575081810a614e5a565b614e428383614d70565b8060001904821115614e5657614e56615065565b0290505b92915050565b600081600b0b83600b0b60016001605f1b0383821384841383830485118282161615614e8e57614e8e615065565b6b7fffffffffffffffffffffff1986851282811687830587121615614eb557614eb5615065565b878712925085820587128484161615614ed057614ed0615065565b85850587128184161615614ee657614ee6615065565b5050509290910295945050505050565b60006001600160801b0380831681851681830481118215151615614f1c57614f1c615065565b02949350505050565b6000816000190483118215151615614f3f57614f3f615065565b500290565b600081600b0b83600b0b8281128160016001605f1b031901831281151615614f6e57614f6e615065565b8160016001605f1b03018313811615614f8957614f89615065565b5090039392505050565b60006001600160801b0383811690831681811015614fb357614fb3615065565b039392505050565b600082821015614fcd57614fcd615065565b500390565b600060ff821660ff841680821015614fec57614fec615065565b90039392505050565b60005b83811015615010578181015183820152602001614ff8565b838111156135c65750506000910152565b600063ffffffff8083168181141561503b5761503b615065565b6001019392505050565b600060ff821660ff81141561505c5761505c615065565b60010192915050565b634e487b7160e01b600052601160045260246000fd5b634e487b7160e01b600052601260045260246000fd5b634e487b7160e01b600052604160045260246000fd5b6001600160a01b0381168114610e7d57600080fd5b6001600160801b0381168114610e7d57600080fdfedf7de25b7f1fd6d0b5205f0e18f1f35bd7b8d84cce336588d184533ce43a6f76a26469706673582212201b3b7acdd43d9934e5f3ffbe63700f5c73a8da9273353d0fd16b4c2750d99feb64736f6c63430008040033",
  "linkReferences": {},
  "deployedLinkReferences": {}
}