{
  "_format": "hh-sol-artifact-1",
  "contractName": "REXOneWayMarket",
  "sourceName": "contracts/REXOneWayMarket.sol",
  "abi": [
    {
      "inputs": [
        {
          "internalType": "contract ISuperToken",
          "name": "_outputToken",
          "type": "address"
        },
        {
          "internalType": "uint128",
          "name": "_feeRate",
          "type": "uint128"
        },
        {
          "internalType": "uint256",
          "name": "_emissionRate",
          "type": "uint256"
        },
        {
          "internalType": "uint256",
          "name": "_requestId",
          "type": "uint256"
        },
        {
          "internalType": "address",
          "name": "_owner",
          "type": "address"
        },
        {
          "internalType": "contract ISuperfluid",
          "name": "_host",
          "type": "address"
        },
        {
          "internalType": "contract IConstantFlowAgreementV1",
          "name": "_cfa",
          "type": "address"
        },
        {
          "internalType": "contract IInstantDistributionAgreementV1",
          "name": "_ida",
          "type": "address"
        },
        {
          "internalType": "string",
          "name": "_registrationKey",
          "type": "string"
        }
      ],
      "stateMutability": "nonpayable",
      "type": "constructor"
    },
    {
      "anonymous": false,
      "inputs": [
        {
          "indexed": false,
          "internalType": "uint256",
          "name": "totalAmount",
          "type": "uint256"
        },
        {
          "indexed": false,
          "internalType": "uint256",
          "name": "feeCollected",
          "type": "uint256"
        },
        {
          "indexed": false,
          "internalType": "address",
          "name": "token",
          "type": "address"
        }
      ],
      "name": "Distribution",
      "type": "event"
    },
    {
      "anonymous": false,
      "inputs": [
        {
          "indexed": true,
          "internalType": "address",
          "name": "previousOwner",
          "type": "address"
        },
        {
          "indexed": true,
          "internalType": "address",
          "name": "newOwner",
          "type": "address"
        }
      ],
      "name": "OwnershipTransferred",
      "type": "event"
    },
    {
      "inputs": [
        {
          "internalType": "contract ISuperToken",
          "name": "_token",
          "type": "address"
        },
        {
          "internalType": "uint128",
          "name": "_feeRate",
          "type": "uint128"
        },
        {
          "internalType": "uint256",
          "name": "_emissionRate",
          "type": "uint256"
        },
        {
          "internalType": "uint256",
          "name": "_requestId",
          "type": "uint256"
        }
      ],
      "name": "addOutputPool",
      "outputs": [],
      "stateMutability": "nonpayable",
      "type": "function"
    },
    {
      "inputs": [
        {
          "internalType": "contract ISuperToken",
          "name": "_superToken",
          "type": "address"
        },
        {
          "internalType": "address",
          "name": "_agreementClass",
          "type": "address"
        },
        {
          "internalType": "bytes32",
          "name": "",
          "type": "bytes32"
        },
        {
          "internalType": "bytes",
          "name": "_agreementData",
          "type": "bytes"
        },
        {
          "internalType": "bytes",
          "name": "",
          "type": "bytes"
        },
        {
          "internalType": "bytes",
          "name": "_ctx",
          "type": "bytes"
        }
      ],
      "name": "afterAgreementCreated",
      "outputs": [
        {
          "internalType": "bytes",
          "name": "newCtx",
          "type": "bytes"
        }
      ],
      "stateMutability": "nonpayable",
      "type": "function"
    },
    {
      "inputs": [
        {
          "internalType": "contract ISuperToken",
          "name": "",
          "type": "address"
        },
        {
          "internalType": "address",
          "name": "",
          "type": "address"
        },
        {
          "internalType": "bytes32",
          "name": "",
          "type": "bytes32"
        },
        {
          "internalType": "bytes",
          "name": "_agreementData",
          "type": "bytes"
        },
        {
          "internalType": "bytes",
          "name": "_cbdata",
          "type": "bytes"
        },
        {
          "internalType": "bytes",
          "name": "_ctx",
          "type": "bytes"
        }
      ],
      "name": "afterAgreementTerminated",
      "outputs": [
        {
          "internalType": "bytes",
          "name": "newCtx",
          "type": "bytes"
        }
      ],
      "stateMutability": "nonpayable",
      "type": "function"
    },
    {
      "inputs": [
        {
          "internalType": "contract ISuperToken",
          "name": "_superToken",
          "type": "address"
        },
        {
          "internalType": "address",
          "name": "_agreementClass",
          "type": "address"
        },
        {
          "internalType": "bytes32",
          "name": "",
          "type": "bytes32"
        },
        {
          "internalType": "bytes",
          "name": "_agreementData",
          "type": "bytes"
        },
        {
          "internalType": "bytes",
          "name": "",
          "type": "bytes"
        },
        {
          "internalType": "bytes",
          "name": "_ctx",
          "type": "bytes"
        }
      ],
      "name": "afterAgreementUpdated",
      "outputs": [
        {
          "internalType": "bytes",
          "name": "newCtx",
          "type": "bytes"
        }
      ],
      "stateMutability": "nonpayable",
      "type": "function"
    },
    {
      "inputs": [
        {
          "internalType": "contract ISuperToken",
          "name": "",
          "type": "address"
        },
        {
          "internalType": "address",
          "name": "",
          "type": "address"
        },
        {
          "internalType": "bytes32",
          "name": "",
          "type": "bytes32"
        },
        {
          "internalType": "bytes",
          "name": "",
          "type": "bytes"
        },
        {
          "internalType": "bytes",
          "name": "",
          "type": "bytes"
        }
      ],
      "name": "beforeAgreementCreated",
      "outputs": [
        {
          "internalType": "bytes",
          "name": "",
          "type": "bytes"
        }
      ],
      "stateMutability": "view",
      "type": "function"
    },
    {
      "inputs": [
        {
          "internalType": "contract ISuperToken",
          "name": "_superToken",
          "type": "address"
        },
        {
          "internalType": "address",
          "name": "_agreementClass",
          "type": "address"
        },
        {
          "internalType": "bytes32",
          "name": "",
          "type": "bytes32"
        },
        {
          "internalType": "bytes",
          "name": "_agreementData",
          "type": "bytes"
        },
        {
          "internalType": "bytes",
          "name": "_ctx",
          "type": "bytes"
        }
      ],
      "name": "beforeAgreementTerminated",
      "outputs": [
        {
          "internalType": "bytes",
          "name": "cbdata",
          "type": "bytes"
        }
      ],
      "stateMutability": "view",
      "type": "function"
    },
    {
      "inputs": [
        {
          "internalType": "contract ISuperToken",
          "name": "",
          "type": "address"
        },
        {
          "internalType": "address",
          "name": "",
          "type": "address"
        },
        {
          "internalType": "bytes32",
          "name": "",
          "type": "bytes32"
        },
        {
          "internalType": "bytes",
          "name": "",
          "type": "bytes"
        },
        {
          "internalType": "bytes",
          "name": "",
          "type": "bytes"
        }
      ],
      "name": "beforeAgreementUpdated",
      "outputs": [
        {
          "internalType": "bytes",
          "name": "",
          "type": "bytes"
        }
      ],
      "stateMutability": "view",
      "type": "function"
    },
    {
      "inputs": [
        {
          "internalType": "bytes",
          "name": "ctx",
          "type": "bytes"
        }
      ],
      "name": "distribute",
      "outputs": [
        {
          "internalType": "bytes",
          "name": "newCtx",
          "type": "bytes"
        }
      ],
      "stateMutability": "nonpayable",
      "type": "function"
    },
    {
      "inputs": [
        {
          "internalType": "uint256",
          "name": "_requestId",
          "type": "uint256"
        }
      ],
      "name": "getCurrentValue",
      "outputs": [
        {
          "internalType": "bool",
          "name": "ifRetrieve",
          "type": "bool"
        },
        {
          "internalType": "uint256",
          "name": "value",
          "type": "uint256"
        },
        {
          "internalType": "uint256",
          "name": "timestampRetrieved",
          "type": "uint256"
        }
      ],
      "stateMutability": "view",
      "type": "function"
    },
    {
      "inputs": [
        {
          "internalType": "uint32",
          "name": "index",
          "type": "uint32"
        },
        {
          "internalType": "address",
          "name": "streamer",
          "type": "address"
        }
      ],
      "name": "getIDAShares",
      "outputs": [
        {
          "internalType": "bool",
          "name": "exist",
          "type": "bool"
        },
        {
          "internalType": "bool",
          "name": "approved",
          "type": "bool"
        },
        {
          "internalType": "uint128",
          "name": "units",
          "type": "uint128"
        },
        {
          "internalType": "uint256",
          "name": "pendingDistribution",
          "type": "uint256"
        }
      ],
      "stateMutability": "view",
      "type": "function"
    },
    {
      "inputs": [
        {
          "internalType": "address",
          "name": "streamer",
          "type": "address"
        }
      ],
      "name": "getStreamRate",
      "outputs": [
        {
          "internalType": "int96",
          "name": "requesterFlowRate",
          "type": "int96"
        }
      ],
      "stateMutability": "view",
      "type": "function"
    },
    {
      "inputs": [
        {
          "internalType": "bytes",
          "name": "_ctx",
          "type": "bytes"
        }
      ],
      "name": "harvest",
      "outputs": [
        {
          "internalType": "bytes",
          "name": "newCtx",
          "type": "bytes"
        }
      ],
      "stateMutability": "nonpayable",
      "type": "function"
    },
    {
      "inputs": [
        {
          "internalType": "contract ISuperToken",
          "name": "_inputToken",
          "type": "address"
        },
        {
          "internalType": "uint256",
          "name": "_rateTolerance",
          "type": "uint256"
        },
        {
          "internalType": "contract ITellor",
          "name": "_tellor",
          "type": "address"
        },
        {
          "internalType": "uint256",
          "name": "_inputTokenRequestId",
          "type": "uint256"
        }
      ],
      "name": "initializeMarket",
      "outputs": [],
      "stateMutability": "nonpayable",
      "type": "function"
    },
    {
      "inputs": [
        {
          "internalType": "contract IUniswapV2Router02",
          "name": "_router",
          "type": "address"
        },
        {
          "internalType": "contract ISuperToken",
          "name": "_inputToken",
          "type": "address"
        },
        {
          "internalType": "uint256",
          "name": "_rateTolerance",
          "type": "uint256"
        },
        {
          "internalType": "contract ITellor",
          "name": "_tellor",
          "type": "address"
        },
        {
          "internalType": "uint256",
          "name": "_inputTokenRequestId",
          "type": "uint256"
        }
      ],
      "name": "initializeMarket",
      "outputs": [],
      "stateMutability": "nonpayable",
      "type": "function"
    },
    {
      "inputs": [],
      "name": "owner",
      "outputs": [
        {
          "internalType": "address",
          "name": "",
          "type": "address"
        }
      ],
      "stateMutability": "view",
      "type": "function"
    },
    {
      "inputs": [],
      "name": "renounceOwnership",
      "outputs": [],
      "stateMutability": "nonpayable",
      "type": "function"
    },
    {
      "inputs": [
        {
          "internalType": "address",
          "name": "_router",
          "type": "address"
        }
      ],
      "name": "setRouter",
      "outputs": [],
      "stateMutability": "nonpayable",
      "type": "function"
    },
    {
      "inputs": [
        {
          "internalType": "address",
          "name": "newOwner",
          "type": "address"
        }
      ],
      "name": "transferOwnership",
      "outputs": [],
      "stateMutability": "nonpayable",
      "type": "function"
    },
    {
      "inputs": [
        {
          "internalType": "contract ISuperToken",
          "name": "_token",
          "type": "address"
        }
      ],
      "name": "updateTokenPrice",
      "outputs": [],
      "stateMutability": "nonpayable",
      "type": "function"
    }
  ],
  "bytecode": "0x6080604052600c805463ffffffff191690553480156200001e57600080fd5b506040516200487c3803806200487c833981016040819052620000419162000c04565b84848484846200005133620001b6565b600180546001600160a01b038087166001600160a01b031992831617909255600280548684169083161790556003805492851692909116919091179055620000998562000206565b641500000001620000b682620002ca602090811b62001c1d17901c565b8151156200012c5760015460405163bd1c448b60e01b81526001600160a01b039091169063bd1c448b90620000f2908490869060040162000df9565b600060405180830381600087803b1580156200010d57600080fd5b505af115801562000122573d6000803e3d6000fd5b505050506200018d565b6001546040516315a722b960e31b8152600481018390526001600160a01b039091169063ad3915c890602401600060405180830381600087803b1580156200017357600080fd5b505af115801562000188573d6000803e3d6000fd5b505050505b505050505050620001a7898989896200031560201b60201c565b50505050505050505062000ec6565b600080546001600160a01b038381166001600160a01b0319831681178455604051919092169283917f8be0079c531659141344cd1fd0a4f28419497f9722a3daafe3b4186f6b6457e09190a35050565b6000546001600160a01b03163314620002555760405162461bcd60e51b815260206004820181905260248201526000805160206200485c83398151915260448201526064015b60405180910390fd5b6001600160a01b038116620002bc5760405162461bcd60e51b815260206004820152602660248201527f4f776e61626c653a206e6577206f776e657220697320746865207a65726f206160448201526564647265737360d01b60648201526084016200024c565b620002c781620001b6565b50565b620002c781604051602401620002e1919062000d94565b60408051601f198184030181529190526020810180516001600160e01b0390811663104c13eb60e21b179091526200050c16565b6000546001600160a01b03163314620003605760405162461bcd60e51b815260206004820181905260248201526000805160206200485c83398151915260448201526064016200024c565b806200039d5760405162461bcd60e51b815260206004820152600b60248201526a085d985b1a5914995c525960aa1b60448201526064016200024c565b6001600160a01b03841660009081526009602052604090205415620003ef5760405162461bcd60e51b815260206004820152600760248201526621756e6971756560c81b60448201526064016200024c565b604080516060810182526001600160a01b0386811682526001600160801b038681166020808501918252848601888152600b805460ff9081166000908152600a90945297909220865181546001600160a01b031916961695909517855591516001850180546001600160801b031916919094161790925551600290920191909155549091620004809116866200052d565b600b805460ff16906000620004958362000e61565b825460ff9182166101009390930a92830291909202199091161790555060408051606081018252838152600060208083018281528385018381526001600160a01b038b168452600990925293909120825181559251600184015551600290920191909155620005048662000678565b505050505050565b80516a636f6e736f6c652e6c6f67602083016000808483855afa5050505050565b620005686040518060400160405280600c81526020016b086e4cac2e8ca40d2dcc8caf60a31b815250836200083460201b62001c601760201c565b6200057e816200088560201b62001ca91760201c565b6001546003546040805160008152602081019091526001600160a01b03928316926339255d5b921690636bc3c20560e11b90620005c390869088906044810162000d62565b60408051601f19818403018152918152602080830180516001600160e01b03166001600160e01b03199586161790528151600081529081019182905260e086901b90931690526200061992916024810162000d1e565b600060405180830381600087803b1580156200063457600080fd5b505af115801562000649573d6000803e3d6000fd5b505050506040513d6000823e601f3d908101601f1916820160405262000673919081019062000bb2565b505050565b620006ac604051806040016040528060058152602001643a37b5b2b760d91b81525082620008d360201b62001cf11760201c565b6001600160a01b03811660009081526009602052604081205481908190620006d49062000920565b92509250925062000737604051806040016040528060038152602001621c9a5960ea1b81525060056004016000876001600160a01b03166001600160a01b03168152602001908152602001600020600001546200083460201b62001c601760201c565b62000778604051806040016040528060128152602001711d1a5b595cdd185b5c14995d1c9a595d995960721b815250826200083460201b62001c601760201c565b82620007ba5760405162461bcd60e51b815260206004820152601060248201526f2167657443757272656e7456616c756560801b60448201526064016200024c565b620007c8610e104262000e14565b811015620008095760405162461bcd60e51b815260206004820152600d60248201526c2163757272656e7456616c756560981b60448201526064016200024c565b6001600160a01b03909316600090815260096020526040902060018101919091556002019190915550565b6200088182826040516024016200084d92919062000dd5565b60408051601f198184030181529190526020810180516001600160e01b039081166309710a9d60e41b179091526200050c16565b5050565b6040516001600160a01b0382166024820152620002c79060440160408051601f198184030181529190526020810180516001600160e01b0390811663161765e160e11b179091526200050c16565b620008818282604051602401620008ec92919062000da9565b60408051601f198184030181529190526020810180516001600160e01b0390811663319af33360e01b179091526200050c16565b600480546040516311bbb87160e21b81529182018390526000918291829182916001600160a01b0316906346eee1c49060240160206040518083038186803b1580156200096c57600080fd5b505afa15801562000981573d6000803e3d6000fd5b505050506040513d601f19601f82011682018060405250810190620009a7919062000cd7565b6004549091506000906001600160a01b03166377fbb66387620009cc60018662000e14565b6040516001600160e01b031960e085901b1681526004810192909252602482015260440160206040518083038186803b15801562000a0957600080fd5b505afa15801562000a1e573d6000803e3d6000fd5b505050506040513d601f19601f8201168201806040525081019062000a44919062000cd7565b600480546040516393fa491560e01b8152918201899052602482018390529192506000916001600160a01b0316906393fa49159060440160206040518083038186803b15801562000a9457600080fd5b505afa15801562000aa9573d6000803e3d6000fd5b505050506040513d601f19601f8201168201806040525081019062000acf919062000cd7565b9050801562000ae857600195509350915062000af49050565b50600094508493509150505b9193909250565b60006001600160401b038084111562000b185762000b1862000e9a565b604051601f8501601f19908116603f0116810190828211818310171562000b435762000b4362000e9a565b8160405280935085815286868601111562000b5d57600080fd5b62000b6d86602083018762000e2e565b5050509392505050565b805162000b848162000eb0565b919050565b600082601f83011262000b9a578081fd5b62000bab8383516020850162000afb565b9392505050565b60006020828403121562000bc4578081fd5b81516001600160401b0381111562000bda578182fd5b8201601f8101841362000beb578182fd5b62000bfc8482516020840162000afb565b949350505050565b60008060008060008060008060006101208a8c03121562000c23578485fd5b895162000c308162000eb0565b60208b01519099506001600160801b038116811462000c4d578586fd5b60408b015160608c01519199509750955062000c6c60808b0162000b77565b945062000c7c60a08b0162000b77565b935062000c8c60c08b0162000b77565b925062000c9c60e08b0162000b77565b6101008b01519092506001600160401b0381111562000cb9578182fd5b62000cc78c828d0162000b89565b9150509295985092959850929598565b60006020828403121562000ce9578081fd5b5051919050565b6000815180845262000d0a81602086016020860162000e2e565b601f01601f19169290920160200192915050565b6001600160a01b038416815260606020820181905260009062000d449083018562000cf0565b828103604084015262000d58818562000cf0565b9695505050505050565b60018060a01b038416815282602082015260606040820152600062000d8b606083018462000cf0565b95945050505050565b60208152600062000bab602083018462000cf0565b60408152600062000dbe604083018562000cf0565b905060018060a01b03831660208301529392505050565b60408152600062000dea604083018562000cf0565b90508260208301529392505050565b82815260406020820152600062000bfc604083018462000cf0565b60008282101562000e295762000e2962000e84565b500390565b60005b8381101562000e4b57818101518382015260200162000e31565b8381111562000e5b576000848401525b50505050565b600060ff821660ff81141562000e7b5762000e7b62000e84565b60010192915050565b634e487b7160e01b600052601160045260246000fd5b634e487b7160e01b600052604160045260246000fd5b6001600160a01b0381168114620002c757600080fd5b6139868062000ed66000396000f3fe608060405234801561001057600080fd5b50600436106101215760003560e01c8063715018a6116100ad578063ce5c7f6111610071578063ce5c7f61146102a6578063d33fcc08146102ba578063d86ed3e5146102cd578063eabd1f46146102e0578063f2fde38b146102f357600080fd5b8063715018a61461024a578063884d1f40146102525780638da5cb5b14610265578063c0d7865514610280578063c12fc38b1461029357600080fd5b80633fcad964116100f45780633fcad964146101bb57806353c11f99146101eb57806354f5d569146101fe5780635f9e7d771461021157806369f07e051461022457600080fd5b80630c9dfd1e146101265780632174661514610173578063230dbd291461018857806330d9c915146101a8575b600080fd5b6101396101343660046132e0565b610306565b60405161016a9493929190931515845291151560208401526001600160801b03166040830152606082015260800190565b60405180910390f35b610186610181366004612d19565b6103c5565b005b61019b6101963660046130b5565b610548565b60405161016a9190613352565b61019b6101b6366004613019565b610666565b6101ce6101c9366004613262565b6106c9565b60408051931515845260208401929092529082015260600161016a565b61019b6101f93660046130b5565b610894565b61018661020c3660046131c1565b6109c2565b61019b61021f366004613019565b610aba565b610237610232366004612d19565b610c5c565b604051600b9190910b815260200161016a565b610186610cf8565b61019b610260366004613019565b610d2e565b6000546040516001600160a01b03909116815260200161016a565b61018661028e366004612d19565b610d91565b61019b6102a1366004612f11565b610de9565b61019b6102b4366004612f11565b50606090565b6101866102c836600461317c565b6113eb565b61019b6102db3660046130b5565b6115c0565b6101866102ee366004613208565b611a56565b610186610301366004612d19565b611b82565b60035463ffffffff83166000818152600a6020526040808220549051635b53405160e01b81526001600160a01b0391821660048201523060248201526044810193909352848116606484015290928392839283921690635b5340519060840160806040518083038186803b15801561037d57600080fd5b505afa158015610391573d6000803e3d6000fd5b505050506040513d601f19601f820116820180604052508101906103b59190612e52565b9299919850965090945092505050565b6103ec604051806040016040528060058152602001643a37b5b2b760d91b81525082611cf1565b6001600160a01b03811660009081526009602052604081205481908190610412906106c9565b60408051808201825260038152621c9a5960ea1b6020808301919091526001600160a01b038a16600090815260099091529190912054939650919450925061045991611c60565b61048d604051806040016040528060128152602001711d1a5b595cdd185b5c14995d1c9a595d995960721b81525082611c60565b826104d25760405162461bcd60e51b815260206004820152601060248201526f2167657443757272656e7456616c756560801b60448201526064015b60405180910390fd5b6104de610e10426137f1565b81101561051d5760405162461bcd60e51b815260206004820152600d60248201526c2163757272656e7456616c756560981b60448201526064016104c9565b6001600160a01b03909316600090815260096020526040902060018101919091556002019190915550565b6001546060906001600160a01b031633146105755760405162461bcd60e51b81526004016104c99061357d565b898961058081611d36565b156105b7576005546001600160a01b038381169116146105b25760405162461bcd60e51b81526004016104c990613555565b6105ea565b6105c081611dd1565b156105ea576105ce82611e2d565b6105ea5760405162461bcd60e51b81526004016104c99061352c565b84848080601f016020809104026020016040519081016040528093929190818152602001838380828437600092018290525093965083925061063091508c90508b611ecc565b9150915061063c606090565b945061064785610de9565b9450610654858383611f78565b9e9d5050505050505050505050505050565b60405162461bcd60e51b815260206004820152602f60248201527f556e737570706f727465642063616c6c6261636b202d204265666f726520416760448201526e1c99595b595b9d0810dc99585d1959608a1b60648201526060906084016104c9565b600480546040516311bbb87160e21b81529182018390526000918291829182916001600160a01b0316906346eee1c49060240160206040518083038186803b15801561071457600080fd5b505afa158015610728573d6000803e3d6000fd5b505050506040513d601f19601f8201168201806040525081019061074c9190612ef9565b6004549091506000906001600160a01b03166377fbb6638761076f6001866137f1565b6040516001600160e01b031960e085901b1681526004810192909252602482015260440160206040518083038186803b1580156107ab57600080fd5b505afa1580156107bf573d6000803e3d6000fd5b505050506040513d601f19601f820116820180604052508101906107e39190612ef9565b600480546040516393fa491560e01b8152918201899052602482018390529192506000916001600160a01b0316906393fa49159060440160206040518083038186803b15801561083257600080fd5b505afa158015610846573d6000803e3d6000fd5b505050506040513d601f19601f8201168201806040525081019061086a9190612ef9565b9050801561088157600195509350915061088d9050565b50600094508493509150505b9193909250565b6001546060906001600160a01b031633146108c15760405162461bcd60e51b81526004016104c99061357d565b82828080601f016020809104026020016040519081016040528093929190818152602001838380828437600092018290525093945061090692508a9150899050611ecc565b509050600061091786880188613262565b6005546040516323b872dd60e01b81523060048201526001600160a01b038581166024830152604482018490529293509116906323b872dd90606401602060405180830381600087803b15801561096d57600080fd5b505af1158015610981573d6000803e3d6000fd5b505050506040513d601f19601f820116820180604052508101906109a59190612e38565b506109b283836000611f78565b9c9b505050505050505050505050565b6000546001600160a01b031633146109ec5760405162461bcd60e51b81526004016104c9906134f7565b6005546001600160a01b031615610a3b5760405162461bcd60e51b8152602060048201526013602482015272105b1c9958591e481a5b9a5d1a585b1a5e9959606a1b60448201526064016104c9565b600580546001600160a01b038087166001600160a01b0319928316811790935560078690556004805491861691909216179055604080516060810182528381526000602080830182815283850183815295835260099091529290208151815591516001830155915160029190910155610ab3856103c5565b5050505050565b60608787610ac781611d36565b15610afe576005546001600160a01b03838116911614610af95760405162461bcd60e51b81526004016104c990613555565b610b31565b610b0781611dd1565b15610b3157610b1582611e2d565b610b315760405162461bcd60e51b81526004016104c99061352c565b6001546001600160a01b03163314610b5b5760405162461bcd60e51b81526004016104c99061357d565b6000610b678888611ecc565b50600254600554604051631cd43d1160e31b81526001600160a01b03918216600482015281841660248201523060448201529293506000928392919091169063e6a1e8889060640160806040518083038186803b158015610bc757600080fd5b505afa158015610bdb573d6000803e3d6000fd5b505050506040513d601f19601f82011682018060405250810190610bff919061327a565b5050915091506000610c2583836bffffffffffffffffffffffff16600560010154611fdd565b905080604051602001610c3a91815260200190565b6040516020818303038152906040529650505050505050979650505050505050565b600254600554604051631cd43d1160e31b81526001600160a01b0391821660048201528382166024820152306044820152600092919091169063e6a1e8889060640160806040518083038186803b158015610cb657600080fd5b505afa158015610cca573d6000803e3d6000fd5b505050506040513d601f19601f82011682018060405250810190610cee919061327a565b5090949350505050565b6000546001600160a01b03163314610d225760405162461bcd60e51b81526004016104c9906134f7565b610d2c600061202e565b565b60405162461bcd60e51b815260206004820152602f60248201527f556e737570706f727465642063616c6c6261636b202d204265666f726520416760448201526e1c99595b595b9d081d5c19185d1959608a1b60648201526060906084016104c9565b6000546001600160a01b03163314610dbb5760405162461bcd60e51b81526004016104c9906134f7565b600c80546001600160a01b0390921664010000000002640100000000600160c01b0319909216919091179055565b80610df6610e10426137f1565b600080516020613931833981519152546001600160a01b03166000908152600960205260409020600201541015610e5f5760405162461bcd60e51b815260206004820152600d60248201526c2163757272656e7456616c756560981b60448201526064016104c9565b60055460008052600a602052600080516020613931833981519152546040516370a0823160e01b8152306004820152610f0c926001600160a01b0390811692169082906370a082319060240160206040518083038186803b158015610ec357600080fd5b505afa158015610ed7573d6000803e3d6000fd5b505050506040513d601f19601f82011682018060405250810190610efb9190612ef9565b610f0742610e10613690565b61207e565b506000808052600a602052600080516020613931833981519152546040516370a0823160e01b81523060048201526001600160a01b03909116906370a082319060240160206040518083038186803b158015610f6757600080fd5b505afa158015610f7b573d6000803e3d6000fd5b505050506040513d601f19601f82011682018060405250810190610f9f9190612ef9565b6003546000808052600a60205260008051602061393183398151915254604051632266eabb60e21b81526001600160a01b0391821660048201523060248201526044810183905260648101859052939450909291169063899baaec90608401604080518083038186803b15801561101557600080fd5b505afa158015611029573d6000803e3d6000fd5b505050506040513d601f19601f8201168201806040525081019061104d91906132bc565b5090508061105c575050919050565b6000808052600a6020527f13da86008ba1c6922daee3e07db95305ef49ebced9f5467a0b8613fcc6b343e454620f4240906110a0906001600160801b0316846137d2565b6110aa91906136ce565b905060006110b882846137f1565b6000808052600a602052600080516020613931833981519152549192506110ea9183906001600160a01b03168861276b565b60008052600a602090815260008051602061393183398151915254604080518581529283018690526001600160a01b03909116908201529095507fed4b43d1c43fa6de2432cc50d2bbc8db51d9ce0d2095d0a5cfac618764e9fe589060600160405180910390a160015b600b5460ff1663ffffffff821610156113e15763ffffffff81166000908152600a6020526040908190205490516370a0823160e01b81523060048201526001600160a01b03909116906370a082319060240160206040518083038186803b1580156111be57600080fd5b505afa1580156111d2573d6000803e3d6000fd5b505050506040513d601f19601f820116820180604052508101906111f69190612ef9565b945084156113cf5763ffffffff81166000908152600a60205260409020600101546001600160801b0316156113035763ffffffff81166000908152600a6020526040902060010154620f424090611256906001600160801b0316876137d2565b61126091906136ce565b925061126c83866137f1565b63ffffffff82166000908152600a602052604090205490925061129c90829084906001600160a01b03168961276b565b63ffffffff82166000908152600a60209081526040918290205482518681529182018790526001600160a01b03168183015290519197507fed4b43d1c43fa6de2432cc50d2bbc8db51d9ce0d2095d0a5cfac618764e9fe58919081900360600190a16113cf565b63ffffffff81166000908152600a602052604090206002015460065461132990426137f1565b61133391906137d2565b9150848210156113cf5763ffffffff81166000908152600a602052604090205461136a90829084906001600160a01b03168961276b565b63ffffffff82166000908152600a60209081526040808320548151878152928301939093526001600160a01b039092168183015290519197507fed4b43d1c43fa6de2432cc50d2bbc8db51d9ce0d2095d0a5cfac618764e9fe58919081900360600190a15b806113d98161385b565b915050611154565b5050505050919050565b6000546001600160a01b031633146114155760405162461bcd60e51b81526004016104c9906134f7565b806114505760405162461bcd60e51b815260206004820152600b60248201526a085d985b1a5914995c525960aa1b60448201526064016104c9565b6001600160a01b038416600090815260096020526040902054156114a05760405162461bcd60e51b815260206004820152600760248201526621756e6971756560c81b60448201526064016104c9565b604080516060810182526001600160a01b0386811682526001600160801b038681166020808501918252848601888152600b805460ff9081166000908152600a90945297909220865181546001600160a01b031916961695909517855591516001850180546fffffffffffffffffffffffffffffffff1916919094161790925551600290920191909155549091611538911686612a26565b600b805460ff1690600061154b8361387f565b825460ff9182166101009390930a92830291909202199091161790555060408051606081018252838152600060208083018281528385018381526001600160a01b038b1684526009909252939091208251815592516001840155516002909201919091556115b8866103c5565b505050505050565b6001546060906001600160a01b031633146115ed5760405162461bcd60e51b81526004016104c99061357d565b89896115f881611d36565b1561162f576005546001600160a01b0383811691161461162a5760405162461bcd60e51b81526004016104c990613555565b611662565b61163881611dd1565b156116625761164682611e2d565b6116625760405162461bcd60e51b81526004016104c99061352c565b6005546001600160a01b038d8116911614158061168557506116838b611d36565b155b156116c95784848080601f016020809104026020016040519081016040528093929190818152602001838380828437600092019190915250929550611a4792505050565b6117076040518060400160405280601781526020017f696e736964652061667465722061677265656d656e7431000000000000000000815250611c1d565b84848080601f0160208091040260200160405190810160405280939291908181526020018383808284376000920182905250600354600c5463ffffffff16808352600a60205260408084205490516323fc23f360e01b81526001600160a01b039182166004820152306024820152604481019290925296995091958695501692506323fc23f3915060640160806040518083038186803b1580156117aa57600080fd5b505afa1580156117be573d6000803e3d6000fd5b505050506040513d601f19601f820116820180604052508101906117e29190612e9e565b60055460408051631dce337960e31b81529051939750919550600094506001600160a01b0316925063ee719bc8916004808301926020929190829003018186803b15801561182f57600080fd5b505afa158015611843573d6000803e3d6000fd5b505050506040513d601f19601f820116820180604052508101906118679190612d3c565b6001600160a01b031663313ce5676040518163ffffffff1660e01b815260040160206040518083038186803b15801561189f57600080fd5b505afa1580156118b3573d6000803e3d6000fd5b505050506040513d601f19601f820116820180604052508101906118d79190613305565b6118e2906012613808565b6118ed90600a613725565b6005546040516370a0823160e01b81523060048201526001600160a01b03909116906370a082319060240160206040518083038186803b15801561193057600080fd5b505afa158015611944573d6000803e3d6000fd5b505050506040513d601f19601f820116820180604052508101906119689190612ef9565b61197291906136ce565b905060006119808385613665565b6001600160801b03161180156119965750600081115b156119a7576119a486610de9565b95505b6000806119b48e8e611ecc565b915091506119f66040518060400160405280601781526020017f696e736964652061667465722061677265656d656e7434000000000000000000815250611c1d565b611a01888383611f78565b9750611a416040518060400160405280601781526020017f696e736964652061667465722061677265656d656e7435000000000000000000815250611c1d565b50505050505b50509998505050505050505050565b6000546001600160a01b03163314611a805760405162461bcd60e51b81526004016104c9906134f7565b600054600160a81b900460ff16611aa457600054600160a01b900460ff1615611aa8565b303b155b611b0b5760405162461bcd60e51b815260206004820152602e60248201527f496e697469616c697a61626c653a20636f6e747261637420697320616c72656160448201526d191e481a5b9a5d1a585b1a5e995960921b60648201526084016104c9565b600054600160a81b900460ff16158015611b35576000805461ffff60a01b191661010160a01b1790555b600c8054640100000000600160c01b0319166401000000006001600160a01b03891602179055611b67858585856109c2565b80156115b8576000805460ff60a81b19169055505050505050565b6000546001600160a01b03163314611bac5760405162461bcd60e51b81526004016104c9906134f7565b6001600160a01b038116611c115760405162461bcd60e51b815260206004820152602660248201527f4f776e61626c653a206e6577206f776e657220697320746865207a65726f206160448201526564647265737360d01b60648201526084016104c9565b611c1a8161202e565b50565b611c1a81604051602401611c319190613352565b60408051601f198184030181529190526020810180516001600160e01b031663104c13eb60e21b179052612b4f565b611ca58282604051602401611c769291906134d5565b60408051601f198184030181529190526020810180516001600160e01b03166309710a9d60e41b179052612b4f565b5050565b6040516001600160a01b0382166024820152611c1a9060440160408051601f198184030181529190526020810180516001600160e01b031663161765e160e11b179052612b4f565b611ca58282604051602401611d079291906134ab565b60408051601f198184030181529190526020810180516001600160e01b031663319af33360e01b179052612b4f565b60007fa9214cc96615e0085d3bb077758db69497dc2dce3b2b1e97bc93c3d18d83efd3826001600160a01b0316637730599e6040518163ffffffff1660e01b815260040160206040518083038186803b158015611d9257600080fd5b505afa158015611da6573d6000803e3d6000fd5b505050506040513d601f19601f82011682018060405250810190611dca9190612ef9565b1492915050565b60007f8aedc3b5d4bf031e11a7e2940f7251c005698405d58e02e1c247fed3b1b3a674826001600160a01b0316637730599e6040518163ffffffff1660e01b815260040160206040518083038186803b158015611d9257600080fd5b6000611e5f6040518060400160405280600e81526020016d2fb4b9a7baba383aba2a37b5b2b760911b81525083611cf1565b611e9960405180606001604052806025815260200161390c602591396001600160a01b038416600090815260096020526040902054611c60565b6001600160a01b03821660009081526009602052604090205415611ebf57506001919050565b506000919050565b919050565b600080611edb83850185612d58565b50600254600554604051631cd43d1160e31b81526001600160a01b0391821660048201528184166024820152306044820152929450169063e6a1e8889060640160806040518083038186803b158015611f3357600080fd5b505afa158015611f47573d6000803e3d6000fd5b505050506040513d601f19601f82011682018060405250810190611f6b919061327a565b5093969095509350505050565b8260005b600b5460ff1663ffffffff82161015611fd55763ffffffff81166000818152600a6020526040902054611fc19184918790600b88900b906001600160a01b0316612b70565b915080611fcd8161385b565b915050611f7c565b509392505050565b60008082851161200357611ff183426137f1565b611ffb90856137d2565b905080612025565b61200d85426137f1565b61201790856137d2565b6120219082613690565b9050805b50949350505050565b600080546001600160a01b038381166001600160a01b0319831681178455604051919092169283917f8be0079c531659141344cd1fd0a4f28419497f9722a3daafe3b4186f6b6457e09190a35050565b60008060006060600080896001600160a01b031663ee719bc86040518163ffffffff1660e01b815260040160206040518083038186803b1580156120c157600080fd5b505afa1580156120d5573d6000803e3d6000fd5b505050506040513d601f19601f820116820180604052508101906120f99190612d3c565b9450886001600160a01b031663ee719bc86040518163ffffffff1660e01b815260040160206040518083038186803b15801561213457600080fd5b505afa158015612148573d6000803e3d6000fd5b505050506040513d601f19601f8201168201806040525081019061216c9190612d3c565b6040516308de640f60e11b8152600481018a90529094506001600160a01b038b16906311bcc81e90602401600060405180830381600087803b1580156121b157600080fd5b505af11580156121c5573d6000803e3d6000fd5b50505050846001600160a01b031663313ce5676040518163ffffffff1660e01b815260040160206040518083038186803b15801561220257600080fd5b505afa158015612216573d6000803e3d6000fd5b505050506040513d601f19601f8201168201806040525081019061223a9190613305565b612245906012613808565b61225090600a613725565b6040516370a0823160e01b81523060048201526001600160a01b038716906370a082319060240160206040518083038186803b15801561228f57600080fd5b505afa1580156122a3573d6000803e3d6000fd5b505050506040513d601f19601f820116820180604052508101906122c79190612ef9565b6122d191906137d2565b6001600160a01b03808b16600090815260096020526040808220600190810154938f1683529120015491995090612308908a6137d2565b61231291906136ce565b600754909250620f42409061232790826137f1565b61233190846137d2565b61233b91906136ce565b9150670de0b6b3a7640000846001600160a01b031663313ce5676040518163ffffffff1660e01b815260040160206040518083038186803b15801561237f57600080fd5b505afa158015612393573d6000803e3d6000fd5b505050506040513d601f19601f820116820180604052508101906123b79190613305565b6123c290600a613725565b6123cc90846137d2565b6123d691906136ce565b9150846001600160a01b031663313ce5676040518163ffffffff1660e01b815260040160206040518083038186803b15801561241157600080fd5b505afa158015612425573d6000803e3d6000fd5b505050506040513d601f19601f820116820180604052508101906124499190613305565b612454906012613808565b61245f90600a613725565b61246990896136ce565b604080516002808252606082018352929a50919060208301908036833701905050925084836000815181106124ae57634e487b7160e01b600052603260045260246000fd5b60200260200101906001600160a01b031690816001600160a01b03168152505083836001815181106124f057634e487b7160e01b600052603260045260246000fd5b6001600160a01b039283166020918202929092010152600c546040516338ed173960e01b8152640100000000909104909116906338ed173990612540908b90600090889030908e9060040161359c565b600060405180830381600087803b15801561255a57600080fd5b505af115801561256e573d6000803e3d6000fd5b505050506040513d6000823e601f3d908101601f191682016040526125969190810190612d90565b506040516370a0823160e01b81523060048201526001600160a01b038516906370a082319060240160206040518083038186803b1580156125d657600080fd5b505afa1580156125ea573d6000803e3d6000fd5b505050506040513d601f19601f8201168201806040525081019061260e9190612ef9565b90508181101561266b5760405162461bcd60e51b815260206004820152602260248201527f4241445f45584348414e47455f524154453a2054727920616761696e206c617460448201526132b960f11b60648201526084016104c9565b886001600160a01b03166345977d03856001600160a01b031663313ce5676040518163ffffffff1660e01b815260040160206040518083038186803b1580156126b357600080fd5b505afa1580156126c7573d6000803e3d6000fd5b505050506040513d601f19601f820116820180604052508101906126eb9190613305565b6126f6906012613808565b61270190600a613725565b61270b90846137d2565b6040518263ffffffff1660e01b815260040161272991815260200190565b600060405180830381600087803b15801561274357600080fd5b505af1158015612757573d6000803e3d6000fd5b50929750505050505050505b949350505050565b80518190612868576001546003546040805160008152602081019091526001600160a01b03928316926339255d5b921690635cb398e160e11b906127b89088908b908b906044810161346c565b60408051601f19818403018152918152602080830180516001600160e01b03166001600160e01b03199586161790528151600081529081019182905260e086901b909316905261280c929160248101613365565b600060405180830381600087803b15801561282657600080fd5b505af115801561283a573d6000803e3d6000fd5b505050506040513d6000823e601f3d908101601f191682016040526128629190810190612f85565b50612763565b600154604051632fd0a1cd60e21b81526001600160a01b039091169063bf42873490612898908490600401613352565b60206040518083038186803b1580156128b057600080fd5b505afa1580156128c4573d6000803e3d6000fd5b505050506040513d601f19601f820116820180604052508101906128e89190612e38565b806128f257508051155b61292c5760405162461bcd60e51b815260206004820152600b60248201526a216469737472696275746560a81b60448201526064016104c9565b6001546003546040805160008152602081019091526001600160a01b0392831692634329d293921690635cb398e160e11b906129719088908b908b906044810161346c565b60408051601f19818403018152918152602080830180516001600160e01b03166001600160e01b03199586161790528151600081529081019182905260e086901b90931690526129c6929186602482016133a5565b600060405180830381600087803b1580156129e057600080fd5b505af11580156129f4573d6000803e3d6000fd5b505050506040513d6000823e601f3d908101601f19168201604052612a1c9190810190612fb8565b5095945050505050565b612a546040518060400160405280600c81526020016b086e4cac2e8ca40d2dcc8caf60a31b81525083611c60565b612a5d81611ca9565b6001546003546040805160008152602081019091526001600160a01b03928316926339255d5b921690636bc3c20560e11b90612aa090869088906044810161343c565b60408051601f19818403018152918152602080830180516001600160e01b03166001600160e01b03199586161790528151600081529081019182905260e086901b9093169052612af4929160248101613365565b600060405180830381600087803b158015612b0e57600080fd5b505af1158015612b22573d6000803e3d6000fd5b505050506040513d6000823e601f3d908101601f19168201604052612b4a9190810190612f85565b505050565b80516a636f6e736f6c652e6c6f67602083016000808483855afa5050505050565b60015460035486916001600160a01b0390811691634329d2939116630465a56b60e31b858989612ba4633b9aca008b6136a8565b604080516000815260208101909152612bc49493929190604481016133fa565b60408051601f19818403018152918152602080830180516001600160e01b03166001600160e01b03199586161790528151600081529081019182905260e086901b9093169052612c19929186602482016133a5565b600060405180830381600087803b158015612c3357600080fd5b505af1158015612c47573d6000803e3d6000fd5b505050506040513d6000823e601f3d908101601f19168201604052612c6f9190810190612fb8565b509695505050505050565b80518015158114611ec757600080fd5b60008083601f840112612c9b578182fd5b50813567ffffffffffffffff811115612cb2578182fd5b602083019150836020828501011115612cca57600080fd5b9250929050565b600082601f830112612ce1578081fd5b8151612cf4612cef8261363d565b61360c565b818152846020838601011115612d08578283fd5b61276382602083016020870161382b565b600060208284031215612d2a578081fd5b8135612d35816138e1565b9392505050565b600060208284031215612d4d578081fd5b8151612d35816138e1565b60008060408385031215612d6a578081fd5b8235612d75816138e1565b91506020830135612d85816138e1565b809150509250929050565b60006020808385031215612da2578182fd5b825167ffffffffffffffff80821115612db9578384fd5b818501915085601f830112612dcc578384fd5b815181811115612dde57612dde6138cb565b8060051b9150612def84830161360c565b8181528481019084860184860187018a1015612e09578788fd5b8795505b83861015612e2b578051835260019590950194918601918601612e0d565b5098975050505050505050565b600060208284031215612e49578081fd5b612d3582612c7a565b60008060008060808587031215612e67578182fd5b612e7085612c7a565b9350612e7e60208601612c7a565b92506040850151612e8e816138f6565b6060959095015193969295505050565b60008060008060808587031215612eb3578182fd5b612ebc85612c7a565b93506020850151612ecc816138f6565b6040860151909350612edd816138f6565b6060860151909250612eee816138f6565b939692955090935050565b600060208284031215612f0a578081fd5b5051919050565b600060208284031215612f22578081fd5b813567ffffffffffffffff811115612f38578182fd5b8201601f81018413612f48578182fd5b8035612f56612cef8261363d565b818152856020838501011115612f6a578384fd5b81602084016020830137908101602001929092525092915050565b600060208284031215612f96578081fd5b815167ffffffffffffffff811115612fac578182fd5b61276384828501612cd1565b60008060408385031215612fca578182fd5b825167ffffffffffffffff80821115612fe1578384fd5b612fed86838701612cd1565b93506020850151915080821115613002578283fd5b5061300f85828601612cd1565b9150509250929050565b600080600080600080600060a0888a031215613033578485fd5b873561303e816138e1565b9650602088013561304e816138e1565b955060408801359450606088013567ffffffffffffffff80821115613071578485fd5b61307d8b838c01612c8a565b909650945060808a0135915080821115613095578384fd5b506130a28a828b01612c8a565b989b979a50959850939692959293505050565b600080600080600080600080600060c08a8c0312156130d2578283fd5b89356130dd816138e1565b985060208a01356130ed816138e1565b975060408a0135965060608a013567ffffffffffffffff80821115613110578485fd5b61311c8d838e01612c8a565b909850965060808c0135915080821115613134578485fd5b6131408d838e01612c8a565b909650945060a08c0135915080821115613158578384fd5b506131658c828d01612c8a565b915080935050809150509295985092959850929598565b60008060008060808587031215613191578182fd5b843561319c816138e1565b935060208501356131ac816138f6565b93969395505050506040820135916060013590565b600080600080608085870312156131d6578182fd5b84356131e1816138e1565b93506020850135925060408501356131f8816138e1565b9396929550929360600135925050565b600080600080600060a0868803121561321f578283fd5b853561322a816138e1565b9450602086013561323a816138e1565b9350604086013592506060860135613251816138e1565b949793965091946080013592915050565b600060208284031215613273578081fd5b5035919050565b6000806000806080858703121561328f578182fd5b84519350602085015180600b0b81146132a6578283fd5b6040860151606090960151949790965092505050565b600080604083850312156132ce578182fd5b825191506020830151612d85816138f6565b600080604083850312156132f2578182fd5b823563ffffffff81168114612d75578283fd5b600060208284031215613316578081fd5b815160ff81168114612d35578182fd5b6000815180845261333e81602086016020860161382b565b601f01601f19169290920160200192915050565b602081526000612d356020830184613326565b6001600160a01b038416815260606020820181905260009061338990830185613326565b828103604084015261339b8185613326565b9695505050505050565b6001600160a01b03851681526080602082018190526000906133c990830186613326565b82810360408401526133db8186613326565b905082810360608401526133ef8185613326565b979650505050505050565b6001600160a01b03868116825260208201869052841660408201526001600160801b038316606082015260a0608082018190526000906133ef90830184613326565b60018060a01b03841681528260208201526060604082015260006134636060830184613326565b95945050505050565b6001600160a01b038516815263ffffffff841660208201526001600160801b038316604082015260806060820181905260009061339b90830184613326565b6040815260006134be6040830185613326565b905060018060a01b03831660208301529392505050565b6040815260006134e86040830185613326565b90508260208301529392505050565b6020808252818101527f4f776e61626c653a2063616c6c6572206973206e6f7420746865206f776e6572604082015260600190565b6020808252600f908201526e085bdd5d1c1d5d1058d8d95c1d1959608a1b604082015260600190565b6020808252600e908201526d085a5b9c1d5d1058d8d95c1d195960921b604082015260600190565b602080825260059082015264085a1bdcdd60da1b604082015260600190565b600060a082018783526020878185015260a0604085015281875180845260c0860191508289019350845b818110156135eb5784516001600160a01b0316835293830193918301916001016135c6565b50506001600160a01b03969096166060850152505050608001529392505050565b604051601f8201601f1916810167ffffffffffffffff81118282101715613635576136356138cb565b604052919050565b600067ffffffffffffffff821115613657576136576138cb565b50601f01601f191660200190565b60006001600160801b038083168185168083038211156136875761368761389f565b01949350505050565b600082198211156136a3576136a361389f565b500190565b60006001600160801b03808416806136c2576136c26138b5565b92169190910492915050565b6000826136dd576136dd6138b5565b500490565b600181815b8085111561371d5781600019048211156137035761370361389f565b8085161561371057918102915b93841c93908002906136e7565b509250929050565b6000612d3560ff84168360008261373e575060016137cc565b8161374b575060006137cc565b8160018114613761576002811461376b57613787565b60019150506137cc565b60ff84111561377c5761377c61389f565b50506001821b6137cc565b5060208310610133831016604e8410600b84101617156137aa575081810a6137cc565b6137b483836136e2565b80600019048211156137c8576137c861389f565b0290505b92915050565b60008160001904831182151516156137ec576137ec61389f565b500290565b6000828210156138035761380361389f565b500390565b600060ff821660ff8416808210156138225761382261389f565b90039392505050565b60005b8381101561384657818101518382015260200161382e565b83811115613855576000848401525b50505050565b600063ffffffff808316818114156138755761387561389f565b6001019392505050565b600060ff821660ff8114156138965761389661389f565b60010192915050565b634e487b7160e01b600052601160045260246000fd5b634e487b7160e01b600052601260045260246000fd5b634e487b7160e01b600052604160045260246000fd5b6001600160a01b0381168114611c1a57600080fd5b6001600160801b0381168114611c1a57600080fdfe6d61726b65742e6f7261636c65735b5f7375706572546f6b656e5d2e72657175657374496413da86008ba1c6922daee3e07db95305ef49ebced9f5467a0b8613fcc6b343e3a26469706673582212206a6d3bfa43711515372b518e0fa4c4f0cd855a18d8e56694107968f14236f1d764736f6c634300080400334f776e61626c653a2063616c6c6572206973206e6f7420746865206f776e6572",
  "linkReferences": {},
  "deployedLinkReferences": {}
}