{
  "_format": "hh-sol-artifact-1",
  "contractName": "REXOneWayMarket",
  "sourceName": "contracts/REXOneWayMarket.sol",
  "abi": [
    {
      "inputs": [
        {
          "internalType": "address",
          "name": "_owner",
          "type": "address"
        },
        {
          "internalType": "contract ISuperfluid",
          "name": "_host",
          "type": "address"
        },
        {
          "internalType": "contract IConstantFlowAgreementV1",
          "name": "_cfa",
          "type": "address"
        },
        {
          "internalType": "contract IInstantDistributionAgreementV1",
          "name": "_ida",
          "type": "address"
        },
        {
          "internalType": "string",
          "name": "_registrationKey",
          "type": "string"
        },
        {
          "internalType": "contract IREXReferral",
          "name": "_rexReferral",
          "type": "address"
        }
      ],
      "stateMutability": "nonpayable",
      "type": "constructor"
    },
    {
      "anonymous": false,
      "inputs": [
        {
          "indexed": false,
          "internalType": "uint256",
          "name": "totalAmount",
          "type": "uint256"
        },
        {
          "indexed": false,
          "internalType": "uint256",
          "name": "feeCollected",
          "type": "uint256"
        },
        {
          "indexed": false,
          "internalType": "address",
          "name": "token",
          "type": "address"
        }
      ],
      "name": "Distribution",
      "type": "event"
    },
    {
      "anonymous": false,
      "inputs": [
        {
          "indexed": true,
          "internalType": "address",
          "name": "previousOwner",
          "type": "address"
        },
        {
          "indexed": true,
          "internalType": "address",
          "name": "newOwner",
          "type": "address"
        }
      ],
      "name": "OwnershipTransferred",
      "type": "event"
    },
    {
      "inputs": [
        {
          "internalType": "contract ISuperToken",
          "name": "_token",
          "type": "address"
        },
        {
          "internalType": "uint128",
          "name": "_feeRate",
          "type": "uint128"
        },
        {
          "internalType": "uint256",
          "name": "_emissionRate",
          "type": "uint256"
        },
        {
          "internalType": "uint256",
          "name": "_requestId",
          "type": "uint256"
        }
      ],
      "name": "addOutputPool",
      "outputs": [],
      "stateMutability": "nonpayable",
      "type": "function"
    },
    {
      "inputs": [
        {
          "internalType": "contract ISuperToken",
          "name": "_superToken",
          "type": "address"
        },
        {
          "internalType": "address",
          "name": "_agreementClass",
          "type": "address"
        },
        {
          "internalType": "bytes32",
          "name": "",
          "type": "bytes32"
        },
        {
          "internalType": "bytes",
          "name": "_agreementData",
          "type": "bytes"
        },
        {
          "internalType": "bytes",
          "name": "",
          "type": "bytes"
        },
        {
          "internalType": "bytes",
          "name": "_ctx",
          "type": "bytes"
        }
      ],
      "name": "afterAgreementCreated",
      "outputs": [
        {
          "internalType": "bytes",
          "name": "_newCtx",
          "type": "bytes"
        }
      ],
      "stateMutability": "nonpayable",
      "type": "function"
    },
    {
      "inputs": [
        {
          "internalType": "contract ISuperToken",
          "name": "_superToken",
          "type": "address"
        },
        {
          "internalType": "address",
          "name": "_agreementClass",
          "type": "address"
        },
        {
          "internalType": "bytes32",
          "name": "",
          "type": "bytes32"
        },
        {
          "internalType": "bytes",
          "name": "_agreementData",
          "type": "bytes"
        },
        {
          "internalType": "bytes",
          "name": "_cbdata",
          "type": "bytes"
        },
        {
          "internalType": "bytes",
          "name": "_ctx",
          "type": "bytes"
        }
      ],
      "name": "afterAgreementTerminated",
      "outputs": [
        {
          "internalType": "bytes",
          "name": "_newCtx",
          "type": "bytes"
        }
      ],
      "stateMutability": "nonpayable",
      "type": "function"
    },
    {
      "inputs": [
        {
          "internalType": "contract ISuperToken",
          "name": "_superToken",
          "type": "address"
        },
        {
          "internalType": "address",
          "name": "_agreementClass",
          "type": "address"
        },
        {
          "internalType": "bytes32",
          "name": "",
          "type": "bytes32"
        },
        {
          "internalType": "bytes",
          "name": "_agreementData",
          "type": "bytes"
        },
        {
          "internalType": "bytes",
          "name": "_cbdata",
          "type": "bytes"
        },
        {
          "internalType": "bytes",
          "name": "_ctx",
          "type": "bytes"
        }
      ],
      "name": "afterAgreementUpdated",
      "outputs": [
        {
          "internalType": "bytes",
          "name": "_newCtx",
          "type": "bytes"
        }
      ],
      "stateMutability": "nonpayable",
      "type": "function"
    },
    {
      "inputs": [
        {
          "internalType": "contract ISuperToken",
          "name": "_superToken",
          "type": "address"
        },
        {
          "internalType": "address",
          "name": "_agreementClass",
          "type": "address"
        },
        {
          "internalType": "bytes32",
          "name": "",
          "type": "bytes32"
        },
        {
          "internalType": "bytes",
          "name": "_agreementData",
          "type": "bytes"
        },
        {
          "internalType": "bytes",
          "name": "",
          "type": "bytes"
        }
      ],
      "name": "beforeAgreementCreated",
      "outputs": [
        {
          "internalType": "bytes",
          "name": "_cbdata",
          "type": "bytes"
        }
      ],
      "stateMutability": "view",
      "type": "function"
    },
    {
      "inputs": [
        {
          "internalType": "contract ISuperToken",
          "name": "_superToken",
          "type": "address"
        },
        {
          "internalType": "address",
          "name": "_agreementClass",
          "type": "address"
        },
        {
          "internalType": "bytes32",
          "name": "",
          "type": "bytes32"
        },
        {
          "internalType": "bytes",
          "name": "_agreementData",
          "type": "bytes"
        },
        {
          "internalType": "bytes",
          "name": "",
          "type": "bytes"
        }
      ],
      "name": "beforeAgreementTerminated",
      "outputs": [
        {
          "internalType": "bytes",
          "name": "_cbdata",
          "type": "bytes"
        }
      ],
      "stateMutability": "view",
      "type": "function"
    },
    {
      "inputs": [
        {
          "internalType": "contract ISuperToken",
          "name": "_superToken",
          "type": "address"
        },
        {
          "internalType": "address",
          "name": "_agreementClass",
          "type": "address"
        },
        {
          "internalType": "bytes32",
          "name": "",
          "type": "bytes32"
        },
        {
          "internalType": "bytes",
          "name": "_agreementData",
          "type": "bytes"
        },
        {
          "internalType": "bytes",
          "name": "_ctx",
          "type": "bytes"
        }
      ],
      "name": "beforeAgreementUpdated",
      "outputs": [
        {
          "internalType": "bytes",
          "name": "_cbdata",
          "type": "bytes"
        }
      ],
      "stateMutability": "view",
      "type": "function"
    },
    {
      "inputs": [
        {
          "internalType": "bytes",
          "name": "ctx",
          "type": "bytes"
        }
      ],
      "name": "distribute",
      "outputs": [
        {
          "internalType": "bytes",
          "name": "newCtx",
          "type": "bytes"
        }
      ],
      "stateMutability": "nonpayable",
      "type": "function"
    },
    {
      "inputs": [
        {
          "internalType": "address",
          "name": "streamer",
          "type": "address"
        }
      ],
      "name": "emergencyCloseStream",
      "outputs": [],
      "stateMutability": "nonpayable",
      "type": "function"
    },
    {
      "inputs": [],
      "name": "emergencyDrain",
      "outputs": [],
      "stateMutability": "nonpayable",
      "type": "function"
    },
    {
      "inputs": [
        {
          "internalType": "uint256",
          "name": "_requestId",
          "type": "uint256"
        }
      ],
      "name": "getCurrentValue",
      "outputs": [
        {
          "internalType": "bool",
          "name": "_ifRetrieve",
          "type": "bool"
        },
        {
          "internalType": "uint256",
          "name": "_value",
          "type": "uint256"
        },
        {
          "internalType": "uint256",
          "name": "_timestampRetrieved",
          "type": "uint256"
        }
      ],
      "stateMutability": "view",
      "type": "function"
    },
    {
      "inputs": [
        {
          "internalType": "uint32",
          "name": "_index",
          "type": "uint32"
        }
      ],
      "name": "getEmissionRate",
      "outputs": [
        {
          "internalType": "uint256",
          "name": "",
          "type": "uint256"
        }
      ],
      "stateMutability": "view",
      "type": "function"
    },
    {
      "inputs": [
        {
          "internalType": "uint32",
          "name": "_index",
          "type": "uint32"
        }
      ],
      "name": "getFeeRate",
      "outputs": [
        {
          "internalType": "uint128",
          "name": "",
          "type": "uint128"
        }
      ],
      "stateMutability": "view",
      "type": "function"
    },
    {
      "inputs": [
        {
          "internalType": "uint32",
          "name": "_index",
          "type": "uint32"
        },
        {
          "internalType": "address",
          "name": "_streamer",
          "type": "address"
        }
      ],
      "name": "getIDAShares",
      "outputs": [
        {
          "internalType": "bool",
          "name": "_exist",
          "type": "bool"
        },
        {
          "internalType": "bool",
          "name": "_approved",
          "type": "bool"
        },
        {
          "internalType": "uint128",
          "name": "_units",
          "type": "uint128"
        },
        {
          "internalType": "uint256",
          "name": "_pendingDistribution",
          "type": "uint256"
        }
      ],
      "stateMutability": "view",
      "type": "function"
    },
    {
      "inputs": [],
      "name": "getInputToken",
      "outputs": [
        {
          "internalType": "contract ISuperToken",
          "name": "",
          "type": "address"
        }
      ],
      "stateMutability": "view",
      "type": "function"
    },
    {
      "inputs": [],
      "name": "getLastDistributionAt",
      "outputs": [
        {
          "internalType": "uint256",
          "name": "",
          "type": "uint256"
        }
      ],
      "stateMutability": "view",
      "type": "function"
    },
    {
      "inputs": [
        {
          "internalType": "contract ISuperToken",
          "name": "token",
          "type": "address"
        }
      ],
      "name": "getOracleInfo",
      "outputs": [
        {
          "components": [
            {
              "internalType": "uint256",
              "name": "requestId",
              "type": "uint256"
            },
            {
              "internalType": "uint256",
              "name": "usdPrice",
              "type": "uint256"
            },
            {
              "internalType": "uint256",
              "name": "lastUpdatedAt",
              "type": "uint256"
            }
          ],
          "internalType": "struct REXMarket.OracleInfo",
          "name": "",
          "type": "tuple"
        }
      ],
      "stateMutability": "view",
      "type": "function"
    },
    {
      "inputs": [
        {
          "internalType": "uint32",
          "name": "_index",
          "type": "uint32"
        }
      ],
      "name": "getOuputPool",
      "outputs": [
        {
          "components": [
            {
              "internalType": "contract ISuperToken",
              "name": "token",
              "type": "address"
            },
            {
              "internalType": "uint128",
              "name": "feeRate",
              "type": "uint128"
            },
            {
              "internalType": "uint256",
              "name": "emissionRate",
              "type": "uint256"
            }
          ],
          "internalType": "struct REXMarket.OutputPool",
          "name": "",
          "type": "tuple"
        }
      ],
      "stateMutability": "view",
      "type": "function"
    },
    {
      "inputs": [],
      "name": "getRateTolerance",
      "outputs": [
        {
          "internalType": "uint256",
          "name": "",
          "type": "uint256"
        }
      ],
      "stateMutability": "view",
      "type": "function"
    },
    {
      "inputs": [
        {
          "internalType": "address",
          "name": "_streamer",
          "type": "address"
        },
        {
          "internalType": "contract ISuperToken",
          "name": "_token",
          "type": "address"
        }
      ],
      "name": "getStreamRate",
      "outputs": [
        {
          "internalType": "int96",
          "name": "_requesterFlowRate",
          "type": "int96"
        }
      ],
      "stateMutability": "view",
      "type": "function"
    },
    {
      "inputs": [],
      "name": "getTellorOracle",
      "outputs": [
        {
          "internalType": "address",
          "name": "",
          "type": "address"
        }
      ],
      "stateMutability": "view",
      "type": "function"
    },
    {
      "inputs": [],
      "name": "getTotalInflow",
      "outputs": [
        {
          "internalType": "int96",
          "name": "",
          "type": "int96"
        }
      ],
      "stateMutability": "view",
      "type": "function"
    },
    {
      "inputs": [
        {
          "internalType": "contract ISuperToken",
          "name": "_inputToken",
          "type": "address"
        },
        {
          "internalType": "uint256",
          "name": "_rateTolerance",
          "type": "uint256"
        },
        {
          "internalType": "contract ITellor",
          "name": "_tellor",
          "type": "address"
        },
        {
          "internalType": "uint256",
          "name": "_inputTokenRequestId",
          "type": "uint256"
        },
        {
          "internalType": "uint128",
          "name": "_affiliateFee",
          "type": "uint128"
        },
        {
          "internalType": "uint128",
          "name": "_feeRate",
          "type": "uint128"
        }
      ],
      "name": "initializeMarket",
      "outputs": [],
      "stateMutability": "nonpayable",
      "type": "function"
    },
    {
      "inputs": [
        {
          "internalType": "contract IUniswapV2Router02",
          "name": "_router",
          "type": "address"
        },
        {
          "internalType": "contract ITellor",
          "name": "_tellor",
          "type": "address"
        },
        {
          "internalType": "contract ISuperToken",
          "name": "_inputToken",
          "type": "address"
        },
        {
          "internalType": "uint256",
          "name": "_rateTolerance",
          "type": "uint256"
        },
        {
          "internalType": "uint256",
          "name": "_inputTokenRequestId",
          "type": "uint256"
        },
        {
          "internalType": "contract ISuperToken",
          "name": "_outputToken",
          "type": "address"
        },
        {
          "internalType": "uint128",
          "name": "_feeRate",
          "type": "uint128"
        },
        {
          "internalType": "uint256",
          "name": "_ouptutTokenRequestId",
          "type": "uint256"
        }
      ],
      "name": "initializeOneWayMarket",
      "outputs": [],
      "stateMutability": "nonpayable",
      "type": "function"
    },
    {
      "inputs": [],
      "name": "isAppJailed",
      "outputs": [
        {
          "internalType": "bool",
          "name": "",
          "type": "bool"
        }
      ],
      "stateMutability": "view",
      "type": "function"
    },
    {
      "inputs": [],
      "name": "owner",
      "outputs": [
        {
          "internalType": "address",
          "name": "",
          "type": "address"
        }
      ],
      "stateMutability": "view",
      "type": "function"
    },
    {
      "inputs": [],
      "name": "renounceOwnership",
      "outputs": [],
      "stateMutability": "nonpayable",
      "type": "function"
    },
    {
      "inputs": [
        {
          "internalType": "uint32",
          "name": "_index",
          "type": "uint32"
        },
        {
          "internalType": "uint128",
          "name": "_emissionRate",
          "type": "uint128"
        }
      ],
      "name": "setEmissionRate",
      "outputs": [],
      "stateMutability": "nonpayable",
      "type": "function"
    },
    {
      "inputs": [
        {
          "internalType": "uint32",
          "name": "_index",
          "type": "uint32"
        },
        {
          "internalType": "uint128",
          "name": "_feeRate",
          "type": "uint128"
        }
      ],
      "name": "setFeeRate",
      "outputs": [],
      "stateMutability": "nonpayable",
      "type": "function"
    },
    {
      "inputs": [
        {
          "internalType": "uint256",
          "name": "_rate",
          "type": "uint256"
        }
      ],
      "name": "setRateTolerance",
      "outputs": [],
      "stateMutability": "nonpayable",
      "type": "function"
    },
    {
      "inputs": [
        {
          "internalType": "address",
          "name": "_router",
          "type": "address"
        }
      ],
      "name": "setRouter",
      "outputs": [],
      "stateMutability": "nonpayable",
      "type": "function"
    },
    {
      "inputs": [
        {
          "internalType": "address",
          "name": "newOwner",
          "type": "address"
        }
      ],
      "name": "transferOwnership",
      "outputs": [],
      "stateMutability": "nonpayable",
      "type": "function"
    },
    {
      "inputs": [
        {
          "internalType": "contract ISuperToken",
          "name": "_token",
          "type": "address"
        }
      ],
      "name": "updateTokenPrice",
      "outputs": [],
      "stateMutability": "nonpayable",
      "type": "function"
    },
    {
      "inputs": [],
      "name": "updateTokenPrices",
      "outputs": [],
      "stateMutability": "nonpayable",
      "type": "function"
    }
  ],
  "bytecode": "0x60806040523480156200001157600080fd5b5060405162005364380380620053648339810160408190526200003491620002be565b858585858585620000453362000187565b600180546001600160a01b038088166001600160a01b0319928316179092556002805487841690831617905560038054868416908316179055600e8054928416929091169190911790556200009a86620001d7565b815160019015620001135760015460405163bd1c448b60e01b81526001600160a01b039091169063bd1c448b90620000d99084908790600401620003dc565b600060405180830381600087803b158015620000f457600080fd5b505af115801562000109573d6000803e3d6000fd5b5050505062000174565b6001546040516315a722b960e31b8152600481018390526001600160a01b039091169063ad3915c890602401600060405180830381600087803b1580156200015a57600080fd5b505af11580156200016f573d6000803e3d6000fd5b505050505b5050505050505050505050505062000477565b600080546001600160a01b038381166001600160a01b0319831681178455604051919092169283917f8be0079c531659141344cd1fd0a4f28419497f9722a3daafe3b4186f6b6457e09190a35050565b6000546001600160a01b03163314620002375760405162461bcd60e51b815260206004820181905260248201527f4f776e61626c653a2063616c6c6572206973206e6f7420746865206f776e657260448201526064015b60405180910390fd5b6001600160a01b0381166200029e5760405162461bcd60e51b815260206004820152602660248201527f4f776e61626c653a206e6577206f776e657220697320746865207a65726f206160448201526564647265737360d01b60648201526084016200022e565b620002a98162000187565b50565b8051620002b98162000461565b919050565b60008060008060008060c08789031215620002d7578182fd5b8651620002e48162000461565b6020880151909650620002f78162000461565b60408801519095506200030a8162000461565b60608801519094506200031d8162000461565b60808801519093506001600160401b03808211156200033a578384fd5b818901915089601f8301126200034e578384fd5b8151818111156200036357620003636200044b565b604051601f8201601f19908116603f011681019083821181831017156200038e576200038e6200044b565b816040528281528c6020848701011115620003a7578687fd5b620003ba83602083016020880162000418565b8096505050505050620003d060a08801620002ac565b90509295509295509295565b82815260406020820152600082518060408401526200040381606085016020870162000418565b601f01601f1916919091016060019392505050565b60005b83811015620004355781810151838201526020016200041b565b8381111562000445576000848401525b50505050565b634e487b7160e01b600052604160045260246000fd5b6001600160a01b0381168114620002a957600080fd5b614edd80620004876000396000f3fe608060405234801561001057600080fd5b50600436106102065760003560e01c8063884d1f401161011a578063c51f8f4e116100ad578063e52e43da1161007c578063e52e43da14610546578063e8e75cbd14610557578063f19a31c2146105a1578063f2fde38b146105b4578063fe1b09dd146105c757600080fd5b8063c51f8f4e14610505578063cdf5bd7514610518578063d33fcc0814610520578063d86ed3e51461053357600080fd5b8063bfdb6b04116100e9578063bfdb6b04146104a2578063c0d78655146104d7578063c12fc38b146104ea578063c24c14e0146104fd57600080fd5b8063884d1f40146104595780638d21b5931461046c5780638da5cb5b1461047e578063b9bb02291461048f57600080fd5b8063416c339d1161019d5780635f9e7d771161016c5780635f9e7d771461035f578063715018a61461037257806380f8620f1461037a57806381dca2b61461039f57806383688be61461044657600080fd5b8063416c339d1461030b57806353c11f991461032657806358a61d3d146103395780635ce81f991461034c57600080fd5b8063230dbd29116101d9578063230dbd29146102985780632caac08b146102b857806330d9c915146102c05780633fcad964146102db57600080fd5b80630c9dfd1e1461020b5780630f2dc3d61461025857806315843a011461026d5780632174661514610285575b600080fd5b61021e6102193660046146a0565b6105f0565b60405161024f9493929190931515845291151560208401526001600160801b03166040830152606082015260800190565b60405180910390f35b61026b610266366004613edc565b6106af565b005b610275610855565b604051901515815260200161024f565b61026b610293366004613edc565b6108d6565b6102ab6102a6366004614283565b6109b8565b60405161024f919061476c565b61026b610b04565b6102ab6102ce3660046141e7565b6060979650505050505050565b6102ee6102e936600461448b565b610e80565b60408051931515845260208401929092529082015260600161024f565b610313611044565b604051600b9190910b815260200161024f565b6102ab610334366004614283565b6110ce565b61026b61034736600461448b565b611227565b61026b61035a3660046146bb565b611256565b6102ab61036d3660046141e7565b6112a9565b61026b611334565b6004546001600160a01b03165b6040516001600160a01b03909116815260200161024f565b6104126103ad366004614686565b60408051606080820183526000808352602080840182905292840181905263ffffffff949094168452600b8252928290208251938401835280546001600160a01b0316845260018101546001600160801b031691840191909152600201549082015290565b6040805182516001600160a01b031681526020808401516001600160801b031690820152918101519082015260600161024f565b61026b61045436600461438f565b61136a565b6102ab6104673660046141e7565b611486565b6007545b60405190815260200161024f565b6000546001600160a01b0316610387565b61031361049d366004613f4c565b611536565b6104b56104b0366004613edc565b6115cd565b604080518251815260208084015190820152918101519082015260600161024f565b61026b6104e5366004613edc565b611633565b6102ab6104f83660046140df565b61167f565b61026b611cb9565b61026b6105133660046143fe565b611d1e565b600654610470565b61026b61052e36600461434a565b612007565b6102ab610541366004614283565b6121f4565b6005546001600160a01b0316610387565b610589610565366004614686565b63ffffffff166000908152600b60205260409020600101546001600160801b031690565b6040516001600160801b03909116815260200161024f565b61026b6105af3660046146bb565b61232d565b61026b6105c2366004613edc565b612390565b6104706105d5366004614686565b63ffffffff166000908152600b602052604090206002015490565b60035463ffffffff83166000818152600b6020526040808220549051635b53405160e01b81526001600160a01b0391821660048201523060248201526044810193909352848116606484015290928392839283921690635b5340519060840160806040518083038186803b15801561066757600080fd5b505afa15801561067b573d6000803e3d6000fd5b505050506040513d601f19601f8201168201806040525081019061069f9190614020565b9299919850965090945092505050565b600154604051636b4f333560e01b81523060048201526000916001600160a01b031690636b4f33359060240160206040518083038186803b1580156106f357600080fd5b505afa158015610707573d6000803e3d6000fd5b505050506040513d601f19601f8201168201806040525081019061072b9190614006565b9050806107695760405162461bcd60e51b8152602060048201526007602482015266085a985a5b195960ca1b60448201526064015b60405180910390fd5b6001546002546005546040805160008152602081019091526001600160a01b03938416936339255d5b93811692635a5999e360e11b926107b492909116908890309060448101614850565b60408051601f198184030181529181526020820180516001600160e01b03166001600160e01b03199485161790525160e085901b90921682526107fa929160040161477f565b600060405180830381600087803b15801561081457600080fd5b505af1158015610828573d6000803e3d6000fd5b505050506040513d6000823e601f3d908101601f191682016040526108509190810190614153565b505050565b600154604051636b4f333560e01b81523060048201526000916001600160a01b031690636b4f33359060240160206040518083038186803b15801561089957600080fd5b505afa1580156108ad573d6000803e3d6000fd5b505050506040513d601f19601f820116820180604052508101906108d19190614006565b905090565b6001600160a01b0381166000908152600a6020526040812054819081906108fc90610e80565b925092509250826109425760405162461bcd60e51b815260206004820152601060248201526f2167657443757272656e7456616c756560801b6044820152606401610760565b61094e610e1042614d71565b81101561098d5760405162461bcd60e51b815260206004820152600d60248201526c2163757272656e7456616c756560981b6044820152606401610760565b6001600160a01b039093166000908152600a6020526040902060018101919091556002019190915550565b60606109c2612428565b6109cc8a8a61246a565b6005546001600160a01b038b811691161415806109ef57506109ed89612547565b155b15610a335782828080601f016020809104026020016040519081016040528093929190818152602001838380828437600092019190915250929350610af792505050565b82828080601f0160208091040260200160405190810160405280939291908181526020018383808284376000920182905250939450839250610a7a91508a9050898e6125e2565b5090925090506000610a8e8789018961448b565b9050610a98612690565b15610aa957610aa68461167f565b93505b60006040518060800160405280856001600160a01b0316815260200183600b0b815260200184600b0b81526020018f6001600160a01b03168152509050610af085826127ea565b9450505050505b9998505050505050505050565b6000546001600160a01b03163314610b2e5760405162461bcd60e51b815260040161076090614981565b60025460055460405163e8e7e2d160e01b81526001600160a01b03918216600482015230602482015291169063e8e7e2d19060440160206040518083038186803b158015610b7b57600080fd5b505afa158015610b8f573d6000803e3d6000fd5b505050506040513d601f19601f82011682018060405250810190610bb391906144a3565b600b0b15610bf45760405162461bcd60e51b815260206004820152600e60248201526d217a65726f53747265616d65727360901b6044820152606401610760565b6005546001600160a01b031663a9059cbb610c176000546001600160a01b031690565b6005546040516370a0823160e01b81523060048201526001600160a01b03909116906370a082319060240160206040518083038186803b158015610c5a57600080fd5b505afa158015610c6e573d6000803e3d6000fd5b505050506040513d601f19601f82011682018060405250810190610c9291906140c7565b6040516001600160e01b031960e085901b1681526001600160a01b0390921660048301526024820152604401602060405180830381600087803b158015610cd857600080fd5b505af1158015610cec573d6000803e3d6000fd5b505050506040513d601f19601f82011682018060405250810190610d109190614006565b5060005b600d5460ff1663ffffffff82161015610e7d5763ffffffff81166000908152600b60205260409020546001600160a01b031663a9059cbb610d5d6000546001600160a01b031690565b63ffffffff84166000908152600b6020526040908190205490516370a0823160e01b81523060048201526001600160a01b03909116906370a082319060240160206040518083038186803b158015610db457600080fd5b505afa158015610dc8573d6000803e3d6000fd5b505050506040513d601f19601f82011682018060405250810190610dec91906140c7565b6040516001600160e01b031960e085901b1681526001600160a01b0390921660048301526024820152604401602060405180830381600087803b158015610e3257600080fd5b505af1158015610e46573d6000803e3d6000fd5b505050506040513d601f19601f82011682018060405250810190610e6a9190614006565b5080610e7581614dd7565b915050610d14565b50565b600480546040516311bbb87160e21b81529182018390526000918291829182916001600160a01b0316906346eee1c49060240160206040518083038186803b158015610ecb57600080fd5b505afa158015610edf573d6000803e3d6000fd5b505050506040513d601f19601f82011682018060405250810190610f0391906140c7565b6004549091506001600160a01b03166377fbb66386610f23600185614d71565b6040516001600160e01b031960e085901b1681526004810192909252602482015260440160206040518083038186803b158015610f5f57600080fd5b505afa158015610f73573d6000803e3d6000fd5b505050506040513d601f19601f82011682018060405250810190610f9791906140c7565b600480546040516393fa491560e01b81529294506001600160a01b0316916393fa491591610fd2918991879101918252602082015260400190565b60206040518083038186803b158015610fea57600080fd5b505afa158015610ffe573d6000803e3d6000fd5b505050506040513d601f19601f8201168201806040525081019061102291906140c7565b9250821561103457600193505061103d565b60008093509350505b9193909250565b60025460055460405163e8e7e2d160e01b81526001600160a01b039182166004820152306024820152600092919091169063e8e7e2d19060440160206040518083038186803b15801561109657600080fd5b505afa1580156110aa573d6000803e3d6000fd5b505050506040513d601f19601f820116820180604052508101906108d191906144a3565b60606110d8612428565b6110e28a8a61246a565b82828080601f01602080910402602001604051908101604052809392919081815260200183838082843760009201829052509394506111279250505087890189613f14565b50905060008061113987890189614606565b9150915060006040518060800160405280856001600160a01b0316815260200183600b0b81526020016000600b0b81526020018f6001600160a01b0316815250905061118585826127ea565b6005546040516323b872dd60e01b81523060048201526001600160a01b038781166024830152604482018790529297509116906323b872dd90606401602060405180830381600087803b1580156111db57600080fd5b505af192505050801561120b575060408051601f3d908101601f1916820190925261120891810190614006565b60015b61121457611216565b505b505050509998505050505050505050565b6000546001600160a01b031633146112515760405162461bcd60e51b815260040161076090614981565b600755565b6000546001600160a01b031633146112805760405162461bcd60e51b815260040161076090614981565b63ffffffff9091166000908152600b602052604090206001600160801b03909116600290910155565b60606112b3612428565b6112bd888861246a565b60008060006112cd88888d6125e2565b92509250925060006112f382846bffffffffffffffffffffffff1660056001015461295a565b90508083604051602001611314929190918252600b0b602082015260400190565b604051602081830303815290604052945050505050979650505050505050565b6000546001600160a01b0316331461135e5760405162461bcd60e51b815260040161076090614981565b6113686000612987565b565b6000546001600160a01b031633146113945760405162461bcd60e51b815260040161076090614981565b6005546001600160a01b0316156113e35760405162461bcd60e51b8152602060048201526013602482015272105b1c9958591e481a5b9a5d1a585b1a5e9959606a1b6044820152606401610760565b600580546001600160a01b038089166001600160a01b0319928316811790935560078890556001600160801b03848116908616600160801b026001600160801b0319161760085560048054918816919092161790556040805160608101825285815260006020808301828152838501838152958352600a909152929020815181559151600183015591516002919091015561147d876108d6565b50505050505050565b60606114a0886005546001600160a01b0391821691161490565b15806114b257506114b087612547565b155b156114f65782828080601f01602080910402602001604051908101604052809392919081815260200183838082843760009201919091525092935061152b92505050565b600061150386868b6125e2565b5060408051600b83900b60208201529193500190506040516020818303038152906040529150505b979650505050505050565b600254604051631cd43d1160e31b81526001600160a01b0383811660048301528481166024830152306044830152600092169063e6a1e8889060640160806040518083038186803b15801561158a57600080fd5b505afa15801561159e573d6000803e3d6000fd5b505050506040513d601f19601f820116820180604052508101906115c29190614627565b509095945050505050565b6115f160405180606001604052806000815260200160008152602001600081525090565b506001600160a01b03166000908152600a6020908152604091829020825160608101845281548152600182015492810192909252600201549181019190915290565b6000546001600160a01b0316331461165d5760405162461bcd60e51b815260040161076090614981565b600f80546001600160a01b0319166001600160a01b0392909216919091179055565b8061168c610e1042614d71565b600080516020614e88833981519152546001600160a01b03166000908152600a602052604090206002015410156116f55760405162461bcd60e51b815260206004820152600d60248201526c2163757272656e7456616c756560981b6044820152606401610760565b60055460008052600b602052600080516020614e88833981519152546040516370a0823160e01b81523060048201526117a3926001600160a01b0390811692169082906370a082319060240160206040518083038186803b15801561175957600080fd5b505afa15801561176d573d6000803e3d6000fd5b505050506040513d601f19601f8201168201806040525081019061179191906140c7565b61179e4262057e40614ad4565b6129d7565b506000808052600b602052600080516020614e88833981519152546040516370a0823160e01b81523060048201526001600160a01b03909116906370a082319060240160206040518083038186803b1580156117fe57600080fd5b505afa158015611812573d6000803e3d6000fd5b505050506040513d601f19601f8201168201806040525081019061183691906140c7565b6003546000808052600b602052600080516020614e8883398151915254604051632266eabb60e21b81526001600160a01b0391821660048201523060248201526044810183905260648101859052939450909291169063899baaec90608401604080518083038186803b1580156118ac57600080fd5b505afa1580156118c0573d6000803e3d6000fd5b505050506040513d601f19601f820116820180604052508101906118e49190614662565b509050806118f3575050919050565b600854600090620f424090611911906001600160801b031684614cdb565b61191b9190614b12565b905060006119298284614d71565b905061195a6040518060400160405280600d81526020016c6f757074757442616c616e636560981b8152508561305d565b6119886040518060400160405280600c81526020016b1858dd1d585b105b5bdd5b9d60a21b8152508461305d565b6119b76040518060400160405280600d81526020016c1999595cd0dbdb1b1958dd1959609a1b8152508361305d565b6119e36040518060400160405280600a815260200169191a5cdd105b5bdd5b9d60b21b8152508261305d565b6000808052600b602052600080516020614e8883398151915254611a13919085906001600160a01b0316886130a2565b60008052600b6020908152600080516020614e8883398151915254604080518781529283018690526001600160a01b03909116908201529095507fed4b43d1c43fa6de2432cc50d2bbc8db51d9ce0d2095d0a5cfac618764e9fe589060600160405180910390a160015b600d5460ff1663ffffffff82161015611caa5763ffffffff81166000908152600b6020526040908190205490516370a0823160e01b81523060048201526001600160a01b03909116906370a082319060240160206040518083038186803b158015611ae757600080fd5b505afa158015611afb573d6000803e3d6000fd5b505050506040513d601f19601f82011682018060405250810190611b1f91906140c7565b94508415611c98576008546001600160801b031615611bcc5763ffffffff81166000908152600b6020526040902054611b6590829087906001600160a01b0316896130a2565b63ffffffff82166000908152600b60209081526040918290205482518981529182018790526001600160a01b03168183015290519197507fed4b43d1c43fa6de2432cc50d2bbc8db51d9ce0d2095d0a5cfac618764e9fe58919081900360600190a1611c98565b63ffffffff81166000908152600b6020526040902060020154600654611bf29042614d71565b611bfc9190614cdb565b935084841015611c985763ffffffff81166000908152600b6020526040902054611c3390829086906001600160a01b0316896130a2565b63ffffffff82166000908152600b60209081526040808320548151898152928301939093526001600160a01b039092168183015290519197507fed4b43d1c43fa6de2432cc50d2bbc8db51d9ce0d2095d0a5cfac618764e9fe58919081900360600190a15b80611ca281614dd7565b915050611a7d565b50504260065550919392505050565b600554611cce906001600160a01b03166108d6565b60005b600d5460ff1663ffffffff82161015610e7d5763ffffffff81166000908152600b6020526040902054611d0c906001600160a01b03166108d6565b80611d1681614dd7565b915050611cd1565b6000546001600160a01b03163314611d485760405162461bcd60e51b815260040161076090614981565b600054600160a81b900460ff16611d6c57600054600160a01b900460ff1615611d70565b303b155b611dd35760405162461bcd60e51b815260206004820152602e60248201527f496e697469616c697a61626c653a20636f6e747261637420697320616c72656160448201526d191e481a5b9a5d1a585b1a5e995960921b6064820152608401610760565b600054600160a81b900460ff16158015611dfd576000805461ffff60a01b191661010160a01b1790555b600f80546001600160a01b0319166001600160a01b038b16179055611e2987878a88620186a08861136a565b611e368484600085612007565b600f5460055460408051631dce337960e31b81529051611ed1936001600160a01b03908116936000199391169163ee719bc891600480820192602092909190829003018186803b158015611e8957600080fd5b505afa158015611e9d573d6000803e3d6000fd5b505050506040513d601f19601f82011682018060405250810190611ec19190613ef8565b6001600160a01b03169190613299565b600f5460008052600b6020908152600080516020614e888339815191525460408051631dce337960e31b81529051611f38946001600160a01b0390811694600019949091169263ee719bc89260048083019392829003018186803b158015611e8957600080fd5b60055460408051631dce337960e31b81529051611f84926001600160a01b03169160001991839163ee719bc8916004808301926020929190829003018186803b158015611e8957600080fd5b60008052600b6020908152600080516020614e888339815191525460408051631dce337960e31b81529051611fe8936001600160a01b039093169260001992849263ee719bc892600480840193919291829003018186803b158015611e8957600080fd5b8015611ffc576000805460ff60a81b191690555b505050505050505050565b6000546001600160a01b031633146120315760405162461bcd60e51b815260040161076090614981565b8061206c5760405162461bcd60e51b815260206004820152600b60248201526a085d985b1a5914995c525960aa1b6044820152606401610760565b6001600160a01b0384166000908152600a6020526040902054156120bc5760405162461bcd60e51b815260206004820152600760248201526621756e6971756560c81b6044820152606401610760565b604080516060810182526001600160a01b038681168083526001600160801b038781166020808601918252858701898152600d805460ff9081166000908152600b85528a81208a5181546001600160a01b0319169a1699909917895594516001890180546001600160801b031916919097161790955590516002909601959095558454938252600c905294909420805491851663ffffffff1990921691909117905554909161216c911686613382565b600d805460ff1690600061217f83614dfb565b825460ff9182166101009390930a92830291909202199091161790555060408051606081018252838152600060208083018281528385018381526001600160a01b038b168452600a909252939091208251815592516001840155516002909201919091556121ec866108d6565b505050505050565b60606121fe612428565b6122088a8a61246a565b6005546001600160a01b038b8116911614158061222b575061222989612547565b155b1561226f5782828080601f016020809104026020016040519081016040528093929190818152602001838380828437600092019190915250929350610af792505050565b82828080601f0160208091040260200160405190810160405280939291908181526020018383808284376000920191909152509293506122b29250612690915050565b156122c3576122c08161167f565b90505b6000806122d189898e6125e2565b50915091506122e0838361346b565b604080516080810182526001600160a01b03808516825260006020830152600b84900b92820192909252908d16606082015261231c84826127ea565b9d9c50505050505050505050505050565b6000546001600160a01b031633146123575760405162461bcd60e51b815260040161076090614981565b63ffffffff919091166000908152600b6020526040902060010180546001600160801b0319166001600160801b03909216919091179055565b6000546001600160a01b031633146123ba5760405162461bcd60e51b815260040161076090614981565b6001600160a01b03811661241f5760405162461bcd60e51b815260206004820152602660248201527f4f776e61626c653a206e6577206f776e657220697320746865207a65726f206160448201526564647265737360d01b6064820152608401610760565b610e7d81612987565b6001546001600160a01b031633146113685760405162461bcd60e51b8152602060048201526005602482015264085a1bdcdd60da1b6044820152606401610760565b61247381612547565b156124ca576005546001600160a01b038381169116146124c65760405162461bcd60e51b815260206004820152600e60248201526d085a5b9c1d5d1058d8d95c1d195960921b6044820152606401610760565b5050565b6124d38161359c565b156124c6576001600160a01b038083166000818152600c602090815260408083205463ffffffff168352600b909152902054909116146124c65760405162461bcd60e51b815260206004820152600f60248201526e085bdd5d1c1d5d1058d8d95c1d1959608a1b6044820152606401610760565b60007fa9214cc96615e0085d3bb077758db69497dc2dce3b2b1e97bc93c3d18d83efd3826001600160a01b0316637730599e6040518163ffffffff1660e01b815260040160206040518083038186803b1580156125a357600080fd5b505afa1580156125b7573d6000803e3d6000fd5b505050506040513d601f19601f820116820180604052508101906125db91906140c7565b1492915050565b600080806125f285870187613f14565b50600254604051631cd43d1160e31b81526001600160a01b038781166004830152808416602483015230604483015292955091169063e6a1e8889060640160806040518083038186803b15801561264857600080fd5b505afa15801561265c573d6000803e3d6000fd5b505050506040513d601f19601f820116820180604052508101906126809190614627565b5094989097509095509350505050565b6003546000808052600b602052600080516020614e88833981519152546040516323fc23f360e01b81526001600160a01b03918216600482015230602482015260448101839052919283928392909116906323fc23f39060640160806040518083038186803b15801561270257600080fd5b505afa158015612716573d6000803e3d6000fd5b505050506040513d601f19601f8201168201806040525081019061273a919061406c565b6005546040516370a0823160e01b8152306004820152929650909450600093506001600160a01b031691506370a082319060240160206040518083038186803b15801561278657600080fd5b505afa15801561279a573d6000803e3d6000fd5b505050506040513d601f19601f820116820180604052508101906127be91906140c7565b905060006127cc8385614aa9565b6001600160801b03161180156127e25750600081115b935050505090565b81600080806127f8856135f8565b92509250925060005b600d5460ff1663ffffffff8216101561295057855163ffffffff82166000818152600b60205260409020546128439288929188906001600160a01b0316613a29565b9450612888858263ffffffff166128626000546001600160a01b031690565b63ffffffff85166000908152600b602052604090205487906001600160a01b0316613a29565b600e548751604051630e9ebfbf60e01b81526001600160a01b03918216600482015292975061293c92889263ffffffff8616921690630e9ebfbf9060240160206040518083038186803b1580156128de57600080fd5b505afa1580156128f2573d6000803e3d6000fd5b505050506040513d601f19601f820116820180604052508101906129169190613ef8565b63ffffffff85166000908152600b602052604090205486906001600160a01b0316613a29565b94508061294881614dd7565b915050612801565b5050505092915050565b6000818411612969578161296b565b835b6129759042614d71565b61297f9084614cdb565b949350505050565b600080546001600160a01b038381166001600160a01b0319831681178455604051919092169283917f8be0079c531659141344cd1fd0a4f28419497f9722a3daafe3b4186f6b6457e09190a35050565b60008060006060600080896001600160a01b031663ee719bc86040518163ffffffff1660e01b815260040160206040518083038186803b158015612a1a57600080fd5b505afa158015612a2e573d6000803e3d6000fd5b505050506040513d601f19601f82011682018060405250810190612a529190613ef8565b9450886001600160a01b031663ee719bc86040518163ffffffff1660e01b815260040160206040518083038186803b158015612a8d57600080fd5b505afa158015612aa1573d6000803e3d6000fd5b505050506040513d601f19601f82011682018060405250810190612ac59190613ef8565b6040516308de640f60e11b8152600481018a90529094506001600160a01b038b16906311bcc81e90602401600060405180830381600087803b158015612b0a57600080fd5b505af1158015612b1e573d6000803e3d6000fd5b50505050846001600160a01b031663313ce5676040518163ffffffff1660e01b815260040160206040518083038186803b158015612b5b57600080fd5b505afa158015612b6f573d6000803e3d6000fd5b505050506040513d601f19601f82011682018060405250810190612b9391906146e6565b612b9e906012614d88565b612ba990600a614b69565b6040516370a0823160e01b81523060048201526001600160a01b038716906370a082319060240160206040518083038186803b158015612be857600080fd5b505afa158015612bfc573d6000803e3d6000fd5b505050506040513d601f19601f82011682018060405250810190612c2091906140c7565b612c2a9190614cdb565b6001600160a01b03808b166000908152600a6020526040808220600190810154938f1683529120015491995090612c61908a614cdb565b612c6b9190614b12565b600754909250620f424090612c809082614d71565b612c8a9084614cdb565b612c949190614b12565b9150670de0b6b3a7640000846001600160a01b031663313ce5676040518163ffffffff1660e01b815260040160206040518083038186803b158015612cd857600080fd5b505afa158015612cec573d6000803e3d6000fd5b505050506040513d601f19601f82011682018060405250810190612d1091906146e6565b612d1b90600a614b69565b612d259084614cdb565b612d2f9190614b12565b9150846001600160a01b031663313ce5676040518163ffffffff1660e01b815260040160206040518083038186803b158015612d6a57600080fd5b505afa158015612d7e573d6000803e3d6000fd5b505050506040513d601f19601f82011682018060405250810190612da291906146e6565b612dad906012614d88565b612db890600a614b69565b612dc29089614b12565b604080516002808252606082018352929a5091906020830190803683370190505092508483600081518110612e0757634e487b7160e01b600052603260045260246000fd5b60200260200101906001600160a01b031690816001600160a01b0316815250508383600181518110612e4957634e487b7160e01b600052603260045260246000fd5b6001600160a01b039283166020918202929092010152600f546040516338ed173960e01b81529116906338ed173990612e8f908b90600090889030908e906004016149b6565b600060405180830381600087803b158015612ea957600080fd5b505af1158015612ebd573d6000803e3d6000fd5b505050506040513d6000823e601f3d908101601f19168201604052612ee59190810190613f5e565b506040516370a0823160e01b81523060048201526001600160a01b038516906370a082319060240160206040518083038186803b158015612f2557600080fd5b505afa158015612f39573d6000803e3d6000fd5b505050506040513d601f19601f82011682018060405250810190612f5d91906140c7565b9050886001600160a01b03166345977d03856001600160a01b031663313ce5676040518163ffffffff1660e01b815260040160206040518083038186803b158015612fa757600080fd5b505afa158015612fbb573d6000803e3d6000fd5b505050506040513d601f19601f82011682018060405250810190612fdf91906146e6565b612fea906012614d88565b612ff590600a614b69565b612fff9084614cdb565b6040518263ffffffff1660e01b815260040161301d91815260200190565b600060405180830381600087803b15801561303757600080fd5b505af115801561304b573d6000803e3d6000fd5b50929c9b505050505050505050505050565b6124c6828260405160240161307392919061495f565b60408051601f198184030181529190526020810180516001600160e01b03166309710a9d60e41b179052613b33565b8051819061319f576001546003546040805160008152602081019091526001600160a01b03928316926339255d5b921690635cb398e160e11b906130ef9088908b908b90604481016148f6565b60408051601f19818403018152918152602080830180516001600160e01b03166001600160e01b03199586161790528151600081529081019182905260e086901b90931690526131439291602481016147c6565b600060405180830381600087803b15801561315d57600080fd5b505af1158015613171573d6000803e3d6000fd5b505050506040513d6000823e601f3d908101601f191682016040526131999190810190614153565b5061297f565b6001546003546040805160008152602081019091526001600160a01b0392831692634329d293921690635cb398e160e11b906131e49088908b908b90604481016148f6565b60408051601f19818403018152918152602080830180516001600160e01b03166001600160e01b03199586161790528151600081529081019182905260e086901b909316905261323992918660248201614806565b600060405180830381600087803b15801561325357600080fd5b505af1158015613267573d6000803e3d6000fd5b505050506040513d6000823e601f3d908101601f1916820160405261328f9190810190614186565b5095945050505050565b604051636eb1769f60e11b81523060048201526001600160a01b038381166024830152600091839186169063dd62ed3e9060440160206040518083038186803b1580156132e557600080fd5b505afa1580156132f9573d6000803e3d6000fd5b505050506040513d601f19601f8201168201806040525081019061331d91906140c7565b6133279190614ad4565b604080516001600160a01b038616602482015260448082018490528251808303909101815260649091019091526020810180516001600160e01b031663095ea7b360e01b17905290915061337c908590613b54565b50505050565b6133a9604051806040016040528060058152602001640d2dcc8caf60db1b8152508361305d565b6133d4604051806040016040528060098152602001683234b9ba2a37b5b2b760b91b81525082613c26565b6001546003546040805160008152602081019091526001600160a01b03928316926339255d5b921690636bc3c20560e11b906134179086908890604481016148c6565b60408051601f19818403018152918152602080830180516001600160e01b03166001600160e01b03199586161790528151600081529081019182905260e086901b90931690526107fa9291602481016147c6565b600154604051631fb6491d60e11b81526000916001600160a01b031690633f6c923a9061349c90869060040161476c565b60006040518083038186803b1580156134b457600080fd5b505afa1580156134c8573d6000803e3d6000fd5b505050506040513d6000823e601f3d908101601f191682016040526134f09190810190614503565b9050606060008260a00151511115613521578160a0015180602001905181019061351a91906144bd565b9050613532565b506040805160208101909152600081525b600e54604051634a2f43a560e01b81526001600160a01b0390911690634a2f43a5906135649086908590600401614748565b600060405180830381600087803b15801561357e57600080fd5b505af1158015613592573d6000803e3d6000fd5b5050505050505050565b60007f8aedc3b5d4bf031e11a7e2940f7251c005698405d58e02e1c247fed3b1b3a674826001600160a01b0316637730599e6040518163ffffffff1660e01b815260040160206040518083038186803b1580156125a357600080fd5b60608101516001600160a01b03166000908152600c6020526040812054819081906136359063ffffffff166102196000546001600160a01b031690565b50935061364a9150633b9aca00905083614cac565b600e548551604051630e9ebfbf60e01b81526001600160a01b039182166004820152929450600092911690630e9ebfbf9060240160206040518083038186803b15801561369657600080fd5b505afa1580156136aa573d6000803e3d6000fd5b505050506040513d601f19601f820116820180604052508101906136ce9190613ef8565b90506001600160a01b038116156137245760608501516001600160a01b03166000908152600c602052604090205461370c9063ffffffff16826105f0565b5093506137219150633b9aca00905083614cac565b91505b60008560200151866040015161373a9190614cfa565b905060008082600b0b131561381457600854620f424090613768906001600160801b0316600b85900b614cdb565b6137729190614b12565b90506001600160a01b0383161561380357600854620f4240906137a590600160801b90046001600160801b031682614d49565b6137af9083614cac565b6137b99190614aec565b6137c39086614aa9565b600854909550620f4240906137e890600160801b90046001600160801b031683614cac565b6137f29190614aec565b6137fc9085614aa9565b93506139b1565b61380d8186614aa9565b94506139b1565b61382082600019614c16565b600854909250620f424090613842906001600160801b0316600b85900b614cdb565b61384c9190614b12565b90506001600160a01b038316156139a457600854620f42409061387f90600160801b90046001600160801b031682614d49565b6138899083614cac565b6138939190614aec565b61389d9086614d49565b94506138d36040518060400160405280600981526020016864616f53686172657360b81b815250866001600160801b031661305d565b6040805180820190915260048152630dac2e8d60e31b602082015260085461392d9190620f42409061391590600160801b90046001600160801b031685614cac565b61391f9190614aec565b6001600160801b031661305d565b600854620f42409061394f90600160801b90046001600160801b031683614cac565b6139599190614aec565b6139639085614d49565b935061399f6040518060400160405280600f81526020016e616666696c6961746553686172657360881b815250856001600160801b031661305d565b6139b1565b6139ae8186614d49565b94505b600854620f4240906139cc906001600160801b031682614d49565b8860400151600b0b6139de9190614cac565b6139e89190614aec565b9550613a1f6040518060400160405280600a8152602001697573657253686172657360b01b815250876001600160801b031661305d565b5050509193909250565b60015460035486916001600160a01b0390811691634329d2939116630465a56b60e31b858989613a5d633b9aca008b614aec565b604080516000815260208101909152613a7d949392919060448101614884565b60408051601f19818403018152918152602080830180516001600160e01b03166001600160e01b03199586161790528151600081529081019182905260e086901b9093169052613ad292918660248201614806565b600060405180830381600087803b158015613aec57600080fd5b505af1158015613b00573d6000803e3d6000fd5b505050506040513d6000823e601f3d908101601f19168201604052613b289190810190614186565b509695505050505050565b80516a636f6e736f6c652e6c6f67602083016000808483855afa5050505050565b6000613ba9826040518060400160405280602081526020017f5361666545524332303a206c6f772d6c6576656c2063616c6c206661696c6564815250856001600160a01b0316613c6b9092919063ffffffff16565b8051909150156108505780806020019051810190613bc79190614006565b6108505760405162461bcd60e51b815260206004820152602a60248201527f5361666545524332303a204552433230206f7065726174696f6e20646964206e6044820152691bdd081cdd58d8d9595960b21b6064820152608401610760565b6124c68282604051602401613c3c929190614935565b60408051601f198184030181529190526020810180516001600160e01b031663319af33360e01b179052613b33565b606061297f8484600085613c81565b9392505050565b606082471015613ce25760405162461bcd60e51b815260206004820152602660248201527f416464726573733a20696e73756666696369656e742062616c616e636520666f6044820152651c8818d85b1b60d21b6064820152608401610760565b843b613d305760405162461bcd60e51b815260206004820152601d60248201527f416464726573733a2063616c6c20746f206e6f6e2d636f6e74726163740000006044820152606401610760565b600080866001600160a01b03168587604051613d4c919061472c565b60006040518083038185875af1925050503d8060008114613d89576040519150601f19603f3d011682016040523d82523d6000602084013e613d8e565b606091505b509150915061152b82828660608315613da8575081613c7a565b825115613db85782518084602001fd5b8160405162461bcd60e51b8152600401610760919061476c565b6000613de5613de084614a81565b614a50565b9050828152838383011115613df957600080fd5b613c7a836020830184614dab565b8051613e1281614e5d565b919050565b80518015158114613e1257600080fd5b80516001600160e01b031981168114613e1257600080fd5b60008083601f840112613e50578182fd5b50813567ffffffffffffffff811115613e67578182fd5b602083019150836020828501011115613e7f57600080fd5b9250929050565b600082601f830112613e96578081fd5b613c7a83835160208501613dd2565b8051600b81900b8114613e1257600080fd5b803563ffffffff81168114613e1257600080fd5b805160ff81168114613e1257600080fd5b600060208284031215613eed578081fd5b8135613c7a81614e5d565b600060208284031215613f09578081fd5b8151613c7a81614e5d565b60008060408385031215613f26578081fd5b8235613f3181614e5d565b91506020830135613f4181614e5d565b809150509250929050565b60008060408385031215613f26578182fd5b60006020808385031215613f70578182fd5b825167ffffffffffffffff80821115613f87578384fd5b818501915085601f830112613f9a578384fd5b815181811115613fac57613fac614e47565b8060051b9150613fbd848301614a50565b8181528481019084860184860187018a1015613fd7578788fd5b8795505b83861015613ff9578051835260019590950194918601918601613fdb565b5098975050505050505050565b600060208284031215614017578081fd5b613c7a82613e17565b60008060008060808587031215614035578182fd5b61403e85613e17565b935061404c60208601613e17565b9250604085015161405c81614e72565b6060959095015193969295505050565b60008060008060808587031215614081578182fd5b61408a85613e17565b9350602085015161409a81614e72565b60408601519093506140ab81614e72565b60608601519092506140bc81614e72565b939692955090935050565b6000602082840312156140d8578081fd5b5051919050565b6000602082840312156140f0578081fd5b813567ffffffffffffffff811115614106578182fd5b8201601f81018413614116578182fd5b8035614124613de082614a81565b818152856020838501011115614138578384fd5b81602084016020830137908101602001929092525092915050565b600060208284031215614164578081fd5b815167ffffffffffffffff81111561417a578182fd5b61297f84828501613e86565b60008060408385031215614198578182fd5b825167ffffffffffffffff808211156141af578384fd5b6141bb86838701613e86565b935060208501519150808211156141d0578283fd5b506141dd85828601613e86565b9150509250929050565b600080600080600080600060a0888a031215614201578485fd5b873561420c81614e5d565b9650602088013561421c81614e5d565b955060408801359450606088013567ffffffffffffffff8082111561423f578485fd5b61424b8b838c01613e3f565b909650945060808a0135915080821115614263578384fd5b506142708a828b01613e3f565b989b979a50959850939692959293505050565b600080600080600080600080600060c08a8c0312156142a0578283fd5b89356142ab81614e5d565b985060208a01356142bb81614e5d565b975060408a0135965060608a013567ffffffffffffffff808211156142de578485fd5b6142ea8d838e01613e3f565b909850965060808c0135915080821115614302578485fd5b61430e8d838e01613e3f565b909650945060a08c0135915080821115614326578384fd5b506143338c828d01613e3f565b915080935050809150509295985092959850929598565b6000806000806080858703121561435f578182fd5b843561436a81614e5d565b9350602085013561437a81614e72565b93969395505050506040820135916060013590565b60008060008060008060c087890312156143a7578384fd5b86356143b281614e5d565b95506020870135945060408701356143c981614e5d565b93506060870135925060808701356143e081614e72565b915060a08701356143f081614e72565b809150509295509295509295565b600080600080600080600080610100898b03121561441a578182fd5b883561442581614e5d565b9750602089013561443581614e5d565b9650604089013561444581614e5d565b9550606089013594506080890135935060a089013561446381614e5d565b925060c089013561447381614e72565b8092505060e089013590509295985092959890939650565b60006020828403121561449c578081fd5b5035919050565b6000602082840312156144b4578081fd5b613c7a82613ea5565b6000602082840312156144ce578081fd5b815167ffffffffffffffff8111156144e4578182fd5b8201601f810184136144f4578182fd5b61297f84825160208401613dd2565b600060208284031215614514578081fd5b815167ffffffffffffffff8082111561452b578283fd5b90830190610160828603121561453f578283fd5b614547614a26565b61455083613ecb565b815261455e60208401613ecb565b60208201526040830151604082015261457960608401613e07565b606082015261458a60808401613e27565b608082015260a0830151828111156145a0578485fd5b6145ac87828601613e86565b60a08301525060c083015160c082015260e083015160e08201526101009150818301518282015261012091506145e3828401613e07565b8282015261014091506145f7828401613e07565b91810191909152949350505050565b60008060408385031215614618578182fd5b50508035926020909101359150565b6000806000806080858703121561463c578182fd5b8451935061464c60208601613ea5565b6040860151606090960151949790965092505050565b60008060408385031215614674578182fd5b825191506020830151613f4181614e72565b600060208284031215614697578081fd5b613c7a82613eb7565b600080604083850312156146b2578182fd5b613f3183613eb7565b600080604083850312156146cd578182fd5b6146d683613eb7565b91506020830135613f4181614e72565b6000602082840312156146f7578081fd5b613c7a82613ecb565b60008151808452614718816020860160208601614dab565b601f01601f19169290920160200192915050565b6000825161473e818460208701614dab565b9190910192915050565b6001600160a01b038316815260406020820181905260009061297f90830184614700565b602081526000613c7a6020830184614700565b6001600160a01b03831681526060602082018190526000906147a390830184614700565b8281036040938401526002815261060f60f31b6020820152919091019392505050565b6001600160a01b03841681526060602082018190526000906147ea90830185614700565b82810360408401526147fc8185614700565b9695505050505050565b6001600160a01b038516815260806020820181905260009061482a90830186614700565b828103604084015261483c8186614700565b9050828103606084015261152b8185614700565b6001600160a01b0385811682528481166020830152831660408201526080606082018190526000906147fc90830184614700565b6001600160a01b03868116825260208201869052841660408201526001600160801b038316606082015260a06080820181905260009061152b90830184614700565b60018060a01b03841681528260208201526060604082015260006148ed6060830184614700565b95945050505050565b6001600160a01b038516815263ffffffff841660208201526001600160801b03831660408201526080606082018190526000906147fc90830184614700565b6040815260006149486040830185614700565b905060018060a01b03831660208301529392505050565b6040815260006149726040830185614700565b90508260208301529392505050565b6020808252818101527f4f776e61626c653a2063616c6c6572206973206e6f7420746865206f776e6572604082015260600190565b600060a082018783526020878185015260a0604085015281875180845260c0860191508289019350845b81811015614a055784516001600160a01b0316835293830193918301916001016149e0565b50506001600160a01b03969096166060850152505050608001529392505050565b604051610160810167ffffffffffffffff81118282101715614a4a57614a4a614e47565b60405290565b604051601f8201601f1916810167ffffffffffffffff81118282101715614a7957614a79614e47565b604052919050565b600067ffffffffffffffff821115614a9b57614a9b614e47565b50601f01601f191660200190565b60006001600160801b03808316818516808303821115614acb57614acb614e1b565b01949350505050565b60008219821115614ae757614ae7614e1b565b500190565b60006001600160801b0380841680614b0657614b06614e31565b92169190910492915050565b600082614b2157614b21614e31565b500490565b600181815b80851115614b61578160001904821115614b4757614b47614e1b565b80851615614b5457918102915b93841c9390800290614b2b565b509250929050565b6000613c7a60ff841683600082614b8257506001614c10565b81614b8f57506000614c10565b8160018114614ba55760028114614baf57614bcb565b6001915050614c10565b60ff841115614bc057614bc0614e1b565b50506001821b614c10565b5060208310610133831016604e8410600b8410161715614bee575081810a614c10565b614bf88383614b26565b8060001904821115614c0c57614c0c614e1b565b0290505b92915050565b600081600b0b83600b0b60016001605f1b0383821384841383830485118282161615614c4457614c44614e1b565b6b7fffffffffffffffffffffff1986851282811687830587121615614c6b57614c6b614e1b565b878712925085820587128484161615614c8657614c86614e1b565b85850587128184161615614c9c57614c9c614e1b565b5050509290910295945050505050565b60006001600160801b0380831681851681830481118215151615614cd257614cd2614e1b565b02949350505050565b6000816000190483118215151615614cf557614cf5614e1b565b500290565b600081600b0b83600b0b8281128160016001605f1b031901831281151615614d2457614d24614e1b565b8160016001605f1b03018313811615614d3f57614d3f614e1b565b5090039392505050565b60006001600160801b0383811690831681811015614d6957614d69614e1b565b039392505050565b600082821015614d8357614d83614e1b565b500390565b600060ff821660ff841680821015614da257614da2614e1b565b90039392505050565b60005b83811015614dc6578181015183820152602001614dae565b8381111561337c5750506000910152565b600063ffffffff80831681811415614df157614df1614e1b565b6001019392505050565b600060ff821660ff811415614e1257614e12614e1b565b60010192915050565b634e487b7160e01b600052601160045260246000fd5b634e487b7160e01b600052601260045260246000fd5b634e487b7160e01b600052604160045260246000fd5b6001600160a01b0381168114610e7d57600080fd5b6001600160801b0381168114610e7d57600080fdfedf7de25b7f1fd6d0b5205f0e18f1f35bd7b8d84cce336588d184533ce43a6f76a2646970667358221220fa7f76fc1828b28bfeee0cf2c75dca4e089f1952367c1df78e998c97a750b51a64736f6c63430008040033",
  "linkReferences": {},
  "deployedLinkReferences": {}
}